:020000021000EC
:10F0000000000120B9780200E9780200EB780200E4
:10F01000ED780200EF780200F178020000000000B5
:10F02000000000000000000000000000F378020073
:10F030000000000000000000F5780200F7780200F0
:10F04000F9780200F978020005700200F9780200F0
:10F05000F9780200F9780200F9660200F9780200F6
:10F06000F9780200716A0200F9780200F97802006A
:10F07000F9780200F9780200F9780200F9780200C4
:10F08000CD6A0200D5680200F9780200F978020022
:10F09000F9780200F9780200F5720200F9780200AE
:10F0A000F9780200F9780200F9780200F978020094
:10F0B000F9780200F978020000000000000000006A
:10F0C000F9780200F9780200F9780200F978020074
:10F0D000F9780200F978020000000000000000004A
:10F0E0000000000000000000000000000000000020
:10F0F0000000000000000000000000000000000010
:10F1000000000000000000000000000000000000FF
:10F1100000000000000000000000000000000000EF
:10F40000044B05481B1A062B02D9044B03B11847BD
:10F41000704700BF572A0020542A00200000000037
:10F4200005490648091A891001EBD171491002D02B
:10F43000034B03B118477047542A0020542A002078
:10F440000000000010B5064C237843B9FFF7D8FF41
:10F45000044B13B10448AFF300800123237010BDA7
:10F46000542A0020000000002892020008B5084B32
:10F470001BB108490848AFF300800848036813B976
:10F48000BDE80840CCE7064B002BF9D09847F7E7DA
:10F4900000000000582A002028920200542A002070
:10F4A00000000000154B002B08BF134B9D46A3F531
:10F4B000803A00218B460F461348144A121A00F076
:10F4C00065F80F4B002B00D098470E4B002B00D057
:10F4D00098470020002104000D000D48002802D0AC
:10F4E0000C48AFF3008000F02BF82000290001F059
:10F4F00067FF00F011F800BF0000080000000120C5
:10F500000000000000000000542A002004670020D2
:10F51000000000000000000008B5074B044613B1CE
:10F520000021AFF30080054B1868836A03B1984748
:10F53000204600F033F800BF00000000C483020042
:10F5400070B50E4B0E4CE41AA41000251E46A542C1
:10F5500004D056F8253098470135F8E708F024FF25
:10F56000084C094BE41AA41000251E46A54204D0FD
:10F5700056F8253098470135F8E770BD4C2A002031
:10F580004C2A0020502A00204C2A00200244034626
:10F59000934202D003F8011BFAE77047FEE700BF71
:10F5A0002DE9F3410646008828B1752813D00023C1
:10F5B0003380032050E02A4C2A4905F065FDA368FA
:10F5C000012181209847A369012181209847752353
:10F5D0003380012040E0224B9A4220D15368002022
:10F5E000984704460028F2D11F4D204829681D4F36
:10F5F00002F042F82B6801332B602B689C42E6DA5C
:10F600000023009307EB0410194B1A4A43F21631FA
:10F6100001F008FD184B43F824000134EDE703F135
:10F6200010018A42D3D15B69002098470446002824
:10F63000CDD10D4D104F28600146104802F01CF846
:10F64000A0462B689C42C2DA57F8240001F0CAFB9E
:10F6500047F824800134F4E702B0BDE8F08100BF30
:10F660001C8F0200702A0020C02A0020D4830200D0
:10F6700081F60100FA830200B02A0020068402000D
:10F6800073B50023054616460193084611B101A93A
:10F6900000F058FE0146144C042E1CD8DFE806F09A
:10F6A000030310131600019B1B78312B237802D122
:10F6B000013323700FE073B10B4A013B13700AE072
:10F6C000019A0A4805E0019A094802E0AA7F697F89
:10F6D000084801F0D1FF2178074801F0CDFF2078DC
:10F6E00003F048FA02B070BD702800202C8402009C
:10F6F0004884020062840200A784020010B50388D7
:10F7000004462BB1932B12D000230380032010BD9D
:10F7100001F0C2FD114B012181209B6A98471049DD
:10F72000104801F0DFFD93232380012010BD0E4B14
:10F730001B788B42F7D10D4B9A42F4D153680020CD
:10F7400098470028EFD10A4801F096FF042003F003
:10F7500023FA044B1B6A9847E5E700BF1C8F0200A1
:10F76000FA830200882800200D5F00203C8F0200F1
:10F77000BA840200014B0248DB6D1847F889020089
:10F78000882800202DE9F0410B4C0D461F46D4F887
:10F79000B410E369284616469847084B084A1B6888
:10F7A000E46C3946304601F09FFF3146024623465D
:10F7B0002846BDE8F0411847F88902008428002057
:10F7C000E684020073B5104C0E46A36C01A998475D
:10F7D000019B1B78A3F13002012A25460ED8312B5C
:10F7E0004FF0040002D103F0C7F901E003F0CCF9B7
:10F7F000EB6D064898476B69E96E01E06369A16F9C
:10F800003046984702B070BDF88902008828002071
:10F810000346014400208B4204D013F8012B42EA36
:10F820000020F8E7704770B50C461E462368114665
:10F830007BB102689DF81050D554256801352560CC
:10F8400000683246284408F055FD2368334423609D
:10F8500070BD0260266070BD2DE9F8439846002314
:10F860000746C8F8003010460D46914608F06BFD7B
:10F870003D4404463E4633199D421FD9BE4203D043
:10F8800016F8013C262B17D1335D3D2B14D12246AF
:10F890003146484608F05FFD70B9013434442A1BF4
:10F8A0002621204608F0BCFCC8F80040002808BF0C
:10F8B0002846001BBDE8F8830136DCE70020BDE8E0
:10F8C000F8830C2810B501D8C3B204E0B0F5867FE8
:10F8D00094BF0D230E231B010C29DBB201D8CCB23F
:10F8E00004E0B1F5867F94BF0D240E242343B0F5C8
:10F8F000867F137008D96FF4867403191B0A0D38BC
:10F9000090705370022005E00C2885BF0D385070B0
:10F9100000200120B1F5867F07D96FF48673141893
:10F92000CB181B0A6370023002E00C2902D90130A7
:10F930000D391154013010BD2DE9F84313F07F4902
:10F940004FEA13468E4615461C4614BF012100217E
:10F950004FEA064806B1013134F0FF0701D001310A
:10F9600000E004B101312A46CEEB0000FFF7A9FF09
:10F97000B9F1000F02D0230E2B540130B8F1000F63
:10F9800001D02E5401301FB1230A2B54013000E066
:10F990000CB12C540130BDE8F883F8B5069C401A30
:10F9A000214616461F46FFF78CFF2246054639467C
:10F9B000301808F094FC6019F8BD2DE9F74F9DF858
:10F9C00034B0DDF8308081468E4692461F46BBF14A
:10F9D000000F25D0002408F1010225460092009A6C
:10F9E000A24224D33A5D5A4507EB040601D0A04554
:10F9F00014D1F61A0AEB0502CEEB09003146019349
:10FA0000FFF75FFF019B054419460AEB05003246EC
:10FA1000013408F064FC35443B19CE460134DEE77E
:10FA2000CDF8308003B0BDE8F04FFFF7B6BF2846F1
:10FA300003B0BDE8F08F0000002210B51146044667
:10FA4000104605F071F9044B0482186003F0B5F913
:10FA5000024B188010BD00BFC42A0020CA2A002013
:10FA6000024B1888013080B218807047CA2A0020E3
:10FA7000F8B504460F4616461D46A4220021FFF79E
:10FA800085FD6771A6712581F8BD0000F7B50446B4
:10FA900001232160037100230B700E460168007979
:10FAA0000A7842EA80120A702068627901781201AD
:10FAB00002F030020A430270A27A206802F00F01BD
:10FAC00002780A4302702268A17951702289216864
:10FAD000120A8A7022682189D170A279002A00F066
:10FAE0004081224652F80A5B0435A17A8B4205D246
:10FAF00012F8011F05F8011B0133F6E7E37C03F060
:10FB0000020303F0FF015BB194F86A3000932A46C8
:10FB1000002104F16B030120FFF73FFF01210544A1
:10FB2000E37C1A0708D5236C00932A46636C0320F4
:10FB3000FFF733FF03210544E37CDB060AD594F885
:10FB4000243000932A4604F125030420FFF725FF03
:10FB500004210544E37C9F0606D52A4600230520A0
:10FB6000FFF7EAFE05210544E37C580606D52A4640
:10FB7000636E0620FFF7E0FE0621054494F913307A
:10FB8000002B07DA2A46B4F850300720FFF7D4FEDE
:10FB900007210544237DDA070AD52F230193A36C9F
:10FBA00000932A46E36C0820FFF707FF082105446D
:10FBB000237D1B070AD52F230193E36D00932A466B
:10FBC000236E0B20FFF7F9FE0B210544237DDF0692
:10FBD00006D52A46A38B0C20FFF7AEFE0C21054468
:10FBE000237D580606D52A46236A0E20FFF7A4FE79
:10FBF0000E21054494F91430002B0CDA26230193CE
:10FC0000D4F8943000932A46D4F898300F20FFF7A8
:10FC1000D4FE0F210544637D9A0707D52A46B4F820
:10FC200068301120FFF788FE11210544637DDB0653
:10FC30000AD526230193636D00932A46A36D1420F1
:10FC4000FFF7BBFE1421054494F91530002B1CDA94
:10FC5000636F94F878201B010AB143F00803B4F8ED
:10FC60007A00002700097A1C400892B201D017469A
:10FC7000F9E7002A18BF3A4602F00F021343172093
:10FC80002A46FFF759FE17210544A37D1F071DD5FE
:10FC9000D4F8803094F884201B010AB143F00803A3
:10FCA000B4F88600002700097A1C400892B201D0FF
:10FCB0001746F9E7002A18BF3A4602F00F0213432D
:10FCC0001B202A46FFF738FE1B210544A37DD806DA
:10FCD00007D52A46D4F88C301C20FFF72DFE1C21B6
:10FCE0000544E37D1A0708D5236B00932A46636B0E
:10FCF0002320FFF752FE2321054494F91730002BEF
:10FD000008DAA36B00932A46E36B2720FFF745FE32
:10FD100027210544A37EDB0606D52A46D4F8903079
:10FD20003C20FFF709FE05442368EB1A3E2B11DC4B
:10FD3000B4F89E3013B1FF2305F8013B2846B4F810
:10FD40009E20D4F8A01008F0D5FAB4F89E00AD1BA0
:10FD5000284407E0044B054A0025256028461A6020
:10FD600000E0042003B0F0BDAC2800204989020067
:10FD70002DE9F041104D2F68944688460446BE4652
:10FD800000F1100220686168764603C60834944288
:10FD9000B646F7D11A4661463846A7F8128005F0F4
:10FDA000CFF9102200212868FFF7F0FB2B68002212
:10FDB0005A82BDE8F08100BFC42A00202DE9F04F2F
:10FDC0000446884685B000219246A422FFF7DEFB58
:10FDD000C4F8008098F800904FEA991984F80490CC
:10FDE00098F80030C3F30113637198F8002002F013
:10FDF0000F02A27298F80130A37198F8021098F8D7
:10FE00000330B9F1010F43EA0123238101D0A74A4E
:10FE100002E0082A04D9A64AA64B80201A6041E1D4
:10FE200008F10405294604F10B0008F058FA0822ED
:10FE3000002104F11300FFF7A9FBA67A08EB0A03DF
:10FE40003544002703934FF0100B039B9D4280F035
:10FE500028812E7806F0F003F02B15D10135C8EB80
:10FE60000508C8EB0A0A1FFA8AFABAF1300F8ABFEE
:10FE70003023A4F89EA0A4F89E30B4F89E30C4F8B5
:10FE8000A0500020E8540DE133090D2B06F00F06B9
:10FE900003D16B7802350D330AE00E2B03BFAB782C
:10FEA0006A7803F20D13013504BF03EB0223033517
:10FEB0000D2E03D115F8016B0D3608E00E2E06D17C
:10FEC0006A782E7802F20D1202EB062602351F44E4
:10FED00004EBD70107F0070309FA03F2CB7C0E2FDE
:10FEE00043EA0203CB7470D02BD8062F00F0B38006
:10FEF00018D8032F00F088800CD8012F40F0C8805C
:10FF0000082E324628BF082284F86A20294604F1C8
:10FF10006B0071E0042F5ED0052F40F0B98084F8AB
:10FF20009C90BCE0082F00F0828070D30B2F75D01E
:10FF30000C2F40F0AD8031462846FFF769FCA083C6
:10FF4000ADE01B2F00F08D8028D8112F4DD00BD89D
:10FF50000F2F40F09D80262300932A46334604F15C
:10FF6000940104F198006AE0142F6BD0172F40F031
:10FF70008F8031462846FFF74BFCC0F3C00300F0EA
:10FF8000070284F878300BFA02F3A4F87A3020F0F4
:10FF90000F0393400009E367606780E0232F2ED0B2
:10FFA00008D81C2F74D131462846FFF731FCC4F81D
:10FFB0008C0074E0272F22D03C2F69D1314628468F
:10FFC000FFF726FCC4F8900069E031462846FFF7A9
:10FFD0001FFC206263E0082E324628BF082284F806
:10FFE0002420294604F1250006E031462846FFF783
:10FFF0000FFCA4F8680052E008F071F94FE02D4BB7
:020000022000DC
:100000002D4A1A60A5204DE06564266447E031461C
:100010002846FFF7FDFBA4F8500040E02F23009393
:100020002A46334604F15C0104F1600007E02F2307
:1000300000932A46334604F1480104F14C00FFF7CF
:10004000F2FB2CE0262300932A46334604F15401A8
:1000500004F15800F3E731462846FFF7D9FB606604
:100060001DE031462846FFF7D3FBC0F3C00300F084
:10007000070284F884300BFA02F3A4F8863020F0EB
:100080000F0393400009C4F88830C4F8800006E0EC
:10009000FB0704D5074B094A1A60822002E0354469
:1000A000D3E6002005B0BDE8F08F00BF78890200DC
:1000B0008F890200AC280020B4890200DB8902008D
:1000C000134690F91420002A06DA0A46D0F8941054
:1000D000D0F89800FFF7C0BB0020704710B40C4662
:1000E000B0F89E10134631B12246D0F8A0005DF85A
:1000F000044BFFF7B1BB08465DF8044B7047FF297E
:100100009ABF817101200020704710B5082A04466B
:1001100028BF082282720B3008F0E1F8A07A10BDE7
:10012000027D02F0100202F0FF031AB1838B0B6014
:100130000120704718467047037D818343F0100308
:10014000037501207047427D02F0020202F0FF03B6
:1001500022B1B0F868300B60012070471846704734
:10016000037D5B064CBF036A3C230B600120704794
:10017000037D016243F04003037501207047082AA4
:1001800010B528BF0822044680F82420253008F046
:10019000A6F8E37C94F8240043F01003E37410BD48
:1001A000C27C02F0020202F0FF032AB100F16B03ED
:1001B0000B6090F86A00704718467047C07CC0F327
:1001C00040107047C27C02F0080202F0FF031AB12F
:1001D000436C0B60006C704718467047027D02F05C
:1001E000080202F0FF031AB1036E0B60C06D704786
:1001F0001846704710B504460846013103782F2B86
:10020000FAD0206608F09FF8237DE06543F00803EC
:10021000237510BD90F91430002BBDBFD0F8983075
:100220000B60D0F894000020704710B504460846D3
:10023000013103783F2BFAD0A06508F084F8637D84
:10024000606543F01003637510BD70B504460D463C
:100250002B782F2B05F1010201D11546F8E73F213C
:10026000284608F062F8064630B1411C761B20464D
:10027000FFF7DBFFA66403E0284608F064F8A064FB
:10028000A06CE56418B1237D43F00103237570BDB4
:10029000C27C02F0400202F0FF031AB1436E0B6011
:1002A0000120704718467047C37C416643F0400305
:1002B000C3740120704730B590F91550039C002D90
:1002C0000EDA09B1456F0D6012B190F87810117017
:1002D00013B1B0F87A201A8024B1C36F236001E013
:1002E000002030BD012030BD10B5A3F11004B4F5DD
:1002F000FE6F10D8B1F5801F0DD2A0F87A30437D83
:100300004167003218BF012263F07F0380F8782034
:100310004375012010BD002010BD827D02F0100247
:1003200002F0FF0322B1D0F88C300B60012070473F
:1003300018467047837DC0F88C1043F01003837516
:1003400001207047D0F8A0300B6013B1B0F89E00C8
:10035000704718467047302A28BF3022C0F8A010D6
:10036000A0F89E2010467047014B1860704700BFF0
:10037000182C002080790123013803FA00F0C0B264
:10038000704700002DE9F04F038887B0814633B1F4
:10039000B3F5AD7F13D0002303800320A9E1A64865
:1003A000A64900F09FFF00F0B7F943F21630FFF7BF
:1003B00043FB4FF4AD73A9F80030012099E1A04B45
:1003C0001B788B4240F08F819E4D00232B709E4BFB
:1003D0001B789807EDD59D4E9D4B9E4C31681A8831
:1003E0002046FFF7EBFCB046074628709A4E0028DF
:1003F00040F01A81A379013B032B00F2D880974B80
:1004000097491B7820892833CA5A083100F08EF9A1
:100410003060002800F0C5802023ADF80A306379F1
:100420000397049705971BB923894522022104E00D
:10043000FFF716FB4522034601218A48FFF718FB08
:10044000A27A1AB188498748FFF75FFE04AB009390
:1004500000220DF10A0303A97E48FFF72CFF40B1EB
:10046000BDF80A30202B28BF2023ADF80A30049BAA
:1004700005937E4BD3F800A0BAF1000F00F08D80F9
:100480003268784FDFF8CCB1BDF80A3005A9009189
:10049000743239465846D047BA4600286DD02B787A
:1004A000002B40F0B8809BF8163019070DD597F94E
:1004B0000630002B09DBBB7D1A0706D4614BA12255
:1004C0001A706B4B6B4A1A6057E094F91530059A15
:1004D000002B3FDA049B9A4221D1BAF89E10614F5B
:1004E0008A4204D38223BB710F22634930E0BDF8F6
:1004F0000A308A1A9A4294BF002201220399384690
:10050000FFF7F2FE0499B7F89E30BDF80A20D7F83D
:10051000A0005B1A9A4228BF1A46014418E0013233
:100520000399BDF80A3006D1BAF89E209A4294BFCA
:100530000022012200E001224A4F3846FFF7D4FE94
:10054000BDF80A20BAF89E30934216D9D7F8A01009
:10055000384610E0A2B1013218BF01220021202349
:100560004048FFF7C1FEBAF89E20DAF8A0103D48D7
:100570001F2A88BF2022FFF7EEFE2B78002B4AD1DE
:100580003768384807F13601FFF780FA80B2B8863D
:10059000002840D1C1232B703DE0A1232B70374AA6
:1005A00002E0A323364A2B70314B1A6033E06368B4
:1005B00023F07F4323F0FF0313B9C3232B700BE019
:1005C0006379032B08D1254B25481B7822892833D2
:1005D000C15A083000F0DCF9208900F02BF93060B6
:1005E00040B1C76AD0F830A000F0C2F817B119497D
:1005F0005046B847002333606379164A012B0AD866
:10060000D37C5B0607D5154B15481B782833C15A98
:10061000083000F0A9FC2B783BB9306800283FF483
:10062000C8AE00F0BBF8C4E62B783068C22B29D1E5
:1006300000F09EF8BDE600BFD8280020048B020021
:10064000C4660020C82A0020206400202C640020FA
:10065000105F0020CC2A0020702B00208035002065
:10066000205F0020742B0020D72A0020182C0020A7
:10067000AC280020158B0200258B0200358B020070
:10068000468B020000F074F82A781B4BC32A03D172
:1006900000221A70032104E0BF2A84BFA0221A702E
:1006A00002212A7823891548FFF7E2F9144B1C68C8
:1006B000204607F048FE214602461048114CFFF73D
:1006C0004AFE114BD8F800501B780C4828332946B5
:1006D0001E5BFFF7DBF92A4683B2314604F10800BE
:1006E000FFF746FB65E688297FF463AE00F0B0F8BB
:1006F0005FE607B0BDE8F08FC82A0020CC2A0020B2
:10070000AC280020205F0020803500200021014817
:1007100002F068B9B0280020024B1A68024B1A6038
:10072000704700BFC8320020202C0020F8B50746D3
:100730000D480D46164602F008FB044690B1002312
:1007400003768780294600F11A0305F1100251F85B
:10075000040B43F8040B9142F9D166852146034806
:1007600002F0C4FA2046F8BDC02800201C2C00204E
:1007700010B5044660B1083002F004F8214605487F
:1007800002F0A1FA21460448BDE8104002F0F1BA97
:1007900010BD00BF1C2C0020C02800202DE9F04116
:1007A000044600F11A07838E418D00F13602384667
:1007B000FFF7DEFA94F83650C5F3011575BB237EBA
:1007C000032B1AD853B902F0F8FAC023B0FBF3F2A6
:1007D00002FB130000F28110E06002E0E3685B00BE
:1007E000E360124D124B2E681B682B6004F1080069
:1007F00001F0B2FF2E60BDE8F081E66A618DD4F8A9
:100800003080384600F04AF82046FFF7B1FF56B175
:10081000294640463346BDE8F04118472046BDE82A
:10082000F041FFF7A5BFBDE8F08100BFC83200204E
:10083000202C002010B50446044802F03AFA20B1FA
:100840008388A34201D00068F9E710BD1C2C00206A
:1008500010B5094802F02DFA044664B104F108000D
:1008600001F083FF28B1237E013323762046FFF772
:1008700095FF2468F1E710BD1C2C002010B501463F
:100880000446044802F075FA21460348BDE81040CA
:1008900002F019BACC280020BC2F0020F8B506467B
:1008A0000C480F4602F005FA002504467CB11022E0
:1008B000314604F1180007F003FD30B9238DBB4227
:1008C00003D12046FFF7DAFF01352468EEE728461A
:1008D000F8BD00BFBC2F00202DE9F84307461348A0
:1008E000884691461E4602F0E4F900250446D4B13C
:1008F0001022394604F1180007F0E2FC88B9238D74
:1009000043450ED194F82A30B3420AD132464946C3
:1009100004F12B0007F0D4FC18B92046FFF7AEFF16
:1009200001352468E3E72846BDE8F883BC2F0020A2
:100930002DE9F843074615488946904602F0B9F973
:1009400000250446F4B11FB9261D46450BD113E01E
:100950001022394604F1180007F0B2FC80B9238D4B
:100960004B450DD1F0E7304607F0EDFC414602461D
:10097000304607F0A5FC18B92046FFF77FFF013588
:100980002468DFE72846BDE8F88300BFBC2F0020BD
:100990002DE9F04106460F480F46904602F089F9CE
:1009A0000025044694B11022314604F1180007F0E6
:1009B00087FC48B9238DBB4206D1A38E434503D1A2
:1009C0002046FFF75BFF01352468EBE72846BDE8CA
:1009D000F08100BFBC2F00202DE9F0478046DAB03F
:1009E00040680D4607F0AFFC13220446D8F8041007
:1009F00003A807F0C5FC122C07DC35B103ABC4F12A
:100A000013022946181907F0BBFC00252B46452286
:100A1000012108A88DF81F50FFF72AF82B46012264
:100A2000294631A8FFF724F803A931A8FFF7E2FB14
:100A300003A807F088FC81462E4802F03AF94FF0EF
:100A4000140A0446002C51D0261D304607F07BFCCA
:100A5000814509D048DA98F80830DB0644D504EB24
:100A600009031B792F2B3FD14A46314603A807F0D3
:100A700072FC002838D1FEF7F3FF228D04F1180133
:100A8000FFF754FE064678B3A26B92FBFAF30AFB1B
:100A900013230BB98DF82530B388A386B388ADF83E
:100AA000283000953023D8F8107006F1740208A998
:100AB00031A8B8479DF92630002B05DBA16B4B1CF4
:100AC000A36308A8FFF7F0FB94F82A2004F12B0198
:100AD00008A8FFF71AFB06F1360108A8FEF7D6FFB3
:100AE000B0863046FFF75AFE2468ABE75AB0BDE83F
:100AF000F08700BFBC2F00200021FFF76DBF000072
:100B00002DE9F74F8B79012B15466AD192F9063002
:100B1000002B66DBCB7C5B0663D54E6E002E46D188
:100B2000314BDFF8D0A01B78D1F860B08F7AD1F8C4
:100B30005C9028335A4633F80A800AF1080001F124
:100B40000B0341460193FFF7F3FE284802F0FDF83E
:100B5000044600283BD0B9F1130FA8BF4FF013098A
:100B60004A465946043007F0BAFB04EB090304F186
:100B7000180E1E710AF108030FCB8EE80F003A46DB
:100B80000199A4F8288084F82A7004F12B0007F05A
:100B9000A6FB2146A686164802F0A8F8A16B2846B7
:100BA0004B1CA36303B0BDE8F04FFFF77DBB012EE4
:100BB00017D10D4B0F481C788B7A283401F10B02AA
:100BC000015B083003B0BDE8F04FFFF785BE0A496E
:100BD000A32310222846AB7103B0BDE8F04FFFF706
:100BE000BABB03B0BDE8F08F80350020CC280020D0
:100BF000BC2F0020205F00206A8B02002DE9F84FF7
:100C00000A9F8B4691461E4600F094FB02F051F875
:100C1000002480462546B8F1000F77D04DB13B68DF
:100C20009D4205D3B4423EBF2C2309F80430013461
:100C300001353B689D4205D3B4423EBF3C2309F8D1
:100C4000043001343A686B1C934205D3B4423EBF72
:100C50002F2309F804300134D8F8040007F073FB9F
:100C600002353B6805EB000A9A4510D9D8F80420F4
:100C70005B1B711C002BACBFD318131C091B09EBA9
:100C80000400334A00F030FD0444A6423ED93B68DC
:100C90009A4505D3B4423EBF3E2309F804300134DF
:100CA000D8F80C300AF101053BB31B782BB33B6835
:100CB0009D4205D3B4423EBF3B2309F804300134C2
:100CC000D8F80C0007F03FFB0AF1020A3B680AEB78
:100CD00000059D4211D9CAEB030AD8F80C301C4A12
:100CE000711CBAF1000FA8BF5344091B09EB0400A3
:100CF00000F0FAFC0444A64209D3B44203D93A688E
:100D00002B1B934203D8D8F8008084E74CB14946A6
:100D100022465846FFF71FFB28215846FFF70CFADA
:100D200009E045B182215846FFF7E9F90F22094948
:100D30005846FFF710FBB8F1000F04D14FF0FF3316
:100D40003B60BDE8F88F3B681E443E60BDE8F88F0D
:100D5000E6840200258B020038B50C46054620B912
:100D60000E4800F089FC042038BD0D4800F084FCDA
:100D7000AB79413B3E2B04D90A4800F07DFC0320AF
:100D800038BDEB7C5B0604D4074800F075FC0220FC
:100D900038BDB4FA84F0400938BD00BF818B020031
:100DA0008E8B02009E8B0200B38B02002DE9F04176
:100DB0000A4D0B4C0E461746014600222846FEF708
:100DC00057FE21682846FEF761FE226883B2394645
:100DD0003046BDE8F041FEF7CBBF00BFC42F002076
:100DE0002C64002010B50446837F427F8169064849
:100DF00000F042FC2146054801F0BBFF21460448B3
:100E0000BDE8104001F05FBFD48B0200FC28002039
:100E1000C02F0020F8B50F4604460A4800F02CFC0D
:100E200001213846E66AFFF797FF05461EB10246E4
:100E300039462046B04725B12046BDE8F840FFF7C7
:100E4000D1BFF8BDFF8B020070B505460C480E46B9
:100E500001F02FFF04468CB16A782978094800F028
:100E60000BFC237FB34201D02468F4E732462946C5
:100E700004F11D0007F024FA0028F5D1204670BDCA
:100E8000C02F0020248C02002DE9F843804616482C
:100E90008946164601F00DFF0025044604B331468D
:100EA000124800F0E9FB10224146201D07F008FA25
:100EB000A0B9A38A4B4511D1A769BE4204D12046EF
:100EC000FFF790FF013509E0384607F03CFA31465C
:100ED0000246384607F0F4F90028F0D02468DDE730
:100EE0002846BDE8F88300BFC02F0020618C0200B7
:100EF0002DE9F843089E9046324689461F4605462E
:100F0000FFF7C2FF154801F020FF044618B38661C1
:100F10002A46061D05F1100310685168354603C5C1
:100F200008329A422E46F7D13A464146A4F8149028
:100F3000277704F11D0007F0D2F9099BE3620A9BB1
:100F4000A362A169A37F627F054800F095FB21465B
:100F5000044801F0CBFE2046BDE8F883FC280020C1
:100F6000768C0200C02F0020F7B5144606462248B2
:100F70000F4600F081FBA57A204800F07DFB0DB9FB
:100F80001F482DE01F4800F077FB294604F10B00B5
:100F9000FFF75AFF054648B91B4800F06DFB23894F
:100FA0003A4631460320FFF701FF22E063792BB96F
:100FB00023893A4631460220FFF7F8FEEB6AC3B1B7
:100FC00000212046FFF7C8FE012806460CD101A9E2
:100FD0002046FFF75DF9019B2A6B9A4203D10B482B
:100FE00000F04AFB05E02B63EB6A324621462846B7
:100FF000984703B0F0BD00BF9F8C0200BB8C02007D
:10100000CA8C02000F8D0200268D02006F8D020037
:10101000034B1A7801321A7003600120704700BF39
:101020003C3100202DE9F043AFB00E469046054616
:101030009946FEF715FD01220346002105A8FEF79B
:1010400017FD414605A8FFF7D5F8002105A8FFF7D1
:101050002BF904A8FFF7DCFF08280246049928BFF3
:10106000082207460DF11F008DF81E2007F037F902
:1010700032462946BDF81C00FFF758FB0446F8B17C
:10108000369B029328468DE800033B46049A31467E
:10109000FFF72EFF054660B10D4B2063E36204F1BC
:1010A000360105A8FEF7F2FCA0862046FFF776FB86
:1010B0000AE0084800F0E0FA2046FFF759FB03E099
:1010C000054800F0D9FA254628462FB0BDE8F08340
:1010D000150E0200858D0200B48D020070B50288E5
:1010E000C02A054609D0D02A27D082B9214B8521B4
:1010F000186801F04FFCC02307E085290BD11E487A
:1011000001F0D7FD044644B9D0232B8003E000232F
:101110000380032070BD012070BDE3695BB1A2684C
:101120004AB163681548596800F0A6FAA16804F14D
:101130000C0001F0FFFA2468E5E78829E4D10E48A5
:1011400001F0B7FD0446002CDED0A36883B104F1A2
:101150000C06304601F009FB50B16368A26859687B
:10116000074800F089FAE3699847304601F0EBFA46
:101170002468E8E7C832002040310020DA8D020000
:10118000FE8D02002DE9F04F85B00E463F4D04A9BB
:101190009A46002341F8043DEB689146074698477C
:1011A00080463B4801F085FD0446002C57D060681E
:1011B00007F0C9F88045024607D04EDD237AD906EC
:1011C0004BD5039B1B5C2F2B47D10399606807F01D
:1011D000C2F8002841D12B6938469847237A6168C4
:1011E000804602462B4800F047FA18F0010F04D061
:1011F000D4F810B0BBF1000F0FD118F0020F04D0DB
:10120000D4F814B0BBF1000F07D118F0040F0CD0C4
:10121000D4F818B0BBF1000F07D00E9B00934A46DC
:10122000534631463846D84720E018F0080F0CD016
:10123000D4F81C80B8F1000F07D00E9B00934A46EB
:10124000534631463846C04710E06B69D5F88C10DC
:10125000304698470020012414E02468A5E76B6914
:10126000D5F888103046984701200BE0237A5B06BA
:1012700006D520462B6E3246394698470120EAE7CC
:1012800001200446204005B0BDE8F08FF889020037
:10129000443100202E8E020038B50C4B1C7824B14E
:1012A0000B48BDE8384000F0E7B90A4D0A48012272
:1012B0001A7001F0FBFCAB68084898476B689847C8
:1012C00021460748BDE8384001F08CBB483100207A
:1012D000528E0200F889020044310020851102007C
:1012E0000829002010B50446416001460D4801F070
:1012F000FDFC61680C4800F0BFF994F90830002B40
:101300000FDA216ACB6963B18B6853B14B68074828
:101310005A6800F0B1F9216A0548BDE8104001F0B3
:10132000E5BC10BD44310020908E0200A08E02006A
:1013300040310020004870474431002048DF7047AA
:1013400010B5038804462BB1572B0BD00023038024
:10135000032010BD4021174801F0ECF957232380EA
:10136000012010BD144B1B788B4209D1114801F0AC
:1013700009FA012001F008FC022001F0FDFBEDE775
:101380000E4B1B788B4207D140210A4801F0D2F95D
:10139000022001F0F9FBE1E78829DFD1054801F0DF
:1013A000E4F90028DAD0034801F0CDF9012001F07A
:1013B000F3FBD3E7943100208D5900208C59002095
:1013C00013B5002348223749082005F053FF18B110
:1013D0000022114605F0DAFE05F0A4F808B905F080
:1013E00077F801F0BDFB00F00BFD01F01FFB00F0F2
:1013F00003FE01F065FA002001F0FAFC00F0C8FDE0
:10140000294800F0A7FD01F03FFC284800F034F91E
:101410000021274801F0E6FA01F0C4F801F0D6F8FF
:1014200000F050FD234B1860234B01221A7000F08E
:101430001FFE224800F080FE04F046F8684600F0E7
:101440004FFE684603F0A4FE082269461C4806F0D9
:1014500046FF1B4803F0FCFD1A4800F00DF900217F
:10146000194801F0BFFA0021184801F0BBFA002129
:10147000174801F0B7FA174801F04AF800F0D8FD14
:1014800000F0A4FE0D49144800F0F6F801F030FA1F
:10149000044600F0D5FD14F0FF0FF7D1FFF74EFF23
:1014A000F4E700BF4C310020452C0200C88E02003A
:1014B00050290020DC5E0020D05E0020E28E020079
:1014C000185F00202A84020018290020082A002022
:1014D00070290020C8830200EB8E02000346802B97
:1014E00037B51046A2F10D0402D0812B16D02BE0A7
:1014F000002203238DF806208DF8072001A9144A45
:101500008DF804308DF8053005F016F811480421E7
:1015100000EB041001F0A0FA012016E00E4D49B1D5
:10152000012105F071F82B68012000FA04F423432F
:101530002B600AE005F0B4F82B68012000FA04F4EF
:1015400023EA04042C6000E0002003B030BD00BF9B
:1015500075150200A8310020A43100201022FFF7E9
:10156000BDBF0F22FFF7BABF0E22FFF7B7BF0D2294
:10157000FFF7B4BF70B5A0F10D05114C2D012C443F
:101580000646204601F07AFAC0B10421204601F057
:1015900063FA304605F0A6F8064620B900F04EFC86
:1015A000E660A06004E000F049FCA368C01AE060B7
:1015B00004482844BDE8704001F0C4BC70BD00BFC1
:1015C000A83100201C8F0200813801289DBF034BE9
:1015D000186800F004000020704700BFA43100200C
:1015E00008B530B9084605F07DF880F00100C0B2BA
:1015F00008BD012803BF034B03EB011151F8C40CD4
:10160000002008BDA83100201021FFF7E9BF0F21FD
:10161000FFF7E6BF0E21FFF7E3BF0D21FFF7E0BFA5
:10162000813801289DBF034B186800F00800002096
:10163000704700BFA4310020813801289DBF034BB3
:10164000186800F001000020704700BFA43100209E
:10165000813801289DBF034B186800F0020000206C
:10166000704700BFA431002008B5084612B11146EA
:1016700004F00EF9002008BD0FB407B504AA054810
:1016800052F8041B019200F057F803B05DF804EB28
:1016900004B070472829002038B5436893420446B7
:1016A000154698BF03F1FF352A46006806F017FE7D
:1016B00023682B44236063685D1B6560002038BD90
:1016C0001FB51446074A02928DE803001A462146C8
:1016D00002A8CDF80CD000F02FF8009B00221A7061
:1016E00004B010BD991602000CB407B504AB53F852
:1016F000042B0193FFF7E4FF03B05DF804EB02B0A5
:101700007047000070B505460C46102C07D92B68B1
:10171000084968681022984750B9103CF5E734B181
:101720002B68686803492246BDE870401847204688
:1017300070BD00BFA88F02002DE9F04F8FB00646A4
:10174000154606914FF0000B069B1B78CBB1069C0B
:10175000274617F8013B1BB1252B14D03C46F7E771
:10176000069BA3420DD0069B06997068C3EB040844
:10177000424633689847002840F01F832378C344CB
:1017800023B9584634E3069BA342ECD16378002B7F
:10179000F7D03946002408460A4610F8013B2B2BA7
:1017A00011D006D8202B11D0232B12D144F00804DD
:1017B00016E02D2B04D0302B0BD144F010040FE099
:1017C00044F001040CE044F0060409E044F0020493
:1017D00006E0A3F13107082F11D84FF0000801E00F
:1017E0000146D8E70A4611F8013BA3F13000092869
:1017F00013D80A2202FB0838A8F13008F2E72A2B96
:1018000009D12B68002B05F10405B8BF44F0010491
:101810009846024601E04FF0000813782E2B1BD1AA
:101820005178A1F13000092802F101030ED81946C0
:1018300000270A78A2F1300009280B4601F10101C6
:101840000DD80A2303FB0727303FF2E72A2904D1EA
:101850002F68931C043502E013464FF0FF371A78C7
:101860006C2A09D15A786C2A02D144F080040AE02B
:10187000013344F060040BE0682A09D15A78682AE1
:1018800003D144F02004023302E0013344F0400469
:101890001A78642A3CD01FD8462A48D00DD8252A69
:1018A0005AD003D8002A3FF46CAF57E0412A4AD0FF
:1018B000452A53D144F4424450E0582A31D004D848
:1018C000472A4BD144F4A13448E0612A38D0632A36
:1018D00044D144F4A06441E06E2A3AD007D8662A85
:1018E00022D027D3672A28D0692A11D036E0732A5C
:1018F0002CD006D86F2A11D0702A2FD144F440740E
:101900002CE0752A07D0782A28D144F4C85425E061
:1019100044F4245422E044F410641FE044F4885456
:101920001CE044F4B24419E044F4007416E044F4BA
:10193000844413E044F4024410E044F481340DE0A4
:1019400044F4C1340AE044F4E13407E044F4806430
:1019500004E044F4E06401E044F4C064013306931D
:1019600004F4E063B3F5806F00F0908113D8B3F511
:10197000807F27D0B3F5407F7FF4E6AEAE4BAF4A11
:10198000286814F4804F18BF1A460DF1330304354C
:1019900000211F46B6E1B3F5C06F08D0B3F5E06F84
:1019A00000F02182B3F5A06F7FF4CEAEF1E1336891
:1019B000A349706801229847002840F0FE810BF18E
:1019C000010BC1E6002FACBF24F01004012714F472
:1019D0000053079304F0E0032ED0402B12D005D81B
:1019E000ABB1202B21D195F900200DE0602B0ED05A
:1019F000802B1AD1073525F0070303F10805D3E939
:101A0000002307E0B5F90020D317043502E02A6867
:101A10000435D317002A73F1000108DA524263EB50
:101A20004303CDE90023012304E000220023CDE994
:101A300000230023059329E0402B13D004D8BBB129
:101A4000202B1DD12A780EE0602B11D0802B17D1CE
:101A5000073525F0070303F10805D3E90023CDE995
:101A600000230BE02A880023CDE90023043505E09C
:101A70002B6800221946CDE900120435079BD9E7EF
:101A80000023059300220023CDE9002304F4C05372
:101A9000B3F5805F0CD0B3F5C05F33D0B3F5006F02
:101AA0004FD1DDE900230DF13609CDE9022304E031
:101AB000DDE900230DF1360915E0DDE902231343CA
:101AC0003AD0DDE902010A22002306F017FA30328B
:101AD00009F8012DDDE902010A22002306F00EFAC1
:101AE000CDE90201E9E752EA030125D002F007013E
:101AF000303109F8011DD10841EA4371D8080A467E
:101B00000346F0E74C4B4D4914F4804F18BF19467B
:101B1000DDE900230DF1360952EA03000CD002F092
:101B20000F004FEA131E085C09F8010D100940EA86
:101B3000037002467346EFE70DF13603C9EB03036A
:101B400002E00DF1360900230293029B41F60802E0
:101B5000BB4238BFFF1A02EA040241F2080328BF61
:101B600000279A4202D1002F08BF0127029B41F6AD
:101B700008018A4203EB07000DD1DDE9002313437E
:101B800009D0304A304914F4804F4FF0020A0CBF9C
:101B90000B46134602E04FF0000A5346079A9AB1EB
:101BA000059A52B904F00602022A0AD0062A274AE8
:101BB00004BF4FF0010A134606E04FF0010A244B20
:101BC00002E0244B4FF0010A0AEB000290458CBF63
:101BD000C2EB08084FF0000814F0010200920DD18A
:101BE000E10602D54744904608E041463046059359
:101BF000FFF788FD059B002840F0DF80BAF1000F59
:101C000007D03468706852461946A047002840F053
:101C1000D480029B03EB0B04BB46BBF1100F33686F
:101C20001CD910220C4970689847002840F0C580E4
:101C3000ABF1100BF1E700BF738F0200848F02003D
:101C4000A68F0200988F0200958F02009D8F0200E0
:101C50009B8F0200228C0200638F0200BBF1000FF9
:101C600006D05A46644970689847002840F0A5801D
:101C70003368029A7068494654449847002840F0F7
:101C80009C80009B3C44002B39D032E0D5F800907A
:101C90000435B9F1000F0AD0CA469AF800300AF1AB
:101CA00001020BB19246F8E7C9EB0A0A03E0DFF83C
:101CB0004C914FF0060A002F02DBBA4528BFBA4606
:101CC000D0458CBFCAEB08084FF0000814F001079C
:101CD00005D141463046FFF715FD00286DD1336828
:101CE0007068524649469847002866D10AEB0B04B3
:101CF0002FB141463046FFF705FD00285DD108EBC6
:101D0000040B21E550EA010E0ED000F00F0E4FEA51
:101D1000111C12F80EE003F801ED4FEA101E4EEA16
:101D2000017E70466146EDE7FF1A01BF302203F8DD
:101D3000012C012703F1FF3378220337B84503F85C
:101D4000012C4FF0300203F8022C88BFC7EB0808C3
:101D50004FF0230298BF4FF0000814F00104A3F1E4
:101D6000030903F8032C04D141463046FFF7CAFCAF
:101D700018BB336870683A4649469847E8B95F44EB
:101D800024B141463046FFF7BDFCB0B908EB070B64
:101D9000DAE4B8F1010F2B688DF820308CBF08F120
:101DA000FF384FF0000814F0010405F1040508D1D4
:101DB00041463046FFF7A6FC10B14FF0FF3017E068
:101DC000C34433687068012208A998470028F4D1F9
:101DD00008F101072CB141463046FFF793FC00287B
:101DE000EBD1BB44B0E42B680435C3F800B0ABE4DE
:101DF0000FB0BDE8F08F00BF638F02009F8F02001D
:101E000010B50B4B0B4A0C48002421461C6004F013
:101E100011FD18B12246214605F0B8F90648012106
:101E200004F046FD0448BDE8104004F035BD00BF95
:101E3000E8310020691E0200B88F0200014B1868CB
:101E4000704700BFE831002008B5064A1368013327
:101E5000136000F08FFC18B1BDE8084000F0EEBB45
:101E600008BD00BFE8310020042801D1FFF7ECBF16
:101E700070470000014B1868C0097047E831002026
:101E8000B0F5A27F01D100F0D3BD704708B5074A75
:101E90000748002104F06EFD18B10022114605F03C
:101EA00075F90348BDE8084004F0B8BD811E020082
:101EB000C08F0200012302461946014804F0C6BD46
:101EC000C08F02000021014804F0B2BDC08F0200A3
:101ED000F7B50746FFF7F6FF184D194CA860012625
:101EE000A6703B78B3420AD1164B1B6813B17A68CF
:101EF000107898470121144804F0F4FF0FE083B9EB
:101F0000124800F0ABFF002809DD104800F096FFF2
:101F100002AB314603F8010D184604F073FFA378B5
:101F20004BB1FFF7CFFF0A4AA96893685B1A1844C0
:101F300000239060A37003B0F0BD00BFDC5E002002
:101F4000D05E0020EC310020F031002074320020FF
:101F50009C5E0020014B1860704700BFEC310020F0
:101F600007B502AB012103F8010D184604F04AFF42
:101F7000112807D19DF80710044800F04CFF08B95C
:101F800020BFF7E703B05DF804FB00BF7432002008
:101F900030B50F4D0FCD89B06C460FC495E80F00DA
:101FA00084E80F000B49684604F0B2FE18B1002225
:101FB000114605F0EBF880220749084800F024FF9D
:101FC00005F00EF80121064804F08CFF09B030BD81
:101FD000C88F0200D11E0200F131002074320020AF
:101FE000F03100204FF0A0434FF4F012C3F8082561
:101FF0000022C3F80C25704708B50A49002004F0F8
:1020000077FD18B10022114605F0C0F8064804F02B
:10201000A5FD18B10022114605F0B8F8034B0122C6
:102020001A7008BDE51F02007D3200207C320020BE
:10203000024B1B780BB104F083BD70477C3200204B
:10204000034B1B781BB1034B187804F0E1BD7047BC
:102050007C3200207D32002070DF704771DF7047D6
:1020600073DF70477CDF704784DF704760DF704745
:102070001FB508220DEB02000021FDF787FA9DF83D
:102080000830002243F0010302A803928DF80830C3
:10209000FFF7ECFF10B1114605F078F80F4805F096
:1020A0001FF918B10022114605F070F86846FFF7D5
:1020B000D5FF18B10022114605F068F800226946E4
:1020C00010468DF806208DF80020FFF7C5FF10B1EF
:1020D000114605F05BF805B05DF804FB292202000B
:1020E00013B504466846FFF7B9FF18B10022114640
:1020F00005F04CF89DF8052062709DF80420A27050
:10210000FF22E270FE2222719DF8032062719DF889
:102110000220A2719DF80120E2719DF800209DF837
:102120000630237012B923F0020301E043F00203EA
:10213000237002B010BD000030B591B001229DF8AF
:10214000003010AC62F3030362F30713054604F892
:10215000403D06F0F8F8294682B22046FFF782FF9C
:1021600018B10022114605F011F8164B18680190BD
:102170000021382202A8FDF709FA02238DF8083061
:1021800004238DF80B300123ADF81830002101AB8A
:1021900002A8079305F05CFB18B10022114604F079
:1021A000F5FF094C182200212046FDF7EFF9002326
:1021B0004FF405722370636023722282638211B030
:1021C00030BD00BFE88F02008032002008B506480D
:1021D000FFF746FF18B10022114604F0D7FF03486D
:1021E000BDE80840FFF748BA80320020EC8F0200BB
:1021F00070B505460646002416F8011F074801344D
:10220000FFF73AFA062C03D00548FFF735FAF3E753
:1022100029780448BDE87040FFF72EBA0B90020001
:10222000049102001090020010B5044605F028FC4D
:102230002388102B02D0112B11D010BDA1880C487F
:10224000FFF71AFAA01DFFF7D3FF0A48FFF714FAA9
:10225000A0880022FF21BDE81040FFF705BFA1883C
:102260000548FFF709FABDE81040FFF7AFBF00BF10
:10227000169002009C8C02003D9002008ADF70479D
:1022800048DF7047012070470120704700207047E9
:1022900038B50388054613B3FD2B03D00023038014
:1022A000032038BD82291AD10F4CB4F8081504F167
:1022B000080003F0B9F994F90A15042089B203F073
:1022C000DDF921460F2003F0E7F90849102003F05B
:1022D000E3F9074B00221A60064BDB689847FD23A1
:1022E0002B80012038BD00BF8E590020C66600201B
:1022F000A43200205091020038B5044603F01AF9C8
:10230000054603F02BF929460246204605F094FDC8
:10231000B0FA80F0400938BD2DE9F04105461020A3
:102320000E4603F0C5F91949194C074602F027FF7C
:1023300028B93946204602F022FFC8B120E063895F
:10234000B3B12389A3B104F10800FFF7D5FF044618
:10235000FFF776FE64B10F4B01221A601C4622681B
:1023600022B1FFF76DFEFFF78BFFF8E7012301E0D5
:102370000123042231462846BDE8F04103F0A8B904
:1023800004F10800FFF7B8FF0446E3E718910200E4
:1023900098320020A832002007B5042200210DEB5E
:1023A0000200FDF7F3F80C4B019301A805F018FDAE
:1023B00018B10022114604F0E9FE00F079FA074B4B
:1023C000187000F075FA064B00211870054800F0EF
:1023D00009FB03B05DF804FBE92302008D590020DE
:1023E0008C5900203029002073B5054640482B88C1
:1023F0000689B34206D144896B889C420CBF0446CF
:10240000002400E000240B78032B6ED8DFE803F0F3
:10241000023644664A68D17B8DF80110917B8DF8B5
:102420000210FF218DF80310FE218DF80410517B5E
:102430008DF80510117B8DF80610D17A8DF80710F4
:10244000137C927A8DF8003012B923F0020301E078
:1024500043F002038DF80030002E43D14389002B56
:1024600040D104222946234805F039FF0822694655
:102470001F4805F034FF32461F4B08E0002C34D0D3
:102480000C2200212046FDF781F81C4B0022197810
:10249000104600F07FFA28E03CB3194B1A6822BBC3
:1024A0004A689289B2F5A06F1FD8164E0120A6F88F
:1024B000082518604B6806F10800996805F00FFFC1
:1024C00008222146304605F00AFF06F20A51288804
:1024D000FFF7D4FE0C4800F09DFA06E00B4B0022FB
:1024E0001A6002E0284605F0D7FC002002B070BD5B
:1024F00098320020A03200208D5900208C590020F5
:10250000A43200208E59002030290020A83200205B
:1025100010B5041F54F8040F18B1002100F062FA3E
:10252000F8E710BDF8B50388064615462BB14A2BCF
:1025300015D0002303800320F8BD174800F0B9FB35
:1025400004462CB1A168201D00F0F4F82468F8E7D7
:10255000124B01221A704A2333800120F8BD8829CA
:10256000FBD10D4800F0A5FB0446002CF3D0231D41
:102570009D420ED12146084800F0A5FB084B626938
:102580001F681A60A2691D460AB1E06990472F6072
:10259000E1E72468E9E700BFAC320020B032002058
:1025A000C832002010B5064B064800241C7000F00D
:1025B0007DFB21460448BDE8104000F013BA00BF7F
:1025C000B0320020AC3200204029002010B500239A
:1025D000064C074807491A4644F8232040F82320B0
:1025E0005A5401330C2BF7D110BD00BFDC5E002024
:1025F0009C5E0020D05E002010B50E4C236813B9FD
:102600000D4A136010BDFFF719FC216891E80C001A
:102610001A44131A8A6842B192E812002144091A36
:102620008B4228BF0B469268F5E71844024B1860AE
:1026300010BD00BFB4320020B8320020014800F0C5
:10264000E9B900BF502900202DE9F8430388054669
:1026500033B1592B0BD0002303800320BDE8F8834E
:10266000234A136059232B800120BDE8F883872972
:1026700024D08229F6D11E4F4FF00008B9463C689D
:102680000026002CEED0204600F0F8F998B1224642
:102690008821E06800F07EF958B9E060A3680EB1C7
:1026A000B36001E0C9F80030C4F80880FFF7A4FF68
:1026B000E5E7FFF7C3FF2646A468E2E70C490B688D
:1026C00000201BB90028CDD00B60CBE7DC68A2420C
:1026D00002D19B680120F4E700B10B6099680029E2
:1026E000C0D0C868824206BF896899600B46F5E78A
:1026F000B432002010B50446FFF7A0FFE3680B4A90
:102700004BB113683BB1A34203D1094A1268DA60A6
:1027100007E09B68F6E7064B1B68E3601368A3605D
:102720001460BDE81040FFF767BF00BFB43200205F
:10273000C832002010B5044600F08EF92046BDE8EE
:102740001040FFF7D7BF10B5044600F08CF92046C3
:10275000BDE81040FFF7CEBF10B5044600F088F981
:102760002046BDE81040FFF7C5BFC068B0FA80F052
:1027700040097047024B1868003018BF01207047AD
:10278000B432002010B50B4A13688342044606D1C8
:102790008368136008E09A68944203D01346002BC4
:1027A000F9D103E0A2689A60FFF726FF0023A36037
:1027B000E36010BDB432002038B5836804460D468E
:1027C0009BB10A4804600220A07304F10C009847F2
:1027D0000238012801D9832D05D121462046BDE8C4
:1027E000384000F00BB80123A37338BDC832002075
:1027F000837BDB0701D5FFF7DFBF70472DE9F84387
:102800001C4A1D4E15683768044689462B4690467B
:10281000A34204D00BB11B68FAE7BDE8F88334B3D8
:10282000A37BABB10023A37345B1A54204D02246DC
:1028300087212846FFF7DCFF2D68F5E7A3683BB149
:102840004C4505D034602A46832104F10C0098479A
:10285000D8F800309C4203D12268064B05E01346AD
:1028600023B11A689442FAD122681A603760BDE831
:10287000F88300BFD0320020C832002070B50A4A69
:1028800000231370094A146801261D4654B1E37BE6
:1028900033B1A673E573002282212046FFF78CFF37
:1028A0002468F3E770BD00BFC4320020D03200209E
:1028B000024B1878421C1A70704700BF5834002031
:1028C000064B8A221A70064A00231370054A1370B9
:1028D000054A1360054A1360704700BF5834002052
:1028E000BC320020BD320020D0320020C83200208F
:1028F0002DE9F0411F4E33780BB1FFF7BFFF1E4D9E
:102900002C78002C30D0DFF884E01C499EF8003091
:102910001B4FDFF87C800C225A4388180133895CF6
:1029200042688068397003F01F03013CC8F800203A
:102930008EF800302C7088B9124C134B1B68236042
:1029400023688BB133780BB1FFF798FFD8F80020DC
:1029500039782068FFF74CFF2368EFE7812904BF2F
:1029600001238373FFF744FF337828781844BDE8C8
:10297000F08100BFC4320020BD320020D4320020DC
:10298000CC320020C0320020D0320020BC320020E7
:1029900054340020F0B50B4E3378202B0FD00A4C66
:1029A0000A4F24781C440C2504F01F046C433D1985
:1029B00001333955A8606A6033700020F0BD0120F2
:1029C000F0BD00BFBD320020BC320020D432002058
:1029D00038B5034C2568FFF70BFF256038BD00BFF5
:1029E000C832002030B40A4C25680A462B46834280
:1029F0000CD00BB11B68FAE740B10121056081736F
:102A000020608381812130BCFFF7E2BF30BC70477A
:102A1000D032002038B1837B013B012B9FBF024A9B
:102A20000123C37313707047C4320020FFF72EBA1E
:102A300010B5084C206858B10023236081684368B2
:102A40009847236823B11868BDE81040FFF732BAF1
:102A500010BD00BF5C34002010B541600446FFF794
:102A6000EDF9206010BD90E80C001344036070473E
:102A700010B50446FFF7E2F9206010BD10B504461A
:102A8000FFF7DCF92368C3F1010303446068834264
:102A900094BF0020012010BDF8B52D4C2678207081
:102AA0004640F10716D510F001052A4F06D0FFF772
:102AB00009FA294BD8600123FB700BE0FB784BB17E
:102AC000FFF700FA254A2449D368C968FD705B1AEC
:102AD0001844D060B20719D523781E4D03F00203C5
:102AE00003F0FF0733B1FFF7EDF91B4B186101232A
:102AF0002B710BE02B794BB1FFF7E4F9174A16491C
:102B0000136909692F715B1A18441061730719D58D
:102B10002378104D03F0040303F0FF0633B1FFF7F1
:102B2000D1F90D4B586101236B710BE06B794BB1FF
:102B3000FFF7C8F9094A0849536949696E715B1A78
:102B4000184450612078BDE8F84002F081BE00BF13
:102B500060340020D05E0020DC5E00209C5E0020FF
:102B600008B502F057FE024B00221A7008BD00BFE4
:102B700060340020FFF790BF024B1B781843FFF72B
:102B80008BBF00BF60340020024B1B7823EA00009B
:102B9000FFF782BF60340020024B1B785840FFF7DC
:102BA0007BBF00BF6034002070B50588672D0446E8
:102BB00009D0792D30D0002D34D1FFF779FE1C4B90
:102BC00018701C4B1D601B4D2E461B4800F036F93B
:102BD000431C01D167231DE00A28164A07D02B6841
:102BE0007E2BF2DC5A1C3260144AD054EDE7136895
:102BF000591C1160114A0025D5540D4B28461978EF
:102C0000FFF7C8FE0E4B2A4685211868FFF7C2FE63
:102C100020B97923238009E0852907D1054B0022BB
:102C20001A60D0E700230380032070BD012070BD2F
:102C30000C5F002070350020E4340020ED340020CB
:102C4000C83200200D2810B5014615D00B4C237852
:102C50002BB90B4800F0DFF848B9012306E00A2839
:102C600005D1074800F0D7F808B1002323700548C4
:102C7000FFF7D0FE012010BD002010BDEC34002075
:102C8000E43400206029002008B505490548802269
:102C900000F0BAF800210448BDE80840FFF7A2BEE2
:102CA00061340020E4340020602900200023036008
:102CB000704700687047006800B9704703680BB13F
:102CC0001846FBE77047036810B573B100249942BA
:102CD0001A6806D10CB9026000E0226000221A6076
:102CE00010BD1C460AB11346F1E710BD38B50546C4
:102CF000FFF7E9FF00230B60FFF7DDFF08B929604C
:102D000038BD016038BD38B50446FFF7DCFF036805
:102D10000B60216038BD0368002013B101301B68CF
:102D2000FBE7704700B10068704710B50446428861
:102D300040680021FCF72AFC23886288A0685A4377
:102D40000021BDE81040FCF721BC10B541880023EC
:102D50008B420CDA4268D418D25C32B9012222705C
:102D60000288806803FB020010BD0133F0E70020F9
:102D700010BD30B5826844880023A3420DDA8A4230
:102D800007D14168CA5C0AB1013ACA544268D05CB2
:102D900030BD058801332A44EFE7FF2030BD82684B
:102DA0008A4208D84388008800FB032081422CBF58
:102DB0000020012070470020704707B52A23ADF896
:102DC00006300DF1050003F04BFF9DF80530012B97
:102DD000F7D902210DF1060003F044FF18B10022DB
:102DE000114604F0D3F9BDF8060003B05DF804FB0A
:102DF00008B5002003F01EFF28B100221146BDE8EF
:102E0000084004F0C3B908BD0023013A0160027113
:102E100043718371704710B5427983790479D31A6D
:102E200034EA030308D00368995443795A1C0379A0
:102E300013404371012010BD002010BD83794279F9
:102E40000179D21A0A421FBF0268D25C01330B40DB
:102E50001ABF837110464FF0FF3070474379827973
:102E600000799B1A184070472DE9F0410688772EAB
:102E7000054631D07E2E40D0002E4ED1FFF718FDF2
:102E80002A4C2B4B2B4FDFF8B48026601870264657
:102E9000236857F823204AB1002108F80310802046
:102EA00093689847336801333360F1E7224A13701F
:102EB000772320E0214AD256002A12DB1B4A1368EE
:102EC00001331360194B1C4A1B6812789A42F1DCDB
:102ED0001B4B1B68002BEBD0194A00231360134ACD
:102EE000EFE7144A52F82320114B00201978FFF71E
:102EF00051FD30B97E232B8014E00D4B1B788B42A3
:102F000010D10A4B0D491A688B5C03F07F038B5478
:102F10000B4A136801331360D0E7002303800320BA
:102F2000BDE8F0810120BDE8F08100BF78350020C8
:102F30000D5F0020242A002074350020FC6600204C
:102F40007C35002010B40B4B0B491A7800239342B8
:102F500003DA51F82340A04209D108490848CA5C65
:102F600062F07F02CA545DF8044BFFF753BD013392
:102F7000EDE700BF74350020242A0020FC66002005
:102F80007029002010B5013A0A4491420CD20C7805
:102F90004B7803EB04239BB2184480B2834284BF76
:102FA000013080B20231F0E707D10B781B021844E0
:102FB00080B2834284BF013080B210BD37B5124B5E
:102FC000124D1C782B796A79C4EB032313449BB20E
:102FD000ADF80630BDF8063010FA83F0202205F176
:102FE000080180B2FFF7CEFFBDF8062004F12801EA
:102FF00092B22944FFF7C6FF10B140BA80B201E097
:103000004FF6FF7003B030BD80350020205F0020F8
:10301000F8B5244924480E78244B06F128073918BE
:1030200002224D781A70ED0007350024954232DBFC
:10303000B91800EB010E415C012925D006D36329A4
:1030400006D19EF8011002310A4425E001321FE04A
:1030500001F0C001802904D0C02908D0402913D133
:1030600002E04CB11A7007E0CCB11A7017E004B15D
:103070001A70037EFF2B12D0324428320221042022
:1030800001F0A8F80220F8BD9EF8011002310A44B0
:10309000D2B20124CAE704B11A700020F8BD0120A1
:1030A000F8BD00BF80350020205F00208235002061
:1030B0003A20FFF783BF1120FFF780BF08B500F06B
:1030C000BBFC01F033F901F00FFE084B08484FF448
:1030D00080621A800023194600EB43120133DBB2F1
:1030E0000A2B1182F8D1034A137008BD84350020E1
:1030F000406400208635002070B5104D2978E1B17C
:103100000F4E328801F12703934202DB0023338004
:1031100012E00C4C283A521A2046214405F0EAF8F5
:103120002A7833889B1A9BB23380283B1A1204F802
:10313000233C04F8242C00232B7070BD8035002024
:10314000105F0020485F00202DE9F0412B4A2C4EF3
:103150001388144601339BB2B3F5FA4F28BF4FF4DE
:1031600080531A0A42EA032292B200250A2D07D0A0
:10317000013506EB451737F8107C9742F6D1E9E7A1
:103180002380204CDFF878C0002323701F460A2BD1
:103190001BD05D010CEB050603F1010EB6F81080A3
:1031A000174E5FFA8EFEB8F1000F0BD107B12370F6
:1031B00074192282618268B9014610222046FCF708
:1031C000E5F913E073460127E1E707B1237000201A
:1031D000BDE8F0810346274600F1100E18685968D3
:1031E0003A4603C2083373451746F7D1064B3544B8
:1031F0001B792B752046BDE8F08100BF8435002087
:1032000040640020863500208065002004282DE9D8
:10321000F84F844E00F04A818349844A844C0C6004
:10322000052814600F4612D1824B1B681B8A002BA5
:1032300000F07A810C3C14607F48804A0C600023C7
:103240001380036033807E4B08221A702CE114F83F
:103250003C3C03F0F003602BA4F13C0440F064819B
:103260002279637931881202D018884200F35C8198
:10327000283313443380237AFF2B00F0558104F167
:10328000180000F00BFA60B16E4A6F4B13606F4D7F
:103290006F4B00212970197091469B4690469A46C3
:1032A00023E004F1180000F0A3FA0028ECD1237EFB
:1032B000FF2B40F03981E7E71DD93B2B00F034812B
:1032C0003C2B1FD19BF80030990733D55A065DD4AB
:1032D00043F040038AF80030FFF79AFE012800F01F
:1032E00023812AD3022800F01A81D9F8000003783C
:1032F0002C2BE1D118E1112B6CD02B2B29D0002BDA
:1033000044D102E03A2B41D146E09BF80030DA0785
:103310003CD443F001038AF80030FFF779FE01281E
:1033200000F00281DED22B7803F128012144C8F895
:10333000001008E043F00203CCE72B7803F12801EA
:103340002144C9F800104978083303EBC1032B70FE
:10335000CBE79BF8003003F0040202F0FF01AAB9AA
:1033600043F004038AF800302B7803F1280020444E
:10337000C27812B103F12A020AE04178334AC8F850
:103380000000083303EBC1031370AEE7021B0121F9
:10339000042000F01FFFC2E0FFF78AFE4FF6FF7324
:1033A000984240F0C1802B782833E05C01F0C8FCE3
:1033B0002B782833E218E05C517800F0E9FE012810
:1033C00001BF0023214A338013703388002B00F0A3
:1033D000AB80A4E0FFF790FE3388E28D303B338072
:1033E0001C4B3B6098465AB9638D002B00F09C80C3
:1033F000194B104DDFF864B02B6003F5A07A0CE098
:10340000FFF759FE4FF6FF73984240F08D80EBE7CF
:103410000B8A2BBB2B6820332B6029685145F7D3CF
:1034200082E000BF105F00202C640020145F0020A9
:103430005C5F002028640020306400203C64002091
:103440002064002024640020265F002080350020B6
:1034500081350020505F002040640020205F002064
:10346000628D9A42D6D14B8A1BB1BBF828209A4272
:10347000D0D10B682BB94B681BB98B680BB9CB68E3
:103480002BB110222D4804F01BFF0028C2D12C4A7A
:10349000C7F80080002313602A4A022111702A4ACB
:1034A000C2F80080294A138001F06AFD274B1A8870
:1034B000002A39D002F13003254C9BB23380283BDF
:1034C00019126371234B21711B68083252BA197D9E
:1034D000A2850022E2851A8A22855A8AE171112189
:1034E0006285A1710FCB04F1180585E80F0029460C
:1034F00004F1080000F022FA174B04F13C021A60B4
:10350000FFF7D9FDC04380B208B1E08502E04FF675
:10351000FF73E38560232370002363706380094B8E
:1035200000221A70BDE8F88F0C4A002313700C4A71
:1035300033801370034A1370BDE8F88F285F0020B2
:103540003064002020640020145F00203C640020D0
:10355000205F0020286400202C640020803500209B
:103560008135002040BA80B27047020C131243EA42
:1035700002239BB240BA43EA004070472DE9F8436A
:10358000099D9DF8206099460023044617462B604C
:1035900002FB0108F60844450DD2237843B13246B8
:1035A0004946A01C04F08CFE18B92C60BDE8F883D5
:1035B0002C603C44EFE72B68002B14BF0120022055
:1035C000BDE8F883F7B5174C0091034605460F4652
:1035D00016460194202203211348FFF7CFFF01284C
:1035E0001CD12368187023682846023305F11002A5
:1035F00050F8041B43F8041B9042F9D120688774EB
:1036000046B13146143002F053F9064B1B680022D4
:103610001A7701E001230377206800E0002003B05F
:10362000F0BD00BF8C3500204466002008B10023A7
:103630000370704713B5074C03468DE81200202233
:1036400003210548FFF79AFF08B9206800E0002031
:1036500002B010BD8C3500204466002070B50D4BC3
:103660000D4C0646236003F160052068A8420FD286
:1036700003781BB9236820332360F6E7827C314648
:10368000D208023004F01CFE0028F3D1012070BDE6
:10369000002070BD446600208C35002013B58023C7
:1036A000074C009301940346202203210548FFF7AD
:1036B00065FF08B9206800E0002002B010BD00BF1F
:1036C00090350020986500200D4B0E4A30B503F16F
:1036D0006001136048F2FE0413688B420CD21D781F
:1036E0003DB1451C02D09D7C854202D15D88A5423A
:1036F00003D020331360EFE70023184630BD00BF2E
:10370000986500209035002037B580230F4D009339
:10371000044603460195122204210D48FFF72EFFAF
:1037200001282B460ED12A6810702A6820460232E2
:1037300004F1100150F8044B42F8044B8842F9D1CF
:10374000186800E0002003B030BD00BF88350020BD
:10375000F8650020F7B58023204C0093054603460A
:103760000E4617460194202203211D48FFF706FF4D
:10377000012830D12368187023682A46023305F1E6
:10378000100152F8040B43F8040B8A42F9D1206867
:10379000C77416B90123037505E00023037531468C
:1037A000183002F085F823680E480121997402232D
:1037B0004370FF220023027043808380C380038113
:1037C0008372C17202736B7B4373EB89C381FFF712
:1037D0009BFF206800E0002003B0F0BD9035002082
:1037E000986500209435002008B1002303707047CD
:1037F00013B58023074C0093019403461222042141
:103800000548FFF7BBFE08B9206800E0002002B0C1
:1038100010BD00BF88350020F865002038B505468A
:10382000C8B10D48022200244270FF230122C27257
:1038300044808480C4800481847203730370EB7BB2
:1038400043732B8AC381FFF7D3FF044A106008B18A
:10385000FFF7CAFF2C7038BD943500208835002052
:1038600070B51C4B1C4C03F1600523602646206894
:10387000A8420ED2037843B1037D33B9183002F069
:103880001FF810B13068FFF7C9FF236820332360A9
:10389000EDE700F0AFFB114C114B2360264603F11E
:1038A00060052068A8420ED2037843B1037F33B984
:1038B000143002F005F810B13068FFF7B7FE236846
:1038C00020332360EDE700F099F90648BDE8704029
:1038D000FEF739BF98650020903500208C35002018
:1038E00044660020A466002010B508220446104457
:1038F00004F0F5FC237A83F00203237210BD30B587
:103900000139451E002315F8014F11F8012F94428B
:1039100003F1080005D1C0B2802801D00346F2E7C8
:1039200030BD6240C0B2110606D40133DBB2520092
:103930009842D2B2F7D130BD184630BD2DE9F84FCC
:103940000A8848F2FE039A4205460F4623D00A78B9
:10395000FF2A20D01C491D4A0A600024A04689463F
:1039600002F1600A9B46D9F80060564517D23378B9
:103970006BB1B37C012B0AD173885B4507D0B11CB6
:103980003846FFF7BCFF80459CBF34468046203652
:10399000C9F80060E7E70120FFF796FE04464CB93E
:1039A0002C806C80AC80EC802C816C81AC81EC81B3
:1039B000BDE8F88FA31C123453F8042B45F8042BF0
:1039C000A342F9D1BDE8F88F90350020986500201A
:1039D00010B500F0F7FA78B90A4C2378022B0BD80F
:1039E00001F02CF923780848013323704FF400715B
:1039F000BDE81040FEF79EBE0348BDE81040FEF74C
:103A0000C1BE00BFA4350020B466002070B5094EC9
:103A1000B0684508FFF7D1F90446FFF7CEF9240254
:103A2000B268A4B22044B0FBF2F302FB13002844B6
:103A300070BD00BF8065002070B52A4C00F06EF8A4
:103A400000F080F9602200212748FBF79FFD00214C
:103A5000C0222046FBF79AFD244B20221A70244BEB
:103A600018221A704FF4A06323604026214B267160
:103A7000A360FFF7CBFF002542F21073E0602361E3
:103A800025751D4C48F2FE032A4631462046238008
:103A90006580A580E580FFF795FD20461749FFF773
:103AA00023FF294601222046FFF754FE40F2FF2360
:103AB000238020464FF48073E3816580A580E580F4
:103AC00025816581A581FFF71FFEFFF776F900F0DC
:103AD0007F010B48FEF72EFE0C210A48BDE870401E
:103AE000FEF728BE80650020446600204166002065
:103AF00040660020C027090094350020185F002090
:103B0000B4660020A4660020014618B1024B186874
:103B100001F0B2BC704700BF80290020024B03496E
:103B2000186801F0B3BB00BF80290020093B0200E8
:103B30002DE9F8439846134B05461868914601F065
:103B4000F9FB0446D8B1074605F1100328686968F7
:103B50003E4603C608359D423746F7D1002104F1A1
:103B6000100084F8219084F8228001F0A1FE002149
:103B700004F1180001F09CFE002384F82030204658
:103B8000BDE8F88380290020024B0146186801F047
:103B900089BC00BF8029002070B50C4D06462868FE
:103BA00001F0ACFB044666B9002070BD102231461E
:103BB000204604F085FB38B12146286801F07AFBE5
:103BC0000446002CF2D1EFE7204670BD802900208A
:103BD000024B0146186801F03BBC00BF8029002061
:103BE000FFF7F6BF08B5102001F062FD0249BDE8FD
:103BF000084001F0C4BA00BF189102002DE9F84353
:103C0000394D3A4E28683A4F01F078FB4FF00008E2
:103C10000446002C65D094F82230042B5BD8DFE8F2
:103C200003F00D035A23310004F1100001F048FEA7
:103C3000002850D0022384F822304CE094F8203041
:103C4000022B2BD804F11809484601F039FE002850
:103C500041D0318800293ED194F82030013384F8D6
:103C60002030224608462CE004F1100001F028FE26
:103C700088B3042384F8223084F82080002104F1E2
:103C8000180026E094F82030022B0BD9204600F0D3
:103C900051F918B1037F0BB900F02AF92046FFF75C
:103CA00033FF18E004F11809484601F009FE90B10D
:103CB000308880B994F82030013384F820302246CF
:103CC000214600F017FF484639694FF47A73B1FB7B
:103CD000F3F101F0EDFD2146286801F0EBFA04460E
:103CE00097E7BDE8F88300BF80290020105F00201F
:103CF000806500202DE9F84305460F48DFF8409025
:103D00000F469046FEF7D5FF044694B1012D04D826
:103D10000A48FFF700F8034601E0D9F8003066686A
:103D2000424639462846B0472046FEF7FBFF044688
:103D3000EBE7BDE8F88300BF783D00201039002094
:103D40000839002008B50B48FEF7EFFF0A48FEF7D8
:103D5000ADFF0A4B0A49186801F098FA0948FEF7C6
:103D6000E4FF0948FEF7A2FF0848BDE80840FEF757
:103D70009DBF00BFB4290020B4390020B029002025
:103D8000ED3E02009429002010390020783D0020EB
:103D900008B540B1044B4168186801F083FBBDE8E9
:103DA0000840FFF71DBF08BDB02900200148FEF7FD
:103DB00080BF00BFB439002008B1FEF7B3BF704721
:103DC000F8B50746FFF7F2FF002504462E46A4B1DA
:103DD00094F8242095420BD8D20804F10801384603
:103DE00004F06EFA20B994F82450802D07D02646AE
:103DF0002046FFF7E1FF0446E9E76EB13446074885
:103E0000FEF757FF844207D021460448FEF75BFFC8
:103E100021460248FEF777FF2046F8BDB43900205E
:103E200038B5044600283ED04368002B3BD00146FD
:103E30001D48FEF748FF63685868FEF73AFF0546DD
:103E400030B143689C4207D02846FEF76BFFF6E787
:103E500004F1080001F0AAF8636829465868FEF7E3
:103E600032FF63685868FEF724FF28B96368596811
:103E70000E4B186801F000FB21460D48FEF779FF54
:103E800029460C48FEF775FF0B4A13682046013B94
:103E90001360FFF77DFF04F108010246BDE83840DA
:103EA0000320FFF727BF38BDB4390020B029002018
:103EB000B4290020C02900200839002010B504468C
:103EC00080B1406870B1FEF7F4FE20B14068FFF7A2
:103ED000A7FF6068F7E7044B21461868BDE810406B
:103EE00001F0CABA10BD00BFB0290020FFF7E6BF3D
:103EF00038B505460D48FEF7DCFE0446A0B1AC42DD
:103F00000ED121460948FEF7DEFE21460848FEF79D
:103F100030FF221D11460120BDE83840FFF7EABE00
:103F20002046FEF7FFFEE8E738BD00BF103900204D
:103F30009429002038B505460848FEF7BAFE044625
:103F400048B110222946201D04F0BAF918B12046C4
:103F5000FEF7E8FEF3E7204638BD00BF1039002029
:103F6000F8B505460F46FFF7E5FF044640B913488C
:103F7000FEF7EBFE0446F0B101461148FEF7C3FE22
:103F80002B46261D05F1100E18685968324603C2EB
:103F9000083373451646F7D137B1394604F114009A
:103FA00001F086FC002300E0012323772A462946FE
:103FB0000020FFF79FFE2046F8BD00BF9429002097
:103FC0001039002038B50A48FEF773FE0025044674
:103FD00064B1251D2846FFF7DFFD10B190F82230AF
:103FE00023B92046FEF79EFE0446F1E7284638BD79
:103FF0001039002010B50A48FEF75BFE044670B188
:10400000237F43B904F1140001F05AFC18B1204693
:10401000FFF76EFFEFE72046FEF784FEEEE710BDE8
:10402000103900202DE9FF47224C234D94F80780DA
:1040300004F108030FCB8DE80F002B786F46BBB15E
:104040001E493A22A2710A88D21A92B20A80A2F1BB
:1040500028010812207103F128002044C3F1040351
:1040600061712C3A011D184404F044F900232B70AF
:104070001348DFF848A0FEF71CFE06469EB1D6F8AE
:104080000490B9F1000F09D0BAF800302A782C3B1F
:1040900022449BB2383241463846C8473046FEF784
:1040A00041FE0646EAE7054B2E701E8004B0BDE8CF
:1040B000F08700BF205F002080350020105F0020C7
:1040C000B43D0020F8B52C4B2C4C1B79E371237EBA
:1040D000FF2B04F1180604F1080508D195E80F003C
:1040E00086E80F0031462846FFF728FC1BE0244AEB
:1040F0002F46B6463B4603CB7345106051601F46C2
:1041000002F10802F6D196E80F0085E80F001C4B7B
:104110001C4D03F11006186859682A4603C208337B
:10412000B3421546F7D1184D2B78BBB117493A2247
:10413000A2710A88D21A92B20A80A2F1280108124A
:10414000207103F128002044C3F1040361712C3A6B
:10415000011D184404F0CEF800232B702B7828336F
:10416000E5188122E25400236B706B80FEF7A0FFFC
:10417000C0436880F8BD00BF80650020205F00203C
:10418000A43D0020385F002080350020105F002013
:1041900038B504460B480D46FEF78BFD50B1037948
:1041A000A34204D143799D4206D0FF2B04D0FEF7F1
:1041B000B9FDF3E7012038BD8368002BFAD098479A
:1041C000002038BDB83D002001460148FEF78EBDF5
:1041D000B83D00202DE9F74F4D4D4E4C2B788146D0
:1041E0008846924643B12833E35C3A2B0BD14A4AC6
:1041F000002313802B7087E0A3793A2B03D194F925
:104200002830002BF3DA454E454A00232B7006F187
:10421000100E37469346334603CB7345106051600A
:104220001E4602F10802F6D13B4E338830339BB272
:10423000B3F5A06F88BF4FF4A06333803288354B4D
:1042400001931946303A03F1300004F053F860222C
:1042500029782270002262706280019B3A2211B19B
:1042600083F8282000E09A712E4A2A4B1279E271D5
:10427000228972B95A8962B99A8952B9DA8942B9DE
:104280001A8A32B95A8A22B99A8A12B9DB8A002B61
:10429000ADD0DFF894E09EE80F0087E80F009BF8B0
:1042A0000030FF2B0AD1B9F1040FA0D1B8F1020FF1
:1042B0009DD11B497046FFF741FB0AE0184B03F103
:1042C000100718685968724603C20833BB42964605
:1042D000F7D12F7807F12803E21804F8039050462D
:1042E00082F80180FFF741F933882C37283BE051F1
:1042F0001A1263712B78227128331C4400236380C7
:10430000FEF7D6FEC043608003B0BDE8F08F00BF6B
:1043100080350020205F0020105F0020385F0020E3
:10432000A43D002080650020285F002008B50448D7
:10433000FFF74AFF0348BDE80840FFF745BF00BF4D
:10434000CC290020D829002010B502230446017092
:10435000437008220549184403F0C1FF04F10A0024
:1043600006220021BDE81040FBF710B9185F0020BD
:104370002DE9F04FAE4CAF4EE379DFF8DC92FF2B26
:1043800085B040F09381228948F2FE039A4240F0C2
:104390008D813378E21892F82920002A40F0868136
:1043A0002C331A191B5D0BB1A3490B71506870B106
:1043B000A14DAF68FFF7D9F8874208D0337823447E
:1043C000186BFFF7D2F8A860FFF720FBE86033789E
:1043D0002344586B18B1FFF7C8F8974B1861974FF3
:1043E000974D0C233B70A846337803F12C023B78A1
:1043F0001344B9F80020934280F23481E2185178D6
:10440000002900F05381E35C032B4FD0052B47D0EC
:10441000012B40F00381DFF830B28A48CBF800204E
:10442000FFF7BAFBDFF82CA2CAF8000088B9DBF866
:10443000001029B1082202310DEB020003F04FFFFA
:104440000223012202A97F48FFF772FBCAF800008D
:10445000E4E0FFF799FBDAF8002092F82210034617
:1044600011B9022182F82210DBF8000001931946ED
:104470000822023003F024FF019B58B1724A1168F0
:1044800018460822023103F02AFFDAF8003002222F
:1044900083F82220DAF80030012283F82120BDE0E1
:1044A0005068FFF762F8644B1860B7E050682A6004
:1044B000FFF75BF82B6882469868FFF756F882454D
:1044C000C0F0AC802868028A48F2FE039A4200F0ED
:1044D000A58090F90330002B34DA8178DFF87CB1C5
:1044E0001030FFF7A7F82B68CBF80000024688B918
:1044F000586838B3411C03F1100A997804D001912F
:10450000FFF733F8019902465046FFF75BF8CBF806
:10451000000017E05B6823B1591C05D10123037724
:1045200010E0FFF783F80DE001901846FFF71DF843
:10453000019A014602F1140001F0BAF9DBF80030EB
:1045400000221A77D8F80030DA78500666D55A6813
:10455000002A63D09A78402A60D1DFF8F4E003F1B2
:10456000200C10331A4603CA6245CEF80000CEF87C
:10457000041013460EF1080EF4D134493448DFF824
:10458000E0A0FFF7B1F93248FFF788F80346CAF810
:10459000000080B3C27C012A2DD1D8F800104868F1
:1045A000411C26D0FEF7E1FFB0F5E15F0BD9DAF848
:1045B0000000D8F8003000F1180B5868FEF7D5FF5E
:1045C0000146584610E02B685868FEF7CEFF834638
:1045D000DAF80000183001F083F98345E7D8DAF8FB
:1045E00000004FF4E151183001F062F9DAF80030C0
:1045F00000221A7512E0D8F800305868FEF7B5FFAF
:10460000013002D10122002105E02B685868FEF735
:10461000ACFF012201460E48FFF79CF833783A7848
:104620002C33134423445B7802EBC3023A70DBE67D
:10463000205F00208035002080650020CC3D0020D8
:10464000BC3D0020285F0020C83D0020185F0020EE
:10465000D43D0020C43D0020105F0020C03D00205C
:10466000D03D00201548FFF765FC154B1B782C3317
:104670001C4405466388B3B1124B1B6813B1012279
:1046800083F82120608835B9FEF76CFF01460B489E
:10469000FFF766FC0AE0FEF765FF014605F114002E
:1046A00001F006F902E008B1FFF722FC0023A9F8A7
:1046B0000030337005B0BDE8F08F00BF285F0020E8
:1046C00080350020C43D00202DE9F74F704CDFF805
:1046D000E081E379FF2B40F0CF8098F80010631859
:1046E00093F82930002B40F0C7802C3101EB040CEB
:1046F0009CF80430FF2B00F0BF8011F804B00BF0E1
:10470000400303F0FF0200921BB1237EFF2B00F059
:10471000B380604D6048614E2D88019500221423BE
:1047200003703260174615468246019803EB010E6E
:10473000864518DA04EB0E0999F8010040B90FB16B
:1047400056490D60002A00F097808AF8003093E007
:1047500014F80E2003EBC003022A04BF4D460127C4
:10476000DBB20122E1E70FB14C490D600AB18AF8D2
:1047700000300CF10400FEF791FF494B186000284F
:104780007AD198F8000020443030FFF705FA454C04
:104790002060FFF7F9F923688146002B6CD0306860
:1047A00030B108224946023003F08AFDC5B200E06C
:1047B000054622683B4B92F822A001932BF07F071D
:1047C000FFB2BAF1000F1FD13168002954D008227E
:1047D0000231484603F083FD9DE80C007AB1186869
:1047E000012380F82230304B80F820A0D9681030A7
:1047F0004FF47A73B1FBF3F101F05AF839E01B681A
:10480000022283F8222034E01BF0200F07D135B1BB
:10481000BAF1010F30D1022382F822302CE0316846
:1048200091B308220231484603F059FD009B6BB159
:104830002068012380F822301B4B1030D9684FF4D8
:104840007A73B1FBF3F101F033F807E0134B1B6807
:1048500023B11DB12368022283F82220236893F834
:10486000213033B12FB91148FFF764FB08B1FFF7CE
:104870003FFB236883F82170064A0023138088F8E1
:10488000003003B0BDE8F08F009B002BD0D1E5E7EE
:10489000205F0020105F0020CC3D0020C83D00209C
:1048A000D03D0020C43D002080650020285F00200E
:1048B000803500202DE9F74F844C854EE379DFF8F1
:1048C0002C92FF2B40F0FA803378E21892F83020D7
:1048D000FF2A00F0F380234493F82920002A40F0B7
:1048E000ED807C4B7C4F1A60DFF804A214223A70F2
:1048F0009846254630783B78B9F800202C300344A0
:10490000934257DAE2185178002900F0D780E35C2F
:10491000012B45D12B89C8F800207BB96B896BB975
:10492000AB895BB9EB894BB92B8A3BB96B8A2BB945
:10493000AB8A1BB9E38A002B00F0C0806748FFF701
:104940002BF9CAF8000070B9D8F8001021B108227C
:104950000231684603F0C3FC0223002269465F4827
:10496000FFF7E6F81CE0FFF70FF98346D8F80000E0
:1049700008225946023003F0A3FC48B1554B196890
:1049800008220231584603F0AAFCDAF8003004E0AD
:10499000DAF8003093F8222012B9022283F822209C
:1049A00033783A782C33134423445B7802EBC30208
:1049B0003A709FE720440430FEF770FE484B434DA9
:1049C00018609846002879D02B8973B96B8963B930
:1049D000AB8953B9EB8943B92B8A33B96B8A23B9B5
:1049E000AB8A13B9EB8A002B68D03C4D2846FEF702
:1049F00055FE2F46002861D1228B40F2FF239A42B8
:104A0000A5F1080E05F1100C19D16B8ABBB9AB8A60
:104A1000ABB9EB8A9BB92B8B8BB96B8BB3F5807FD2
:104A20000DD12B7FFF2B0AD195E80F008CE80F00EA
:104A30003378734430330FCB85E80F0011E0294DF4
:104A40002846FEF72BFED8F80030834236D197E88F
:104A50000F0085E80F003378234430330FCB87E80D
:104A60000F00282262713A22A271D8F800101E4865
:104A7000FF2200256023E2718822237084F82C3005
:104A800084F82820657010226580257184F82950EB
:104A90000231357003F023FC30784030204402218D
:104AA000FFF752FC337828331C446580FEF700FB87
:104AB0005023C0436080A9F8003003E00023A9F828
:104AC0000030337003B0BDE8F08F00BF205F0020DE
:104AD00080350020C83D0020CC3D0020285F00200C
:104AE000D03D0020385F0020505F0020105F002084
:104AF000C43D00202DE9F0414C4C4D4F00233B704C
:104B0000637063803A238046A3716020FF23207086
:104B1000E37199B96183A183E183218484F8221030
:104B2000022001212376607684F8231084F8243053
:104B3000537B84F82530D389E3840CE00B4604F1E1
:104B4000180601F1100E18685968354603C5083378
:104B500073452E46F7D1872384F82830354E00233D
:104B600084F82930E36202F1100E13461868596880
:104B7000354603C5083373452E46F7D10026267106
:104B800010462A4DFEF78AFD002836D1B8F1000FF5
:104B90000CD04346083508F11006186859682A46B3
:104BA00003C20833B3421546F7D105E005F11801F9
:104BB00005F10800FEF7C2FE22891C4B1E4D8AB982
:104BC0005A897AB99A896AB9DA895AB91A8A4AB96C
:104BD0005A8A3AB99A8A2AB9DB8A1BB92B803B7068
:104BE000BDE8F081387828234030637101212044EA
:104BF000FFF7AAFB50232B800CE018236B710E4BA0
:104C00002E8140226E81AE81EE812E826E82AE8236
:104C1000EE821A803B7828331C4400236380FEF721
:104C200047FAC0436080BDE8F08100BF205F0020EC
:104C300080350020505F0020105F002070B5274CA9
:104C4000602323703A23A371FF23E37140F2FF2313
:104C5000002523834FF40073657065806583A58309
:104C6000E58325846584A584E38404F1180104F1B7
:104C70000800FEF763FE1A4A137803F128010819A9
:104C800085260E5545702189257103F130001546A2
:104C9000144A89B9618979B9A18969B9E18959B990
:104CA000218A49B9618A39B9A18A29B9E18A19B930
:104CB00008236371108007E0403313801823637169
:104CC00001212044FFF740FB2B7828331C440023AC
:104CD0006380FEF7EDF9C043608070BD205F002067
:104CE00080350020105F002008B50548FFF76CFAFA
:104CF0000448FFF769FA0448BDE80840FFF764BAC2
:104D0000F0290020FC290020E4290020024B1B6828
:104D100003B1184718467047F43D0020014B186056
:104D2000704700BFF43D002010B51446FEF70CFAA2
:104D300018B1024BC4611B68836110BDC8320020EA
:104D400007B5074B8DF80700186828B1054B0DF122
:104D500007021978FDF73CFE03B05DF804FB00BFC5
:104D600034640020C566002008B5002202210448F2
:104D7000FDF72EFE034A00231380034A137008BD7B
:104D8000082A0020105F00208035002070B53A4DC1
:104D90002B88002B6ED0B3F5A06F67D8374B1A8BDA
:104DA00072B95A8B62B99A8B52B9DA8B42B91A8CA2
