:020000021000EC
:10F0000000000120199B0200499B02004B9B02005B
:10F010004D9B02004F9B0200519B0200000000002C
:10F02000000000000000000000000000539B0200F0
:10F030000000000000000000559B0200579B0200EA
:10F04000599B0200599B020065920200599B0200E5
:10F05000599B0200599B020059890200599B0200EA
:10F06000599B0200D18C0200599B0200599B02005F
:10F07000599B0200599B0200599B0200599B0200B8
:10F080002D8D0200358B0200599B0200599B020016
:10F09000599B0200599B020055950200599B0200A2
:10F0A000599B0200599B0200599B0200599B020088
:10F0B000599B0200599B0200000000000000000064
:10F0C000599B0200599B0200599B0200599B020068
:10F0D000599B0200599B0200000000000000000044
:10F0E0000000000000000000000000000000000020
:10F0F0000000000000000000000000000000000010
:10F1000000000000000000000000000000000000FF
:10F1100000000000000000000000000000000000EF
:10F4000010B5054C237833B9044B13B10448AFF35E
:10F4100000800123237010BD7C2A00200000000022
:10F4200070B40200084B10B51BB108490848AFF38F
:10F4300000800848036803B910BD074B002BFBD0C0
:10F44000BDE81040184700BF00000000802A0020DF
:10F4500070B402007C2A002000000000154B002B35
:10F4600008BF134B9D46A3F5803A00218B460F46FB
:10F470001348144A121A00F065F80F4B002B00D005
:10F4800098470E4B002B00D0984700200021040025
:10F490000D000D48002802D00C48AFF3008000F0AA
:10F4A0002BF82000290001F0D3FF00F011F800BF75
:10F4B0000000080000000120000000000000000023
:10F4C0007C2A00201C6B00200000000000000000CF
:10F4D00008B5074B044613B10021AFF30080054B7C
:10F4E0001868836A03B19847204600F033F800BFDC
:10F4F000000000000CA5020070B50E4B0E4CE41A83
:10F50000A41000251E46A54204D056F82530984781
:10F510000135F8E70AF0ECFF084C094BE41AA41097
:10F5200000251E46A54204D056F8253098470135DF
:10F53000F8E770BD742A0020742A0020782A002081
:10F54000742A002002440346934202D003F8011BB0
:10F55000FAE77047FEE700BF37B50388054633B1C9
:10F56000B3F5807F22D000230380032032E01A4CC1
:10F570002368012B03D02168184802F0B5F84FF238
:10F580000F0323601649174805F040FF1549164838
:10F5900002F0AAF801F0D8FA144B012181209B6AED
:10F5A00098474FF480732B80012013E0104B9A4250
:10F5B000F7D15368002098470028F2D100900D4BF6
:10F5C0000D4A074843F2163101F086FE0B4802F05F
:10F5D0008BF8E6E703B030BD000400401CA5020034
:10F5E000682B002031A502004EA50200D4B1020014
:10F5F000F4B1020001F6010088A502005FA5020037
:10F60000012A07B5084606D829B102A9002341F806
:10F61000043D00F0E4FF03B05DF804FB08B502F020
:10F6200045FC044B18600146BDE80840024802F062
:10F630005BB800BF1C2C00206CA50200F7B5038846
:10F64000B3F5897F04460F46154614D00BD8002B1E
:10F6500075D13D4D0121AB6881209847AB690121EF
:10F660008120984738E040F21F12934224D0B3F52E
:10F67000967F55D063E0344B9A422AD16B680020C4
:10F680009847064640BB314802F02EF8FFF7C6FF08
:10F690003346022231462E4800F0E0F92D492C482D
:10F6A00000F048FF04222C49294800F0A1FF2B4B11
:10F6B0001E8040F21F132380294B0193244B00939B
:10F6C000284A264843F21633394601F047FA012802
:10F6D00033D9254B9D4204D04FF4897323800120F8
:10F6E00030E06B680020984705460028F4D11F4899
:10F6F00001F0FAFFFFF792FF2B46022229461C4831
:10F7000000F0ACF913491A4800F014FF042219491B
:10F71000174800F06DFF184B1D804FF4967323803F
:10F720000F4B0193124B00930E4A134843F21633CA
:10F73000394601F013FA0128CED8002002E0002358
:10F740002380032003B0F0BDD4B102007DA50200E8
:10F75000782B002087A5020093A502003C2B0020F7
:10F76000A5F70100682B0020E4B1020098A5020073
:10F77000982A0020A2A50200502B002008B502F014
:10F7800095FB054B054A1B68C31A13600146BDE88B
:10F790000840034801F0A8BF1C2C0020642B002067
:10F7A000A7A5020007B502A9002341F8043D00F017
:10F7B00016FFFFF7E3FF019B187803F041FA019B66
:10F7C0000648197801F090FF054B06481A68019B1E
:10F7D000197801F089FF03B05DF804FBB7A50200BA
:10F7E000642B0020BBA502000346014400208B428D
:10F7F00004D013F8012B42EA0020F8E7704770B5F7
:10F800000C461E46236811467BB102689DF81050D5
:10F81000D5542568013525600068324628440AF031
:10F8200043FE23683344236070BD0260266070BDD0
:10F830000C2810B501D8C3B204E0B0F5867F94BFA0
:10F840000D230E231B010C295BB201D8CCB204E0BE
:10F85000B1F5867F94BF0D240E242343B0F5867F37
:10F86000137008D96FF4867403191B0A0D38907051
:10F870005370022005E00C2885BF0D385070002021
:10F880000120B1F5867F07D96FF486731418CB1861
:10F890001B0A6370023002E00C2902D901300D39D5
:10F8A0001154441C2146024801F01EFF204610BDA1
:10F8B00022A602002DE9F84F13F07F4A4FEA1347C2
:10F8C00016461C4614BF012500254FEA074907B11B
:10F8D000013534F0FF0801D0013500E004B10135F5
:10F8E000C1EB000B5A4601462B460F4801F0FCFEC7
:10F8F000324629465846FFF79BFFBAF1000F02D067
:10F90000230E33540130B9F1000F01D037540130C8
:10F91000B8F1000F03D0230A3354013000E00CB1DA
:10F9200034540130BDE8F88F3CA602002DE9F04FB9
:10F9300087B09846109F9DF84430039381463B461C
:10F940000E4692460146CDF800803A462D4801F019
:10F95000CBFE039B002B3CD000257B1CC3462C46D2
:10F960000593059BAB4248D308EB050304933A4645
:10F9700018F805302448294601F0B6FE18F805307D
:10F98000039A934201D0AF4221D1049BC6EB0906F2
:10F99000CBEB03030AEB0402194630460493FFF74E
:10F9A00047FF049B04441A4659460AEB04000AF038
:10F9B00070FD049B15481C448DE808083246234618
:10F9C000494601F091FE013508EB050B4E46013525
:10F9D000C7E7C6EB0906524639463046FFF728FF0F
:10F9E0003A460446414650440AF053FD3B463246EF
:10F9F000494607483C4401F077FE204607B0BDE881
:10FA0000F08F00BF5BA6020080A6020092A6020053
:10FA1000C2A60200002210B511460446104605F0A9
:10FA200039FB074B04821860204603F013FE0146A1
:10FA3000044801F059FE03F026FA034B188010BD6C
:10FA4000202C0020E5A60200262C0020024B18885E
:10FA5000013080B218807047262C0020F8B504468B
:10FA60000F4616461D46A4220021FFF76BFD677165
:10FA7000A6712581F8BD00002DE9F041044601235F
:10FA800021600A46037186B00F460189214801F0C2
:10FA90002BFE236800261E7022682179137843EA22
:10FAA00081131370216863790A781B0103F0300316
:10FAB00013430B70A37A216803F00F020B781343F2
:10FAC0000B702368A2795A70238922681B0A9370ED
:10FAD00023682289DA70A3792BB921680E4801F0D6
:10FAE00003FE042068E2A046A17A0C4801F0FCFD68
:10FAF00058F80B5B0435A37A9E4213D298F8001095
:10FB0000074801F0F1FD18F8013B05F8013B01360B
:10FB1000F1E700BFFDA6020019A7020041A70200FD
:10FB200050A70200A74801F0DFFD2946A64801F0D2
:10FB3000DBFDE37C03F0020303F0FF063BB394F824
:10FB40007200059094F87100049094F8700003908E
:10FB500094F86F00029094F86E00019094F86D0094
:10FB600094F86C3094F86B2094F86A1000909748E1
:10FB700001F0BAFD94F86A30009300212A46019101
:10FB800004F16B030120FFF7D1FE01260544E37C5D
:10FB90001A0710D5626C216C8D4801F0A5FD002379
:10FBA0000193236C00932A463146636C0320FFF7D0
:10FBB000BDFE03260544E37CDB0628D594F82C0023
:10FBC000059094F82B00049094F82A00039094F880
:10FBD0002900029094F82800019094F8270094F8E6
:10FBE000263094F8252094F824100090794801F0EC
:10FBF0007BFD0023019394F8243000932A4631467C
:10FC000004F125030420FFF791FE04260544E37C5C
:10FC100098060BD50021704801F066FD2A46314652
:10FC200000230520FFF746FE05260544E37C590620
:10FC30000BD5616E694801F057FD2A463146636E67
:10FC40000620FFF737FE0626054494F91330002BF3
:10FC50000DDAB4F85010624801F046FD2A463146EC
:10FC6000B4F850300720FFF725FE07260544237D12
:10FC7000DA0710D5E26CA16C5A4801F035FD2F234C
:10FC80000193A36C00932A463146E36C0820FFF7EA
:10FC90004DFE08260544237D1B0710D5226EE16D1D
:10FCA000514801F021FD2F230193E36D00932A4673
:10FCB0003146236E0B20FFF739FE0B260544A18B3E
:10FCC0004A4801F011FD237DD8060BD5A18B484889
:10FCD00001F00AFD2A463146A38B0C20FFF7EAFD0E
:10FCE0000C260544237D59060BD5216A414801F0B5
:10FCF000FBFC2A463146236A0E20FFF7DBFD0E2669
:10FD0000054494F91430002B14DAD4F89820D4F870
:10FD10009410394801F0E8FC26230193D4F894307C
:10FD200000932A463146D4F898300F20FFF7FEFDA5
:10FD30000F260544637D9A070DD5B4F868102F4847
:10FD400001F0D2FC2A463146B4F868301120FFF7A2
:10FD5000B1FD11260544637DDB0610D5A26D616DF2
:10FD6000274801F0C1FC26230193636D00932A46C6
:10FD70003146A36D1420FFF7D9FD1426054494F9EC
:10FD80001530002B57DA94F878001E491E4AB4F853
:10FD90007A30002808BF0A46616F1C4801F0A4FCB5
:10FDA000636F94F878201B010AB143F00803B4F89C
:10FDB0007A1000200909421C490892B228D0104646
:10FDC000F9E700BFC5A9020056A7020073A7020009
:10FDD000A5A70200B6A70200E4A70200F8A7020048
:10FDE00006A8020015A802002BA802003CA80200E9
:10FDF0005AA802006FA802007DA802008FA8020086
:10FE00009CA8020030A50200FBA60200B3A80200D5
:10FE1000002A18BF024602F00F0242EA03084146D8
:10FE2000674801F061FC2A46314643461720FFF738
:10FE300041FD17260544A37D180732D594F88400A8
:10FE40006049614AB4F88630002808BF0A46D4F8F1
:10FE500080105E4801F048FCD4F8803094F884208B
:10FE60001B010AB143F00803B4F886100020090909
:10FE7000421C490892B201D01046F9E7002A18BF87
:10FE8000024602F00F0242EA03084146504801F0E0
:10FE90002BFC2A46314643461B20FFF70BFD1B2651
:10FEA0000544A37DD9060DD5D4F88C10494801F03E
:10FEB0001BFC2A463146D4F88C301C20FFF7FAFC94
:10FEC0001C260544E37D1A0710D5626B216B42485E
:10FED00001F00AFC00230193236B00932A4631466C
:10FEE000636B2320FFF722FD232605443B4801F0E6
:10FEF000FBFB94F91730002B10DAE26BA16B38484A
:10FF000001F0F2FB00230193A36B00932A463146D4
:10FF1000E36B2720FFF70AFD27260544A37EDB06B7
:10FF20000CD5D4F890102F4801F0DEFB2A46D4F807
:10FF3000903031463C20FFF7BDFC054429462A4855
:10FF400001F0D2FB2368EB1A3E2B2DDC274801F091
:10FF5000CBFBB4F89E3013B1FF2305F8013BB4F896
:10FF60009E20D4F8A01028460AF09EFAB4F89E30DD
:10FF70001F48E918EE1B3246C91B01F0B5FB20688B
:10FF8000C579837842780178049585790395457918
:10FF9000029505790195C0780090164801F0A4FB00
:10FFA000B4F89E00304407E0134801F09DFB134B6A
:10FFB000134A002020601A6006B0BDE8F08100BF3F
:10FFC000CEA8020030A50200FBA60200E5A80200B0
:10FFD00000A9020017A9020023A9020035A9020006
:10FFE0004CA9020061A902006DA902008AA90200C1
:10FFF0009BA90200C8A90200FBA9020080280020DA
:020000022000DC
:100000000CAA02002DE9F041124C2668964698464B
:100010008C460246374600F11003106851683D4691
:1000200003C508329A422F46F7D17146A6F812C08E
:100030004246304605F046FA4146074801F054FB77
:10004000102200212068FFF77DFA236800225A82DF
:10005000BDE8F081202C00203BAA02002DE9F043EE
:100060000446884687B000219146A422FFF76AFA29
:10007000C4F8008098F800309B09237198F800209C
:10008000C2F30112627198F8002002F00F02A2720E
:1000900098F80110A17198F8020098F80310012B4C
:1000A00041EA0021218101D0C14A02E0082A04D995
:1000B000C04AC14B80201A600BE208F104052946B2
:1000C00004F10B000AF0E5F9A07C0590607C049037
:1000D000207C0390E07B0290A07B0190607B237BDF
:1000E000E27AA17A0090B54801F0FEFA08220021D8
:1000F00004F11300FFF726FAA67A0027354408EB2F
:1001000009039D4280F0E1812E7806F0F003F02B88
:1001100015D10135C8EB0508C8EB09091FFA89F9A3
:10012000B9F1300F8ABF3023A4F89E90A4F89E3016
:10013000B4F89E30C4F8A0500022EA54C5E1320958
:100140000D2A06F00F0603D16A7802350D320AE057
:100150000E2A03BFAA786B7802F20D12013504BF94
:1001600002EB032203350D2E03D115F8016B0D367A
:1001700008E00E2E06D16B782E7803F20D1303EBF8
:10018000062602351744334639468D4801F0ACFA4D
:1001900004EBD70007F00703012101FA03F2C37C47
:1001A0000E2F43EA0203C37400F0A9804DD8062F36
:1001B00000F0568136D8032F00F0EA8027D88F420E
:1001C00040F07681082E324628BF082284F86A2043
:1001D000294604F16B000AF05CF994F8720005906E
:1001E00094F87100049094F87000039094F86F00F4
:1001F000029094F86E00019094F86D00009094F8CD
:100200006C3094F86B2094F86A106E48AFE0042FBD
:100210007FD0052F40F04C8184F89C106A4801F093
:1002200063FA50E1082F00F0FD80C0F0B7800B2F7B
:1002300000F0EA800C2F40F03B8131462846FFF762
:10024000D3FAA08381B2614860E01B2F00F01081D7
:1002500038D8112F00F0828012D80F2F40F028815B
:10026000262300932A4604F1940104F198003346B2
:10027000FFF7C5FAD4F89820D4F894105448ECE06D
:10028000142F00F0DD80172F40F0128131462846F0
:10029000FFF7AAFA00F0070220F00F0191401023A7
:1002A000C0F3C00E9340E1674A4A84F878E0010940
:1002B0004948A4F87A30BEF1000F18BF02466167C2
:1002C0004648F2E0232F55D00BD81C2F40F0F08089
:1002D00031462846FFF788FA0146C4F88C004048AA
:1002E00014E0272F4AD03C2F40F0E28031462846C8
:1002F000FFF77AFA0146C4F890003A4806E0314622
:100300002846FFF771FA01462062374801F0ECF900
:10031000D9E0082E324628BF082284F82420294636
:1003200004F125000AF0B5F894F82C00059094F833
:100330002B00049094F82A00039094F8290002906E
:1003400094F82800019094F82700009094F8263043
:1003500094F8252094F82410244808E031462846D3
:10036000FFF742FAA4F8680081B22148CEE701F015
:10037000BBF9A8E0626B216B1E4802E0E26BA16B47
:100380001D4801F0B1F90C4B1C4A1A60A520A0E0F1
:10039000656426642A46314619485EE0314628469F
:1003A000FFF722FAA4F8500081B21648AEE700BF6A
:1003B00055AA02006CAA02008028002091AA02001F
:1003C000C6AA020073A70200F5AA02005AA80200FA
:1003D0007DA8020030A50200FBA60200B3A802001F
:1003E00081AB02008EAB0200E6AA0200B6A70200B3
:1003F0008FA8020004AB02004DAB020026AB020046
:10040000A5A7020006A802002F2300932A4604F1A4
:100410005C0104F160003346FFF7F1F9226EE16DF3
:100420002D481AE02F2300932A4604F1480104F1D5
:100430004C003346FFF7E3F9E26CA16C27480CE06F
:10044000262300932A4604F1540104F15800334650
:10045000FFF7D5F9A26D616D214801F045F932E051
:1004600031462846FFF7C0F9014660661D484DE752
:1004700031462846FFF7B8F900F0070220F00F01D7
:1004800091401023C0F3C00E9340C4F88810164A60
:1004900084F884E001091548A4F88630BEF1000F05
:1004A00018BF02461248C4F8801001F01DF90AE096
:1004B0003946104801F018F9FB0704D50E4B0F4AD6
:1004C0001A60822005E0354419E60D4801F00CF968
:1004D000002007B0BDE8F0832BA8020015A8020099
:1004E0009CA8020072AB020030A50200FBA602002D
:1004F000E5A802009BAB020080280020A9AB020007
:10050000C5AB0200FF299ABF81710120002070470E
:1005100010B5082A044628BF082282720B3009F061
:10052000B8FFA07A10BD037D818343F010030375EB
:100530000120704710B504460846013103782F2B7F
:10054000FAD0206609F0CBFF237DE06543F0080375
:10055000237510BDC27C02F0400202F0FF031AB105
:10056000436E0B600120704718467047C37C41669C
:1005700043F04003C3740120704730B590F9155023
:10058000039C002D0EDA09B1456F0D6012B190F891
:100590007810117013B1B0F87A201A8024B1C36FAB
:1005A000236001E0002030BD012030BD10B5A3F173
:1005B0001004B4F5FE6F10D8B1F5801F0DD2A0F86D
:1005C0007A30437D4167003218BF012263F07F0318
:1005D00080F878204375012010BD002010BDD0F8B0
:1005E000A0300B6013B1B0F89E00704718467047FA
:1005F000302A28BF3022C0F8A010A0F89E20104654
:10060000704700002DE9F04F95B003880E9043B17C
:1006100040F27912934218D00E9A002313800320DF
:1006200070E2AF49AF4801F05FF8AF48AF4900F062
:10063000AFFE00F039FB43F21630FFF7EBF90E9AEC
:1006400040F27913138001205CE2A94B1B788B42A6
:1006500040F05282A74DA84E2988A8480023337045
:1006600001F042F8A64B1B789807E8D5A54CA648A0
:10067000A64FDFF8DCA2DFF8B08201F035F8E07DAC
:10068000627A217AA37A0C90A07D0B90607D0A900B
:10069000207D0990E07C0890A07C0790607C06900B
:1006A000207C0590E07B0490A07B0390607B02900F
:1006B000207B0190E07A0090954801F015F83B7896
:1006C0002833E05A02F0C6FF2A880146914801F01B
:1006D0000BF82A88DAF800104046FFF7BFFC4546C1
:1006E00081463070CDF83CA0002840F0C181B8F8B8
:1006F000080098F80A3098F8052098F8041001903E
:1007000098F806000090844800F0EEFFD8F86020CA
:10071000D8F85C10814800F0E7FFD8F8A020B8F8BE
:100720009E107F4800F0E0FF98F80630DFF8248242
:10073000013B032B00F244813B782889283304F1E4
:100740000801E25A00F0BAFAC8F80000002800F0E8
:1007500031812023ADF842306B79CDF84490CDF84B
:100760004890CDF84C901BB92B894522022104E01A
:10077000FFF76CF94522034601216A48FFF76EF93D
:1007800069498A7A1AB10B316648FFF7C1FE12AB8C
:10079000009300220DF1420311A96348FFF7EDFE1B
:1007A00088B1129B0093BDF8422011995F48202325
:1007B00000F09AFFBDF84230202B28BF2023ADF86F
:1007C0004230129B13935A4BD3F80090B9F1000FAB
:1007D00000F0EC80D8F80020DFF848A1DFF848B13D
:1007E000BDF8423013A90091743251465846C847AB
:1007F000D146002800F0C8803378002B40F02E81CD
:100800009BF81630190711D59AF90630002B0DDB2D
:100810009AF816301A0709D4464800F065FF364B9F
:10082000A1221A70444B454A1A60ADE03E4B139921
:1008300093F91530002B80F28F80129B99422ED1B4
:10084000BDF84220B9F89E103D48DFF8D8A000F06E
:100850004BFFB9F89E2012998A4208D8394800F017
:1008600043FF82238AF806300F22374935E0BDF86E
:100870004230521A9A4294BF0022012211995046E6
:10088000FFF794FE1299BAF89E30BDF84220DAF8CC
:10089000A0005B1A9A4228BF1A4601441DE02B486B
:1008A00000F022FF139B11990133BDF8423006D1AD
:1008B000B9F89E209A4294BF0022012200E0012252
:1008C000DFF860A05046FFF771FEBDF84220B9F88E
:1008D0009E30934258D9DAF8A010504652E000BF3B
:1008E000DBAB0200E3AB0200AC280020FCAB020053
:1008F00088690020D4610020242C00200DAC020067
:10090000E4660020E46100203FAC0200DC360020F9
:100910005DAC0200A7AC0200B9AC0200E5AC02007D
:10092000F2AC0200302C0020E02C002003AD0200CD
:10093000DC2C002035AD0200802800204DAD0200E7
:100940005DAD020094AD0200D3AD0200E3AD020044
:10095000F06600202C2C0020C9B120216B4800F04B
:10096000C3FE139A6A48013218BF012200212023D6
:10097000FFF71CFEB9F89E20D9F8A01064481F2A82
:1009800088BF2022FFF734FE3378002B66D1D8F8D9
:1009900000905F4809F13601FFF76EF880B2A9F8C0
:1009A000340000285AD1C123337057E0A12333709B
:1009B000584A02E0A323584A3370584B1A604DE05E
:1009C0006B6823F07F4323F0FF032BB9544800F0FA
:1009D0008BFEC323337013E06B79022B03D1514894
:1009E00000F082FE0CE0032B0AD14F4800F07CFEA1
:1009F0003B782A89283304F10800E15A00F034FAE0
:100A0000DFF83C91B9F8080000F0DCF9C8F8000004
:100A100058B1D0F82CA0D0F830B000F071F9BAF18C
:100A2000000F02D049465846D0470023C8F800308E
:100A300099F80530DFF808A1012B0FD89AF8133088
:100A40005B060BD5DAF86410384800F04DFE3B78B1
:100A5000374828335246E15A00F0E0FB317841B97B
:100A6000D8F8000000283FF4EAAD00F05FF9E6E5B1
:100A70003178DFF8D080C22907D12E4800F034FE4B
:100A8000D8F8000000F03CF9D9E5DFF890902A484A
:100A9000D9F8002000F028FED8F8000000F030F966
:100AA0003278264BC32A03D100221A70032104E0B6
:100AB000BF2A84BFA0221A7002212B8932782048D5
:100AC000FEF7CCFFD9F80050284609F008FD29466A
:100AD00002461B48FFF78CFD3B7819482833E55A3E
:100AE0000F9B1C682146FEF7C7FF224683B22946AA
:100AF0000F48FFF787FAA2E588297FF4A0AD00F040
:100B00006FF99CE515B0BDE8F08F00BF12AE020092
:100B1000302C00205AAE02006BAE0200802800206C
:100B20007BAE02008AAE020098AE020072AB0200F9
:100B3000EC610020A6AE0200CFAE0200242C002003
:100B4000E02C00202C2C00200021014801F0B0BF37
:100B500084280020C160406801F0C2BF2DE9F3473E
:100B6000984603880A9E0446174623B140F2C312F2
:100B7000934262D05DE0404A0361126842603F4A9E
:100B8000C36013703E4A13603E4A1370FEF75EFF67
:100B900042463081394600F091F80546A060E8B140
:100BA000394BC362A3681C63216921B13023002241
:100BB0003046FFF7FBFCA568304605F13601FEF72D
:100BC0005BFFA886A06800F0B1F8328921692F4840
:100BD00000F08AFD40F2C313238030E02C4800F07F
:100BE00083FD2580022044E0DFF89490234D00230C
:100BF00000932A4649465046FFF7BFFC2878E36831
:100C00002449254AB3F89E30002808BF0A46D9F87F
:100C10000010224800F068FD2269D9F800108A42CD
:100C20001AD10B9BE06898472369013323612B7825
:100C3000D3B90023238003201BE0822901D00120A7
:100C400017E0D4F80CA0BAF1000FCDD1144800F091
:100C50004BFDA4F800A0C5E7124800F045FD094A85
:100C6000137801331370E2E7064B1B78032BE0D8AF
:100C70008CE702B0BDE8F08724340020D42C00209B
:100C8000D82C0020282C0020550B0200DDAE0200DD
:100C90003EAF020030A50200FBA602000DAF02002D
:100CA000F6AE020029AF0200024B1A68024B1A602E
:100CB000704700BF24340020882D0020F8B5074677
:100CC0000D480D46164602F0A6F8044690B10023E2
:100CD00003768780294600F11A0305F1100251F8C6
:100CE000040B43F8040B9142F9D166852146034871
:100CF00002F062F82046F8BD94280020842D0020E0
:100D000010B5044660B1083001F0A2FD2146054847
:100D100002F03FF821460448BDE8104002F08FB8C9
:100D200010BD00BF842D0020942800202DE9F04143
:100D3000044600F11A07838E418D00F136023846D1
:100D4000FFF760F994F83650C5F3011575BB237EA3
:100D5000032B1AD853B902F096F8C023B0FBF3F274
:100D600002FB130000F28110E06002E0E3685B0028
:100D7000E360124D124B2E681B682B6004F10800D3
:100D800001F04CFD2E60BDE8F081E66A618DD4F87B
:100D90003080384600F04AF82046FFF7B1FF56B1E0
:100DA000294640463346BDE8F04118472046BDE895
:100DB000F041FFF7A5BFBDE8F08100BF243400205B
:100DC000882D002010B50446044801F0D8FF20B15A
:100DD0008388A34201D00068F9E710BD842D00206C
:100DE00010B5094801F0CBFF044664B104F10800D6
:100DF00001F01DFD28B1237E013323762046FFF745
:100E000095FF2468F1E710BD842D002010B5014640
:100E10000446044802F013F821460348BDE8104098
:100E200001F0B7BFA028002024310020F8B5064605
:100E30000C480F4601F0A3FF002504467CB11022A8
:100E4000314604F1180009F015FB30B9238DBB427F
:100E500003D12046FFF7DAFF01352468EEE7284684
:100E6000F8BD00BF243100202DE9F04106460F48AF
:100E70000F46904601F083FF0025044694B11022EE
:100E8000314604F1180009F0F5FA48B9238DBB4248
:100E900006D1A38E434503D12046FFF7B7FF0135A6
:100EA0002468EBE72846BDE8F08100BF243100202C
:100EB0002DE9F84F0A9F8B4691461E4600F082FAB4
:100EC00001F05DFF002480462546B8F1000F77D081
:100ED0004DB13B689D4205D3B4423EBF2C2309F877
:100EE0000430013401353B689D4205D3B4423EBF16
:100EF0003C2309F8043001343A686B1C934205D353
:100F0000B4423EBF2F2309F804300134D8F804005E
:100F100009F0E5FA02353B6805EB000A9A4510D95D
:100F2000D8F804205B1B711C002BACBFD318131C1A
:100F3000091B09EB0400334A00F00EFC0444A642EE
:100F40003ED93B689A4505D3B4423EBF3E2309F8DB
:100F500004300134D8F80C300AF101053BB31B789A
:100F60002BB33B689D4205D3B4423EBF3B2309F8F7
:100F700004300134D8F80C0009F0B1FA0AF1020A81
:100F80003B680AEB00059D4211D9CAEB030AD8F869
:100F90000C301C4A711CBAF1000FA8BF5344091B46
:100FA00009EB040000F0D8FB0444A64209D3B44284
:100FB00003D93A682B1B934203D8D8F8008084E702
:100FC0004CB1494622465846FFF712FB28215846A5
:100FD000FFF7A9FA09E045B182215846FFF792FAD6
:100FE0000F2209495846FFF703FBB8F1000F04D15F
:100FF0004FF0FF333B60BDE8F88F3B681E443E6016
:10100000BDE8F88F70AF0200D3AD020038B50C46D2
:10101000054620B90E4800F067FB042038BD0D4896
:1010200000F062FBAB79413B3E2B04D90A4800F04B
:101030005BFB032038BDEB7C5B0604D4074800F063
:1010400053FB022038BDB4FA84F0400938BD00BF1C
:1010500079AF020086AF020096AF0200ABAF02008C
:101060002DE9F0410A4D0B4C0E4617460146002271
:101070002846FEF7F3FC21682846FEF7FDFC2268AF
:1010800083B239463046BDE8F041FEF7BBBF00BF32
:10109000FC310020F066002010B50446837F427FBB
:1010A0008169064800F020FB2146054801F0C7FE93
:1010B00021460448BDE8104001F06BBECCAF0200F1
:1010C000D0280020F8310020F8B50F4604460A4821
:1010D00000F00AFB01213846E66AFFF797FF054654
:1010E0001EB1024639462046B04725B12046BDE82C
:1010F000F840FFF7D1BFF8BDF7AF020070B5054665
:101100000C480E4601F03BFE04468CB16A78297803
:10111000094800F0E9FA237FB34201D02468F4E7DC
:101120003246294604F11D0009F0A4F90028F5D142
:10113000204670BDF83100201CB002002DE9F843B4
:10114000804616488946164601F019FE00250446D9
:1011500004B33146124800F0C7FA10224146201D60
:1011600009F088F9A0B9A38A4B4511D1A769BE42FD
:1011700004D12046FFF790FF013509E0384609F019
:10118000AEF931460246384609F074F90028F0D02D
:101190002468DDE72846BDE8F88300BFF831002069
:1011A00059B002002DE9F843089E90463246894620
:1011B0001F460546FFF7C2FF154801F02CFE044606
:1011C00018B386612A46061D05F1100310685168A0
:1011D000354603C508329A422E46F7D13A46414673
:1011E000A4F81490277704F11D0009F052F9099B27
:1011F000E3620A9BA362A169A37F627F054800F0B6
:1012000073FA2146044801F0D7FD2046BDE8F88373
:10121000D02800206EB00200F8310020F7B5144647
:10122000064622480F4600F05FFAA57A204800F0F3
:101230005BFA0DB91F482DE01F4800F055FA29460A
:1012400004F10B00FFF75AFF054648B91B4800F0B0
:101250004BFA23893A4631460320FFF701FF22E08B
:1012600063792BB923893A4631460220FFF7F8FE0D
:10127000EB6AC3B100212046FFF7C8FE01280646ED
:101280000CD101A92046FFF765F9019B2A6B9A4210
:1012900003D10B4800F028FA05E02B63EB6A3246D5
:1012A00021462846984703B0F0BD00BF97B0020022
:1012B000B3B00200C2B0020007B102001EB10200CA
:1012C00067B10200034B1A7801321A7003600120E3
:1012D000704700BFA43200202DE9F043AFB00E46A6
:1012E000904605469946FEF7B1FB012203460021D0
:1012F00005A8FEF7B3FB414605A8FFF71BF900213F
:1013000005A8FFF733F904A8FFF7DCFF0828024619
:10131000049928BF082207460DF11F008DF81E20F2
:1013200009F0B7F832462946BDF81C00FFF7C6FCA5
:101330000446F8B1369B029328468DE800033B46ED
:10134000049A3146FFF72EFF054660B10D4B20632E
:10135000E36204F1360105A8FEF78EFBA086204665
:10136000FFF7E4FC0AE0084800F0BEF92046FFF76A
:10137000C7FC03E0054800F0B7F9254628462FB022
:10138000BDE8F083C91002007DB102003EAF02004B
:1013900010B5044641600146084801F00DFD94F97E
:1013A0000830002B09DA216ACB6933B18B6823B18D
:1013B0000348BDE8104001F0FFBC10BDAC32002076
:1013C000A832002000487047AC32002048DF704748
:1013D00010B5038804462BB1572B0BD00023038094
:1013E000032010BD4021174801F006FA572323803F
:1013F000012010BD144B1B788B4209D1114801F01C
:1014000027FA012001F026FC022001F01BFCEDE789
:101410000E4B1B788B4207D140210A4801F0ECF9B2
:10142000022001F017FCE1E78829DFD1054801F02F
:10143000FEF90028DAD0034801F0E7F9012001F0B5
:1014400011FCD3E7F8320020515C0020505C0020F2
:1014500013B5002348223249082008F03BF818B1A0
:101460000022114607F0C2FF07F08EF908B907F015
:1014700061F901F0DBFB00F0FBFC01F03DFB00F04B
:10148000F3FD01F083FA002001F018FD00F0B8FD33
:10149000244800F097FD01F05DFC0021224801F096
:1014A00007FB01F083F801F0F3F800F043FD1F4B58
:1014B00018601F4B01221A7000F012FE1D4800F048
:1014C00073FE06F03FF9684600F042FE684605F0FC
:1014D0008DFF08226946184808F0DBFF164803F024
:1014E00079FF0021154801F0E3FA0021144801F0CA
:1014F000DFFA0021134801F0DBFA134801F00CF881
:1015000000F0CEFD00F09AFE01F058FA044600F01B
:10151000CFFD14F0FF0FF7D1FFF758FFF4E700BF3E
:10152000B0320020112D020014290020A0610020FB
:1015300094610020ACB10200DC610020DC280020B6
:10154000CC2900203429002010A502000346802B5E
:1015500037B51046A2F10D0402D0812B16D02BE036
:10156000002203238DF806208DF8072001A9144AD4
:101570008DF804308DF8053007F010F9114804217A
:1015800000EB041001F0CEFA012016E00E4D49B137
:10159000012107F069F92B68012000FA04F42343C4
:1015A0002B600AE007F0ACF92B68012000FA04F484
:1015B00023EA04042C6000E0002003B030BD00BF2B
:1015C000E51502000C330020083300201022FFF73D
:1015D000BDBF0F22FFF7BABF0E22FFF7B7BF0D2224
:1015E000FFF7B4BF70B5A0F10D05114C2D012C44CF
:1015F0000646204601F0A8FAC0B10421204601F0B9
:1016000091FA304607F09EF9064620B900F04EFCEC
:10161000E660A06004E000F049FCA368C01AE06046
:1016200004482844BDE8704001F0F2BC70BD00BF22
:101630000C330020D4B10200813801289DBF034B38
:10164000186800F004000020704700BF0833002035
:1016500008B530B9084607F075F980F00100C0B24E
:1016600008BD012803BF034B03EB011151F8C40C63
:10167000002008BD0C3300201021FFF7E9BF0F2127
:10168000FFF7E6BF0E21FFF7E3BF0D21FFF7E0BF35
:10169000813801289DBF034B186800F00800002026
:1016A000704700BF08330020813801289DBF034BDD
:1016B000186800F001000020704700BF08330020C8
:1016C000813801289DBF034B186800F002000020FC
:1016D000704700BF0833002008B5084612B1114614
:1016E00006F014FA002008BD0FB407B504AA054897
:1016F00052F8041B019200F057F803B05DF804EBB8
:1017000004B07047EC28002038B543689342044683
:10171000154698BF03F1FF352A46006808F0B9FE68
:1017200023682B44236063685D1B6560002038BD1F
:101730001FB51446074A02928DE803001A46214657
:1017400002A8CDF80CD000F02FF8009B00221A70F0
:1017500004B010BD091702000CB407B504AB53F870
:10176000042B0193FFF7E4FF03B05DF804EB02B034
:101770007047000070B505460C46102C07D92B6841
:10178000084968681022984750B9103CF5E734B111
:101790002B68686803492246BDE870401847204618
:1017A00070BD00BF5EB202002DE9F04F8FB006465B
:1017B000154606914FF0000B069B1B78CBB1069C9B
:1017C000274617F8013B1BB1252B14D03C46F7E701
:1017D000069BA3420DD0069B06997068C3EB0408D4
:1017E000424633689847002840F01F832378C3445B
:1017F00023B9584634E3069BA342ECD16378002B0F
:10180000F7D03946002408460A4610F8013B2B2B36
:1018100011D006D8202B11D0232B12D144F008046C
:1018200016E02D2B04D0302B0BD144F010040FE028
:1018300044F001040CE044F0060409E044F0020422
:1018400006E0A3F13107082F11D84FF0000801E09E
:101850000146D8E70A4611F8013BA3F130000928F8
:1018600013D80A2202FB0838A8F13008F2E72A2B25
:1018700009D12B68002B05F10405B8BF44F0010421
:101880009846024601E04FF0000813782E2B1BD13A
:101890005178A1F13000092802F101030ED8194650
:1018A00000270A78A2F1300009280B4601F1010156
:1018B0000DD80A2303FB0727303FF2E72A2904D17A
:1018C0002F68931C043502E013464FF0FF371A7857
:1018D0006C2A09D15A786C2A02D144F080040AE0BB
:1018E000013344F060040BE0682A09D15A78682A71
:1018F00003D144F02004023302E0013344F04004F9
:101900001A78642A3CD01FD8462A48D00DD8252AF8
:101910005AD003D8002A3FF46CAF57E0412A4AD08E
:10192000452A53D144F4424450E0582A31D004D8D7
:10193000472A4BD144F4A13448E0612A38D0632AC5
:1019400044D144F4A06441E06E2A3AD007D8662A14
:1019500022D027D3672A28D0692A11D036E0732AEB
:101960002CD006D86F2A11D0702A2FD144F440749D
:101970002CE0752A07D0782A28D144F4C85425E0F1
:1019800044F4245422E044F410641FE044F48854E6
:101990001CE044F4B24419E044F4007416E044F44A
:1019A000844413E044F4024410E044F481340DE034
:1019B00044F4C1340AE044F4E13407E044F48064C0
:1019C00004E044F4E06401E044F4C06401330693AD
:1019D00004F4E063B3F5806F00F0908113D8B3F5A1
:1019E000807F27D0B3F5407F7FF4E6AEAE4BAF4AA1
:1019F000286814F4804F18BF1A460DF133030435DC
:101A000000211F46B6E1B3F5C06F08D0B3F5E06F13
:101A100000F02182B3F5A06F7FF4CEAEF1E1336820
:101A2000A349706801229847002840F0FE810BF11D
:101A3000010BC1E6002FACBF24F01004012714F401
:101A40000053079304F0E0032ED0402B12D005D8AA
:101A5000ABB1202B21D195F900200DE0602B0ED0E9
:101A6000802B1AD1073525F0070303F10805D3E9C8
:101A7000002307E0B5F90020D317043502E02A68F7
:101A80000435D317002A73F1000108DA524263EBE0
:101A90004303CDE90023012304E000220023CDE924
:101AA00000230023059329E0402B13D004D8BBB1B9
:101AB000202B1DD12A780EE0602B11D0802B17D15E
:101AC000073525F0070303F10805D3E90023CDE925
:101AD00000230BE02A880023CDE90023043505E02C
:101AE0002B6800221946CDE900120435079BD9E77F
:101AF0000023059300220023CDE9002304F4C05302
:101B0000B3F5805F0CD0B3F5C05F33D0B3F5006F91
:101B10004FD1DDE900230DF13609CDE9022304E0C0
:101B2000DDE900230DF1360915E0DDE90223134359
:101B30003AD0DDE902010A22002308F00FFB30321F
:101B400009F8012DDDE902010A22002308F006FB55
:101B5000CDE90201E9E752EA030125D002F00701CD
:101B6000303109F8011DD10841EA4371D8080A460D
:101B70000346F0E74C4B4D4914F4804F18BF19460B
:101B8000DDE900230DF1360952EA03000CD002F022
:101B90000F004FEA131E085C09F8010D100940EA16
:101BA000037002467346EFE70DF13603C9EB0303FA
:101BB00002E00DF1360900230293029B41F6080270
:101BC000BB4238BFFF1A02EA040241F2080328BFF1
:101BD00000279A4202D1002F08BF0127029B41F63D
:101BE00008018A4203EB07000DD1DDE9002313430E
:101BF00009D0304A304914F4804F4FF0020A0CBF2C
:101C00000B46134602E04FF0000A5346079A9AB17A
:101C1000059A52B904F00602022A0AD0062A274A77
:101C200004BF4FF0010A134606E04FF0010A244BAF
:101C300002E0244B4FF0010A0AEB000290458CBFF2
:101C4000C2EB08084FF0000814F0010200920DD119
:101C5000E10602D54744904608E0414630460593E8
:101C6000FFF788FD059B002840F0DF80BAF1000FE8
:101C700007D03468706852461946A047002840F0E3
:101C8000D480029B03EB0B04BB46BBF1100F3368FF
:101C90001CD910220C4970689847002840F0C58074
:101CA000ABF1100BF1E700BF2BB202003CB2020017
:101CB0005CB2020050B202004DB20200FBA602006C
:101CC00053B2020017A702001BB20200BBF1000FC3
:101CD00006D05A46644970689847002840F0A580AD
:101CE0003368029A7068494654449847002840F087
:101CF0009C80009B3C44002B39D032E0D5F800900A
:101D00000435B9F1000F0AD0CA469AF800300AF13A
:101D100001020BB19246F8E7C9EB0A0A03E0DFF8CB
:101D20004C914FF0060A002F02DBBA4528BFBA4695
:101D3000D0458CBFCAEB08084FF0000814F001072B
:101D400005D141463046FFF715FD00286DD13368B7
:101D50007068524649469847002866D10AEB0B0442
:101D60002FB141463046FFF705FD00285DD108EB55
:101D7000040B21E550EA010E0ED000F00F0E4FEAE1
:101D8000111C12F80EE003F801ED4FEA101E4EEAA6
:101D9000017E70466146EDE7FF1A01BF302203F86D
:101DA000012C012703F1FF3378220337B84503F8EC
:101DB000012C4FF0300203F8022C88BFC7EB080853
:101DC0004FF0230298BF4FF0000814F00104A3F174
:101DD000030903F8032C04D141463046FFF7CAFC3F
:101DE00018BB336870683A4649469847E8B95F447B
:101DF00024B141463046FFF7BDFCB0B908EB070BF4
:101E0000DAE4B8F1010F2B688DF820308CBF08F1AF
:101E1000FF384FF0000814F0010405F1040508D163
:101E200041463046FFF7A6FC10B14FF0FF3017E0F7
:101E3000C34433687068012208A998470028F4D188
:101E400008F101072CB141463046FFF793FC00280A
:101E5000EBD1BB44B0E42B680435C3F800B0ABE46D
:101E60000FB0BDE8F08F00BF1BB2020055B20200F8
:101E700010B50B4B0B4A0C48002421461C6006F0A1
:101E800009FE18B12246214607F0B0FA06480121A2
:101E900006F03EFE0448BDE8104006F02DBE00BF2F
:101EA0004C330020D91E020070B20200014B1868AA
:101EB000704700BF4C33002008B5064A1368013351
:101EC000136000F0BDFC18B1BDE8084000F018BC7C
:101ED00008BD00BF4C330020042801D1FFF7ECBF40
:101EE00070470000014B1868C00970474C33002050
:101EF000B0F5A27F01D100F001BE704708B5074AD6
:101F00000748002106F066FE18B10022114607F0CE
:101F10006DFA0348BDE8084006F0B0BEF11E0200AD
:101F200078B20200012302461946014806F0BEBEFF
:101F300078B202000021014806F0AABE78B2020081
:101F4000F7B50746FFF7F6FF184D194CA8600126B4
:101F5000A6703B78B3420AD1164B1B6813B17A685E
:101F6000107898470121144807F0ECF80FE083B986
:101F7000124800F0D9FF002809DD104800F0C4FF26
:101F800002AB314603F8010D184607F06BF8A37851
:101F90004BB1FFF7CFFF0A4AA96893685B1A184450
:101FA00000239060A37003B0F0BD00BFA0610020CB
:101FB000946100205033002054330020D833002097
:101FC00060610020014B1860704700BF5033002053
:101FD00007B502AB012103F8010D184607F042F8DE
:101FE000112807D19DF80710044800F07AFF08B9BE
:101FF00020BFF7E703B05DF804FB00BFD833002033
:1020000030B50F4D0FCD89B06C460FC495E80F0069
:1020100084E80F000B49684606F0AAFF18B10022B9
:10202000114607F0E3F980220749084800F052FF03
:1020300007F006F90121064807F084F809B030BD21
:1020400080B20200411F020055330020D833002027
:10205000543300204FF0A0434FF4F012C3F808258A
:102060000022C3F80C25704708B50A49002006F085
:102070006FFE18B10022114607F0B8F9064806F0C5
:102080009DFE18B10022114607F0B0F9034B012262
:102090001A7008BD55200200E1330020E033002013
:1020A000024B1B780BB106F07BBE7047E03300207B
:1020B000034B1B781BB1034B187806F0D9BE704751
:1020C000E0330020E133002070DF704771DF70479C
:1020D00073DF70477CDF704784DF704760DF7047D5
:1020E0001FB508220DEB02000021FDF72BFA9DF829
:1020F0000830002243F0010302A803928DF8083053
:10210000FFF7ECFF10B1114607F070F90F4807F028
:1021100017FA18B10022114607F068F96846FFF770
:10212000D5FF18B10022114607F060F90022694678
:1021300010468DF806208DF80020FFF7C5FF10B17E
:10214000114607F053F905B05DF804FB592202006F
:1021500013B504466846FFF7B9FF18B100221146CF
:1021600007F044F99DF8052062709DF80420A270E4
:10217000FF22E270FE2222719DF8032062719DF819
:102180000220A2719DF80120E2719DF800209DF8C7
:102190000630237012B923F0020301E043F002037A
:1021A000237002B010BD000030B591B001229DF83F
:1021B000003010AC62F3030362F30713054604F822
:1021C000403D08F08CF9294682B22046FFF782FF95
:1021D00018B10022114607F009F9164B1868019052
:1021E0000021382202A8FDF7ADF902238DF808304E
:1021F00004238DF80B300123ADF81830002101AB1A
:1022000002A8079307F055FC18B10022114607F009
:10221000EDF8094C182200212046FDF793F9002320
:102220004FF405722370636023722282638211B0BF
:1022300030BD00BFA0B20200E433002008B505485D
:10224000FFF746FF28B100221146BDE8084007F01D
:10225000CDB808BDE433002010B5044607F040FDBA
:102260002388102B02D0112B07D010BDA08800228C
:10227000FF21BDE81040FFF72FBFBDE81040FFF77A
:10228000DDBF8ADF704748DF7047012070470120BB
:10229000704700207047000038B50388054613B327
:1022A000FD2B03D000230380032038BD82291AD1DF
:1022B0000F4CB4F8081504F1080005F0F3FA94F98E
:1022C0000A15042089B205F017FB21460F2005F0FE
:1022D00021FB0849102005F01DFB074B00221A6066
:1022E000064BDB689847FD232B80012038BD00BFDB
:1022F000525C0020E06A00200834002098B30200FD
:1023000038B5044605F054FA054605F065FA294645
:102310000246204607F0C0FEB0FA80F0400938BD02
:102320002DE9F041054610200E4605F0FFFA194947
:10233000194C074605F051F828B93946204605F0F2
:102340004CF8C8B120E06389B3B12389A3B104F18B
:102350000800FFF7D5FF0446FFF7AAFE64B10F4B54
:1023600001221A601C46226822B1FFF7A1FEFFF786
:102370008AFFF8E7012301E00123042231462846C1
:10238000BDE8F04105F0E2BA04F10800FFF7B8FF3C
:102390000446E3E75DB30200FC3300200C34002068
:1023A00007B5042200210DEB0200FDF7CBF80C4B22
:1023B000019301A807F044FE18B10022114607F06E
:1023C00015F800F0DBFA074B187000F0D7FA064B4F
:1023D00000211870054800F06BFB03B05DF804FBAA
:1023E000F1230200515C0020505C0020F428002002
:1023F00073B5054640482B880689B34206D1448907
:102400006B889C420CBF0446002400E000240B783B
:10241000032B6ED8DFE803F0023644664A68D17BAE
:102420008DF80110917B8DF80210FF218DF80310BB
:10243000FE218DF80410517B8DF80510117B8DF86D
:102440000610D17A8DF80710137C927A8DF800303F
:1024500012B923F0020301E043F002038DF80030CB
:10246000002E43D14389002B40D104222946234822
:1024700008F00FF8082269461F4808F00AF83246AB
:102480001F4B08E0002C34D00C2200212046FDF721
:1024900059F81C4B00221978104600F0E1FA28E0A8
:1024A0003CB3194B1A6822BB4A689289B2F5A06FF7
:1024B0001FD8164E0120A6F8082518604B6806F1B3
:1024C0000800996807F0E5FF08222146304607F02A
:1024D000E0FF06F20A512888FFF7D3FE0C4800F00F
:1024E000FFFA06E00B4B00221A6002E0284607F0D4
:1024F00003FE002002B070BDFC3300200434002035
:10250000515C0020505C002008340020525C002008
:10251000F42800200C34002010B5041F54F8040FD8
:1025200018B1002100F0C4FAF8E710BDF8B503882F
:10253000064615462BB14A2B15D0002303800320F5
:10254000F8BD174800F01BFC04462CB1A168201D03
:1025500000F052F92468F8E7124B01221A704A235E
:1025600033800120F8BD8829FBD10D4800F007FC1D
:102570000446002CF3D0231D9D420ED1214608486D
:1025800000F007FC084B62691F681A60A2691D46CB
:102590000AB1E06990472F60E1E72468E9E700BFEE
:1025A00010340020143400202434002010B5064BD1
:1025B000064800241C7000F0DFFB21460448BDE8FB
:1025C000104000F075BA00BF143400201034002011
:1025D0000429002070B50446049DE3610A4B65613F
:1025E0001B78A26143B1094D094B2E682B60201D59
:1025F00000F002F92E6000E0A16021460548BDE828
:10260000704000F0D9BB00BF1434002024340020F7
:10261000042900201034002013B5034C24680094D2
:10262000FFF7D8FF02B010BD2434002070B5094B6D
:102630001B7805463BB1084C084B266823600430E4
:1026400000F0E3F8266029460548BDE8704000F038
:10265000B3BB00BF14340020243400200429002020
:102660001034002010B5084B1B7804461BB1043011
:1026700000F0EEF801E0C360036121460348BDE8C5
:10268000104000F086BB00BF14340020103400203E
:1026900010B50023064C074807491A4644F8232082
:1026A00040F823205A5401330C2BF7D110BD00BF42
:1026B000A0610020606100209461002010B50E4CE4
:1026C000236813B90D4A136010BDFFF7EFFB2168B3
:1026D00091E80C001A44131A8A6842B192E8120079
:1026E0002144091A8B4228BF0B469268F5E718442B
:1026F000024B186010BD00BF183400201C340020AD
:10270000014800F0EDB900BF142900202DE9F8437D
:102710000388054633B1592B0BD0002303800320D7
:10272000BDE8F883234A136059232B800120BDE8BC
:10273000F883872924D08229F6D11E4F4FF0000854
:10274000B9463C680026002CEED0204600F0FCF98B
:1027500098B122468821E06800F082F958B9E0601B
:10276000A3680EB1B36001E0C9F80030C4F8088076
:10277000FFF7A4FFE5E7FFF7C3FF2646A468E2E7FB
:102780000C490B6800201BB90028CDD00B60CBE7AB
:10279000DC68A24202D19B680120F4E700B10B6023
:1027A00099680029C0D0C868824206BF89689960CC
:1027B0000B46F5E71834002010B50446FFF7A0FFDC
:1027C000E3680B4A4BB113683BB1A34203D1094AFA
:1027D0001268DA6007E09B68F6E7064B1B68E36067
:1027E0001368A3601460BDE81040FFF767BF00BF27
:1027F000183400202434002010B5044600F092F96B
:102800002046BDE81040FFF7D7BF10B5044600F0E2
:1028100090F92046BDE81040FFF7CEBF10B5044642
:1028200000F08CF92046BDE81040FFF7C5BFC06836
:10283000B0FA80F04009704705C8104470470000A6
:10284000024B1868003018BF012070471834002070
:1028500010B50B4A13688342044606D1836813609F
:1028600008E09A68944203D01346002BF9D103E0A4
:10287000A2689A60FFF722FF0023A360E36010BD07
:102880001834002038B5836804460D469BB10A48C9
:1028900004600220A07304F10C009847023801285C
:1028A00001D9832D05D121462046BDE8384000F0EE
:1028B0000BB80123A37338BD24340020837BDB07CE
:1028C00001D5FFF7DFBF70472DE9F8431C4A1D4EC5
:1028D00015683768044689462B469046A34204D0C3
:1028E0000BB11B68FAE7BDE8F88334B3A37BABB147
:1028F0000023A37345B1A54204D022468721284670
:10290000FFF7DCFF2D68F5E7A3683BB14C4505D028
:1029100034602A46832104F10C009847D8F800302F
:102920009C4203D12268064B05E0134623B11A6886
:102930009442FAD122681A603760BDE8F88300BF7C
:10294000283400202434002070B50A4A0023137074
:10295000094A146801261D4654B1E37B33B1A673BE
:10296000E573002282212046FFF78CFF2468F3E7FD
:1029700070BD00BF2234002028340020024B18789C
:10298000421C1A70704700BFB4350020064B8A22E3
:102990001A70064A00231370054A1370054A136023
:1029A000054A1360704700BFB43500202034002072
:1029B0002134002028340020243400202DE9F04167
:1029C0001F4E33780BB1FFF7BFFF1E4D2C78002C44
:1029D00030D0DFF884E01C499EF800301B4FDFF850
:1029E0007C800C225A4388180133895C42688068D5
:1029F000397003F01F03013CC8F800208EF8003046
:102A00002C7088B9124C134B1B68236023688BB160
:102A100033780BB1FFF798FFD8F800203978206899
:102A2000FFF74CFF2368EFE7812904BF012383737D
:102A3000FFF744FF337828781844BDE8F08100BFE1
:102A4000223400202134002030340020B53500200D
:102A5000B035002028340020203400202C34002001
:102A6000F0B50B4E3378202B0FD00A4C0A4F247848
:102A70001C440C2504F01F046C433D1901333955E7
:102A8000A8606A6033700020F0BD0120F0BD00BF77
:102A900021340020203400203034002038B5034C8D
:102AA0002568FFF70BFF256038BD00BF24340020E8
:102AB00030B40A4C25680A462B4683420CD00BB131
:102AC0001B68FAE740B101210560817320608381B2
:102AD000812130BCFFF7E2BF30BC704728340020B2
:102AE00038B1837B013B012B9FBF024A0123C37393
:102AF0001370704722340020FFF700BA10B5084C5D
:102B0000206858B100232360816843689847236890
:102B100023B11868BDE81040FFF704BA10BD00BF2C
:102B2000B835002010B541600446FFF7BFF92060BA
:102B300010BD90E80C0013440360704710B50446C4
:102B4000FFF7B4F9206010BD10B50446FFF7AEF9E9
:102B50002368C3F1010303446068834294BF0020EB
:102B6000012010BDF8B52D4C267820704640F107A5
:102B700016D510F001052A4F06D0FFF7DBF9294BD7
:102B8000D8600123FB700BE0FB784BB1FFF7D2F963
:102B9000254A2449D368C968FD705B1A1844D0607F
:102BA000B20719D523781E4D03F0020303F0FF0787
:102BB00033B1FFF7BFF91B4B186101232B710BE0F9
:102BC0002B794BB1FFF7B6F9174A16491369096912
:102BD0002F715B1A18441061730719D52378104DB3
:102BE00003F0040303F0FF0633B1FFF7A3F90D4B25
:102BF000586101236B710BE06B794BB1FFF79AF9C8
:102C0000094A0849536949696E715B1A1844506151
:102C10002078BDE8F84004F059BF00BFBC35002063
:102C200094610020A06100206061002008B504F0DC
:102C30002FFF024B00221A7008BD00BFBC350020D8
:102C4000FFF790BF024B1B781843FFF78BBF00BF05
:102C5000BC350020024B1B7823EA0000FFF782BF3F
:102C6000BC350020024B1B785840FFF77BBF00BFEC
:102C7000BC35002070B50588672D044609D0792D34
:102C800030D0002D34D1FFF779FE1C4B18701C4B4F
:102C90001D601B4D2E461B4800F036F9431C01D128
:102CA00067231DE00A28164A07D02B687E2BF2DC2A
:102CB0005A1C3260144AD054EDE71368591C116055
:102CC000114A0025D5540D4B28461978FFF7C8FE48
:102CD0000E4B2A4685211868FFF7C2FE20B97923DA
:102CE000238009E0852907D1054B00221A60D0E72F
:102CF00000230380032070BD012070BDD06100203F
:102D0000CC360020403600204936002024340020F4
:102D10000D2810B5014615D00B4C23782BB90B4864
:102D200000F0DFF848B9012306E00A2805D107487A
:102D300000F0D7F808B1002323700548FFF7D0FE54
:102D4000012010BD002010BD483600204036002074
:102D50002429002008B505490548802200F0BAF86A
:102D600000210448BDE80840FFF7A2BEBD350020A1
:102D700040360020242900200023036070470068AB
:102D80007047006800B9704703680BB11846FBE74D
:102D90007047036810B573B1002499421A6806D1D0
:102DA0000CB9026000E0226000221A6010BD1C46CF
:102DB0000AB11346F1E710BD38B50546FFF7E9FF44
:102DC00000230B60FFF7DDFF08B9296038BD016003
:102DD00038BD38B50446FFF7DCFF03680B6021609F
:102DE00038BD0368002013B101301B68FBE7704752
:102DF00000B10068704710B5044642884068002161
:102E0000FCF7A0FB23886288A0685A430021BDE834
:102E10001040FCF797BB10B5418800238B420CDAB9
:102E20004268D418D25C32B90122227002888068CC
:102E300003FB020010BD0133F0E7002010BD30B5E8
:102E4000826844880023A3420DDA8A4207D1416890
:102E5000CA5C0AB1013ACA544268D05C30BD0588E8
:102E600001332A44EFE7FF2030BD82688A4208D848
:102E70004388008800FB032081422CBF00200120F2
:102E800070470020704707B52A23ADF806300DF1D2
:102E9000050006F015F89DF80530012BF7D9022141
:102EA0000DF1060006F00EF818B10022114606F0EA
:102EB0009DFABDF8060003B05DF804FB08B50020DC
:102EC00005F0E8FF28B100221146BDE8084006F0F1
:102ED0008DBA08BD0023013A01600271437183710C
:102EE000704710B5427983790479D31A34EA030321
:102EF00008D00368995443795A1C037913404371ED
:102F0000012010BD002010BD837942790179D21AC9
:102F10000A421FBF0268D25C01330B401ABF8371A3
:102F200010464FF0FF3070474379827900799B1A41
:102F3000184070472DE9F0410688772E054631D0BC
:102F40007E2E40D0002E4ED1FFF718FD2A4C2B4B81
:102F50002B4FDFF8B480266018702646236857F898
:102F600023204AB1002108F8031080209368984775
:102F7000336801333360F1E7224A1370772320E08E
:102F8000214AD256002A12DB1B4A13680133136010
:102F9000194B1C4A1B6812789A42F1DC1B4B1B68C8
:102FA000002BEBD0194A00231360134AEFE7144AB1
:102FB00052F82320114B00201978FFF751FD30B94A
:102FC0007E232B8014E00D4B1B788B4210D10A4BD3
:102FD0000D491A688B5C03F07F038B540B4A13680E
:102FE00001331360D0E7002303800320BDE8F081A4
:102FF0000120BDE8F08100BFD4360020D16100205F
:103000004C2A0020D0360020166B0020D836002035
:1030100010B40B4B0B491A780023934203DA51F892
:103020002340A04209D108490848CA5C62F07F02E7
:10303000CA545DF8044BFFF753BD0133EDE700BF01
:10304000D03600204C2A0020166B002034290020A6
:1030500010B5013A0A4491420CD20C784B7803EB3C
:1030600004239BB2184480B2834284BF013080B2F3
:103070000231F0E707D10B781B02184480B283427B
:1030800084BF013080B210BD37B5124B124D1C7891
:103090002B796A79C4EB032313449BB2ADF8063055
:1030A000BDF8063010FA83F0202205F1080180B245
:1030B000FFF7CEFFBDF8062004F1280192B22944A3
:1030C000FFF7C6FF10B140BA80B201E04FF6FF70C3
:1030D00003B030BDDC360020E4610020F8B52C4F91
:1030E0002C4D97F800E02C4C0EF1280C0CEB05034E
:1030F00002205E782070F60007360021864242DB0F
:103100000CEB0003EA18EB5C012B05D002D3632B18
:1031100006D014E0013033E05278023210442FE040
:1031200001B1207003F0FAF8B8B93B78227828335F
:1031300013441D446B78134402332370F8BD03F02D
:10314000C003802B04D0C02B09D0402B15D102E046
:1031500051B1207008E001B120700120F8BD01B12B
:1031600020702B7EFF2BF8D00EEB000228320221BC
:10317000042001F0A5F90220F8BD53780233184469
:10318000C0B20121BAE701B120700020F8BD00BF34
:10319000DC360020E4610020DE3600203A20FFF714
:1031A00073BF1120FFF770BF08B500F0BDFC01F040
:1031B00073FA01F04FFF084B08484FF480621A8001
:1031C0000023194600EB43120133DBB20A2B1182B4
:1031D000F8D1034A137008BDE036002004670020D0
:1031E000E236002070B5104D2978E1B10F4E3288DB
:1031F00001F12703934202DB0023338012E00C4CE1
:10320000283A521A2046214407F04EF92A7833888A
:103210009B1A9BB23380283B1A1204F8233C04F813
:10322000242C00232B7070BDDC360020D4610020DC
:103230000C6200202DE9F0412B4A2C4E13881446D5
:1032400001339BB2B3F5FA4F28BF4FF480531A0AEB
:1032500042EA032292B200250A2D07D0013506EB7F
:10326000451737F8107C9742F6D1E9E72380204CC8
:10327000DFF878C0002323701F460A2B1BD05D01A6
:103280000CEB050603F1010EB6F81080174E5FFA3D
:103290008EFEB8F1000F0BD107B123707419228292
:1032A000618268B9014610222046FCF74BF913E011
:1032B00073460127E1E707B123700020BDE8F081E4
:1032C0000346274600F1100E186859683A4603C2B3
:1032D000083373451746F7D1064B35441B792B75D8
:1032E0002046BDE8F08100BFE036002004670020E2
:1032F000E23600204468002004282DE9F84F844E6F
:1033000000F04A818349844A844C0C60052814608B
:103310000F4612D1824B1B681B8A002B00F07C8168
:103320000C3C14607F48804A0C60002313800360CB
:1033300033807E4B08221A702CE114F83C3C03F0D9
:10334000F003602BA4F13C0440F06681227963799C
:1033500031881202D018884200F35E81283313446A
:103360003380237AFF2B00F0578104F1180000F01E
:103370000DFA60B16E4A6F4B13606F4D6F4B0021B9
:103380002970197091469B4690469A4623E004F1B5
:10339000180000F0A5FA0028ECD1237EFF2B40F0A6
:1033A0003B81E7E71DD93B2B00F036813C2B1FD139
:1033B0009BF80030990733D55A065DD443F040039B
:1033C0008AF80030FFF78AFE012800F025812AD311
:1033D000022800F01C81D9F8000003782C2BE1D1E1
:1033E0001AE1112B6CD02B2B29D0002B44D102E0F9
:1033F0003A2B41D146E09BF80030DA073CD443F049
:1034000001038AF80030FFF769FE012800F004810B
:10341000DED22B7803F128012144C8F8001008E01F
:1034200043F00203CCE72B7803F128012144C9F8CB
:1034300000104978083303EBC1032B70CBE79BF8EE
:10344000003003F0040202F0FF01AAB943F00403C4
:103450008AF800302B7803F128002044C27812B19A
:1034600003F12A020AE04178334AC8F80000083321
:1034700003EBC1031370AEE7021B0121042001F02E
:103480001FF8C4E0FFF78AFE4FF6FF73984240F042
:10349000C3802B782833E05C01F008FE2B782833BA
:1034A000E218E05C517800F0E9FF012801BF002339
:1034B000214A338013703388002B00F0AD80A6E0E2
:1034C000FFF790FE3388E28D303B33801C4B3B602E
:1034D00098465AB9638D002B00F09E80194B104D11
:1034E000DFF864B02B6003F5A07A0CE0FFF759FE1B
:1034F0004FF6FF73984240F08F80EBE70B8A2BBBAF
:103500002B6820332B6029685145F7D384E000BF36
:10351000D4610020F0660020D861002020620020E5
:10352000EC660020F466002000670020E4660020BE
:10353000E8660020EA610020DC360020DD3600204D
:103540001462002004670020E4610020628D9A422A
:10355000D6D14B8A1BB1BBF828209A42D0D10B6838
:103560002BB94B681BB98B680BB9CB682BB11022F8
:103570002E4806F07FFF0028C2D12D4AC7F80080F0
:10358000002313602B4A022111702B4AC2F80080DD
:103590002A4A138001F0B6FE284B1A88002A3BD035
:1035A00002F13003264C9BB23380283B1912637121
:1035B000244B21711B68083252BA197DA285002262
:1035C000E2851A8A22855A8AE17111216285A171E8
:1035D0000FCB04F1180585E80F00294604F1080017
:1035E00000F024FA184B04F13C021A60FFF7D9FDF1
:1035F000C04380B208B1E08502E04FF6FF73E38577
:1036000003F03EF860232370002363706380094B4E
:1036100000221A70BDE8F88F0C4A002313700C4A80
:1036200033801370034A1370BDE8F88FEC610020FB
:10363000F4660020E4660020D861002000670020C6
:10364000E4610020EC660020F0660020DC360020FB
:10365000DD36002040BA80B27047020C131243EAF4
:1036600002239BB240BA43EA004070472DE9F84379
:10367000099D9DF8206099460023044617462B605B
:1036800002FB0108F60844450DD2237843B13246C7
:103690004946A01C06F0EEFE18B92C60BDE8F88380
:1036A0002C603C44EFE72B68002B14BF0120022064
:1036B000BDE8F883F7B5174C0091034605460F4661
:1036C00016460194202203211348FFF7CFFF01285B
:1036D0001CD12368187023682846023305F11002B4
:1036E00050F8041B43F8041B9042F9D120688774FA
:1036F00046B13146143004F019FA064B1B6800221B
:103700001A7701E001230377206800E0002003B06E
:10371000F0BD00BFE83600200869002008B1002392
:103720000370704713B5074C03468DE81200202242
:1037300003210548FFF79AFF08B9206800E0002040
:1037400002B010BDE83600200869002070B50D4BAE
:103750000D4C0646236003F160052068A8420FD295
:1037600003781BB9236820332360F6E7827C314657
:10377000D208023006F07EFE0028F3D1012070BD91
:10378000002070BD08690020E836002013B58023B2
:10379000074C009301940346202203210548FFF7BC
:1037A00065FF08B9206800E0002002B010BD00BF2E
:1037B000EC3600205C6800200D4B0E4A30B503F15A
:1037C0006001136048F2FE0413688B420CD21D782E
:1037D0003DB1451C02D09D7C854202D15D88A54249
:1037E00003D020331360EFE70023184630BD00BF3D
:1037F0005C680020EC36002037B580230F4D009325
:10380000044603460195122204210D48FFF72EFFBE
:1038100001282B460ED12A6810702A6820460232F1
:1038200004F1100150F8044B42F8044B8842F9D1DE
:10383000186800E0002003B030BD00BFE43600206F
:10384000BC680020F7B58023204C00930546034652
:103850000E4617460194202203211D48FFF706FF5C
:10386000012830D12368187023682A46023305F1F5
:10387000100152F8040B43F8040B8A42F9D1206876
:10388000C77416B90123037505E00023037531469B
:10389000183004F04BF923680E4801219974022373
:1038A0004370FF220023027043808380C380038122
:1038B0008372C17202736B7B4373EB89C381FFF721
:1038C0009BFF206800E0002003B0F0BDEC36002034
:1038D0005C680020F036002008B1002303707047B8
:1038E00013B58023074C0093019403461222042150
:1038F0000548FFF7BBFE08B9206800E0002002B0D1
:1039000010BD00BFE4360020BC68002038B5054675
:10391000C8B10D48022200244270FF230122C27266
:1039200044808480C4800481847203730370EB7BC1
:1039300043732B8AC381FFF7D3FF044A106008B199
:10394000FFF7CAFF2C7038BDF0360020E4360020A7
:1039500070B51C4B1C4C03F16005236026462068A3
:10396000A8420ED2037843B1037D33B9183004F076
:10397000E5F810B13068FFF7C9FF236820332360F2
:10398000EDE700F065FC114C114B2360264603F176
:1039900060052068A8420ED2037843B1037F33B993
:1039A000143004F0CBF810B13068FFF7B7FE23688D
:1039B00020332360EDE700F0B7F90648BDE870401A
:1039C000FEF723BF5C680020EC360020E8360020BC
:1039D000086900206869002010B5082204461044D8
:1039E00006F057FD237A83F00203237210BD30B531
:1039F0000139451E002315F8014F11F8012F94429B
:103A000003F1080005D1C0B2802801D00346F2E7D7
:103A100030BD6240C0B2110606D40133DBB25200A1
:103A20009842D2B2F7D130BD184630BD2DE9F84FDB
:103A30000A8848F2FE039A4205460F4623D00A78C8
:103A4000FF2A20D01C491D4A0A600024A04689464E
:103A500002F1600A9B46D9F80060564517D23378C8
:103A60006BB1B37C012B0AD173885B4507D0B11CC5
:103A70003846FFF7BCFF80459CBF34468046203661
:103A8000C9F80060E7E70120FFF796FE04464CB94D
:103A90002C806C80AC80EC802C816C81AC81EC81C2
:103AA000BDE8F88FA31C123453F8042B45F8042BFF
:103AB000A342F9D1BDE8F88FEC3600205C68002005
:103AC00010B500F0ADFB78B90A4C2378022B0BD867
:103AD00001F06AFA23780848013323704FF400712B
:103AE000BDE81040FEF788BE0348BDE81040FEF771
:103AF000AFBE00BF003700207869002070B5094EC6
:103B0000B0684508FFF7BFF90446FFF7BCF9240287
:103B1000B268A4B22044B0FBF2F302FB13002844C5
:103B200070BD00BF4468002070B52A4C00F074F8E6
:103B300000F0AEF9602200212748FBF703FD0021C9
:103B4000C0222046FBF7FEFC244B20221A70244B97
:103B500018221A704FF4A06323604026214B26716F
:103B6000A360FFF7CBFF002542F21073E0602361F2
:103B700025751D4C48F2FE032A4631462046238017
:103B80006580A580E580FFF795FD20461749FFF782
:103B900023FF294601222046FFF754FE40F2FF236F
:103BA000238020464FF48073E3816580A580E58003
:103BB00025816581A581FFF71FFEFFF764F900F0FD
:103BC0007F010B48FEF718FE0C210A48BDE8704043
:103BD000FEF712BE44680020086900200569002035
:103BE00004690020C0270900F0360020DC610020B5
:103BF000786900206869002010B5044640B101F0E2
:103C00002DFD044B21461868BDE8104003F062BD4D
:103C100010BD00BF44290020024B0349186803F07F
:103C200063BC00BF44290020F93B02002DE9F843A2
:103C30009846154B05461868914603F0A9FC0446C2
:103C4000F0B1074605F11003286869683E4603C6CF
:103C500008359D423746F7D1002104F1100084F861
:103C6000219084F8228003F061FF04F11800002104
:103C700003F05CFF002384F82030204601F0EEFCC6
:103C80002046BDE8F88300BF44290020024B0146CE
:103C9000186803F045BD00BF4429002070B50C4DE5
:103CA0000646286803F058FC044666B9002070BD3B
:103CB00010223146204606F0DDFB38B12146286847
:103CC00003F026FC0446002CF2D1EFE7204670BD3D
:103CD00044290020024B0146186803F0E7BC00BFEE
:103CE00044290020FFF7F6BF08B5FFF7D7FF18B14A
:103CF000BDE80840FFF7CABF08BD000070B5054623
:103D000010200E4603F012FE0649044603F065FB40
:103D100030B9324629462046BDE8704001F066BC05
:103D200070BD00BF5DB302002DE9F843414D424E26
:103D30002868DFF8088103F00FFC00270446002CF8
:103D400075D094F82230042B6BD8DFE803F01C0305
:103D50006A32400004F11009484603F0EFFE0028E3
:103D60005FD0204600F014FA48B1032384F82230D3
:103D70000521484603F0DAFE84F8207051E0022362
:103D800084F822304DE094F82030022B2BD804F137
:103D90001809484603F0D2FE002842D03188002995
:103DA0003FD194F82030013384F820302246084671
:103DB0002CE004F1100003F0C1FE90B3042384F85A
:103DC000223084F82070002104F1180027E094F8D4
:103DD0002030022B0BD9204600F0DAF918B1037F0E
:103DE0000BB900F0B3F92046FFF706FF19E004F124
:103DF0001809484603F0A2FE98B1308888B994F8B3
:103E00002030013384F820302246214601F028F882
:103E10004846D8F810104FF47A73B1FBF3F103F071
:103E200085FE2146286803F073FB044687E7BDE85A
:103E3000F88300BF44290020D4610020446800209A
:103E40002DE9F84305460F48DFF840900F469046AD
:103E5000FEF795FF044694B1012D04D80A48FEF7F9
:103E6000C0FF034601E0D9F8003066684246394693
:103E70002846B0472046FEF7BBFF0446EBE7BDE807
:103E8000F88300BFD43E00206C3A0020643A002042
:103E900008B50B48FEF7AFFF0A48FEF76DFF0A4B67
:103EA0000A49186803F020FB0948FEF7A4FF0948F7
:103EB000FEF762FF0848BDE80840FEF75DBF00BF9F
:103EC00078290020103B002074290020394002008E
:103ED000582900206C3A0020D43E002008B540B19B
:103EE000044B4168186803F01BFCBDE80840FFF76D
:103EF000F9BE08BD742900200148FEF740BF00BF8D
:103F0000103B002008B1FEF773BF7047F8B50746B5
:103F1000FFF7F2FF002504462E46A4B194F82420B2
:103F200095420BD8D20804F10801384606F0A2FAEF
:103F300020B994F82450802D07D026462046FFF75C
:103F4000E1FF0446E9E76EB134460748FEF717FF84
:103F5000844207D021460448FEF71BFF2146024851
:103F6000FEF737FF2046F8BD103B002038B5044669
:103F700000283ED04368002B3BD001461D48FEF789
:103F800008FF63685868FEF7FAFE054630B14368DB
:103F90009C4207D02846FEF72BFFF6E704F1080005
:103FA00001F0C6F9636829465868FEF7F2FE6368B7
:103FB0005868FEF7E4FE28B9636859680E4B186824
:103FC00003F088FB21460D48FEF739FF29460C48CF
:103FD000FEF735FF0B4A13682046013B1360FFF7DD
:103FE0007DFF04F108010246BDE838400320FFF7D9
:103FF00027BF38BD103B00207429002078290020FD
:1040000084290020643A002010B5044680B140683D
:1040100070B1FEF7B4FE20B14068FFF7A7FF6068FB
:10402000F7E7044B21461868BDE8104003F052BB87
:1040300010BD00BF74290020FFF7E6BF2DE9F84F3F
:104040000746104689469046FFF74EFE834610B954
:104050000020BDE8F88F3846FFF758FF044670B1DE
:10406000FFF73CFF014618B92046FFF77FFF06E047
:104070001022404606F0FEF90028F5D158E02E4BFC
:104080001A68142A9A4604D12C48FEF77AFEFFF7E4
:104090006DFF2B4E5946306803F008FB054658B9B2
:1040A0005946306803F074FA05460028D0D0002342
:1040B00068600360FEF760FE2248FEF7ACFE04462F
:1040C0000028C5D001461D48FEF783FE1E48FEF7B6
:1040D000A2FE20B921461B48FEF7B1FEB8E74460B6
:1040E00001466868FEF768FEDAF800306560013363
:1040F00029463068CAF8003004F1080503F000FBD7
:1041000007F110063B46186859682A4603C208336F
:10411000B3421546F7D10C22002184F8249004F113
:104120001800FBF70FFA424639460220FFF788FED7
:104130002046BDE8F88F00BF643A0020103B002005
:1041400074290020782900208429002038B50546EC
:104150000D48FEF714FE0446A0B1AC420ED1214634
:104160000948FEF716FE21460848FEF768FE221DA4
:1041700011460120BDE83840FFF762BE2046FEF739
:1041800037FEE8E738BD00BF6C3A00205829002010
:1041900038B505460848FEF7F2FD044648B110223E
:1041A0002946201D06F066F918B12046FEF720FECC
:1041B000F3E7204638BD00BF6C3A0020F8B505464D
:1041C0000F46FFF7E5FF044640B91348FEF723FE0C
:1041D0000446F0B101461148FEF7FBFD2B46261DB3
:1041E00005F1100E18685968324603C2083373454A
:1041F0001646F7D137B1394604F1140003F096FCA6
:10420000002300E0012323772A4629460020FFF7F8
:1042100017FE2046F8BD00BF582900206C3A002048
:1042200038B50A48FEF7ABFD0025044664B1251DEC
:104230002846FFF733FD10B190F8223023B920460D
:10424000FEF7D6FD0446F1E7284638BD6C3A00205B
:1042500010B50A48FEF793FD044670B1237F43B9B9
:1042600004F1140003F06AFC18B12046FFF76EFF5A
:10427000EFE72046FEF7BCFDEEE710BD6C3A0020EC
:104280002DE9FF47374C384D94F8078004F10803B7
:104290000FCB8DE80F002B786F46002B41D002F03A
:1042A000BBF9DFF8CC902B7806463A2210B398423F
:1042B00084F8282017D0B9F80020D21A024492B20C
:1042C000A9F80020283A1112627103F1280E121A7F
:1042D000181AA644C0F104002171043A0EF1040139
:1042E000704406F0E1F8B9F800302E709E1BA9F872
:1042F000006016E0A271B9F80020D21A92B2A2F1C1
:1043000028010812207103F128002044C3F104039E
:10431000A9F8002061712C3A011D184406F0C4F878
:104320002E701248DFF848A0FEF729FD06469EB120
:10433000D6F80490B9F1000F09D0BAF800302A7805
:104340002C3B22449BB2383241463846C84730465F
:10435000FEF74EFD0646EAE7054B2E701E8004B0C0
:10436000BDE8F087E4610020DC360020103F00202B
:10437000D4610020F8B53B4B3B4C1B79E371237EA5
:10438000FF2B04F1180604F1080508D195E80F0089
:1043900086E80F0031462846FFF748FB1BE0334A0A
:1043A0002F46B6463B4603CB7345106051601F460F
:1043B00002F10802F6D196E80F0085E80F002B4BBA
:1043C0002B4D03F11006186859682A4603C20833BA
:1043D000B3421546F7D1274D2B78ABB302F01CF949
:1043E0002B7806463A22C8B198421F4984F8282003
:1043F00029D021480288D21A324492B20280283A47
:104400001012087103F12807981B4A710F44921B80
:10441000C0F10400043A391D384412E01649A27173
:104420000A88D21A92B20A80A2F1280108122071D9
:1044300003F128002044C3F1040361712C3A011DEB
:10444000184406F031F82E702B782833E5188122B5
:10445000E25400236B706B80FEF7A0FEC0436880BF
:10446000F8BD00BF44680020E4610020003F002048
:10447000FC610020DC360020D461002038B5044601
:104480000B480D46FEF77BFC50B10379A34204D1E3
:1044900043799D4206D0FF2B04D0FEF7A9FCF3E739
:1044A000012038BD8368002BFAD09847002038BD22
:1044B000143F002001460148FEF77EBC143F002057
:1044C0002DE9F74F4F4D504C2B7881468846924648
:1044D00043B12833E35C3A2B0BD14C4A00231380C1
:1044E0002B708CE0A3793A2B03D194F92830002B60
:1044F000F3DA02F091F8464E464A2870864606F1F5
:10450000100C37469346334603CB63451060516029
:104510001E4602F10802F6D13C4E338830339BB27E
:10452000B3F5A06F88BF4FF4A06333803288364B59
:104530000193CEEB020204EB4E001946303A3030C4
:1045400005F0B2FF6022297822700022627062803A
:10455000019B3A2211B183F8282000E09A712E4A7B
:10456000294B1279E271228972B95A8962B99A8902
:1045700052B9DA8942B91A8A32B95A8A22B99A8A60
:1045800012B9DB8A002BA8D0DFF890E09EE80F007C
:1045900087E80F009BF80030FF2B0AD1B9F1040F18
:1045A0009BD1B8F1020F98D11A497046FFF73EFA35
:1045B0000AE0184B03F1100718685968724603C2E5
:1045C0000833BB429646F7D12F7807F12803E2184B
:1045D00004F80390504682F80180FFF73EF83388D4
:1045E0002C37283BE0511A1263712B782271283343
:1045F0001C4400236380FEF7D1FDC043608003B0FC
:10460000BDE8F08FDC360020E4610020D46100209A
:10461000FC610020003F002044680020EC61002085
:104620002DE9F843184C1D46602323703A23A371EB
:10463000164B1B79E3712B1D04F1180690461A12D4
:104640000027894622710146102230466371677047
:10465000678005F01EFF314604F10800FFF7E6F918
:104660000B4B1B7828331E1903F8049086F8018041
:104670007780FEF793FD074B2C35C04370801D807B
:10468000BDE8F84300F038BDE46100204468002034
:10469000DC360020D461002008B50448FFF70AFF8B
:1046A0000348BDE80840FFF705BF00BF9029002080
:1046B0009C29002010B50223044601704370082293
:1046C0000549184405F0E5FE04F10A000622002120
:1046D000BDE81040FAF736BFDC6100202DE9F04F4D
:1046E000AE4CAF4EE379DFF8DC92FF2B85B040F0A3
:1046F0009381228948F2FE039A4240F08D813378FB
:10470000E21892F82920002A40F086812C331A19E9
:104710001B5D0BB1A3490B71506870B1A14DAF681F
:10472000FEF79BFF874208D033782344186BFEF7CF
:1047300094FFA860FFF7E2F9E86033782344586BF0
:1047400018B1FEF78AFF974B1861974F974D0C23CE
:104750003B70A846337803F12C023B781344B9F838
:104760000020934280F23481E2185178002900F051
:104770005381E35C032B4FD0052B47D0012B40F036
:104780000381DFF830B28A48CBF80020FFF786FAC1
:10479000DFF82CA2CAF8000088B9DBF8001029B1B4
:1047A000082202310DEB020005F073FE0223012204
:1047B00002A97F48FFF73AFACAF80000E4E0FFF7E1
:1047C00065FADAF8002092F82210034611B90221A6
:1047D00082F82210DBF8000001931946082202300B
:1047E00005F048FE019B58B1724A1168184608222C
:1047F000023105F04EFEDAF80030022283F8222062
:10480000DAF80030012283F82120BDE05068FEF77D
:1048100024FF644B1860B7E050682A60FEF71DFF64
:104820002B6882469868FEF718FF8245C0F0AC807E
:104830002868028A48F2FE039A4200F0A58090F9A7
:104840000330002B34DA8178DFF87CB11030FEF7CA
:1048500069FF2B68CBF80000024688B9586838B366
:10486000411C03F1100A997804D00191FEF7F5FE7E
:10487000019902465046FEF71DFFCBF8000017E0F5
:104880005B6823B1591C05D10123037710E0FEF7C3
:1048900045FF0DE001901846FEF7DFFE019A014644
:1048A00002F1140003F042F9DBF8003000221A771D
:1048B000D8F80030DA78500666D55A68002A63D0F6
:1048C0009A78402A60D1DFF8F4E003F1200C10332D
:1048D0001A4603CA6245CEF80000CEF8041013460B
:1048E0000EF1080EF4D134493448DFF8E0A0FFF7A8
:1048F00073F83248FEF74AFF0346CAF8000080B357
:10490000C27C012A2DD1D8F800104868411C26D05D
:10491000FEF7A3FEB0F5E15F0BD9DAF80000D8F896
:10492000003000F1180B5868FEF797FE0146584614
:1049300010E02B685868FEF790FE8346DAF8000016
:10494000183003F00BF98345E7D8DAF800004FF48C
:10495000E151183003F0EAF8DAF8003000221A7555
:1049600012E0D8F800305868FEF777FE013002D127
:104970000122002105E02B685868FEF76EFE012237
:1049800001460E48FEF75EFF33783A782C33134425
:1049900023445B7802EBC3023A70DBE6E46100205B
:1049A000DC36002044680020283F0020183F00200B
:1049B000EC610020243F0020DC610020303F00201B
:1049C000203F0020D46100201C3F00202C3F00200D
:1049D0001548FFF7DDFB154B1B782C331C440546AF
:1049E0006388B3B1124B1B6813B1012283F82120F5
:1049F000608835B9FEF72EFE01460B48FFF7DEFB57
:104A00000AE0FEF727FE014605F1140003F08EF8D8
:104A100002E008B1FFF79AFB0023A9F800303370D9
:104A200005B0BDE8F08F00BFEC610020DC3600204F
:104A3000203F00202DE9F74F704CDFF8E081E3794B
:104A4000FF2B40F0CF8098F80010631893F82930BE
:104A5000002B40F0C7802C3101EB040C9CF8043093
:104A6000FF2B00F0BF8011F804B00BF0400303F0FF
:104A7000FF0200921BB1237EFF2B00F0B380604D3C
:104A80006048614E2D880195002214230370326026
:104A9000174615468246019803EB010E864518DA43
:104AA00004EB0E0999F8010040B90FB156490D60A9
:104AB000002A00F097808AF8003093E014F80E2066
:104AC00003EBC003022A04BF4D460127DBB20122DB
:104AD000E1E70FB14C490D600AB18AF800300CF1E2
:104AE0000400FEF753FE494B186000287AD198F86D
:104AF000000020443030FFF7D1F8454C2060FFF72C
:104B0000C5F823688146002B6CD0306830B108228C
:104B10004946023005F0AEFCC5B200E00546226809
:104B20003B4B92F822A001932BF07F07FFB2BAF122
:104B3000000F1FD13168002954D0082202314846A5
:104B400005F0A7FC9DE80C007AB11868012380F8F5
:104B50002230304B80F820A0D96810304FF47A739F
:104B6000B1FBF3F102F0E2FF39E01B68022283F8A7
:104B7000222034E01BF0200F07D135B1BAF1010F2C
:104B800030D1022382F822302CE0316891B3082220
:104B90000231484605F07DFC009B6BB12068012383
:104BA00080F822301B4B1030D9684FF47A73B1FB78
:104BB000F3F102F0BBFF07E0134B1B6823B11DB1FB
:104BC0002368022283F82220236893F8213033B12E
:104BD0002FB91148FFF7DCFA08B1FFF7B7FA2368DD
:104BE00083F82170064A0023138088F8003003B050
:104BF000BDE8F08F009B002BD0D1E5E7E4610020F9
:104C0000D4610020283F0020243F00202C3F0020BA
:104C1000203F002044680020EC610020DC360020AA
:104C20002DE9F74F844C854EE379DFF82C92FF2B6A
:104C300040F0FA803378E21892F83020FF2A00F032
:104C4000F380234493F82920002A40F0ED807C4B28
:104C50007C4F1A60DFF804A214223A709846254669
:104C600030783B78B9F800202C300344934257DA6F
:104C7000E2185178002900F0D780E35C012B45D180
:104C80002B89C8F800207BB96B896BB9AB895BB9FC
:104C9000EB894BB92B8A3BB96B8A2BB9AB8A1BB911
:104CA000E38A002B00F0C0806748FEF7F7FFCAF8E0
:104CB000000070B9D8F8001021B10822023168460E
:104CC00005F0E7FB0223002269465F48FEF7AEFFCE
:104CD0001CE0FEF7DBFF8346D8F8000008225946A7
:104CE000023005F0C7FB48B1554B19680822023164
:104CF000584605F0CEFBDAF8003004E0DAF8003070
:104D000093F8222012B9022283F8222033783A78CD
:104D10002C33134423445B7802EBC3023A709FE7C1
:104D200020440430FEF732FD484B434D186098464E
:104D3000002879D02B8973B96B8963B9AB8953B9D2
:104D4000EB8943B92B8A33B96B8A23B9AB8A13B980
:104D5000EB8A002B68D03C4D2846FEF717FD2F4606
:104D6000002861D1228B40F2FF239A42A5F1080E60
:104D700005F1100C19D16B8ABBB9AB8AABB9EB8AC0
:104D80009BB92B8B8BB96B8BB3F5807F0DD12B7FB0
:104D9000FF2B0AD195E80F008CE80F00337873449D
:104DA00030330FCB85E80F0011E0294D2846FEF780
