:020000021000EC
:10F00000000001200D2002003D2002003F200200F0
:10F0100041200200432002004520020000000000C1
:10F020000000000000000000000000004720020077
:10F030000000000000000000492002004B200200F8
:10F040004D2002004D2002002D1D02004D20020027
:10F050004D2002004D2002001D1202004D20020032
:10F060004D200200D91602004D2002004D20020062
:10F070004D200200A51802004D2002004D20020084
:10F080002D170200191402004D2002004D2002002D
:10F090004D2002004D2002004D2002004D200200B4
:10F0A0004D2002004D2002004D2002004D200200A4
:10F0B0004D2002004D200200000000000000000072
:10F0C0004D2002004D2002004D2002004D20020084
:10F0D0004D2002004D200200000000000000000052
:10F0E0000000000000000000000000000000000020
:10F0F0000000000000000000000000000000000010
:10F1000000000000000000000000000000000000FF
:10F1100000000000000000000000000000000000EF
:10F40000044B05481B1A062B02D9044B03B11847BD
:10F41000704700BFF3280020F02800200000000003
:10F4200005490648091A891001EBD171491002D02B
:10F43000034B03B118477047F0280020F028002044
:10F440000000000010B5064C237843B9FFF7D8FF41
:10F45000044B13B10448AFF300800123237010BDA7
:10F46000F0280020000000000427020008B5084B27
:10F470001BB108490848AFF300800848036813B976
:10F48000BDE80840CCE7064B002BF9D09847F7E7DA
:10F4900000000000F428002004270200F0280020CB
:10F4A00000000000154B002B08BF134B9D46A3F531
:10F4B000803A00218B460F461348144A121A00F076
:10F4C00065F80F4B002B00D098470E4B002B00D057
:10F4D00098470020002104000D000D48002802D0AC
:10F4E0000C48AFF3008000F02BF82000290000F05A
:10F4F000D1F800F011F800BF000008000000012062
:10F500000000000000000000F02800201C2E002059
:10F51000000000000000000008B5074B044613B1CE
:10F520000021AFF30080054B1868836A03B1984748
:10F53000204600F033F800BF00000000182502004C
:10F5400070B50E4B0E4CE41AA41000251E46A542C1
:10F5500004D056F8253098470135F8E702F0CEFF81
:10F56000084C094BE41AA41000251E46A54204D0FD
:10F5700056F8253098470135F8E770BDE828002097
:10F58000E8280020EC280020E82800200244034658
:10F59000934202D003F8011BFAE77047FEE700BF71
:10F5A00038B50388044663B3292B26D1194801F0E6
:10F5B00023F8194D2968022912DDCB0748BF032320
:10F5C00006D40AE091FBF0F200FB1212013322B1E3
:10F5D00099421846F6D1884205D001310229ECDC67
:10F5E00002208842F9D10D4B0D491860421C292395
:10F5F00008602A602380012038BD00230380032097
:10F6000038BD084800F0A2F80121024800F0EAFFE6
:10F61000CFE700BF10290020702800209C2D00207B
:10F620000C2900202825020010B5038804465BB190
:10F630003F2B05D1882915D03F232380012010BD01
:10F6400000230380032010BD0D4800F07FF88021C7
:10F650000C4800F0C7FF0C4800F078F83F232380E7
:10F66000012010BD074800F0D1FF0028E4D0074B6F
:10F670000748196800F06AF8024800F0BDFFDBE7B0
:10F680003C25020020290020502502000C290020E2
:10F690006825020010B501F099FC00283DD001F06A
:10F6A00065F900F02DFD01F02FF900F031FE01F0B9
:10F6B00079F8002001F018FA00F0F6FD184800F083
:10F6C000D1FD01F0DBF90021164801F047F800F008
:10F6D000A7FE00F0B9FE00F079FD134A134B10604D
:10F6E0000021012212481A7001F038F8114800F088
:10F6F00041FE00F02BFE01F06FF8044600F02EFEF4
:10F7000014F0FF0FF7D130BF01F066F8044600F0A7
:10F7100025FE14F0FF0FEED1F5E701F01DFCBEE76A
:10F72000290A02009C280020E02D0020D42D002072
:10F73000BC2800201C2502000AB90020704708B52B
:10F740000846114601F0ECFB002008BD0FB400B5DF
:10F7500083B004AA054852F8041B019200F026F871
:10F7600003B05DF804EB04B0704700BF84280020AC
:10F77000102970B50C46054602D80AE0102C0BD9AA
:10F780002B680949686810229847103C0028F5D07A
:10F7900070BD08460029FBD022462B6868680249E4
:10F7A000BDE87040184700BFEC2502002DE9F04F7E
:10F7B0008FB08346019288464FF0000998F80030D8
:10F7C000002B00F0E480252B08BF45461DD04446A1
:10F7D00003E0252B00F046812C466378651C002B46
:10F7E000F7D1454500F0D380C8EB050641463246C7
:10F7F000DBF80030DBF804009847002840F03E8238
:10F800006378B144002B00F0C2806B7805F10108E9
:10F81000002B00F0BC800025A3F12002102A1BD889
:10F82000DFE802F0171A1A141A1A1A1A1A1A1A11F9
:10F830001A0E1A1A090045F0100518F8013FEBE7F7
:10F8400045F00105F9E745F00605F6E745F008053E
:10F85000F3E745F00205F0E7A3F13102082A00F2D0
:10F86000D580002404EB840403EB440418F8013F22
:10F87000A3F13002092AA4F13004F3D92E2B00F0B1
:10F88000CD804FF0FF366C2B00F0E280682B00F04B
:10F890004481782B00F28180DFE813F079007F004B
:10F8A0007F007F007F007F007F007F007F007F0060
:10F8B0007F007F007F007F007F007F007F007F0050
:10F8C0007F007F007F007F007F007F007F007F0040
:10F8D0007F007F007F007F007F007F007F007F0030
:10F8E0007F007F007F00E1027F007F007F007F00BC
:10F8F0007F007F007F007F007F007F007F007F0010
:10F900007F007F007F007F007F007F007F007F00FF
:10F910007F007F007F007F007F007F007F00DE028E
:10F920007F007F007F00DB02D802D5027F007F00CE
:10F930007F007F007F007F007F007F007F007F00CF
:10F940007F007F007F007F007F007F00D2027F006A
:10F950007F007F007F007F007F007F007F00CF025D
:10F960007F00CC02C902C602C302C0027F00C902E6
:10F970007F007F007F007F00BD02BA027D007F0014
:10F980007F00B7027F00B4027F007F00B1024846CB
:10F990000FB0BDE8F08F45F4407505F4E063B3F5B2
:10F9A000806F08F1010800F06E815FD9B3F5C06F78
:10F9B00000F0A181B3F5E06F00F09681B3F5A06F80
:10F9C0007FF4FCAE019A012C13688DF8203002F10F
:10F9D00004028CBF04F1FF340024EB07019200F114
:10F9E000F38121465846FFF7C3FE002840F04681C8
:10F9F0000122DBF80030DBF8040008A909EB02055E
:10FA00009847002840F03A81254498E12A2B00F0DD
:10FA10008E802E2B4FF000047FF433AF98F8013026
:10FA2000A3F13002092A08F1010100F28E80884614
:10FA3000002606EB860603EB460618F8013FA3F105
:10FA40003002092AA6F13006F3D96C2B7FF41EAFE1
:10FA500098F801306C2B00F05A8108F1010845F04C
:10FA6000600516E745457FF4BFAECEE6B3F5807F6F
:10FA700070D0B3F5407F7FF4A1AE0198B14BB24F87
:10FA8000016815F4804F18BF1F46034604330193E5
:10FA90000A460023002900F0AA810DF1330E7046BA
:10FAA000110902F00F0C41EA03711E090A463346A0
:10FAB00017F80C1000F8011D52EA0301F0D1BEEB5B
:10FAC000000600F096810336B4424FF078034FF001
:10FAD000300200F8013C00F8022C4FF023038CBFE9
:10FAE000A41B0024EA0700F8033CA0F1030700F17F
:10FAF000B98121465846FFF73BFE002840F0BE8002
:10FB00003946DBF80030DBF804003246984700281D
:10FB100040F0B48009EB060511E198F80130682B3C
:10FB200000F0B48108F1010845F04005B1E6019A02
:10FB3000146813460433002C0193B8BF45F0010547
:10FB400098F8013008F1010898E62A2B00F0A58109
:10FB5000884696E6002EABBF25F0100501230596DA
:10FB6000059315F40053049305F0E00300F0F480CE
:10FB7000402B00F0A38200F29A81002B00F05E82FD
:10FB8000202B40F08782019991F900200431D3178E
:10FB90000191002A73F10001C0F25C82CDE90223D9
:10FBA0000023069305F4C053B3F5805F00F0EF80A7
:10FBB000B3F5C05F00F0C981B3F5006F00F0EA81D2
:10FBC0000DF1360A0027059941F608038F4203EA32
:10FBD000050341F2080280F08B819342A1EB0706F6
:10FBE00000F04E8241F60802934207EB060100F056
:10FBF0008A81002302931A46049B83B1069B002B43
:10FC000040F08F8105F00603022B00F05082062B96
:10FC10004E48029B08BF0123029308BF0246029B85
:10FC20000B449C428CBFE41A002415F0010304939A
:10FC300004D1E80640F11A8226441C46029D3DB1DB
:10FC40001146DBF80030DBF804002A469847A8B9D3
:10FC5000102E07EB090540F2C081B14603E0B9F16F
:10FC6000100F40F2BC81DBF800303949DBF80400AA
:10FC700010229847A9F110090028F0D04FF0FF306A
:10FC80000FB0BDE8F08F019A1346D2F800A00433FC
:10FC90000193BAF1000F00F0E5819AF8007037B1D6
:10FCA000574617F8013F002BFBD1CAEB0707002E80
:10FCB00002DBB74228BF3746BC428CBFE41B00249E
:10FCC000E9072BD421465846FFF752FD0028D5D12D
:10FCD0005146DBF80030DBF804003A46984700282C
:10FCE000CCD107EB09052AE0019A1368043201928E
:10FCF000C3F8009062E5DBF800301649DBF8040039
:10FD0000012298470028B9D109F1010956E598F870
:10FD1000023045F0800508F10208BAE55146DBF8EB
:10FD20000030DBF804003A4698470028A6D1214667
:10FD3000584607EB0905FFF71BFD00289ED104EB91
:10FD400005093BE5A4250200B8250200DC250200D8
:10FD500094250200E8250200402B00F0AC8100F25F
:10FD6000B580002B00F05F81202B40F0DE800199F0
:10FD70000A780023CDE902230B4604330193049B48
:10FD8000069305F4C053B3F5805F7FF411AFDDE94E
:10FD90000223134300F099810DF1360307939A462D
:10FDA000DDE90223D00840EA437002F00701DE08D3
:10FDB0003031024633460AF8011D52EA0301F1D1FF
:10FDC000079BCAEB0307FEE6DBF80030DBF8040014
:10FDD000012208A9984700287FF450AF21465846D1
:10FDE00009F10105FFF7C4FC0028A8D046E70DF192
:10FDF0003300302300F8013C0426013864E645F462
:10FE0000C855CAE545F41065C7E545F48065C4E505
:10FE100045F48855C1E545F4E065BEE545F4813516
:10FE2000BBE545F40075B8E545F40245B5E545F494
:10FE30002455B2E545F4A065AFE545F4C135ACE520
:10FE400045F4B245A9E545F4A135A6E545F4844558
:10FE5000A3E545F44245A0E545F4E1359DE545F4CB
:10FE6000C0659AE53946DBF80030DBF8040032461D
:10FE7000984700287FF402AF2146584609EB060553
:10FE8000FFF776FC00283FF45AAFF7E698F8023007
:10FE900045F0200508F10208FBE4019998F80230CA
:10FEA0000E680A460432019208F10208EBE4602B66
:10FEB00000F0C480802B40F0ED800199073121F0E3
:10FEC0000701D1E900230831019162E6602B00F0BF
:10FED000AA80802B29D1019B073323F00703D3E9A4
:10FEE000001208330193049B0693CDE9021259E6F0
:10FEF000934200F0CD8041F608020026934207EBC2
:10FF000006017FF476AEDDE9022313433FF471AEC0
:10FF1000734B744A15F4804F18BF1A46022302939C
:10FF20006AE601230293704A79E605F4C053B3F5FB
:10FF3000805F00F0CE80B3F5C05F40F0AE8000235C
:10FF4000069300220023CDE90223DDE90201674B7D
:10FF5000674E15F4804F18BF1E4602460B461343EA
:10FF600000F0B3800DF1360307939A4602460B4624
:10FF7000110902F00F0741EA037118090A46034606
:10FF8000F15D0AF8011D52EA0301F1D1079BCAEBAA
:10FF9000030718E6DDE9026732463B46134300F0EB
:10FFA00094800DF1360307939A46304639460A226B
:10FFB000002302F017F93032304639460AF8012D95
:10FFC00000230A2202F00EF906460F4656EA0703FE
:10FFD000EBD1079BCAEB0307F5E556B1B1464A469C
:10FFE000DBF800304349DBF80400984700287FF431
:10FFF00045AE3A46029FDBF80030DBF804002F44A0
:020000022000DC
:1000000051463D46984700287FF438AE049B35445E
:10001000002B3FF494AE21465846FFF7A9FB002879
:100020003FF48DAE2AE6019A0499069113680432D2
:10003000019219460022CDE90212B3E501990A683E
:100040000B4604330193002A4FEAE27373F1000177
:10005000BFF6A4AD524263EB4303CDE90223012373
:1000600006939FE5DFF894A0062720E62146584630
:100070000592FFF77DFB059A00283FF4DFADFDE513
:10008000002E08BF0126002302931A46B919B3E5D2
:100090000126F8E70022002380E5002306931F468F
:1000A00000220023CDE902230DF1360A8BE501235E
:1000B000114A0293B3E501990A885AE60199B1F908
:1000C00000200431D317019163E500270DF1360AB2
:1000D00079E50023069300220023CDE9022356E6AA
:1000E000CC250200D0250200D4250200A425020060
:1000F000B825020094250200D8250200E025020060
:1001000010B5104B002420461C6001F04BFA18B1CA
:100110002246214601F030FF01F054FA0A4A0B480A
:10012000002101F025F918B10022114601F024FF49
:100130000648012101F05AF90448BDE8104001F0D9
:1001400049B900BF302900207D010200FC250200D2
:10015000014B1868704700BF3029002008B5064AD7
:1001600013680133136000F057FA00B908BDBDE809
:10017000084000F031BA00BF30290020042800D028
:100180007047FFF7EBBF00BFB0F5A27F00D070470C
:1001900000F0BCBB08B5074A0748002101F020FA6F
:1001A00018B10022114601F0E7FE0348BDE80840FF
:1001B00001F064BA8901020004260200012302460C
:1001C0001946014801F074BA0426020000210148D2
:1001D00001F05EBA04260200F0B583B00646FFF7D0
:1001E000F5FF1A4D1A4CA8600127A7703378BB425F
:1001F0000CD0D3B1FFF7EAFF164AA96893685B1ADF
:10020000184400219060A17003B0F0BD124B1B6830
:1002100013B17268107898470121104801F0B6FCBC
:10022000A378002BE6D103B0F0BD0D4800F09CFC94
:100230000028F5DD0A4800F083FC02AB394603F8DC
:10024000010D184601F014FCEAE700BFE02D002084
:10025000D42D0020A02D0020342900203829002092
:10026000BC290020014B1860704700BF34290020D2
:1002700000B583B002AB012103F8010D184601F06F
:10028000F7FB112803D003B05DF804FB20BF9DF8F5
:100290000710044800F03CFC0028F7D003B05DF8DC
:1002A00004FB00BFBC29002030B50F4D0FCD89B035
:1002B0006C460FC495E80F0084E80F000B496846B0
:1002C00001F01CFB18B10022114601F055FE8022FE
:1002D0000749084800F014FC01F010FD0121064810
:1002E00001F054FC09B030BD0C260200D901020017
:1002F0003C290020BC290020382900204FF0A043D1
:100300004FF4F0110022C3F80815C3F80C2570470C
:1003100008B50B49002001F01BFA58B9094801F053
:100320004FFA18B10022114601F026FE064B0122B9
:100330001A7008BD0022114601F01EFEEEE700BF54
:10034000FD020200C5290020C4290020024B1B78B1
:1003500003B9704701F026BAC4290020034B1B786B
:1003600003B97047024B187801F04CBAC429002039
:10037000C529002010B50446006830B1002100F006
:10038000EDF954F8040F0028F8D110BDF0B503883A
:1003900083B005465BB14A2B04D188291BD00120CC
:1003A00003B0F0BD00230380032003B0F0BD194863
:1003B00000F07AFB044630B1A168201D00F012F96C
:1003C0002468002CF8D1144B01221A704A23012012
:1003D0002B8003B0F0BD0F48019200F065FB04468E
:1003E0000028F3D0019A031D9A4205D02468231DEA
:1003F000002CEBD09A42F9D121460648074E00F076
:1004000055FBA3696269376832600BB1E0699847B0
:100410003760DBE7C8290020CC290020E429002030
:1004200010B5064B064800241C7000F039FB21462D
:100430000448BDE8104000F091B900BFCC2900206D
:10044000C82900208C280020084B0948094910B40D
:10045000002203F1300443F8042BA34240F8042B9C
:1004600001F8012BF7D15DF8044B7047E02D002017
:10047000A02D0020D42D002010B50E4C2368B3B160
:10048000FFF766FE226892E80A0092680B44191A88
:100490004AB114685368926823441B1A994228BFD2
:1004A0001946002AF5D1044B0144196010BD024AD7
:1004B000136010BDD0290020D42900202DE9F0417F
:1004C000038805467BB1592B08D1872912D0822990
:1004D00020D059232B800120BDE8F0810023038028
:1004E0000320BDE8F081254A136059232B800120A9
:1004F000BDE8F081214F39680029EAD0CB689A42E3
:1005000003D024E0CB689A4220D189680029F9D130
:100510003960DEE7194F4FF000083C68002CD8D056
:10052000002604E0A3682646002BD2D01C462046B5
:1005300000F00EFA0028F5D022468821E06800F08D
:10054000B7F978B10E4800F0D3F9EBE739608B6862
:10055000002BBED0D868824207BF9B688B601946CB
:100560009B68F5E7E060A3682EB1B360C4F808802B
:10057000FFF782FFD1E73B60F8E700BFD0290020FA
:100580009C28002010B50446104800F0B1F910492D
:10059000E3680A684BB142B194420FD0134601E0C0
:1005A0009C420BD09B68002BFAD10A4BA2601B68BF
:1005B000E3600C60BDE81040FFF75EBF054B1B68B1
:1005C000E360BDE81040FFF757BF00BF9C28002044
:1005D000D0290020E4290020014800F089B900BF9B
:1005E0009C28002010B5044600F0A4F92046BDE880
:1005F0001040FFF7C7BF00BF10B5044600F0A2F9D6
:100600002046BDE81040FFF7BDBF00BFC068B0FA8C
:1006100080F04009704700BF024B1868003018BFD7
:1006200001207047D02900202DE9F843DFF8A4808D
:10063000274DD8F800702E68874247D077B33B46E5
:1006400001E0002B3BD01B689842FAD133B3837B87
:100650008946044623B3002383736FB1BC423846F6
:1006600022464FF0870104D0BB7BDB0701D500F0A9
:1006700033F83F68002FF1D1A3683BB14C4505D05A
:100680002C600022832104F10C009847D8F8000068
:10069000844208D12368C8F800302E60BDE8F88392
:1006A00038468442F6D00028F7D003689C4208D030
:1006B000002BF2D01A68944204D01346F8E7BDE844
:1006C000F883034622681A602E60E7E73B46BDE7E1
:1006D000E4290020EC29002070B586687EB104462C
:1006E0000A4802230460A37304F10C000D46B047CE
:1006F0000238012804D9832D02D00123A37370BDD1
:1007000021462046BDE87040FFF78EBFE429002057
:1007100070B50C4A0C4B146800251D7084B101267D
:1007200001E0246864B1E37B002BFAD0A673E57383
:10073000204600228221FFF7CFFF2468002CF2D14F
:1007400070BD00BFEC290020E0290020024B187882
:10075000421C1A70704700BF742B002070B50F4DFB
:100760002C68844206D034B1234600E01BB11B68DC
:100770009842FBD170BD0028FCD00346084E0460AF
:100780000A46012000213468987399811846812116
:100790002B60FFF7A1FF346070BD00BFEC29002083
:1007A000E429002070B407480749084A084D094C5D
:1007B00000238A2603700B6013602E70237070BCB8
:1007C000704700BFD9290020EC290020E42900202F
:1007D000742B0020D82900202DE9F8432C4C2378D5
:1007E0000BB1FFF795FF2B4D2B78FBB12A48DFF8B3
:1007F000B8C00278294F2A4E02EB420189000CEB67
:10080000010E013202F01F020270013BDEF8080007
:100810001CF80110DEF804203A60DBB22B70317056
:1008200088B1812906D0867BF60705D42078184444
:10083000BDE8F88301238373FFF74EFF2B78207800
:100840001844BDE8F883174ADFF860801268C8F8DA
:100850000020002AEAD0C14609E0D8F80000837BD6
:10086000DB070ED40368C8F80030002BE6D02378ED
:10087000002BF2D0FFF74CFFD8F80000837BDB079A
:10088000F0D53A683178FFF727FFD9F80000E9E79B
:10089000E0290020D9290020D8290020702B002031
:1008A000E8290020EC290020F0290020DC29002084
:1008B000F0B40C4D2C78202C11D00B4B0B4F1B7827
:1008C000234403F01F0303EB43039B00FE18F9547A
:1008D0000134B06072602C700020F0BC70470120C1
:1008E000F0BC7047D9290020D8290020F029002029
:1008F00038B1837B013B012B03D8024A01231370DB
:10090000C3737047E0290020FFF744BC10B5084CC2
:10091000206858B1002243688168226098472368A4
:1009200023B11868BDE81040FFF748BC10BD00BFF8
:10093000782B002010B541600446FFF709FC2060C9
:1009400010BD00BF90E80C0013440360704700BF67
:1009500010B50446FFF7FCFB23686268C3F101038E
:100960001844904294BF0020012010BD08B500F04B
:10097000A5F9024B00221A7008BD00BF7C2B002095
:10098000F8B50488672C05460BD0792C04D0CCB17F
:10099000002303800320F8BD85291AD11D4C0023B4
:1009A00023601C4C264604E00A2814D023687E2BC2
:1009B0002ADD194800F0C4F8431CF5D167232B80C9
:1009C0000120F8BDFFF7C2FE144A124B10701C60E4
:1009D000E7E70120F8BD0F4C114F23680F495A1C5F
:1009E00000260978226030463A46FE54FFF760FF41
:1009F0000C4B324618688521FFF75AFF0028CED1EC
:100A000079232B800120F8BD05495A1CC854326057
:100A1000CFE700BF8C2C0020002C0020102E0020DF
:100A20000C2C0020E42900200D281FD010B5104CFC
:100A30002378014633B10A2810D00E48FFF758FF3B
:100A4000012010BD0C4800F063F80028F5D1012307
:100A500008482370FFF74CFF012010BD064800F046
:100A600057F80028E9D000232370E6E700207047FC
:100A7000082C0020AC280020002C002008B50549D7
:100A80000548802200F03CF800210448BDE80840F9
:100A9000FFF764BE802B0020002C0020AC28002033
:100AA00000230360704700BF0068704710B40468FB
:100AB0005CB18C4214D023680BB906E0134699420E
:100AC00006D01A681C46002AF8D15DF8044B70471E
:100AD00034B11A68226000221A605DF8044B704736
:100AE0000B6803600B46F6E708B5002000F096FEA1
:100AF00000B908BD00221146BDE8084001F03CBA2B
:100B00000023013A0160027143718371704700BF95
:100B100010B4427983790479D31A34EA03030AD0F2
:100B200003689954437902790133134043715DF8A6
:100B3000044B0120704700205DF8044B704700BF54
:100B40000346807959791A79091A114208D010B4EC
:100B5000411C1C680A40205C9A715DF8044B704788
:100B60004FF0FF30704700BF4379827900799B1ABC
:100B7000184070472DE9F0410488772C064630D0A4
:100B80007E2C27D024B1002303800320BDE8F08110
:100B9000304F314DFFF7DAFD304B3A6818702C605A
:100BA000002A55D023462E4C984604F80380002195
:100BB0009368802098472B6801332B6057F82320D7
:100BC000002AF2D1DBB2274A137077233380012049
:100BD000BDE8F081214B1B788B421CD00120BDE881
:100BE000F081DFF880801C4D98F800201E4F002314
:100BF0003B602B60002AE8D0194CE256002A18DB33
:100C00002B6898F80020013393422B60F5DB3B689A
:100C1000002BECD1D9E7104D114CDFF84880124F72
:100C20002B683A68E15C013201F07F01E1543A60DF
:100C3000E7E7084A094952F8232009780020FFF71E
:100C400037FE0028ECD17E2333800120BDE8F081FF
:100C50001346B8E7CC280020942C0020112E002049
:100C6000142E0020902C0020982C002010B40F4B44
:100C70001C7864B10E4A1368984214D0002303E034
:100C800052F8041F88420CD00133A342F8D1094A1C
:100C90000948135D63F07F0313555DF8044BFFF7BC
:100CA00027BE1C46F3E70024F1E700BF902C00208C
:100CB000CC280020142E0020BC28002030B40023B3
:100CC0004FF4F0104FF0A045032403E0D20748BFD3
:100CD00045F821400133202B40FA03F203F5E0717F
:100CE000F4D14FF0A0434FF4F0110022C3F80815DF
:100CF000C3F80C2530BC704730B5802883B0A2F112
:100D00000D0412D081280DD1104631BB00F04CFAF1
:100D1000184A0120136800FA04F423EA040414605A
:100D200003B030BD002003B030BD0023032501A96E
:100D30001046114A8DF806308DF807308DF80450B2
:100D40008DF8055000F04CF90C48042100EB04101C
:100D5000FFF7F0FD012003B030BD012100F0C2F922
:100D6000044A0120136800FA04F42343136003B01B
:100D700030BD00BF9C2C0020A10D0200A02C002043
:100D80001022FFF7B9BF00BF0F22FFF7B5BF00BFAA
:100D90000E22FFF7B1BF00BF0D22FFF7ADBF00BFAE
:100DA00070B5A0F10D05134C2D012C4406462046CC
:100DB000FFF7CEFD00B970BD04212046FFF7BAFD54
:100DC000304600F021FA064650B1FFF7C1F9A3689A
:100DD000C01AE06008482844BDE87040FFF746BFED
:100DE000FFF7B6F9A0600448E6602844BDE870400B
:100DF000FFF73CBFA02C00206026020081380128AC
:100E00009DBF034B186800F004000020704700BF2E
:100E10009C2C002008B528B1012806BF054BD868D6
:100E2000002008BD0D2000F0EFF980F00100C0B2F5
:100E300008BD00BFA02C0020813801289DBF034BB6
:100E4000186800F008000020704700BF9C2C0020AC
:100E5000813801289DBF034B186800F00100002075
:100E6000704700BF9C2C0020813801289DBF034B98
:100E7000186800F002000020704700BF9C2C002082
:100E800008B528B1012806BF054BD86B002008BD66
:100E9000102000F0B9F980F00100C0B208BD00BF19
:100EA000A02C002008B528B1012806BF054BD86A40
:100EB000002008BD0F2000F0A7F980F00100C0B2AB
:100EC00008BD00BFA02C002008B528B1012806BF2E
:100ED000054BD869002008BD0E2000F095F980F080
:100EE0000100C0B208BD00BFA02C0020054BD3F804
:100EF0000825D3F80805930544BF6FEA80506FEAD0
:100F00009050704700C00040802802D1024B002260
:100F10001A600120704700BF04C5004001207047DF
:100F200070B5044690B10078A0B189B1661800256B
:100F300004E014F8010F38B1B44205D0FFF798F976
:100F4000631C05F10105F4D1284670BD0546FBE799
:100F50000D46F9E70546F7E710B5194C94F85430FB
:100F60000BB1082010BD04F12F0304F14F01FF2243
:100F700003F8012F8B42FBD1124A4FF0FF30206063
:100F8000A2F149042146002307E0072B41F8040F92
:100F900002F1010288BF02F8010C0133DBB20C2B15
:100FA000F3D10121062001F053F8074A4FF0004128
:100FB0000123C2F8041384F85430002010BD00BF90
:100FC000E02C0020292D002000600040034B93F806
:100FD0005400003018BF0120704700BFE02C0020F3
:100FE000F0B53F4E331893F93040002C01DB082058
:100FF000F0BD91F803C0BCF1000F13D03468013488
:1010000062D000274FF0080E7B1C06EB870404E03B
:1010100054F8045F01350CD0013373451F46F7D3F4
:101020000420F0BD346A013453D008274FF00C0E71
:10103000EAE73318FCB246F8272083F83040BCF1C9
:10104000000F02D1374487F848008B78ABB94A7853
:101050004FF0A04500F5E073920045F82320CB78CF
:10106000ABB962B2083A1644097896F8502042EAC1
:10107000811286F850201846F0BD830003F1A0438A
:10108000D3F8002722F00202C3F80027E7E763B293
:101090009B0003F1804303F5C0430A78D3F8101591
:1010A00021F4473121F44071C3F8101512040002F5
:1010B00002F44031D3F8104500F4F8520A432243B9
:1010C000C3F810250020F0BD0024326083F83040C2
:1010D000BBE708242746326283F83040B2E700BFFE
:1010E000E02C0020F0B42E4C251882B095F830206A
:1010F00053B2072B1CDD234493F848309B09032B84
:1011000041D0012B14BF4FF440334FF40033800023
:1011100000F1A040D0F8002722F44032C0F80027A8
:10112000D0F800271343C0F8003702B0F0BC704776
:10113000072AFAD8980000F1804003F1400200F538
:10114000C040920092B2D0F8106502F1804202F5E0
:10115000C04246F001060027C0F81065176012680B
:101160000192019A0029E0D095F9302054F822200C
:10117000002ADAD001220B4902FA03F3C1F8043342
:1011800002B0F0BC70474FF0A0420123D2F8102506
:10119000834013420CBF4FF400334FF44033B6E7A3
:1011A000E02C002000600040154B034493F83020F1
:1011B00053B2072B16DC072A13D810B49A0002F199
:1011C000804202F5C0420F4CD2F81005012120F0F8
:1011D000010001FA03F3C2F81005C4F808335DF802
:1011E000044B7047800000F1A040D0F8003723F492
:1011F0004033C0F80037D0F80037C0F800377047E8
:10120000E02C0020006000404FF0A043D3F81035E0
:1012100023FA00F000F00100704700BF2DE9F04113
:10122000002682B04C4B4D4D4D4C3746012203E019
:10123000A3424FEA420213D0184653F8041B012977
:10124000F6D1D5F804131142F2D043F8047C0168BA
:101250000091A34246EA020600994FEA4202EBD10E
:10126000404B1A68012A56D0002733071ED0DFF8FA
:10127000FC800125002402E00134082C16D02E4207
:101280004FEA4505F8D0A30003F1804303F5C043BE
:1012900058F82420D3F81005D3F81015C0F3042013
:1012A000C1F3014101349047082CE8D1002E02DB44
:1012B00002B0BDE8F0812C4C4FF00108261DA4F1CE
:1012C0004F0514F8011FFF2919D0C9B221F0C00041
:1012D0002B1893F9303055F8232082B1830003F1A5
:1012E000A04308FA00FED3F800C71EEA070F4FEA32
:1012F0009111CCF3014C07D1BCF1030F17D0B442CC
:10130000DFD102B0BDE8F081BCF1020FF7D10329B3
:101310001ED09047F3E700221A601B6801934FF03C
:10132000A043019AD3F8107546F000469DE70329C3
:10133000EFD14FF4003ED3F800C72CF4403CC3F883
:1013400000C7D3F800C74CEA0E0EC3F800E7E0E789
:101350004FF4403EEFE700BF0061004000600040F6
:10136000206100407C6100402F2D0020E02C0020F7
:1013700072B1F8B50D4643791349064641F823206A
:101380005A00E5B11344114FFC5C1CB10820F8BDB4
:1013900007207047A97896F9040000F059FE3368D9
:1013A0002A88C3F808257379E9782E7903EB43037B
:1013B000FA180125FD54567091702046F8BD044975
:1013C000D51801EB4505DDE7382D00203C2D002028
:1013D000C42602000368044A01211960437903EB23
:1013E00043030221D15470473C2D002010B4036800
:1013F0000022C3F8002183B0D3F8003102680193C2
:101400000123019CC2F8443311B10268C2F80433CD
:1014100003B05DF8044B70472DE9F0430024284EDB
:10142000284FDFF8A49085B0A0464FF48035D7F858
:1014300004332B4201D03368CBB90134042C4FEA7A
:10144000450506F10406F2D11E4BD3F80423D1075B
:1014500002D5D3F8002132BB1A4BD3F804239207EC
:1014600002D5D3F8042182B905B0BDE8F083C7F8EE
:101470004853C7F80853C6F8008033680393E0B2B6
:10148000D9F80030039A9847D7E70022C3F804211F
:101490000D4AD3F80431019305201368019A984747
:1014A00005B0BDE8F0830022C3F80021064AD3F856
:1014B0000031029320461368029A9847CCE700BF98
:1014C0004011014000100140382D0020164B9B6850
:1014D000ABB14FF08043D3F81824D0030ED4D3F827
:1014E000143413F0010309D1104A1149136082B07A
:1014F00013680193019A01230B6002B070474FF00B
:101500008043D3F81824D10309D50A4B01221A606D
:101510004FF08042D2F81834DB03FBD47047D3F885
:101520001434DA07F1D47047402D00200401004044
:10153000080000400C000040174B5B68A3B14FF05F
:101540008042D2F80C34D80718D4D2F8083413F0FB
:10155000010313D1114982B00B600B680193019B09
:101560000120106002B070474FF08043D3F80C2484
:10157000D10705D4D3F80834DA0701D40020704726
:10158000074B01221A604FF08042D2F80C34DB077F
:10159000FBD40020704700BF402D00200001004018
:1015A00004000040064B187808B1852070474FF0C2
:1015B0008041012258609860C1F818251A70704760
:1015C000402D002008B5054A936801339360FFF76A
:1015D000B3FFBDE80840FFF779BF00BF402D0020F2
:1015E000F8B5224E43790446F05C08B10820F8BDF6
:1015F0000D461746002935D0E97894F9040000F02B
:1016000027FD63791A4A696842F8231047B3194ADB
:1016100042F8237021686A78D1F8043502F0030299
:1016200023F003031343C1F804352168AA78D1F8E5
:10163000083502F0030223F003031343C1F8083511
:1016400021682A78D1F8103502F00F0223F00F0339
:101650001343C1F8103563790122F2540020F8BD1C
:101660000720F8BD044D05EBC305C5E7542D002048
:10167000502D00204C2D0020CC2602000368034A88
:101680000121196043790221D1547047542D002063
:1016900010B401F110039B00DBB202680124D450A6
:1016A00001F5A87103685DF8044B53F821007047F9
:1016B00010B44FF480348C4053B90368C3F8084326
:1016C000036801F5A87143F821205DF8044B7047C9
:1016D0000368C3F80443F3E72DE9F0410F4C104EC3
:1016E000DFF844800F4F002522684FF4803304F563
:1016F000E040AB4080B201351AB1D6F80423134262
:1017000005D1042D04F10404EED1BDE8F0810023DD
:1017100023603B68D8F800109847F2E740910040FA
:10172000009000404C2D0020502D0020054BD3F898
:101730000433DB0700D47047034A044B00211160D7
:101740001B68184700000140000101405C2D00208B
:1017500010B50F4B0F4C1A7821600AB1082010BD4C
:1017600001221A7088B102780B490C4CC1F80C2583
:101770004368DB03A4FB03239B09C1F80435017A0A
:10178000102000F065FC002010BD0548ECE700BF0C
:10179000602D00205C2D002000000140D34D621020
:1017A000D4260200044B054901220220C3F8042379
:1017B0001A600870704700BF00000140602D0020D3
:1017C00010B5044600F010FC0C4A1368072B04D92E
:1017D000042400F011FC204610BD09482370591C58
:1017E0001160D0F80825012101FA03F31343C0F872
:1017F0000835002400F000FC204610BD582D0020C4
:101800000000014000F5C070024B034A43F820205D
:10181000704700BF000001403546526E70B51D4C48
:10182000237813B10825284670BD0646082204F126
:101830001401201D00F0B0FB174B0546002E08BF19
:101840001E460028EFD1337833B1144AD2F804355C
:1018500043F00103C2F8043571780D2000F0F8FB65
:101860000E4A2189D2F8003223F00103C2F8003277
:10187000E06823691B1A8B4203D901232370284691
:1018800070BD0749012300200860C2F804331360CB
:10189000F3E700BF642D0020E026020000D00040E6
:1018A00000D10040114B1A6822B1114AD2F8081336
:1018B000C90700D4704710B5002119600D4CD2F84B
:1018C0000815201DC9B200F077FBE1682369228961
:1018D0005B1A9A4206D20649074A0123C1F8083327
:1018E000136010BD0428FCD1F5E700BF00D1004013
:1018F00000D00040642D002004D000402DE9F843C2
:10190000564CA37D13B10820BDE8F883002800F0F1
:10191000A1800568437FE3754FF0A04205F5E075AF
:101920004FF0030942F825900768DFF830E1012500
:10193000BD40C2F808554568494F05F5E0754FF0C0
:10194000000C42F825C08569C7F8245573BB90F890
:1019500015C0057D4CEA0505C7F86C554568066855
:10196000C7F80C65C7F8145590F814C0BCF1010F06
:101970004ED002696160226051B1017F002B64D0BA
:10198000374B384AC3F80423022000F061FBE37DA3
:10199000002B38D0324B0822C3F800250020012349
:1019A000E074A0746075A375BDE8F88390F81580A5
:1019B000057D48EA0505C7F86C5545680668C7F80F
:1019C0000C65C7F81455057D012DD2D1836803F548
:1019D000E07342F823C0C36803F5E07342F8239034
:1019E000C368CEF804109D40C2F808558368C268E9
:1019F000C7F80825C7F810350369CEF8003000296C
:101A0000C8D0017FBCE7164B0422C3F80025C5E708
:101A1000856805F5E07542F82530C36803F5E07385
:101A200042F82390C368CEF804100CFA03F3C2F80E
:101A300008358368C268C7F80825C7F810350369F8
:101A4000CEF800300029DED0017F054B064AC3F8EE
:101A5000042399E7054806255CE700BF802D002098
:101A6000002000401003020080000200E426020073
:101A70003F4A937C0BB111207047F0B4D47D917430
:101A800090601382A4B93B493B4B0C6001251D605B
:101A90000C60148A138A394D5668A4B20133005D74
:101AA0009BB21382C5F81C0556B10020F0BC7047EC
:101AB000040C2404B4F1005F33D01020F0BC704754
:101AC0001746907C138A2A4C9BB2984205D818E09E
:101AD000138A9BB2B3F5807F02D00B68002BF7D03E
:101AE000138A9BB2B3F5807FECD00E603C8A3B8AB0
:101AF000B868A4B20133005D9BB23B82C5F81C05F7
:101B0000DFE7238A9BB2B3F5807F2AD019490B689F
:101B1000002BFCD01A4B0121196000200023937484
:101B2000C4E7184D184C154E134F2B60236001234A
:101B3000C6F84405C6F848153B605368002BB4D17D
:101B4000204600E079B92B680E4E0F4C0168002B3F
:101B5000F8D000230029336014BF0F2018462360FB
:101B6000DCE70F20DAE733600F202360D6E700BF01
:101B7000802D00201C210040082000400020004053
:101B80000C2000402021004058210040544BDA7CBA
:101B90000AB1112070472DE9F04FDC7DD974D8606F
:101BA0001A759CB95A7D32B94E484F4C4F49026064
:101BB0000120226008605A68002A3BD04B4B4FF44A
:101BC0000172C3F804230020BDE8F08F040C240444
:101BD000B4F1005F02D01020BDE8F08F444D454CB9
:101BE0005F68424E2A6022600122C6F83405C6F8BA
:101BF00038153260002FE6D106F5927602E05AB928
:101C000000285ED12968DFF8E8C02268DFF8E4E048
:101C1000344F30680029F2D0354E364D314C00211A
:101C20003160D9742960216000BB002ACBD00F201D
:101C3000BDE8F08FDFF8ACE02B492E4FDFF8ACB0F9
:101C4000DEF800200C68DFF898C0DFF8A0A0DFF80D
:101C50009480DFF8A09038685CB948BB002AEFD0C8
:101C60002448204900220260DA740A600320BDE89B
:101C7000F08F002AF4D1E8B908601C7DDBF8186504
:101C80001A7DDD680132D2B21A751A7D2E55DC7CC0
:101C90009442D5D89CF81530C9F800008CF8130090
:101CA000C8F80000B3B10123CAF80030BDE8F08FD6
:101CB000002AD5D10F480B4900220260DA740A606D
:101CC000B5E7CCF80020DA74CEF800203A600320A3
:101CD000BDE8F08F084B01221A60BDE8F08F00BF0D
:101CE000802D0020242100400821004000200040D9
:101CF000102100404421004004200040074A537D49
:101D000053B90749074810B4074C0B600121236001
:101D1000517501605DF8044B704700BF802D0020B5
:101D200024210040002000400821004030B5894CAB
:101D3000E37D85B0FBB1884A1368002B40F0C48076
:101D4000864A1168002940F0A980854B1A6832B193
:101D5000E17C804800221A60002940F0DB80814B42
:101D60001A6832B1A17C7B4800221A60002940F039
:101D7000E18005B030BD7C4AD2F8041389055CD5FA
:101D800075490868002858D0607D0B604FF40173D6
:101D9000C2F8083328B903F1804303F5F053012258
:101DA0001A60714A02238DF80030D2F88034C2F8EC
:101DB0008034E268E07C0192002203938DF80800F1
:101DC00021686368E27468469847684B1A68A2B154
:101DD000228AA17C5F4892B291424FF000021A60C1
:101DE00040F28980028A038A85685F4992B2013392
:101DF000AA5C9BB20382C1F81C25594B1A68002AC1
:101E0000B7D0627D002119601AB1A3F5A273012237
:101E10001A60E27C4F4B002AABD0197DDA688DF84E
:101E20000810002001218DF800100192D87493E869
:101E300006006846904705B030BD4B4BD3F80423ED
:101E40005207C2D54A4A11680029BED0002111604C
:101E5000207DD3F81855237DE17CE2680133DBB2A5
:101E60002375237D155499423A48AED1437D13B969
:101E7000404B012119603C4963684FF40170C1F87F
:101E8000080301920122217D8DF8002000228DF8A7
:101E9000081068462168E274984796E73249136053
:101EA000D1F83C25E17CD2B291427FF44EAFE2689A
:101EB0008DF8081001208DF800000192684694E822
:101EC0000600E374904740E7274B00200221106092
:101ED0008DF80010D3F88024C3F880240392D3F83F
:101EE0003C25E3680193E0748DF80820216863685D
:101EF0006846984729E700293FF47FAF83688DF84B
:101F000008100193827490E80A008DF8002068465A
:101F1000984772E71449C368D1F83C158DF808104A
:101F200001218DF800100193C27490E80A00684600
:101F3000984714E70C498368D1F84C158DF80810C0
:101F40000193827490E80A008DF800206846984753
:101F50000FE700BF802D0020242100401021004009
:101F60004421004020210040002000401C2100406E
:101F70000821004004200040BFF34F8F0449054B67
:101F8000CA6802F4E0621343CB60BFF34F8FFEE7F1
:101F900000ED00E00400FA0559B10AB909207047C4
:101FA000531E1A40FAD1826001608380C2601046DD
:101FB00070470E20704700BF10B48468C2680346A3
:101FC0008088121B904203D204205DF8044B7047B6
:101FD000DA681C6802400020A154DA680132DA6035
:101FE0005DF8044B704700BF72B6024A13680133B4
:101FF00013607047982D0020034A1368013B13605B
:1020000003B962B6704700BF982D00200649074A01
:10201000074B9B1A03DD043BC858D050FBDC054836
:1020200080470548004700000C27020000280020D8
:10203000F0280020A1200200A5F40100FEE7FEE741
:10204000FEE7FEE7FEE7FEE7FEE7FEE7FEE700BF8E
:10205000002810B418DB00F1604303F56143490127
:10206000C9B283F80013C3B24009800000F1604098
:1020700000F5614003F01F0201239340C0F8803156
:1020800003605DF8044B7047C3B2044A03F00F04C9
:1020900049012244C9B21176E6E700BFFCEC00E03A
:1020A000454B1B78062B18D0444AD2F8883043F4AD
:1020B0007003C2F88830BFF34F8FBFF36F8F4FF0BC
:1020C0001023D3F80022002A45DBD3F80032002B7E
:1020D00041DB3B4B3B4A1A6070473B4B1B681A077E
:1020E000E2D13A4B1B6803F0F003302B28D0374B7A
:1020F0001B6803F0F003302B11D0344B1B6803F046
:10210000F003302BD0D1324B1A6812F0F002CBD151
:102110004FF08043C3F80C21C3F81021C4E72C4BC7
:102120001B6813F0F00FE8D1234B2A4A1B780321D8
:10213000062B1160B8D1244B1B681B07B4D1DCE718
:10214000234B1B6813F0F00FD1D1234AD36823F03F
:102150008073D360CBE7214B0122C3F80425D3F869
:102160000024002AFBD04FF0102315221B49C3F88E
:102170000022D1F80034002BFBD04FF010231522A1
:102180001649C3F80422D1F80024144B002AFAD0CF
:102190000022C3F80425D3F80024002AFBD0BFF3A3
:1021A0004F8F06490E4BCA6802F4E0621343CB60BE
:1021B000BFF34F8FFEE700BFE00F00F000ED00E03F
:1021C000E42800200090D003E40F00F0E80F00F0B6
:1021D000EC0F00F0A0050040F0ED00E000E0014051
:1021E0000400FA0553B94AB9002908BF00281CBFEA
:1021F0004FF0FF314FF0FF3000F07EB9ADF1080C29
:102200006DE904CE00F006F8DDF804E0DDE9022314
:1022100004B070472DE9F0478C460E460446089DF1
:10222000002B50D18A4217466CD9B2FA82FEBEF119
:10223000000F0BD0CEF1200420FA04F401FA0EF6C0
:1022400044EA060C02FA0EF700FA0EF44FEA1749B8
:10225000220CBCFBF9F01FFA87F809FB10C642EA12
:10226000064600FB08F3B34209D9F61900F1FF3224
:1022700080F02281B34240F21F8102383E44F61AB8
:10228000A2B2B6FBF9F309FB136642EA064403FB6C
:1022900008F8A04509D9E41903F1FF3280F00A815A
:1022A000A04540F20781023B3C44C8EB040443EAEA
:1022B00000400021002D62D024FA0EF400232C608F
:1022C0006B60BDE8F0878B4207D9002D55D0002107
:1022D00085E841000846BDE8F087B3FA83F100299C
:1022E00040F09080B34202D3824200F2F880841A18
:1022F00066EB03060120B446002D40D085E810109F
:10230000BDE8F08712B90127B7FBF2F7B7FA87FEED
:10231000BEF1000F35D1F31B4FEA17481FFA87FCB7
:102320000121B3FBF8F0220C08FB103642EA064606
:102330000CFB00F3B34207D9F61900F1FF3202D2C9
:10234000B34200F2CE801046F61AA2B2B6FBF8F302
:1023500008FB136642EA06440CFB03FCA44507D9BC
:10236000E41903F1FF3202D2A44500F2B58013460E
:10237000CCEB040443EA00409CE729462846BDE82C
:10238000F087CEF1200106FA0EF307FA0EF720FAD5
:1023900001F94FEA1748CE4049EA0309B6FBF8FABB
:1023A0004FEA194408FB1A661FFA87FC44EA064301
:1023B0000AFB0CF29A4200FA0EF40AD9DB190AF170
:1023C000FF3180F087809A4240F28480AAF1020AAD
:1023D0003B449B1A1FFA89F9B3FBF8F108FB113350
:1023E00049EA034301FB0CF69E4207D9DB1901F1D0
:1023F000FF326BD29E4269D902393B449B1B41EAB2
:102400000A418EE7C1F1200E22FA0EF48B402343DD
:1024100020FA0EF706FA01F44FEA134C26FA0EF6EC
:102420003C43B6FBFCF9270C0CFB19661FFA83F83A
:1024300047EA064609FB08F7B74202FA01F200FA3A
:1024400001FA08D9F61809F1FF3041D2B7423FD955
:10245000A9F102091E44F61BA0B2B6FBFCF40CFB6A
:10246000146640EA064704FB08F8B84507D9FF1888
:1024700004F1FF3028D2B84526D9023C1F4444EA73
:102480000940C8EB0707A0FB02894F4544464E466A
:1024900014D329D065B3BAEB040367EB060707FA38
:1024A0000EFECB40CF404EEA030385E888000021B2
:1024B000BDE8F0871346F8E61046E0E6B8EB020404
:1024C00069EB03060138E5E70446D8E7114695E7CE
:1024D0008146C0E78A467CE7023B3C4448E7084621
:1024E0000AE702383E442FE7C245E7D33E46D1E72C
:1024F0002946BDE8F08700BF704700BFF8B500BFB0
:10250000F8BC08BC9E467047F8B500BFF8BC08BCD4
:102510009E467047430000000028002074280020D9
:1025200060280020000000005072696D65207374FF
:1025300061727465642E2E2E0A0000005072696E5E
:102540007420737461727465642E2E2E0A0000006C
:102550005072696E743A2054696D657220737461AB
:10256000727465642E0A00005072696D653A202508
:10257000640A00005072696E742070726F63657334
:10258000730000005072696D652070726F6365732F
:102590007300000030303030303030303030303088
:1025A00030303030303132333435363738394142DB
:1025B000434445460000000030313233343536376D
:1025C00038396162636465660000000030580000BD
:1025D000307800002D000000200000002B000000DB
:1025E000286E756C6C29000025000000202020203A
:1025F000202020202020202020202020001001400A
:1026000011000000009000400900000006000000DA
:1026100008000000070000000500000000000000A6
:102620000000000000009D00030000004374696D7D
:1026300065722070726F6365737300004576656E16
:10264000742074696D65720053657269616C2064F1
:10265000726976657200000053656E736F72730065
:10266000A0260200150E0200990D0200510E020074
:10267000A0260200C90E0200910D0200690E0200A0
:10268000A0260200A50E0200890D0200FD0D020029
:10269000A0260200810E0200810D0200390E020008
:1026A000427574746F6E000054656D70657261746C
:1026B00075726500A8260200ED0E0200090F0200E7
:1026C0001D0F0200FF0003000000000008000303CC
:1026D0000000000001000000D00700000100000021
:1026E00001030000060000000800000007000000D1
:1026F00005000000000000000000000000009D0038
:0427000003000000D2
:08270400A0CDFF7F01000000E1
:10270C0000000000000000000000000000000000BD
:10271C0000000000000000000000000000000000AD
:10272C001425020000000000000000000000000062
:10273C00000000000000000000000000000000008D
:10274C00000000000000000000000000000000007D
:10275C00000000000000000000000000000000006D
:10276C000000000084250200A1F50100000000001B
:10277C0003000000000000007425020029F601008F
:10278C000000000039F7010000000000000000000C
:10279C002C2602008D030200000000000000000047
:1027AC003C260200BD0402000000000000000000F6
:1027BC004826020081090200000000000000000011
:1027CC0058260200750B0200000000006026020073
:1027DC00702602008026020090260200B426020019
:1027EC00000000000090D0036DF4010045F40100DE
:040000032000200DAC
:00000001FF
