:020000021000EC
:10F000000080002069300200993002009B3002002D
:10F0100000000000000000000000000000000000F0
:10F02000000000000000000000000000A33002000B
:10F030000000000000000000A5300200A730020020
:10F04000A9300200A9300200F90B0200A930020029
:10F05000A9300200A930020031070200A9300200E5
:10F06000A9300200A9300200A9300200A930020034
:10F07000A9300200A9300200A9300200A930020024
:10F08000A930020055FA0100A9300200A93002009F
:10F090002DFB0100A930020035300200A93002002A
:10F0A000A9300200A9300200A9300200A9300200F4
:10F0B000A9300200A930020000000000000000009A
:10F0C000A9300200A9300200A9300200A9300200D4
:10F0D000A9300200A930020000000000000000007A
:10F0E0000000000000000000000000000000000020
:10F0F0000000000000000000000000000000000010
:10F1000000000000000000000000000000000000FF
:10F1100000000000000000000000000000000000EF
:10F40000154B002B08BF134B9D46A3F5803A0021F6
:10F410008B460F461348144A121A00F065F80F4B3A
:10F42000002B00D098470E4B002B00D098470020AF
:10F43000002104000D000D48002802D00C48AFF355
:10F44000008000F02BF82000290002F0FFFA00F005
:10F4500011F800BF0000080000800020000000003C
:10F460000000000080280020403100200000000043
:10F470000000000008B5074B044613B10021AFF3AC
:10F480000080054B1868836A03B19847204600F056
:10F4900033F800BF000000000C31020070B50E4BC5
:10F4A0000E4CE41AA41000251E46A54204D056F8BE
:10F4B000253098470135F8E703F01AFE084C094B50
:10F4C000E41AA41000251E46A54204D056F82530A3
:10F4D00098470135F8E770BD80280020802800207B
:10F4E000802800208028002002440346934202D056
:10F4F00003F8011BFAE77047FEE700BF2DE9F84F5C
:10F50000244B1A788AB3DFF890B0DFF89090DFF8D8
:10F5100090A00024012703E00134E4B2944224D2F5
:10F5200026B2D9F80050DBF8003015F8360007FA9B
:10F5300000FE1EEA030F05EBC608EDD0164A23EACB
:10F540000E03136001F0EAF815F83650DAF80030CF
:10F5500007FA05F6334000FA05F6B34207D00D4B23
:10F5600001341A78E4B29442DAD3BDE8F88FD8F8BF
:10F570000430002BF3D098F80110A1F10101B1FA89
:10F5800081F14909091AB1FA81F1490928469847D8
:10F59000E5E700BF88280020942800208428002068
:10F5A0008C280020F8B5134E0546306800F082FE26
:10F5B00040B9114F01243B68AC401C4203D023EA00
:10F5C00004043C60F8BD284601F0A8F80B4D2A68F9
:10F5D00060B122433B680A492A601C433C603068A2
:10F5E00009680022BDE8F84000F0ECBD22EA040200
:10F5F000F0E700BF90280020942800208C280020ED
:10F6000080280020042A01D8072070472DE9F04106
:10F6100082B088460546174600F028FF002834D0FF
:10F620001C4C1D481D491E4A1E4B2560002608F132
:10F63000FF340F6080F8008016601E60E4B203277C
:10F64000B8F1000F03D11AE0DBB2C4B11C4623B2FB
:10F6500005EBC30215F833009378134A8DF8053093
:10F6600001A98DF804708DF806608DF8076000F030
:10F6700005FF631E0028E7D002B0BDE8F0810B4A09
:10F680000B48002100F070FDF6E700F0B9FE0028FD
:10F69000C6D0F1E784280020882800208028002098
:10F6A0008C28002094280020A5F50100FDF401001D
:10F6B0009028002070B5084D2B785BB1074E0024D0
:10F6C0003368012113F8340000F0CCFF2B780134AB
:10F6D000A342F5D8002070BD88280020842800208F
:10F6E000BFF34F8F0449054BCA6802F4E06213432D
:10F6F000CB60BFF34F8FFEE700ED00E00400FA059A
:10F7000036DF704737DF704712F0030301D0072060
:10F710007047F0B4094D0A4F2B700A4D3A604C1CEB
:10F720002B70094F094D0A4E3880E400A4B22244E0
:10F73000298032601846F0BC704700BFA328002023
:10F7400098280020A2280020A0280020A42800201B
:10F750009C2800202DE9F0474B4F3B888B4282B01C
:10F7600003D2092002B0BDE8F0871646474B0022BD
:10F770008DF807205B68C3F3080305460C46002B91
:10F7800037D14FF004080DF10700FFF7B9FF022849
:10F7900057D0002863D13E4B3E4A3F491878137832
:10F7A0000988DBB28B4238BF0133C0B234BFDBB251
:10F7B000002398422FD092F800901378DBB28B424E
:10F7C0003ABF0133DBB20023B8F1010F137028D127
:10F7D000DFF8D0A0DAF800304FEAC90843F8396002
:10F7E00043440DB1002C3FD10020988002B0BDE809
:10F7F000F087103B5AB2002A25DB02F1604303F583
:10F80000614393F800335B09012B5FFA83F808BF6B
:10F810009846C0D0B7E7B8F1010F18BF4FF6FF798F
:10F820000BD062B69DF80700FFF76CFF30F00203C3
:10F8300010D14FF6FF739945CAD1042002B0BDE83C
:10F84000F08772B6A7E7154A03F00F031A44137E38
:10F850005B09D9E700221146FFF742FFE9E70022E2
:10F860001146FFF73DFF96E70D4B38881B68294688
:10F8700009FB0030224603F028FCDAF800309844F7
:10F880000020A8F804406DE7A028002000ED00E06B
:10F89000A2280020A3280020A4280020FCEC00E0DF
:10F8A0009C280020982800202DE9F843164C174D7D
:10F8B00023782A789A4225D0154FDFF85C90DFF83C
:10F8C0005C80144E207823783A88D9F80010B6F876
:10F8D00000E0DBB29A4203F101038CBFDBB20023EC
:10F8E000C0B2237003B2D8F8002001EBC30C00FBB8
:10F8F0000E2051F83330BCF80410984722782B784A
:10F900009A42DFD1BDE8F883A2280020A328002076
:10F91000A4280020A0280020982800209C2800204F
:10F92000484B494830B401214FF480344FF400353E
:10F930002F22C0F88050C3F848431046C3F808434C
:10F940005960013800BF00BF00BF00BF00BF00BF4B
:10F9500000BF00BF00BF00BF00BF00BF00BF00BFAF
:10F9600000BF00BF00BF00BF00BF00BF00BF00BF9F
:10F9700000BF00BF00BF00BF00BF00BF00BF00BF8F
:10F9800000BF00BF00BF00BF00BF00BF00BF00BF7F
:10F9900000BF00BF00BF00BF00BF00BF00BF00BF6F
:10F9A00000BF00BF00BF00BF00BF00BF00BF00BF5F
:10F9B00000BF00BF00BF00BFC3D1244C996000232B
:10F9C00010462360013800BF00BF00BF00BF00BF6A
:10F9D00000BF00BF00BF00BF00BF00BF00BF00BF2F
:10F9E00000BF00BF00BF00BF00BF00BF00BF00BF1F
:10F9F00000BF00BF00BF00BF00BF00BF00BF00BF0F
:10FA000000BF00BF00BF00BF00BF00BF00BF00BFFE
:10FA100000BF00BF00BF00BF00BF00BF00BF00BFEE
:10FA200000BF00BF00BF00BF00BF00BF00BF00BFDE
:10FA300000BF00BF00BF00BF00BFC3D1044A1370A6
:10FA400030BC70470010014000E100E0A828002011
:10FA5000D02800202DE9F0472B4B2C4A0026C3F874
:10FA60004061C3F84461C3F84861C3F84C61C3F80E
:10FA70000061C3F804611468621C38D0244AD3F8CA
:10FA800004351568234FDFF8A0805D1B25F07F4506
:10FA900001E0631C1DD03A6804EBC40402EB84034C
:10FAA0005A68AA4215D8D3F818A01C6AD8F8009052
:10FAB000DB6950461946AD1A1644B9F1000F18D04B
:10FAC000C8470028E5D000221146FFF709FE631C55
:10FAD000E1D1114B11491A780B789A420CD0104998
:10FAE000104A41F823604FF48013C2F80031BDE89A
:10FAF000F0871846D047CCE7531CDBB2022B08BF77
:10FB000000230B70EBE700BF00100140C02800206D
:10FB1000A8280020B0280020BC280020BD280020F4
:10FB2000C828002000E100E0AC2800202DE9F04FBB
:10FB3000B54AB64913780978B5488DB00068069083
:10FB4000994200F05C810133DBB2022B08BF002335
:10FB50001370B04A52F82330069A0393D318AC4A74
:10FB600023F07F43136001230593AB4BAB4A1B7813
:10FB700001931846AA4B12681B680293A94B0B927B
:10FB80001D68A94B1B780A93A14B1B68089300239F
:10FB90001E460093144613468246079609960AF1BC
:10FBA000FF3A5FFA8AFABAF1FF0F7DD002980FFA96
:10FBB0008AF200EBC20810F8322098F801002146C2
:10FBC00082420C46EBD002EB4207D8F8044098F88A
:10FBD00002C014F837E00132D2B2944508BF0022C7
:10FBE000BEF1020F04EBC70414D0BEF1030FE7D13E
:10FBF0004C1C18BF0B46E3D003EBC30305EB83019A
:10FC00000B6A0E75581CF7D1012498F80100009476
:10FC10001946D5E7D4F804E04FEACE0909EB0E0CFB
:10FC200005EB8C0C9CF814B0BBF1000FC8D0481C3D
:10FC30000FD08E4500F0DF800F4602E0A6450DD0C4
:10FC4000274607EBC70005EB8000046AB4F1FF3FCD
:10FC5000F4D18CF8146098F80100B1E7BE4516D0D5
:10FC600009EB0E0405EB8404276AD4F804E007626C
:10FC70007C1CEED007EBC70705EB870419466068CC
:10FC8000704460608CF8146098F8010098E701EB0C
:10FC9000C10105EB810304461B6A5F1C00F09C80D8
:10FCA000CDF800B01946DFE7099A0494002A40F025
:10FCB000C381079A12B1564A08991160009A0AB195
:10FCC000564A1360059B002B40F07981049A0B9BE8
:10FCD0009B1A18BF012305934FF0FF3E11460023E6
:10FCE00000939C464A4BD3F800A04C4BD3F800B08D
:10FCF0004D4B1B780393019B013BDBB2FF2B019320
:10FD000000F0CD801A46029BBEF1FF3F0F4603EB89
:10FD1000C20943D00EEBCE0405EB8404F046A36881
:10FD2000E268D4F820E04148CAEB030121F07F41AA
:10FD300081427FD80A4462604FF0010323754FF07F
:10FD4000FF339F42C4F808C0C4F80CC0236200F01F
:10FD5000A08007EBC70305EB8303606859688842FE
:10FD600040F28E803E4604E05968814280F08580F2
:10FD700016461A6A401A02EBC203511C05EB8303B4
:10FD8000F2D106EBC60605EB86063B4660602262B2
:10FD90001F46C6F82080BEF1FF3FBBD199F8003066
:10FDA00099F801209A423946A5D05A1C99F8024088
:10FDB000D9F80400D2B203EB4303944289F800203F
:10FDC00008BF89F800C000EBC30110F83330012BE5
:10FDD0003BD03B461F46DEE7154FCDF81CB0012156
:10FDE000B9600027CDF800B0CDF824B0CDF828B028
:10FDF0001946089738E76046644663464CE7002397
:10FE000003930593B1E600BFBC280020BD28002065
:10FE1000A8280020C8280020B4280020C0280020DE
:10FE2000B8280020B0280020C4280020FEFF7F0052
:10FE300000100140C3EB0A0323F07F4393423ABF13
:10FE4000D31A6360C4F804C076E7D1F8048008EBE5
:10FE5000C80405EB8404207D0028BAD18B68A36018
:10FE6000CA68E2600E6926614969E1610399002967
:10FE70003FF459AFA060034655E7091A596080E77F
:10FE8000091A5960012243462762C34600921F4661
:10FE900081E743460122C34600921F467BE7009B51
:10FEA000002B40F0D180049B994200F084804B1CD1
:10FEB00000F0BF80684D694B694A1B681268D5F82D
:10FEC0000445684E01EBC10102EB81013078D1F8A5
:10FED00004E0E21A22F07F42033200284BD162484C
:10FEE0004FF48031C5F844134FF40037C5F80413BC
:10FEF0000121C0F8807107602F202960013800BF00
:10FF000000BF00BF00BF00BF00BF00BF00BF00BFF9
:10FF100000BF00BF00BF00BF00BF00BF00BF00BFE9
:10FF200000BF00BF00BF00BF00BF00BF00BF00BFD9
:10FF300000BF00BF00BF00BF00BF00BF00BF00BFC9
:10FF400000BF00BF00BF00BF00BF00BF00BF00BFB9
:10FF500000BF00BF00BF00BF00BF00BF00BF00BFA9
:10FF600000BF00BF00BF00BF00BF00BF00BF00BF99
:10FF700000BFC3D1317096452CBF03EB0E029A1817
:10FF8000354922F07F43C1F84035D1F80425121BD2
:10FF900022F07F421B1B033223F07F439A4204D995
:10FFA000314B4FF40032C3F80021304A0023137064
:10FFB0000DB0BDE8F08F059B002BF6D077E72C4BFA
:10FFC000049A1C68DDF80CC00020064607464FF076
:10FFD000FF3E15E05968614520D818695F60C1EBA4
:10FFE0000C0C0E441F751C6A40B10699C3F820E042
:10FFF000314421F07F41D8609646996005982246A9
:020000022000DC
:1000000002EBC203511C05EB8303E3D1C8B94FF0E7
:10001000FF33049301230593049960E6CDF80CC0E7
:10002000B0B903980492091A596001230593114647
:1000300055E6FFF775FCB8E70C4A9DF828101170DB
:1000400037E60B4B1C60E2E7094BC3F800B02AE728
:1000500007480460E5E700BF00100140A828002021
:10006000B0280020D028002000E100E0C4280020B3
:10007000C02800202DE9F04113F0030502D007202D
:10008000BDE8F081002BFAD00C469846174606468C
:10009000FFF746FC29492A4A2A4B06980860147043
:1000A000C3F80080002C47D021B201EBC10308EB5C
:1000B000830344462570257524349C42FAD101EB14
:1000C000C10189002048DFF89CE0204D08EB0103C6
:1000D00007EB4702036003F118040020D20008F880
:1000E0000100A1189F709F729F745C600A44184FB2
:1000F000184C58705A61D960187258721874587434
:10010000154A164B3870032121704FF0FF374FF41A
:10011000801460212F608EF80000114DC3F88041DB
:1001200083F814131C60C2F8086583F81113D2F821
:1001300004352B60BDE8F0812146C0E7AC280020E3
:10014000BE280020B0280020B8280020C0280020A9
:10015000BD280020B42800200010014000E100E08C
:10016000A8280020BC280020F0B5144B1E68C6B19A
:10017000A2B198B1124B1F786FB13378A3B106F1D9
:100180002404002303E014F8245B9E466DB1013380
:10019000BB422646F7D104231846F0BD0723184674
:1001A000F0BD08231846F0BD9E46012333707170E0
:1001B000B2610023C0F800E01846F0BDB02800206E
:1001C000BE280020344B1B688BB1F0B5334C24782B
:1001D000844201D80720F0BD0429FBD900EBC004FC
:1001E000A4001D191B5D012B03D00820F0BD0820C1
:1001F00070472B4B6C785B68012CC3F308030CBF72
:100200000F460027002B3AD0103B5CB2002C3CDBA1
:1002100004F1604303F5614393F800335B09DBB2FB
:10022000012B30D0032B0CBF082310231D4C246856
:100230001C446378A678257803F1010EB64508BF03
:100240004FF0000E75451CD003EB43036668DB00DE
:10025000F51816D04FF0010C06F803C0124E686076
:10026000124BD6F80405A8604FF48016E9602F61A0
:100270006A6184F801E0C3F800610020F0BD10233A
:10028000D4E70420F0BD0023D0E7094C03F00F03AE
:100290001C44237E5B09C2E7B0280020BE28002052
:1002A00000ED00E0B82800200010014000E100E06F
:1002B000FCEC00E02A4B1B685BB12A4A12788242B0
:1002C00001D80720704700EBC00213F82230012B41
:1002D00001D008207047F0B4234B5B68C3F30803D8
:1002E000002B2FD0103B5AB2002A31DB02F16043C1
:1002F00003F5614393F800335B09DBB2012B25D092
:10030000032B0CBF08231023184A12681A44537891
:1003100095781478591CA94208BF00218C4213D04B
:1003200003EB43035468DB00E7180DD0104D0226A1
:10033000E6544FF48013786051700020C5F8003106
:10034000F0BC70471023DFE70420F9E70023DBE768
:10035000084A03F00F031A44137E5B09CDE700BF80
:10036000B0280020BE28002000ED00E0B8280020C2
:1003700000E100E0FCEC00E0082910B5044604D0E0
:10038000002211461046FFF7ABF923686068BDE80C
:100390001040184700B583B08DE80300034A0821D8
:1003A0006846FFF7D7F903B05DF804FB7903020054
:1003B000002810B418DB00F1604303F561434901E4
:1003C000C9B283F80013C3B24009800000F1604055
:1003D00000F5614003F01F0201239340C0F8803113
:1003E00003605DF8044B7047C3B2044A03F00F0486
:1003F00049012244C9B21176E6E700BFFCEC00E0F7
:1004000038B5184C25780DB1082038BD4FF0FF33B2
:10041000FF226363A363E36323646364A364E3640D
:100420002365012106206360A360E36023616361AB
:10043000A361E3612362636284F85430A362E362E0
:1004400084F85630236384F8573084F85520FFF73A
:10045000AFFF054A4FF000410123C2F80413237097
:10046000284638BDD428002000600040024B187890
:10047000003018BF01207047D42800202DE9F0413A
:10048000774D2C1894F93430002B02DB0820BDE89E
:10049000F08191F803C0BCF1000F7FD06B6801338D
:1004A00000F0D18000260827731C9C0005EB04088F
:1004B000DFF8ACE1D8F80480B8F1FF3F77D0B31C87
:1004C0009F4268D99C000EEB0408D8F80480B8F16C
:1004D000FF3F6CD0F31C9F425DD99C000EEB0408DB
:1004E000D8F80480B8F1FF3F61D0331D9F4252D944
:1004F0009C000EEB0408D8F80480B8F1FF3F56D0FA
:10050000731D9F4247D99C00A644DEF804E0BEF16B
:10051000FF3F4CD0B31D9F423DD99C0005EB040822
:10052000DFF83CE1D8F80480B8F1FF3F3FD0F31D7D
:100530009F4230D99C000EEB0408D8F80480B8F133
:10054000FF3F34D006F108039F4224D99C000EEBF4
:100550000408D8F80480B8F1FF3F28D006F1090359
:100560009F4218D99C000EEB0408D8F80480B8F11B
:10057000FF3F1CD006F10A039F420CD99C00A64401
:10058000DEF804E0BEF1FF3F11D00B36B74202D9CE
:100590002B6B013309D00420BDE8F0816B6A013375
:1005A0004FF0080655D00C277EE70B232C242E197C
:1005B0002C187260DAB284F83420BCF1000F02D13A
:1005C0002B4483F84C008B78B3B94C784FF0A0469D
:1005D00000F5E073A40046F82340CB7852B2ABB9E3
:1005E000083A1544097895F8542042EA811285F8B2
:1005F00054201846BDE8F081830003F1A043D3F8EE
:10060000004724F00204C3F80047E6E7930003F133
:10061000804303F5C0430A78D3F8101521F447311D
:1006200021F44071C3F810151204000202F44031A5
:10063000D3F8104500F4F8520A432243C3F81025BA
:100640000020BDE8F08100236A6084F834301A4647
:10065000B9E76A62334684F834603246B0E700BFD7
:10066000D428002030B42B4B1A1882B092F83440B2
:1006700062B2072A1CDD134493F84C309B09032B0C
:100680003AD0012B14BF4FF440334FF400338000B5
:1006900000F1A040D0F8002722F44032C0F8002733
:1006A000D0F800271343C0F8003702B030BC7047C1
:1006B000072CFAD8900000F1804002F1400300F5C9
:1006C000C0409B009BB2D0F8104503F1804303F576
:1006D000C04344F001040025C0F810451D601B68AC
:1006E0000193019B0029E0D00B4901239340C1F8FD
:1006F000043302B030BC70474FF0A0420123D2F85F
:100700001025834013420CBF4FF400334FF44033A5
:10071000BDE700BFD4280020006000404FF0A04398
:10072000D3F8103523FA00F000F00100704700BF45
:10073000F0B5BB4B1A68012A83B000F0D5800024C5
:10074000B84B1A68012A00F0E180B74B1A68012AF9
:1007500000F0EE80B54B1A68012A00F0FB80B44B24
:100760001A68012A00F00881B24B1A68012A00F0C9
:100770001581B14B1A68012A00F02281AF4B1A682B
:10078000012A00F02F81AE4B1A68012A00F03C814B
:100790000025210717D0E20700F15881A30700F1D7
:1007A000BE81670700F19C81260700F1A881E00661
:1007B00000F15C81A10600F16881620600F174819C
:1007C000230600F18081002C01DB03B0F0BD9D4CBD
:1007D00094F8541021F0C000231893F93430072BFB
:1007E00014DD04EB83035E6886B1870007F1A04740
:1007F0000123D7F8002783402B424FEA9111C2F31F
:10080000014240F0A381032A00F0B58194F855100D
:100810008C4B21F0C000221892F93420072A14DDF5
:1008200003EB82035E6886B1870007F1A0470123CE
:10083000D7F8002783402B424FEA9111C2F30142BF
:1008400040F09281032A00F0B78194F856107D4B56
:1008500021F0C000221892F93420072A14DD03EB9E
:1008600082035E6886B1870007F1A0470123D7F8AD
:10087000002783402B424FEA9111C2F3014240F01E
:100880006C81032A00F0878194F857106D4B21F09A
:10089000C000044494F93420072A96DD03EB820358
:1008A0005E68002E91D0830003F1A0430122D3F8AB
:1008B000004782402A424FEA9111C4F3014440F0BC
:1008C0003E81032C81D1032940F03E814FF4003258
:1008D000D3F8004724F44034C3F80047D3F8004766
:1008E0002243C3F800272FE15749D1F8044314F0FD
:1008F00001043FF425AF002119601B680093009BA1
:10090000484B14461A68012A7FF41FAF4E4AD2F8AA
:10091000042390077FF519AF00221A601B6800932B
:10092000009B414B1A68012A44F002047FF412AF85
:10093000454AD2F8042351077FF50CAF00221A6014
:100940001B680093009B394B1A68012A44F0040489
:100950007FF405AF3C4AD2F8042312077FF5FFAEBF
:1009600000221A601B680093009B314B1A68012A11
:1009700044F008047FF4F8AE334AD2F80423D706D3
:100980007FF5F2AE00221A601B680093009B294B92
:100990001A68012A44F010047FF4EBAE2A4AD2F818
:1009A000042396067FF5E5AE00221A601B680093CB
:1009B000009B214B1A68012A44F020047FF4DEAE2C
:1009C000214AD2F8042355067FF5D8AE00221A60DA
:1009D0001B680093009B194B1A68012A44F04004DD
:1009E0007FF4D1AE184AD2F8042310067FF5CBAEBF
:1009F00000221A601B680093009B114B1A68012AA1
:100A000044F080047FF4C4AE00221A601B68019396
:100A10004FF0A043019AD3F8105544F00044B8E6D3
:100A20000061004004610040086100400C6100402A
:100A30001061004014610040186100401C610040DA
:100A40007C610040D428002000600040684B694A67
:100A5000D3F81005D3F810155368C0F30420C1F380
:100A600001419847A3077FF59CAE58E0604B614A6F
:100A7000D3F82005D3F820155369C1F30141C0F321
:100A800004209847A1067FF598AE594B594AD3F8F0
:100A90002405D3F824159369C0F30420C1F3014160
:100AA000984762067FF58CAE514B524AD3F8280521
:100AB000D3F82815D369C0F30420C1F30141984746
:100AC00023067FF580AE4A4B4A4AD3F82C05D3F86B
:100AD0002C15136AC0F30420C1F30141984772E654
:100AE000434B444AD3F81805D3F81815D368C0F31C
:100AF0000420C1F30141984726077FF558AE3C4BCF
:100B00003C4AD3F81C05D3F81C151369C0F3042024
:100B1000C1F301419847E0067FF54CAEA6E7344BA0
:100B2000344AD3F81405D3F814159368C0F304209D
:100B3000C1F30141984767077FF536AED0E7022C35
:100B40007FF443AE03294AD0B0473EE6022A7FF441
:100B50005DAE032949D0B04758E6022A7FF494AE2F
:100B600003293FD0B0478FE6022A7FF46EAE0329F7
:100B700032D0B04769E60329EDD14FF40033D7F8FE
:100B8000002722F44032C7F80027D7F80027134384
:100B9000C7F80037DFE70329E4D14FF4003ED7F868
:100BA000002722F44032C7F80027D7F800374EEA72
:100BB0000303C7F80037D5E70329DAD14FF4003330
:100BC000D7F8002722F44032C7F80027D7F80027CB
:100BD0001343C7F80037CCE74FF44033F0E74FF446
:100BE000403275E64FF4403ED9E74FF44033C6E754
:100BF00000600040D428002030B5834C834AE37D58
:100C000085B0F3B11368002B40F0B980804A1168B9
:100C1000002940F09E807F4B1A6832B1E17C7A480F
:100C200000221A60002940F0CF807B4B1A6832B155
:100C3000A17C754800221A60002940F0D58005B0DB
:100C400030BD1168002959D0617D744813604FF49C
:100C50000173C0F8083329B903F1804303F5F05359
:100C600001221A606D4A02238DF80030D2F88034D8
:100C7000C2F88034E268E07C0192002203938DF890
:100C8000080021686368E27468469847644B1A68F4
:100C9000A2B1228AA17C5C4892B291424FF000023C
:100CA0001A6040F28380028A038A85685B4992B2A7
:100CB0000133AA5C9BB20382C1F81C25554B1A680C
:100CC000002ABCD0627D002119601AB1A3F5A2737D
:100CD00001221A60E27C4C4B002AB0D0197DDA6800
:100CE0008DF80810002001218DF800100192D874B1
:100CF00093E806006846904705B030BD494B1A6836
:100D0000002AC3D0454A1960207DD2F81855237DAA
:100D1000E17CE2680133DBB22375237D15549942EF
:100D2000B4D1637D13B9404B012119603B4963681D
:100D30004FF40170C1F8080301920122217D8DF862
:100D4000002000228DF8081068462168E274984758
:100D50009CE732491360D1F83C25E17CD2B2914244
:100D60007FF459AFE2688DF8081001208DF800007B
:100D70000192684694E80600E37490474BE7274BDE
:100D80000020022110608DF80010D3F88024C3F8F1
:100D900080240392D3F83C25E3680193E0748DF836
:100DA0000820216863686846984734E7002985D0A1
:100DB00083688DF808100193827490E80A008DF81A
:100DC00000206846984779E71449C368D1F83C1574
:100DD0008DF8081001218DF800100193C27490E87D
:100DE0000A006846984720E70C498368D1F84C15FB
:100DF0008DF808100193827490E80A008DF80020A5
:100E0000684698471BE700BF2C290020242100409A
:100E100010210040442100402021004000200040DB
:100E20001C2100400821004004200040064B1B68A4
:100E30005B0701D40820704720B1044B5B78036046
:100E4000002070470E207047A02B0020442900206E
:100E50004FF0A042D2F80435D94301F4002103F445
:100E60000023C2F80815C2F80C3570470D282DE98B
:100E7000F04707D00E2839D00F2839D0102839D0A4
:100E8000BDE8F08700250129044611D020D30229AE
:100E9000F6D1224B05EB45051D446E78002EEFD0B0
:100EA0001F4B1B68002BEBD03046BDE8F0471847BE
:100EB000DFF868806F007B1908EB030218F8036005
:100EC0005378CBB92F444744164BBA785A55E5E7C7
:100ED000154B1868FFF7EEF91049124A05EB450368
:100EE0000B44565D9B789E42CAD1D7E70125CAE7DD
:100EF0000225C8E70325C6E70C4BDFF834901968D4
:100F0000094B01EB810149004A461868FFF75AF97D
:100F10000028D7D189F80040D4E700BFC82B0020B3
:100F2000BC2B0020B02B0020AC2B0020B42B0020C9
:100F3000A42B0020CE4B1B68DB0700D4704770B594
:100F4000CC4B1C78172C22D8DFE814F06A00740010
:100F50007400AB00D000F500180139013A002200FE
:100F60003A00220018003E013E013E013E013E01D2
:100F700050005A009B006101180018004FF0A04378
:100F80004FF4F0110022C3F80C15C3F8082570BD0A
:100F90004FF0A042B84CD2F80435B848D94301F418
:100FA000802103F48023C2F80815C2F80C352168AB
:100FB000006801EB81010022BDE87040FFF702B933
:100FC0004FF0A042AC4CD2F80435AC48D94301F400
:100FD000802103F48023C2F80815C2F80C3521687B
:100FE00000680022BDE87040FFF7ECB84FF0A04366
:100FF0004FF4F0110022C3F80815C3F80C2570BD9A
:101000004FF0A0434FF4E01000224FF40031C3F83A
:101010000805C3F80C25C3F80C15C3F8082570BDE6
:101020004FF0A0434FF4B0110022C3F80815C3F8E5
:101030000C2570BD4FF0A0404FF4A0120025C0F861
:101040000825C0F80C55D0F8042582F4F01212F4EB
:10105000003200F02181022C4FF40032C0F8082544
:1010600014BF28211221C0F80C55834A8348126806
:101070001C7002FB01F100680022BDE87040FFF720
:10108000A1B84FF0A04300224FF4D0104FF48021BC
:10109000C3F80805C3F80C25C3F80C15C3F80825D8
:1010A00070BD4FF0A0404FF4A0120024C0F80825F6
:1010B000C0F80C45D0F8042582F4F01212F4003286
:1010C00000F0E2804FF40032C0F808250821C0F893
:1010D0000C45694A69481268006803241C7002FBC9
:1010E00001F1BDE870400022FFF76CB84FF0A0405E
:1010F0004FF4A0120024C0F80825C0F80C45D0F821
:10110000042582F4F01212F4003200F0A1804FF4B2
:101110000032C0F808252821C0F80C45564A574827
:101120001268006804241C7002FB01F1BDE87040E5
:101130000022FFF747B84FF0A0414FF4A012002063
:10114000C1F80825C1F80C05D1F8042582F4F01285
:1011500012F4003200F084804FF40032C1F8082508
:10116000C1F80C054449454A0968106805241C70FB
:1011700049000022BDE87040FFF724B84FF0A041BD
:101180004FF4A0120020C1F80825C1F80C05D1F8D1
:10119000042582F4F01212F4003252D04FF40032DF
:1011A000C1F80825C1F80C05344A334910680968AC
:1011B00006241C700022BDE87040FFF703B84FF012
:1011C000A0434FF4A0101FE72D4D2868FFF772F8D9
:1011D000D4F1110402462AD048BB012C0DD0C826F8
:1011E000284B25492868096806FB04F4A3FB04433F
:1011F0005B0901FB03F1FEF7E5FF4FF0A0434FF45D
:1012000000210022C3F80C15C3F8082570BD4FF06B
:10121000A04300224FF4C0104FF4C021C3F80805CA
:10122000C3F80C25C3F80C15C3F8082570BD4FF0A2
:10123000A0434FF400210022C3F80815C3F80C2581
:1012400070BD4FF40030C1F80C05C1F80825ABE7BC
:101250004FF40031C0F80C150421C0F808255DE7F3
:101260004FF40030C1F80C05C1F808257AE700BF3B
:10127000A82B0020C02B0020B42B0020C42B002062
:10128000B82B00201F85EB514FF40031C0F80C152E
:101290000221C0F808251CE74FF40031022CC0F8E9
:1012A0000C1514BF04210221C0F80825DDE600BF9B
:1012B00003780D2B15D00E2B15D00F2B04D0102B2F
:1012C00008BF032301D070470223084A03EB4303FE
:1012D000134458780028F6D0054B1B68002BF2D039
:1012E00018470023F1E70123EFE700BFC82B0020D8
:1012F000BC2B002070B5CB4B1A6812F0010201D153
:10130000104670BD0346172800F2CB81DFE810F0CD
:1013100023013001300171009700BD00E1005A0047
:101320003000180030001800040157015701570120
:10133000570157017C010F01190146006400640048
:101340004FF0A042B84CD2F80435B848D94301F464
:10135000802103F48023C2F80815C2F80C352168F7
:10136000006801EB81010022BDE87040FEF72ABF52
:101370004FF0A042AC4CD2F80435AC48D94301F44C
:10138000802103F48023C2F80815C2F80C352168C7
:1013900000680022BDE87040FEF714BFA4484FF07B
:1013A000A0434FF4C01200214FF4C0251524C3F808
:1013B0000825C3F80C150A46C3F80C55C3F80815E0
:1013C00004709DE74FF0A04399484FF4A01200210C
:1013D0004FF400350724EAE74FF0A041944C4FF456
:1013E000F0120020C1F80C25C1F808050246237050
:1013F00086E74FF0A0424FF4A0130020C2F8083552
:10140000C2F80C05D2F8043583F4F01313F400335A
:1014100000F030814FF40033C2F808350821C2F8DB
:101420000C05814B81481A68814B006803241C70AD
:1014300002FB01F1BDE870400022FEF7C3BE4FF091
:10144000A0424FF4A0130020C2F80835C2F80C05E2
:10145000D2F8043583F4F01313F4003300F0128152
:101460004FF40033C2F808352821C2F80C056E4B42
:101470006E481A686E4B006804241C7002FB01F170
:10148000BDE870400022FEF79DBE4FF0A0424FF431
:10149000A0130021C2F80835C2F80C15D2F80435A3
:1014A00083F4F01313F4003300F0F4804FF40033AE
:1014B000C2F80835C2F80C155B4B5C4A19685C4BE6
:1014C000106805241C7049000022BDE87040FEF73A
:1014D00079BE4FF0A0424FF4A0130021C2F80835A6
:1014E000C2F80C15D2F8043583F4F01313F400336A
:1014F00000F0AE804FF40033C2F80835C2F80C1586
:101500004B4B4A4A48491068096806241C7000225F
:10151000BDE87040FEF756BE4FF0A0434FF4F01206
:101520000021C3F80C250A46C3F80815E8E64FF079
:10153000A0433F484FF4E01200214FF4003513243C
:1015400035E74FF0A0433A484FF4D01200214FF452
:10155000802514242BE74FF0A041354800234FF499
:10156000B012C1F80825C1F80C351A460370C7E659
:101570004FF0A0404FF4A0120024C0F80825C0F896
:101580000C45D0F8042582F4F01212F4003266D033
:10159000022B4FF40032C0F8082514BF2821122175
:1015A000C0F80C45204A224C12682048237002FBE8
:1015B00001F100680022BDE87040FEF703BE1D4D3A
:1015C00004462868FEF776FED4F11103024635D0B2
:1015D000A0BB012B0ED0C824174E134928680968F8
:1015E00004FB03F3A6FB03435B0901FB03F1FEF7D6
:1015F000E9FD02464FF0A0434FF400200021C3F85C
:101600000C05C3F808157BE64FF0A04308484FF4DB
:10161000F01200211224C3F80825C3F80C150A465D
:1016200004706DE6A82B0020B42B0020C42B0020F2
:10163000C02B0020B82B00201F85EB514FF0A0439A
:101640004FF400200021C3F80805C3F80C1557E635
:101650004FF40031C2F80C15C2F8083550E74FF4CA
:101660000031022BC0F80C1514BF04210221C0F870
:10167000082597E74FF40031C2F80C150221C2F893
:101680000835CEE64FF40031C2F80C150421C2F83B
:101690000835ECE64FF40031C2F80C15C2F80835F5
:1016A0000AE700222CE600BFF8B5224D224E234B5C
:1016B0002860044610F0020031601A6011D0204BFF
:1016C00020484A080E270D210F2610251970DF70BB
:1016D00004219E715D72FDF795FFF8B1E30702D416
:1016E000F8BDE2070CD54FF0A0434FF4F0120021F3
:1016F000C3F80825C3F80C15C3F818250028EFD146
:10170000114A12480021FEF72FFD0028E8D1104AA7
:1017100010480121BDE8F840FEF726BDFDF7CAFFDD
:101720000028DBD101460C4A0C48FEF71DFDE107FD
:10173000E4D5D8E7A82B0020B42B0020BC2B002038
:10174000C82B002010310200350F0200C42B0020EE
:10175000510E0200B82B0020B1120200AC2B002069
:1017600070B41D4D1D4CD5F800371D491D4A10F0B1
:10177000010F14BF4FF44036002623F440333343A7
:10178000C5F80037D4F8003710F0020F14BF4FF43B
:101790004035002523F440332B43C4F80037D1F8FB
:1017A000003710F0040F14BF4FF44034002423F42A
:1017B00040332343C1F80037D2F8003710F0080F48
:1017C00023F4403314BF4FF4403100210B43C2F8DF
:1017D0000037002070BC70473400005038000050C3
:1017E0003C0000504000005076DF70477ADF7047C1
:1017F0007CDF70477FDF704782DF7047A9DF70476B
:1018000060DF70473CDF704748DF70474FF0A04310
:1018100031B94FF48022C3F80825C3F80C1570477E
:101820004FF480210022C3F80C15C3F80825704737
:1018300000221146FDF754BF01F05AB910B50388D4
:10184000132B044658D011D9172B18D0522B45D042
:10185000142B1CD0204601F03DFA204601F0C6F8BA
:1018600021463B48BDE8104000F03ABA102B29D081
:10187000112BEFD1374B4FF6FF721A80EAE7034680
:10188000354A53F8060F10609B889380E2E70A22DE
:1018900032490E3001F00AFC2F4B1B79DA0735D59F
:1018A000002840D003F0020202F0FF01002A3DD0E0
:1018B00003F0040303F0FF01002B40D000210A468F
:1018C0000B463EE00720FFF715FD18B10022114638
:1018D000FDF706FF1F4BA2881A80BBE71D4B0022B5
:1018E000188811460323FFF789FF0028B2D0002291
:1018F0001146FDF7F5FEADE7164A194B1088194A57
:101900000021FFF777FF0028A4D0F0E703F00202E0
:1019100002F0FF0152B10028CAD101465807124A0D
:101920000ED5124B0DE09A071149F7D403F00403CA
:1019300003F0FF0223B110B902460C4B01E0002274
:10194000002304480088FFF757FF002882D0CEE725
:10195000B02F002078280020A82F0020962C0020EF
:1019600060280020A02F0020A02C0020B82C0020F0
:10197000842C0020027802B1704708B5054B3B214A
:101980001888FFF731FF00B908BD1146BDE80840CF
:10199000FDF7A6BE782800200D2824D110B5124CE2
:1019A0002378A3B90121114800F07CF9237883F052
:1019B0000103237030F0080314D043F2020398426D
:1019C00010D000221146BDE81040FDF789BE00216D
:1019D000064800F067F9237883F00103237030F0A4
:1019E0000803EAD110BD7047A52F0020B02F0020BA
:1019F00010B5044630B1032803D10220FFF77AFC6A
:101A000058B910BDFFF776FC68B90120FFF7A8FEB2
:101A100070B9FFF7F7FE0028F3D000221146BDE8A9
:101A20001040FDF75DBE22462146FDF759FEECE76A
:101A300000221146FDF754FEEBE700BF0A460146BF
:101A40000148FDF74DBE00BFEFBEADDEF0B5A9B059
:101A5000824B009305221146814B0020FEF70AFBC2
:101A600018B100221146FDF73BFE002348227D49B4
:101A7000082001F0A5FA18B100221146FDF730FE4A
:101A800008221AA80021FDF72FFD9DF868300022DA
:101A900043F001031AA88DF868301B92FFF7B0FEDF
:101AA00010B11146FDF71CFE6F4801F0AFFA18B1F6
:101AB00000221146FDF714FE6C4801F0B1FA18B18E
:101AC00000221146FDF70CFE694A40F6CD41032085
:101AD000FFF7EAFD18B100221146FDF701FE654A45
:101AE0000A210820FDF710FE18B100221146FDF76B
:101AF000F7FD9DF830306048012262F3030328AC03
:101B000062F3071304F8703D01F0EAFA5A4982B211
:101B10002046FFF76DFE18B100221146FDF7E0FDEB
:101B2000082200211AA8FDF7DFFC4FF4C873002239
:101B30004FF448711AA8ADF86830ADF86E30ADF8C2
:101B40006A10ADF86C20FFF751FE10B11146FDF799
:101B5000C7FD4A4B4A481A9300211C22FDF7C4FCDA
:101B60001AA9474800F0DEF818B100221146FDF727
:101B7000B7FD434A927C8DF80A2041F22353382264
:101B800000212046ADF80830FDF7AEFC022001250B
:101B90000623382200218DF830001AA88DF8333042
:101BA0008DF83250FDF7A0FC002102AB0E46242236
:101BB00003A81F93ADF878504027FDF795FC204609
:101BC00003AAB42400962F4B8DF818501AA9079732
:101BD000089400F029FE18B132463146FDF780FD29
:101BE0001C2200211AA8FDF77FFC00244FF42036A8
:101BF0004FF470250321244A244B1A941AA8ADF8F7
:101C000076408DF878401B961C958DF874101F92C5
:101C1000209301F025F818B122462146FDF760FD1A
:101C20001B4A137843F0010303F0FD03032060F324
:101C300084036FF3451307241021137054709170BF
:101C400000F0B6FE28B9FDF72FFEFFF7DDFD0028F6
:101C5000F9D000221146FDF743FDF4E79503020099
:101C6000102D0020C82C00203D1802003918020059
:101C700099190200D42B0020303102000D18020007
:101C8000B02F0020F119020075190200311802006E
:101C9000A02F0020A0DF7047A2DF7047A6DF7047AB
:101CA00063DF704770B588B005468DF807100124D2
:101CB00004A810220021ADF80E40FDF715FC6E8936
:101CC000A88A8DF812400DF107020DF10E0304A948
:101CD000ADF8106007920693FFF7E0FF08B070BD03
:101CE0000B88112B0FD0502B05D0102B00D0704734
:101CF0008B888382704710B44488CB889C4206D07E
:101D00005DF8044B70474FF6FF7383827047CB8BAF
:101D1000012BF5D18369002BF2D091F820105DF8EA
:101D2000044B1847F0B5744B0C464FF6FF72828295
:101D3000054695B01868596824689A68DB68AC61F4
:101D400004AC0FC405F1120104A8FFF7A9FF18B1F4
:101D50000446204615B0F0BD14A941F2235321F8E2
:101D6000483D2A46AB7C8DF80A300120FFF792FFF0
:101D700004460028EDD1214603226846FDF7B4FB56
:101D80009DF800709DF801309DF802E0012666F391
:101D9000030766F3030366F3071366F3420E214657
:101DA00066F307171C220DA88DF800708DF801301E
:101DB0008DF802E0FDF798FB9DF8343095F812E0BD
:101DC0000E9443F01203214641F22457032201A846
:101DD0001094119413948DF834308DF80EE0ADF812
:101DE0000C70CDF848D0FDF77FFB9DF806309DF8CC
:101DF00004E09DF8057066F3420364F3C30364F3E3
:101E0000041364F3030766F3030E64F3000366F33D
:101E1000071E64F307172146142208A88DF8063020
:101E20008DF804E08DF80570FDF75EFB01AFADF8AD
:101E30002A400C9408AA03AC0DA905F10A032888CE
:101E400008940997ADF82860ADF82C60FFF724FFDF
:101E5000044600287FF47DAF01461C220DA8FDF743
:101E600043FB9DF83430A87C8DF80E0043F00A0344
:101E7000214641F22557032201A80E941094119493
:101E8000129413948DF83430ADF80C70FDF72CFBE0
:101E90009DF806309DF804009DF8057066F3420336
:101EA00064F3C30366F3030064F3041366F30710DB
:101EB00066F3030764F30003214614228DF804003F
:101EC00066F3071708A88DF806308DF80570FDF742
:101ED0000BFBAB1C2888ADF82A4003AD089508AA77
:101EE0000DA901AD0C940995ADF82860ADF82C60F2
:101EF000FFF7D2FE04462CE74031020071DF704745
:101F000072DF704779DF70477DDF704765DF7047AC
:101F10002DE9F04F83B004880C9FBDF83490B7F8DA
:101F200000A0002C4CD09846002316468B46054650
:101F30001C4603E02A880134A24224DD6A6852F874
:101F40002400019000220DF1030101A8FFF7DEFF3C
:101F500010BB9DF80320B242ECD103B33A88931929
:101F60004B4518DC42440DF1030101A80123FFF7A2
:101F7000CDFF88B93A889DF803100A443A802A8830
:101F80000134A242DADCDBB13B88013BCAEB03033C
:101F90009BB2FF2B12D90C2003B0BDE8F08F3B8819
:101FA0005A1C334402334B4592B2F4DC3A8008F8B1
:101FB00002B03A88013292B23A80D3E708F80A3088
:101FC000002003B0BDE8F08F2DE9F047002314880E
:101FD0001380436B84B0BBB1022C03D80C2004B037
:101FE000BDE8F08702261D780E70138801339BB27E
:101FF00011261380CE54138801339BB21380CD5425
:10200000138801339BB21380056B002D6FD003F151
:102010001206A642E2D81126CE54138801339BB291
:1020200010261380CE54138801339BB21380EE7BAD
:10203000CE54138801339BB21380AE7BCE541388E9
:1020400001339BB213806E7BCE54138801339BB255
:1020500013802E7BCE54138801339BB21380EE7A0B
:10206000CE54138801339BB21380AE7ACE541388BA
:1020700001339BB213806E7ACE54138801339BB226
:1020800013802E7ACE54138801339BB21380EE79DD
:10209000CE54138801339BB21380AE79CE5413888B
:1020A00001339BB213806E79CE54138801339BB2F7
:1020B00013802E79CE54138801339BB21380EE78AF
:1020C000CE54138801339BB21380AE78CE5413885C
:1020D00001339BB213806E78CE54138801339BB2C8
:1020E00013802D78CD54138801339BB2138090F860
:1020F0002E50002D40F00681154690F82D200E46FA
:102100000746002A40F01681BA78002A40F03D8147
:10211000FA78A2B1D91CA1423FF660AF0221F15476
:102120002B8801339BB201212B80F1542B880B4467
:102130009BB22B80F2542B880B449BB22B807A6885
:10214000A2B1D91CA1423FF649AF02211278F15445
:102150002B8801339BB20A212B80F1542B88013349
:102160009BB22B80F2542B8801332B803B89002BB0
:1021700040F08F813B8A002B40F0A6813B8B002BE7
:1021800040F0BB81396A002944D02B889A1DA242B5
:102190003FF624AF0A88052A40F294816FF448681C
:1021A00002EB080080B24FF27D3E704540F28A811A
:1021B0004888052840F286816FF4486C84441FFAF1
:1021C0008CFCF44540F27E814FF6FF7E724504D0D0
:1021D000704502D0824200F275810522F2542B88AC
:1021E00001339BB212222B80F2542B8801339BB215
:1021F0002B800A88F2543344120A5A702B88023317
:102200009BB22B804A88F2543344120A5A702B88AE
:1022100002332B80D7F82480B8F1000F31D0B8F802
:1022200004202988131D0B44A3423FF6D7AE931C0C
:10223000FE2B3FF6D3AE033272542B8801339BB290
:10224000FF222B80F2542B8801339BB22B80B8F8ED
:102250000020F2543344120A5A702888023080B2A7
:102260002880B8F8042062B1D8F80810002900F0DE
:102270002981304400F029FFB8F804302A8813443B
:102280002B8097F82C30002B40F0A1803878002864
:102290003FF4A5AE3B88012B00F014812B8803F19D
:1022A000020EA6453FF69AAE012805D17A78023291
:1022B0001A449442FFF492AE023CE31A04A99BB282
:1022C00021F8083D06EB0E00FFF71EFE00287FF404
:1022D00086AE3A78022A00F02981012A00F0D480E3
:1022E0001A460821FE2A3FF679AE2B88541CF45476
:1022F0002B8801339BB22B80F1542B8801331A4475
:102300002A806CE6DE1CA6423FF668AE0226CE545A
:10231000138801339BB21C261380CE5413880133DB
:102320009BB2013D1380032D00F2CC80DFE805F065
:10233000A6A39CA90933A3423FF650AE02A8FFF71B
:10234000DDFD00287FF44BAE2B880822CA542B8871
:1023500001339BB21B222B80CA542888013080B2E3
:102360002880062208440DF1090100F0AEFE2B88FA
:102370009DF8082006339BB22B8002B10122F25453
:102380002B8801339BB22B80BEE60433A3423FF679
:1023900025AE02A8FFF7B6FD00287FF420AE2B88FB
:1023A000BDF808200321F1542B8801339BB2192179
:1023B0002B80F1542B8801339BB2F1182B80F254FF
:1023C000120A4A702B8802339BB22B80A0E6D7F802
:1023D0002880B8F1000F75D0B8F804200232FE2A28
:1023E0003FF6FCAD2B884FF000094FF0160A08E0CD
:1023F000BA6A02EB8808B8F804200232FE2A3FF6D7
:10240000EDAD0132F2542B8801339BB22B8006F8DC
:1024100003A02B8801339BB22B80B8F80020F25424
:102420003344120A5A702B8802339BB22B80B8F8BF
:102430000410F0180A4661B1D8F808301946002B8C
:1024400040D000F042FEB8F804302A8813449BB212
:102450002B8009F1010997F82C205FFA89F94A4588
:1024600009EB4908C4D811E70225CD54138801337C
:102470009BB2138040E60125CD54F7E70025CD54EB
:10248000F4E70325CD54F1E77A789342BFF429AFFE
:1024900026E707F1080802220194009540461146FC
:1024A0003346FFF735FD00287FF499AD0194009580
:1024B0004046334610220621FFF72AFD00287FF40C
:1024C0008EAD57E607208AE507F1100801940095C4
:1024D0004046334602220321FFF71AFD00287FF40D
:1024E0007EAD019400954046334610220721FFF748
:1024F0000FFD00287FF473AD40E607F11808019442
:1025000000954046334602221421FFF701FD0028C2
:102510007FF465AD019400954046334610221521A5
:10252000FFF7F6FC00287FF45AAD2BE6BDF8082033
:102530009342FFF4D5AE0921D4E600BF30B593B085
:102540001F230D46ADF80430ADF8063010B3C37844
:102550005B0702D4072013B030BD02A901AAFFF720
:1025600033FD0028F7D102ACC5B1EB78002BF1D1D7
:1025700028460AA90DF10602FFF726FD0028EAD138
:102580009DF806300AAA20469DF80410FFF7B8FC13
:1025900013B030BDADF804000446E5E72B46ADF8B6
:1025A00006502A46EFE700BF73DF704730B5944C02
:1025B000944887B007220021FCF796FF637823B385
:1025C000914D2B78012B3FD0A278002A3AD1022BD3
:1025D0004AD1227B03232B70002A4ED1237E042272
:1025E0002A70002B00F00781884B1A68002A4AD015
:1025F0002378002B47D0864B1B78002B43D1854B8B
:10260000012107201970904740E0A3787E4D2BB33D
:102610002B78022B18D0012B26D102232B70A37804
:10262000002BD6D0774B5A7852B99A7842B9DA78DB
:1026300032B91A7922B95A7912B99B79002BC8D0CC
:1026400002231AE0022B0FD1704A1268002A00F010
:10265000CF80714B01210820197090472B78012BF6
:1026600000F09980022BDAD0227B0AB9032BB5D077
:10267000227E12B9042B00F0BE80644A126812B1A7
:10268000033B012BB4D9634B00221A70182200219E
:102690006846FCF729FF297800234A1E8DF8003090
:1026A00001938DF808300393032A27D8DFE802F05E
:1026B000664B2902594BE0691A79216AADF810007E
:1026C000ADF81210002A00F08B802278002A00F06A
:1026D0008B804F4A1178002940F08680504A03933E
:1026E000042402231046D4708DF80830FFF726FF2B
:1026F000002841D14B4B297806221A70002934D08A
:102700002FE0464B60691A792169ADF81200ADF8E7
:102710001010002A5DD02278002A5DD03C4A117842
:10272000002959D13E4A0393042402231046D47051
:102730008DF80830FFF702FFF0B93A4B29780522EF
:102740001A7091B10DE02F493648A2686368019173
:102750000224012104708DF80010ADF81220ADF8AC
:1027600010306846FFF720FF30B9284B1B6813B1C3
:102770002C4A10789847002007B030BD214B2949DA
:102780000193012200230A708DF80020ADF8123069
:10279000ADF81030E5E76278002A3FF43EAF194A01
:1027A000517800297FF469AF917800297FF465AFF3
:1027B000D17800297FF461AF117900297FF45DAFF2
:1027C000517900297FF459AF9279002A3FF425AF5F
:1027D00053E71A7B002A9ED1124B03221A70C0E7DE
:1027E0001A7B002A7FF471AF0E4B04221A70B8E7EF
:1027F00009490A7033E70B4A002313702B7042E734
:10280000443000203C300020DC300020103000201C
:1028100037300020BB300020DD3000208C3000201D
:10282000CC2F0020F03000202DE9F047DDF820C04B
:10283000002800F09B80002A00F09880174605468B
:1028400098460E460FCFDFF858E1DFF858A1DFF8C1
:102850005891AEE80F000FCFAEE80F0000243A68A1
:10286000444BCEF80020214607224348434FC3F88B
:1028700000C08AF80040C9F80080FCF735FE404BE4
:10288000404ADFF828E11A60214638223846C3F86A
:1028900008E0FCF729FE05F1100393E80300AA788D
:1028A000EB7895F800E0BA70FB7007F1100395F82B
:1028B00001C087F800E083E8030005F1080393E80E
:1028C000030007F1080E05F118038EE8030093E8F2
:1028D00003006A6A87F801C007F1180383E8030060
:1028E000B2B1294B7B62686A284A9A60B0F804E06A
:1028F00001881980A3F804E0BEF1000F08D0013A66
:1029000023468168C95C02F8011F01337345F8D181
:10291000AB6AB3B11E4BBB62A86A1E4A9A60848838
:102920009C800188198044B1013A00238168C95C08
:1029300002F8011F0133A342F8D195F82C3087F833
:102940002C302B6A33B1144B3B622A6A5188598070
:1029500012881A806B681BB1104B7B606B687B60C0
:1029600031460648BDE8F047FFF7E8BD0E20BDE858
:10297000F08700BF383000203C300020CC2F0020F2
:102980008C300020683000200430002018300020F7
:10299000E43000209C300020E0300020883000200F
:1029A00044300020DC30002010300020BC300020FB
:1029B00010B582B002AB002443F8044D094A1070F0
:1029C0001846FEF733FA082807D020B9019B2BB12F
:1029D000054B01221A7002B010BD0194FFF7E6FD0D
:1029E00002B010BDDC3000201430002030B5038868
:1029F000112B83B018D0192B0AD0102B01D003B0A3
:102A000030BD037D012BFAD1324B82881A80F6E764
:102A10008379002BF3D1304A1378013B032BEED896
:102A2000DFE803F03423491A2A4B82881B882B499C
:102A300000249A420C70E2D102A8274B40F8044DC2
:102A400001251D70FEF7F2F9082829D068BB019B0B
:102A50003BB3234B1D70D2E7224B234A1B68002057
:102A60001070002BCBD09847C9E702A8002403239D
:102A700040F8044D1370FEF7D9F9082810D0A0B91A
:102A8000019B73B1164B01221A70B8E702A800240B
:102A9000022340F8044D1370FEF7C8F90828EED160
:102AA0000194FFF783FD0028A9D0104B1B68002B71
:102AB000A5D09847A3E702A80B490024042340F8B7
:102AC000044D03250D701370FEF7B0F90828D6D118
:102AD000E6E700BF7A280020DC30002037300020F5
:102AE0001430002010300020F0300020383000205A
:102AF0000238012816D830B5114C237883B00BB9B1
:102B000003B030BD02A8002540F8045D2570FEF733
:102B10008DF9082807D058B9019B2BB101232370E8
:102B200003B030BD70470195FFF740FD0028E7D0A6
:102B3000044B1B68002BE3D0984703B030BD00BFA7
:102B4000143000203830002075DF704776DF704782
:102B50007ADF70477BDF7047184B18884FF6FF739A
:102B600098422AD010B5164A164C1378217B0133AF
:102B7000DBB2994282B013700CD2237C0021117019
:102B80008BB9636923B102A8002200F8042D98478D
:102B900002B010BD0C49FFF7D7FF0028F8D0A36999
:102BA000002BF4D1F4E73B21FFF7D0FF0028E8D059
:102BB000A369002BE5D09847E3E770472031002058
:102BC000FC300020003100202431002070B51E4B65
:102BD0001E4A5B881188994282B00FD852889A4267
:102BE0000CD31B4B5B6923B102A8012200F8042D12
:102BF0009847184C0023237002B070BD154C227802
:102C000062B1134B5B69002BF4D002A8002200F8DC
:102C1000042D98470023237002B070BD0C4D0E4B5D
:102C2000A8681E7869680D4B002E18BF0146186809
:102C3000FDF7C8FA0028DDD0AB69002BDAD0984741
:102C40000023237002B070BDF43000202431002036
:102C500000310020F1300020FC3000201C31002029
:102C6000F8B505460FCD144C144F0FC4064695E831
:102C70000700002384E807003B70B6B13068104BB2
:102C8000716803C3A3F10800FFF762FF90B90D4D0F
:102C90000D4C0E4A0E4800234FF6FF762E8023700F
:102CA0001946BDE8F840FDF75FBA0548FFF752FF47
:102CB0000028ECD0F8BD00BF00310020F13000202A
:102CC0002431002020310020FC300020592B02004C
:102CD0001C31002070B50288112A27D0034612D972
:102CE000122A07D0502A47D1244CC188E289914248
:102CF00030D070BD53F8060F214A596803C2BDE8B1
:102D00007040FFF763BF102A35D102461B4C52F8C2
:102D1000160F1C4E51689B88194A1B4DE48933805D
:102D2000002303C22B70002CE9D070BD174A15494F
:102D3000154B10684FF6FF7400220C801A70FDF7D7
:102D4000B9FA0028D5D00D4B9B69002BD1D0BDE836
:102D500070401847C28B022ACBD190F82030DB0795
:102D6000CDD40A4B1868FDF7A5FA0028C1D0A36995
:102D7000002BECD1BDE770BD70BD00BF003100205D
:102D8000F430002020310020FC3000201C310020D5
:102D9000454B1B78062B18D0444AD2F8883043F4B0
:102DA0007003C2F88830BFF34F8FBFF36F8F4FF0BF
:102DB0001023D3F80022002A45DBD3F80032002B81
:102DC00041DB3B4B3B4A1A6070473B4B1B681A0781
:102DD000E2D13A4B1B6803F0F003302B28D0374B7D
:102DE0001B6803F0F003302B11D0344B1B6803F049
:102DF000F003302BD0D1324B1A6812F0F002CBD155
:102E00004FF08043C3F80C21C3F81021C4E72C4BCA
:102E10001B6813F0F00FE8D1234B2A4A1B780321DB
:102E2000062B1160B8D1244B1B681B07B4D1DCE71B
:102E3000234B1B6813F0F00FD1D1234AD36823F042
:102E40008073D360CBE7214B0122C3F80425D3F86C
:102E50000024002AFBD04FF0102315221B49C3F891
:102E60000022D1F80034002BFBD04FF010231522A4
:102E70001649C3F80422D1F80024144B002AFAD0D2
:102E80000022C3F80425D3F80024002AFBD0BFF3A6
:102E90004F8F06490E4BCA6802F4E0621343CB60C1
:102EA000BFF34F8FFEE700BFE00F00F000ED00E042
:102EB0007C2800200090D003E40F00F0E80F00F021
:102EC000EC0F00F0A0050040F0ED00E000E0014054
:102ED0000400FA052EDF704751DF704710DF70479E
:102EE00061DF704708B508461146FEF7A7FD08BD2B
:102EF0002DE9F043DFF8C090DFF8C080D9F800502A
:102F0000D8F800402A4F2B4EB5FA85F5B4FA84F470
:102F10006D0983B064099DB1002C3BD133683A88B8
:102F2000ADF80420184601A9FFF7DAFF052831D0D3
:102F300030B300221146FCF7D3FB0024002DEBD167
:102F400001A8FFF7C9FF05280CD000221146E0B107
:102F5000FCF7C6FB0CB301A8FFF7BEFF05284FF036
:102F60000104F2D1B4B933683A88ADF804201846A8
:102F700001A9FFF7B5FF05280CD001250028D8D1FD
:102F80001846D8F800309847D7E7D9F800300198AC
:102F90009847DFE703B0BDE8F08333683A88ADF8BF
:102FA0000420184601A9FFF79BFF0528C0D1D2E7EE
:102FB0002E31002030310020343100203831002003
:102FC00011B111F0030F01D007207047F8B50A4F77
:102FD0000A4E0B4D32800C460A493C602B60FFF7CD
:102FE0007DFF00B1F8BD084B01221A701620BDE824
:102FF000F840FFF76FBF00BF303100202E310020B6
:103000003C310020E52E02002C310020034618B18F
:10301000024A0020136070470E20704738310020AC
:10302000034618B1024A0020136070470E20704713
:103030003431002008B50A4B1B6843B1984700B9EA
:1030400008BD00221146BDE80840FCF749BB054B0E
:103050001B78002BF4D0BDE80840FFF749BF00BF44
:103060003C3100202C3100200649074A074B9B1AAF
:1030700003DD043BC858D050FBDC054880470548B9
:10308000004700005831020000280020802800205E
:10309000912D020001F40100FEE7FEE7FEE7FEE7E6
:1030A000FEE7FEE7FEE7FEE7FEE7C04610B50139A2
:1030B0000244904207D010F8013B11F8014FA3429F
:1030C000F7D0181B10BD002010BD10B5431E0A44D8
:1030D000914204D011F8014B03F8014FF8E710BDFD
:1030E000034613F8012B002AFBD1181A0138704748
:1030F000F8B500BFF8BC08BC9E467047F8B500BFE5
:10310000F8BC08BC9E467047430000000028002021
:103110000D0003006D0E02000E0003006D0E020094
:103120000F0003006D0E0200100003006D0E020080
:103130004E6F726469635F426C696E6B7900000068
:1031400023D1BCEA5F782315DEEF121200000000E5
:08315000B0C2FF7F0100000086
:103158000000000000000000000000000000000067
:103168000000000000000000000000000000000057
:10317800083102000000000000000000000000000C
:103188000000000000000000000000000000000037
:103198000000000000000000000000000000000027
:1031A8000000000000000000000000000000000017
:1031B800842C0020A02C0020B82C00200000000047
:1031C8000000000000000000FFFFFFFF0090D00398
:040000032000306940
:00000001FF
