:020000021000EC
:10F0000000000120B1710200E1710200E371020011
:10F01000E5710200E7710200E971020000000000E2
:10F02000000000000000000000000000EB71020082
:10F030000000000000000000ED710200EF7102000E
:10F04000F1710200F1710200FD680200F17102002D
:10F05000F1710200F1710200F15F0200F171020032
:10F06000F171020069630200F1710200F1710200A6
:10F07000F1710200F1710200F1710200F171020000
:10F08000C5630200CD610200F1710200F17102005E
:10F09000F1710200F1710200ED6B0200F1710200EA
:10F0A000F1710200F1710200F1710200F1710200D0
:10F0B000F1710200F1710200000000000000000088
:10F0C000F1710200F1710200F1710200F1710200B0
:10F0D000F1710200F1710200000000000000000068
:10F0E0000000000000000000000000000000000020
:10F0F0000000000000000000000000000000000010
:10F1000000000000000000000000000000000000FF
:10F1100000000000000000000000000000000000EF
:10F4000010B5054C237833B9044B13B10448AFF35E
:10F4100000800123237010BD182A00200000000086
:10F4200028830200084B10B51BB108490848AFF308
:10F4300000800848036803B910BD074B002BFBD0C0
:10F44000BDE81040184700BF000000001C2A002043
:10F4500028830200182A002000000000154B002B12
:10F4600008BF134B9D46A3F5803A00218B460F46FB
:10F470001348144A121A00F065F80F4B002B00D005
:10F4800098470E4B002B00D0984700200021040025
:10F490000D000D48002802D00C48AFF3008000F0AA
:10F4A0002BF82000290001F04BFC00F011F800BF00
:10F4B0000000080000000120000000000000000023
:10F4C000182A00200468002000000000000000004E
:10F4D00008B5074B044613B10021AFF30080054B7C
:10F4E0001868836A03B19847204600F033F800BFDC
:10F4F00000000000A47B020070B50E4B0E4CE41A15
:10F50000A41000251E46A54204D056F82530984781
:10F510000135F8E708F038FB084C094BE41AA41051
:10F5200000251E46A54204D056F8253098470135DF
:10F53000F8E770BD102A0020102A0020142A0020AD
:10F54000102A002002440346934202D003F8011B14
:10F55000FAE77047FEE700BF13B5038804462BB1F6
:10F560006C2B16D000230380032026E01449154895
:10F5700005F006FA1349144801F02EFD00F08CFF47
:10F58000124B012181209B6A98476C232380012024
:10F5900013E00F4B9A42F8D1536800209847002897
:10F5A000F3D100900B4B0C4A054843F2163101F0A1
:10F5B0000BFB0A4801F010FDE7E702B010BD00BFE9
:10F5C000F02A0020B47B0200D17B02008C80020074
:10F5D000AC800200E1F50100567C0200E27B0200F3
:10F5E000012A07B508460DD861B102A9002341F8E8
:10F5F000043D00F07AFD054B05481A68019B197817
:10F6000001F0EAFC03B05DF804FB00BF482A0020CB
:10F61000EF7B020008B502F0C1F8044B1860014608
:10F62000BDE80840024801F0D7BC00BFB82B00205D
:10F630003A7C0200F7B503887E2B04460F46154638
:10F6400011D00BD8002B6FD13A4D0121AB6881202E
:10F650009847AB6901218120984734E0892B22D05B
:10F66000962B52D060E0334B9A4229D16B68002030
:10F670009847064638BB304801F0AEFCFFF7CAFF9A
:10F680003346022231462D4800F09AF92C492B4886
:10F6900000F0D6FC04222B49284800F02FFD2A4B0D
:10F6A0001E8089232380294B0193244B0093284AF1
:10F6B000254843F21633394600F0F8FE012831D9C7
:10F6C000244B9D4203D07E23238001202FE06B68D2
:10F6D0000020984705460028F5D11F4801F07CFC22
:10F6E000FFF798FF2B46022229461C4800F068F9D4
:10F6F00013491A4800F0A4FC04221949174800F0E5
:10F70000FDFC184B1D8096232380104B0193134B57
:10F7100000930F4A134843F21633394600F0C6FEF1
:10F720000128D0D8002002E000232380032003B06A
:10F73000F0BD00BF8C8002004B7C02004C2A0020F0
:10F74000557C0200617C0200A42B002091F701008F
:10F75000F02A00209C800200667C0200002B002022
:10F76000707C0200342A002008B502F017F8054B1F
:10F77000054A1B68C31A13600146BDE808400348E8
:10F7800001F02ABCB82B0020482A0020757C02001A
:10F7900013B502A9002441F8044D00F0A6FCFFF7C0
:10F7A000E3FF019B1878302808BF204602F05EFE78
:10F7B000044B05481A68019B197801F00DFC02B052
:10F7C00010BD00BF482A0020857C0200034601448A
:10F7D00000208B4204D013F8012B42EA0020F8E706
:10F7E000704770B50C461E46236811467BB102680F
:10F7F0009DF81050D55425680135256000683246C3
:10F80000284408F09DF923683344236070BD0260EA
:10F81000266070BD0C2810B501D8C3B204E0B0F565
:10F82000867F94BF0D230E231B010C295BB201D8E8
:10F83000CCB204E0B1F5867F94BF0D240E2423439F
:10F84000B0F5867F137008D96FF4867403191B0A0C
:10F850000D3890705370022005E00C2885BF0D38DC
:10F86000507000200120B1F5867F07D96FF48673B0
:10F870001418CB181B0A6370023002E00C2902D95D
:10F8800001300D391154013010BD2DE9F84313F04A
:10F890007F494FEA13468E4615461C4614BF012188
:10F8A00000214FEA064806B1013134F0FF0701D0CC
:10F8B000013100E004B101312A46CEEB0000FFF730
:10F8C000A9FFB9F1000F02D0230E2B540130B8F17B
:10F8D000000F01D02E5401301FB1230A2B540130E8
:10F8E00000E00CB12C540130BDE8F883F8B5069C5B
:10F8F000401A214616461F46FFF78CFF2246054652
:10F900003946301808F011F96019F8BD2DE9F74FA4
:10F910009DF834B0DDF8308081468E4692461F4611
:10F92000BBF1000F25D0002408F10102254600920A
:10F93000009AA24224D33A5D5A4507EB040601D04F
:10F94000A04514D1F61A0AEB0502CEEB09003146A8
:10F950000193FFF75FFF019B054419460AEB050081
:10F960003246013408F0E1F835443B19CE46013403
:10F97000DEE7CDF8308003B0BDE8F04FFFF7B6BF4B
:10F98000284603B0BDE8F08F002210B511460446AA
:10F99000104604F045FE044B0482186002F089FE14
:10F9A000024B188010BD00BFBC2B0020C22B0020D2
:10F9B000024B1888013080B218807047C22B00209B
:10F9C000F8B504460F4616461D46A4220021FFF74F
:10F9D000B9FD6771A6712581F8BD0000F7B5044631
:10F9E00001232160037100230B700E46016800792A
:10F9F0000A7842EA80120A7020686279017812015E
:10FA000002F030020A430270A27A206802F00F016D
:10FA100002780A4302702268A17951702289216814
:10FA2000120A8A7022682189D170A279002A00F016
:10FA30004081224652F80A5B0435A17A8B4205D2F6
:10FA400012F8011F05F8011B0133F6E7E37C03F010
:10FA5000020303F0FF015BB194F86A3000932A4679
:10FA6000002104F16B030120FFF740FF0121054451
:10FA7000E37C1A0708D5236C00932A46636C0320A5
:10FA8000FFF734FF03210544E37CDB060AD594F835
:10FA9000243000932A4604F125030420FFF726FFB3
:10FAA00004210544E37C9F0606D52A460023052051
:10FAB000FFF7EBFE05210544E37C580606D52A46F0
:10FAC000636E0620FFF7E1FE0621054494F913302A
:10FAD000002B07DA2A46B4F850300720FFF7D5FE8E
:10FAE00007210544237DDA070AD52F230193A36C50
:10FAF00000932A46E36C0820FFF708FF082105441D
:10FB0000237D1B070AD52F230193E36D00932A461B
:10FB1000236E0B20FFF7FAFE0B210544237DDF0641
:10FB200006D52A46A38B0C20FFF7AFFE0C21054417
:10FB3000237D580606D52A46236A0E20FFF7A5FE28
:10FB40000E21054494F91430002B0CDA262301937E
:10FB5000D4F8943000932A46D4F898300F20FFF759
:10FB6000D5FE0F210544637D9A0707D52A46B4F8D0
:10FB700068301120FFF789FE11210544637DDB0603
:10FB80000AD526230193636D00932A46A36D1420A2
:10FB9000FFF7BCFE1421054494F91530002B1CDA44
:10FBA000636F94F878201B010AB143F00803B4F89E
:10FBB0007A00002700097A1C400892B201D017464B
:10FBC000F9E7002A18BF3A4602F00F021343172044
:10FBD0002A46FFF75AFE17210544A37D1F071DD5AE
:10FBE000D4F8803094F884201B010AB143F0080354
:10FBF000B4F88600002700097A1C400892B201D0B0
:10FC00001746F9E7002A18BF3A4602F00F021343DD
:10FC10001B202A46FFF739FE1B210544A37DD80689
:10FC200007D52A46D4F88C301C20FFF72EFE1C2165
:10FC30000544E37D1A0708D5236B00932A46636BBE
:10FC40002320FFF753FE2321054494F91730002B9E
:10FC500008DAA36B00932A46E36B2720FFF746FEE2
:10FC600027210544A37EDB0606D52A46D4F890302A
:10FC70003C20FFF70AFE05442368EB1A3E2B11DCFB
:10FC8000B4F89E3013B1FF2305F8013B2846B4F8C1
:10FC90009E20D4F8A01007F053FFB4F89E00AD1BCF
:10FCA000284407E0044B054A0025256028461A60D1
:10FCB00000E0042003B0F0BD80280020EC7C0200AE
:10FCC0002DE9F041104D2F68944688460446BE4603
:10FCD00000F1100220686168764603C60834944239
:10FCE000B646F7D11A4661463846A7F8128004F0A6
:10FCF000A3FE102200212868FFF724FC2B680022B5
:10FD00005A82BDE8F08100BFBC2B00202DE9F04FE6
:10FD10000446884685B000219246A422FFF712FCD3
:10FD2000C4F8008098F800904FEA991984F804907C
:10FD300098F80030C3F30113637198F8002002F0C3
:10FD40000F02A27298F80130A37198F8021098F887
:10FD50000330B9F1010F43EA0123238101D0A74AFF
:10FD600002E0082A04D9A64AA64B80201A6041E185
:10FD700008F10405294604F10B0007F0D6FE08221D
:10FD8000002104F11300FFF7DDFBA67A08EB0A035C
:10FD90003544002703934FF0100B039B9D4280F0E6
:10FDA00028812E7806F0F003F02B15D10135C8EB31
:10FDB0000508C8EB0A0A1FFA8AFABAF1300F8ABF9F
:10FDC0003023A4F89EA0A4F89E30B4F89E30C4F866
:10FDD000A0500020E8540DE133090D2B06F00F066A
:10FDE00003D16B7802350D330AE00E2B03BFAB78DD
:10FDF0006A7803F20D13013504BF03EB02230335C8
:10FE00000D2E03D115F8016B0D3608E00E2E06D12C
:10FE10006A782E7802F20D1202EB062602351F4494
:10FE200004EBD70107F0070309FA03F2CB7C0E2F8E
:10FE300043EA0203CB7470D02BD8062F00F0B380B6
:10FE400018D8032F00F088800CD8012F40F0C8800C
:10FE5000082E324628BF082284F86A20294604F179
:10FE60006B0071E0042F5ED0052F40F0B98084F85C
:10FE70009C90BCE0082F00F0828070D30B2F75D0CF
:10FE80000C2F40F0AD8031462846FFF79FFCA08341
:10FE9000ADE01B2F00F08D8028D8112F4DD00BD84E
:10FEA0000F2F40F09D80262300932A46334604F10D
:10FEB000940104F198006AE0142F6BD0172F40F0E2
:10FEC0008F8031462846FFF781FCC0F3C00300F065
:10FED000070284F878300BFA02F3A4F87A3020F0A5
:10FEE0000F0393400009E367606780E0232F2ED063
:10FEF00008D81C2F74D131462846FFF767FCC4F898
:10FF00008C0074E0272F22D03C2F69D1314628463F
:10FF1000FFF75CFCC4F8900069E031462846FFF723
:10FF200055FC206263E0082E324628BF082284F880
:10FF30002420294604F1250006E031462846FFF733
:10FF400045FCA4F8680052E007F0EFFD4FE02D4BB0
:10FF50002D4A1A60A5204DE06564266447E03146CD
:10FF60002846FFF733FCA4F8500040E02F2300930D
:10FF70002A46334604F15C0104F1600007E02F23B8
:10FF800000932A46334604F1480104F14C00FFF780
:10FF900028FC2CE0262300932A46334604F1540122
:10FFA00004F15800F3E731462846FFF70FFC60667E
:10FFB0001DE031462846FFF709FCC0F3C00300F0FE
:10FFC000070284F884300BFA02F3A4F8863020F09C
:10FFD0000F0393400009C4F88830C4F8800006E09D
:10FFE000FB0704D5074B094A1A60822002E035441A
:10FFF000D3E6002005B0BDE8F08F00BF1B7D0200F6
:020000022000DC
:10000000327D020080280020577D02007E7D0200A4
:10001000FF299ABF817101200020704710B5082A7E
:10002000044628BF082282720B3007F07EFDA07ABA
:1000300010BD037D818343F01003037501207047D9
:1000400010B504460846013103782F2BFAD02066FC
:1000500007F091FD237DE06543F00803237510BD93
:10006000C27C02F0400202F0FF031AB1436E0B6043
:100070000120704718467047C37C416643F0400337
:10008000C3740120704730B590F91550039C002DC2
:100090000EDA09B1456F0D6012B190F87810117049
:1000A00013B1B0F87A201A8024B1C36F236001E045
:1000B000002030BD012030BD10B5A3F11004B4F50F
:1000C000FE6F10D8B1F5801F0DD2A0F87A30437DB5
:1000D0004167003218BF012263F07F0380F8782067
:1000E0004375012010BD002010BDD0F8A0300B607A
:1000F00013B1B0F89E00704718467047302A28BFE9
:100100003022C0F8A010A0F89E20104670470000D2
:100110002DE9F04F038887B081463BB140F2791258
:10012000934213D0002303800320A8E1A548A649E9
:1001300000F0A6FD00F030FA43F21630FFF724FC81
:1001400040F27913A9F80030012098E19F4B1B7809
:100150008B4240F08E819E4D00232B709D4B1B786F
:100160009807EDD59C4E9D4B9D4C31681A882046D2
:10017000FFF7CCFDB046074628709A4E002840F0A5
:100180001A81A379013B032B00F2D880964B974943
:100190001B7820892833CA5A083100F007FA3060EA
:1001A000002800F0C5802023ADF80A30637903975A
:1001B000049705971BB923894522022104E0FFF724
:1001C000F7FB4522034601218948FFF7F9FBA27A94
:1001D0001AB188498648FFF721FF04AB009300223B
:1001E0000DF10A0303A97E48FFF74DFF40B1BDF8AA
:1001F0000A30202B28BF2023ADF80A30049B05933A
:100200007D4BD3F800A0BAF1000F00F08D8032686A
:10021000774FDFF8CCB1BDF80A3005A900917432F0
:1002200039465846D047BA4600286DD02B78002B67
:1002300040F0B8809BF8163019070DD597F90630B5
:10024000002B09DBBB7D1A0706D4614BA1221A7073
:100250006A4B6B4A1A6057E094F91530059A002BE7
:100260003FDA049B9A4221D1BAF89E10604F8A422D
:1002700004D38223BB710F22624930E0BDF80A30FB
:100280008A1A9A4294BF0022012203993846FFF746
:1002900013FF0499B7F89E30BDF80A20D7F8A000E4
:1002A0005B1A9A4228BF1A46014418E001320399AA
:1002B000BDF80A3006D1BAF89E209A4294BF0022B7
:1002C000012200E001224A4F3846FFF7F5FEBDF853
:1002D0000A20BAF89E30934216D9D7F8A0103846B3
:1002E00010E0A2B1013218BF0122002120234048B2
:1002F000FFF7E2FEBAF89E20DAF8A0103C481F2A69
:1003000088BF2022FFF7FAFE2B78002B4AD13768EE
:10031000374807F13601FFF761FB80B2B886002845
:1003200040D1C1232B703DE0A1232B70364A02E05F
:10033000A323364A2B70314B1A6033E0636823F0F5
:100340007F4323F0FF0313B9C3232B700BE06379C2
:10035000032B08D1244B25481B7822892833C15A06
:10036000083000F0F9F9208900F0A4F9306040B1BC
:10037000C76AD0F830A000F03BF917B118495046D1
:10038000B847002333606379154A012B0AD8D37C20
:100390005B0607D5144B15481B782833C15A083023
:1003A00000F0B4FB2B783BB9306800283FF4C8AEAE
:1003B00000F034F9C4E62B783068C22B28D100F065
:1003C00017F9BDE6AC2800209A7D0200C467002022
:1003D000C02B0020206500202C650020106000202C
:1003E0007C2C0020C82B00208036002020600020BC
:1003F000CC2B0020872C0020782C00208028002087
:10040000AB7D0200BB7D0200CB7D0200DC7D0200E3
:1004100000F0EEF82A781B4BC32A03D100221A7091
:10042000032104E0BF2A84BFA0221A7002212A7887
:1004300023891548FFF7C4FA144B1C68204607F0BF
:100440009AFB214602461048114CFFF757FE114B0C
:10045000D8F800501B780C48283329461E5BFFF75C
:10046000BDFA2A4683B2314604F10800FFF728FCA2
:1004700066E688297FF464AE00F02AF960E607B0EA
:10048000BDE8F08FC02B00207C2C002080280020AD
:1004900020600020803600200021014801F01EBFAE
:1004A00084280020C160406801F030BF2DE9F3418D
:1004B0001F460388089D0446164623B140F2C31226
:1004C00093422DD04AE02F4A0361126842602E4ABF
:1004D000C36013702D4A13602D4A1370FFF768FA3A
:1004E0003A462881314600F061F8A060E0B1294B1E
:1004F000C362A3681C63216921B13023002228460E
:10050000FFF7DAFDA668284606F13601FFF766FA1E
:10051000B086A06800F082F840F2C313238021E087
:1005200082291FD1E06818B900232380022025E02A
:10053000DFF85880144A002300934146FFF7A3FDDB
:100540002269D8F800309A420ED1099BE06898479A
:100550002369013323610C4B1B7853B9002323809B
:1005600003200BE0012009E0094A137801331370DE
:10057000F1E7074B1B78032BF0D8AFE702B0BDE8DB
:10058000F08100BFC8330020702C0020742C0020A4
:10059000C42B0020A5040200024B1A68024B1A600B
:1005A000704700BFC8330020242D0020F8B507464F
:1005B0000D480D46164602F044F8044690B100235B
:1005C00003768780294600F11A0305F1100251F8DD
:1005D000040B43F8040B9142F9D166852146034888
:1005E00002F000F82046F8BD94280020202D0020BD
:1005F00010B5044660B1083001F040FD21460548C1
:1006000001F0DDFF21460448BDE8104002F02DB89E
:1006100010BD00BF202D0020942800202DE9F041BE
:10062000044600F11A07838E418D00F136023846E8
:10063000FFF746FB94F83650C5F3011575BB237ED2
:10064000032B1AD853B902F034F8C023B0FBF3F2ED
:1006500002FB130000F28110E06002E0E3685B003F
:10066000E360124D124B2E681B682B6004F10800EA
:1006700001F0EEFC2E60BDE8F081E66A618DD4F8F1
:100680003080384600F04AF82046FFF7B1FF56B1F7
:10069000294640463346BDE8F04118472046BDE8AC
:1006A000F041FFF7A5BFBDE8F08100BFC8330020CF
:1006B000242D002010B50446044801F076FF20B137
:1006C0008388A34201D00068F9E710BD202D0020E7
:1006D00010B5094801F069FF044664B104F108004F
:1006E00001F0BFFC28B1237E013323762046FFF7BB
:1006F00095FF2468F1E710BD202D002010B50146BC
:100700000446044801F0B1FF21460348BDE810400B
:1007100001F055BFA0280020C0300020F8B50646E3
:100720000C480F4601F041FF002504467CB1102221
:10073000314604F1180007F0E9F930B9238DBB42C6
:1007400003D12046FFF7DAFF01352468EEE728469B
:10075000F8BD00BFC03000202DE9F04106460F482B
:100760000F46904601F021FF0025044694B1102267
:10077000314604F1180007F0C9F948B9238DBB428E
:1007800006D1A38E434503D12046FFF7B7FF0135BD
:100790002468EBE72846BDE8F08100BFC0300020A8
:1007A0002DE9F84F0A9F8B4691461E4600F082FACB
:1007B00001F0FBFE002480462546B8F1000F77D0FB
:1007C0004DB13B689D4205D3B4423EBF2C2309F88E
:1007D0000430013401353B689D4205D3B4423EBF2D
:1007E0003C2309F8043001343A686B1C934205D36A
:1007F000B4423EBF2F2309F804300134D8F8040076
:1008000007F0B9F902353B6805EB000A9A4510D9A3
:10081000D8F804205B1B711C002BACBFD318131C31
:10082000091B09EB0400334A00F00EFC0444A64205
:100830003ED93B689A4505D3B4423EBF3E2309F8F2
:1008400004300134D8F80C300AF101053BB31B78B1
:100850002BB33B689D4205D3B4423EBF3B2309F80E
:1008600004300134D8F80C0007F085F90AF1020AC7
:100870003B680AEB00059D4211D9CAEB030AD8F880
:100880000C301C4A711CBAF1000FA8BF5344091B5D
:1008900009EB040000F0D8FB0444A64209D3B4429B
:1008A00003D93A682B1B934203D8D8F8008084E719
:1008B0004CB1494622465846FFF720FC28215846AD
:1008C000FFF7B7FB09E045B182215846FFF7A0FBCF
:1008D0000F2209495846FFF711FCB8F1000F04D167
:1008E0004FF0FF333B60BDE8F88F3B681E443E602D
:1008F000BDE8F88F007E0200BB7D020038B50C46D3
:10090000054620B90E4800F067FB042038BD0D48AD
:1009100000F062FBAB79413B3E2B04D90A4800F062
:100920005BFB032038BDEB7C5B0604D4074800F07A
:1009300053FB022038BDB4FA84F0400938BD00BF33
:10094000097E0200167E0200267E02003B7E020027
:100950002DE9F0410A4D0B4C0E4617460146002288
:100960002846FFF72DF821682846FFF737F8226858
:1009700083B239463046BDE8F041FFF7A1B900BF68
:10098000C83000202C65002010B50446837F427FCC
:100990008169064800F020FB2146054801F065FE0C
:1009A00021460448BDE8104001F009BE5C7E02000B
:1009B000D0280020C4300020F8B50F4604460A486D
:1009C00000F00AFB01213846E66AFFF797FF05466B
:1009D0001EB1024639462046B04725B12046BDE843
:1009E000F840FFF7D1BFF8BD877E020070B505461D
:1009F0000C480E4601F0D9FD04468CB16A7829787E
:100A0000094800F0E9FA237FB34201D02468F4E7F3
:100A10003246294604F11D0007F078F80028F5D188
:100A2000204670BDC4300020AC7E02002DE9F843A2
:100A3000804616488946164601F0B7FD0025044653
:100A400004B33146124800F0C7FA10224146201D77
:100A500007F05CF8A0B9A38A4B4511D1A769BE4243
:100A600004D12046FFF790FF013509E0384607F032
:100A700082F831460246384607F048F80028F0D0A0
:100A80002468DDE72846BDE8F88300BFC4300020B5
:100A9000E97E02002DE9F843089E904632468946D9
:100AA0001F460546FFF7C2FF154801F0CAFD044680
:100AB00018B386612A46061D05F1100310685168B7
:100AC000354603C508329A422E46F7D13A4641468A
:100AD000A4F81490277704F11D0007F026F8099B6D
:100AE000E3620A9BA362A169A37F627F054800F0CD
:100AF00073FA2146044801F075FD2046BDE8F883ED
:100B0000D0280020FE7E0200C4300020F7B5144635
:100B1000064622480F4600F05FFAA57A204800F00A
:100B20005BFA0DB91F482DE01F4800F055FA294621
:100B300004F10B00FFF75AFF054648B91B4800F0C7
:100B40004BFA23893A4631460320FFF701FF22E0A2
:100B500063792BB923893A4631460220FFF7F8FE24
:100B6000EB6AC3B100212046FFF7C8FE0128064604
:100B70000CD101A92046FFF773FA019B2A6B9A4218
:100B800003D10B4800F028FA05E02B63EB6A3246EC
:100B900021462846984703B0F0BD00BF277F0200DA
:100BA000437F0200527F0200977F0200AE7F020067
:100BB000F77F0200034B1A7801321A70036001209C
:100BC000704700BF403200202DE9F043AFB00E4621
:100BD000904605469946FEF7EBFE012203460021AA
:100BE00005A8FEF7EDFE414605A8FFF729FA00210A
:100BF00005A8FFF741FA04A8FFF7DCFF0828024622
:100C0000049928BF082207460DF11F008DF81E2009
:100C100006F08BFF32462946BDF81C00FFF7C6FCE4
:100C20000446F8B1369B029328468DE800033B4604
:100C3000049A3146FFF72EFF054660B10D4B206345
:100C4000E36204F1360105A8FEF7C8FEA08620463F
:100C5000FFF7E4FC0AE0084800F0BEF92046FFF781
:100C6000C7FC03E0054800F0B7F9254628462FB039
:100C7000BDE8F083B90902000D8002003C8002004B
:100C800010B5044641600146084801F0ABFC94F9F8
:100C90000830002B09DA216ACB6933B18B6823B1A4
:100CA0000348BDE8104001F09DBC10BD4832002053
:100CB00044320020004870474832002048DF704727
:100CC00010B5038804462BB1572B0BD000230380AB
:100CD000032010BD4021174801F0A8F957232380B5
:100CE000012010BD144B1B788B4209D1114801F033
:100CF000C5F9012001F0C4FB022001F0B9FBEDE7CA
:100D00000E4B1B788B4207D140210A4801F08EF927
:100D1000022001F0B5FBE1E78829DFD1054801F0A9
:100D2000A0F90028DAD0034801F089F9012001F088
:100D3000AFFBD3E7943200208D5A00208C5A00205C
:100D400013B5002348223249082005F00FFF18B1DF
:100D50000022114605F096FE05F060F808B905F08E
:100D600033F801F079FB00F0FBFC01F0DBFA00F056
:100D7000F3FD01F021FA002001F0B6FC00F0B8FD0F
:100D8000244800F097FD01F0FBFB0021224801F010
:100D9000A5FA01F083F801F095F800F043FD1F4B30
:100DA00018601F4B01221A7000F012FE1D4800F05F
:100DB00073FE04F005F8684600F042FE684603F052
:100DC00063FE08226946184806F0AFFE164803F095
:100DD000BBFD0021154801F081FA0021144801F003
:100DE0007DFA0021134801F079FA134801F00CF85C
:100DF00000F0CEFD00F09AFE01F0F6F9044600F096
:100E0000CFFD14F0FF0FF7D1FFF758FFF4E700BF55
:100E10004C3200203D25020014290020DC5F002018
:100E2000D05F00206280020018600020DC280020D3
:100E3000CC29002034290020A87B02000346802B07
:100E400037B51046A2F10D0402D0812B16D02BE04D
:100E5000002203238DF806208DF8072001A9144AEB
:100E60008DF804308DF8053004F0E2FF11480421BC
:100E700000EB041001F06CFA012016E00E4D49B1B0
:100E8000012105F03DF82B68012000FA04F423430A
:100E90002B600AE005F080F82B68012000FA04F4CA
:100EA00023EA04042C6000E0002003B030BD00BF42
:100EB000D50E0200A8320020A43200201022FFF735
:100EC000BDBF0F22FFF7BABF0E22FFF7B7BF0D223B
:100ED000FFF7B4BF70B5A0F10D05114C2D012C44E6
:100EE0000646204601F046FAC0B10421204601F032
:100EF0002FFA304605F072F8064620B900F04EFC95
:100F0000E660A06004E000F049FCA368C01AE0605D
:100F100004482844BDE8704001F090BC70BD00BF9B
:100F2000A83200208C800200813801289DBF034B2D
:100F3000186800F004000020704700BFA4320020B1
:100F400008B530B9084605F049F880F00100C0B294
:100F500008BD012803BF034B03EB011151F8C40C7A
:100F6000002008BDA83200201021FFF7E9BF0F21A3
:100F7000FFF7E6BF0E21FFF7E3BF0D21FFF7E0BF4C
:100F8000813801289DBF034B186800F0080000203D
:100F9000704700BFA4320020813801289DBF034B59
:100FA000186800F001000020704700BFA432002044
:100FB000813801289DBF034B186800F00200002013
:100FC000704700BFA432002008B5084612B1114690
:100FD00004F0DAF8002008BD0FB407B504AA0548EC
:100FE00052F8041B019200F057F803B05DF804EBCF
:100FF00004B07047EC28002038B54368934204469B
:10100000154698BF03F1FF352A46006806F08DFDAE
:1010100023682B44236063685D1B6560002038BD36
:101020001FB51446074A02928DE803001A4621466E
:1010300002A8CDF80CD000F02FF8009B00221A7007
:1010400004B010BDF90F02000CB407B504AB53F89F
:10105000042B0193FFF7E4FF03B05DF804EB02B04B
:101060007047000070B505460C46102C07D92B6858
:10107000084968681022984750B9103CF5E734B128
:101080002B68686803492246BDE87040184720462F
:1010900070BD00BF188102002DE9F04F8FB00646E9
:1010A000154606914FF0000B069B1B78CBB1069CB2
:1010B000274617F8013B1BB1252B14D03C46F7E718
:1010C000069BA3420DD0069B06997068C3EB0408EB
:1010D000424633689847002840F01F832378C34472
:1010E00023B9584634E3069BA342ECD16378002B26
:1010F000F7D03946002408460A4610F8013B2B2B4E
:1011000011D006D8202B11D0232B12D144F0080483
:1011100016E02D2B04D0302B0BD144F010040FE03F
:1011200044F001040CE044F0060409E044F0020439
:1011300006E0A3F13107082F11D84FF0000801E0B5
:101140000146D8E70A4611F8013BA3F1300009280F
:1011500013D80A2202FB0838A8F13008F2E72A2B3C
:1011600009D12B68002B05F10405B8BF44F0010438
:101170009846024601E04FF0000813782E2B1BD151
:101180005178A1F13000092802F101030ED8194667
:1011900000270A78A2F1300009280B4601F101016D
:1011A0000DD80A2303FB0727303FF2E72A2904D191
:1011B0002F68931C043502E013464FF0FF371A786E
:1011C0006C2A09D15A786C2A02D144F080040AE0D2
:1011D000013344F060040BE0682A09D15A78682A88
:1011E00003D144F02004023302E0013344F0400410
:1011F0001A78642A3CD01FD8462A48D00DD8252A10
:101200005AD003D8002A3FF46CAF57E0412A4AD0A5
:10121000452A53D144F4424450E0582A31D004D8EE
:10122000472A4BD144F4A13448E0612A38D0632ADC
:1012300044D144F4A06441E06E2A3AD007D8662A2B
:1012400022D027D3672A28D0692A11D036E0732A02
:101250002CD006D86F2A11D0702A2FD144F44074B4
:101260002CE0752A07D0782A28D144F4C85425E008
:1012700044F4245422E044F410641FE044F48854FD
:101280001CE044F4B24419E044F4007416E044F461
:10129000844413E044F4024410E044F481340DE04B
:1012A00044F4C1340AE044F4E13407E044F48064D7
:1012B00004E044F4E06401E044F4C06401330693C4
:1012C00004F4E063B3F5806F00F0908113D8B3F5B8
:1012D000807F27D0B3F5407F7FF4E6AEAE4BAF4AB8
:1012E000286814F4804F18BF1A460DF133030435F3
:1012F00000211F46B6E1B3F5C06F08D0B3F5E06F2B
:1013000000F02182B3F5A06F7FF4CEAEF1E1336837
:10131000A349706801229847002840F0FE810BF134
:10132000010BC1E6002FACBF24F01004012714F418
:101330000053079304F0E0032ED0402B12D005D8C1
:10134000ABB1202B21D195F900200DE0602B0ED000
:10135000802B1AD1073525F0070303F10805D3E9DF
:10136000002307E0B5F90020D317043502E02A680E
:101370000435D317002A73F1000108DA524263EBF7
:101380004303CDE90023012304E000220023CDE93B
:1013900000230023059329E0402B13D004D8BBB1D0
:1013A000202B1DD12A780EE0602B11D0802B17D175
:1013B000073525F0070303F10805D3E90023CDE93C
:1013C00000230BE02A880023CDE90023043505E043
:1013D0002B6800221946CDE900120435079BD9E796
:1013E0000023059300220023CDE9002304F4C05319
:1013F000B3F5805F0CD0B3F5C05F33D0B3F5006FA9
:101400004FD1DDE900230DF13609CDE9022304E0D7
:10141000DDE900230DF1360915E0DDE90223134370
:101420003AD0DDE902010A22002306F0E3F9303266
:1014300009F8012DDDE902010A22002306F0DAF99C
:10144000CDE90201E9E752EA030125D002F00701E4
:10145000303109F8011DD10841EA4371D8080A4624
:101460000346F0E74C4B4D4914F4804F18BF194622
:10147000DDE900230DF1360952EA03000CD002F039
:101480000F004FEA131E085C09F8010D100940EA2D
:10149000037002467346EFE70DF13603C9EB030311
:1014A00002E00DF1360900230293029B41F6080287
:1014B000BB4238BFFF1A02EA040241F2080328BF08
:1014C00000279A4202D1002F08BF0127029B41F654
:1014D00008018A4203EB07000DD1DDE90023134325
:1014E00009D0304A304914F4804F4FF0020A0CBF43
:1014F0000B46134602E04FF0000A5346079A9AB192
:10150000059A52B904F00602022A0AD0062A274A8E
:1015100004BF4FF0010A134606E04FF0010A244BC6
:1015200002E0244B4FF0010A0AEB000290458CBF09
:10153000C2EB08084FF0000814F0010200920DD130
:10154000E10602D54744904608E0414630460593FF
:10155000FFF788FD059B002840F0DF80BAF1000FFF
:1015600007D03468706852461946A047002840F0FA
:10157000D480029B03EB0B04BB46BBF1100F336816
:101580001CD910220C4970689847002840F0C5808B
:10159000ABF1100BF1E700BFE3800200F480020022
:1015A0001681020008810200058102000D810200FF
:1015B0000B810200AA7E0200D3800200BBF1000F63
:1015C00006D05A46644970689847002840F0A580C4
:1015D0003368029A7068494654449847002840F09E
:1015E0009C80009B3C44002B39D032E0D5F8009021
:1015F0000435B9F1000F0AD0CA469AF800300AF152
:1016000001020BB19246F8E7C9EB0A0A03E0DFF8E2
:101610004C914FF0060A002F02DBBA4528BFBA46AC
:10162000D0458CBFCAEB08084FF0000814F0010742
:1016300005D141463046FFF715FD00286DD13368CE
:101640007068524649469847002866D10AEB0B0459
:101650002FB141463046FFF705FD00285DD108EB6C
:10166000040B21E550EA010E0ED000F00F0E4FEAF8
:10167000111C12F80EE003F801ED4FEA101E4EEABD
:10168000017E70466146EDE7FF1A01BF302203F884
:10169000012C012703F1FF3378220337B84503F803
:1016A000012C4FF0300203F8022C88BFC7EB08086A
:1016B0004FF0230298BF4FF0000814F00104A3F18B
:1016C000030903F8032C04D141463046FFF7CAFC56
:1016D00018BB336870683A4649469847E8B95F4492
:1016E00024B141463046FFF7BDFCB0B908EB070B0B
:1016F000DAE4B8F1010F2B688DF820308CBF08F1C7
:10170000FF384FF0000814F0010405F1040508D17A
:1017100041463046FFF7A6FC10B14FF0FF3017E00E
:10172000C34433687068012208A998470028F4D19F
:1017300008F101072CB141463046FFF793FC002821
:10174000EBD1BB44B0E42B680435C3F800B0ABE484
:101750000FB0BDE8F08F00BFD38002000F81020000
:1017600010B50B4B0B4A0C48002421461C6004F0BA
:10177000DDFC18B12246214605F084F90648012116
:1017800004F012FD0448BDE8104004F001BD00BFA4
:10179000E8320020C917020028810200014B1868B6
:1017A000704700BFE832002008B5064A13680133CD
:1017B000136000F05BFC18B1BDE8084000F0BABB54
:1017C00008BD00BFE8320020042801D1FFF7ECBFBC
:1017D00070470000014B1868C0097047E8320020CC
:1017E000B0F5A27F01D100F09FBD704708B5074A50
:1017F0000748002104F03AFD18B10022114605F017
:1018000041F90348BDE8084004F084BDE117020037
:1018100030810200012302461946014804F092BDBE
:10182000308102000021014804F07EBD30810200B9
:10183000F7B50746FFF7F6FF184D194CA8600126CB
:10184000A6703B78B3420AD1164B1B6813B17A6875
:10185000107898470121144804F0C0FF0FE083B9C5
:10186000124800F077FF002809DD104800F062FF01
:1018700002AB314603F8010D184604F03FFFA37890
:101880004BB1FFF7CFFF0A4AA96893685B1A184467
:1018900000239060A37003B0F0BD00BFDC5F0020A8
:1018A000D05F0020EC320020F032002074330020A2
:1018B0009C5F0020014B1860704700BFEC32002095
:1018C00007B502AB012103F8010D184604F016FF1D
:1018D000112807D19DF80710044800F018FF08B937
:1018E00020BFF7E703B05DF804FB00BF74330020AE
:1018F00030B50F4D0FCD89B06C460FC495E80F0081
:1019000084E80F000B49684604F07EFE18B10022FF
:10191000114605F0B7F880220749084800F0F0FEAC
:1019200004F0DAFF0121064804F058FF09B030BD89
:101930003881020031180200F13200207433002097
:10194000F03200204FF0A0434FF4F012C3F8082506
:101950000022C3F80C25704708B50A49002004F09E
:1019600043FD18B10022114605F08CF8064804F03A
:1019700071FD18B10022114605F084F8034B0122D5
:101980001A7008BD451902007D3300207C33002009
:10199000024B1B780BB104F04FBD70477C33002025
:1019A000034B1B781BB1034B187804F0ADBD704797
:1019B0007C3300207D33002070DF704771DF70477B
:1019C00073DF70477CDF704784DF704760DF7047EC
:1019D0001FB508220DEB02000021FDF7B3FD9DF8B5
:1019E0000830002243F0010302A803928DF808306A
:1019F000FFF7ECFF10B1114605F044F80F4805F071
:101A0000EBF818B10022114605F03CF86846FFF7E4
:101A1000D5FF18B10022114605F034F800226946BE
:101A200010468DF806208DF80020FFF7C5FF10B195
:101A3000114605F027F805B05DF804FB491B0200CC
:101A400013B504466846FFF7B9FF18B100221146E6
:101A500005F018F89DF8052062709DF80420A2702A
:101A6000FF22E270FE2222719DF8032062719DF830
:101A70000220A2719DF80120E2719DF800209DF8DE
:101A80000630237012B923F0020301E043F0020391
:101A9000237002B010BD000030B591B001229DF856
:101AA000003010AC62F3030362F30713054604F839
:101AB000403D06F060F8294682B22046FFF782FFDB
:101AC00018B10022114604F0DDFF164B1868019092
:101AD0000021382202A8FDF735FD02238DF80830D9
:101AE00004238DF80B300123ADF81830002101AB31
:101AF00002A8079305F028FB18B10022114604F054
:101B0000C1FF094C182200212046FDF71BFD0023D0
:101B10004FF405722370636023722282638211B0D6
:101B200030BD00BF588102008033002008B5054851
:101B3000FFF746FF28B100221146BDE8084004F037
:101B4000A1BF08BD8033002010B5044605F014FC89
:101B50002388102B02D0112B07D010BDA0880022A3
:101B6000FF21BDE81040FFF72FBFBDE81040FFF791
:101B7000DDBF8ADF704748DF7047012070470120D2
:101B8000704700207047000038B50388054613B33E
:101B9000FD2B03D000230380032038BD82291AD1F6
:101BA0000F4CB4F8081504F1080003F0B9F994F9E2
:101BB0000A15042089B203F0DDF921460F2003F055
:101BC000E7F90849102003F0E3F9074B00221A60F7
:101BD000064BDB689847FD232B80012038BD00BFF2
:101BE0008E5A0020C6670020A433002050820200D5
:101BF00038B5044603F01AF9054603F02BF92946D7
:101C00000246204605F094FDB0FA80F0400938BD48
:101C10002DE9F041054610200E4603F0C5F919499B
:101C2000194C074602F027FF28B93946204602F032
:101C300022FFC8B120E06389B3B12389A3B104F1C5
:101C40000800FFF7D5FF0446FFF7AAFE64B10F4B6B
:101C500001221A601C46226822B1FFF7A1FEFFF79D
:101C60008AFFF8E7012301E00123042231462846D8
:101C7000BDE8F04103F0A8B904F10800FFF7B8FF90
:101C80000446E3E71582020098330020A8330020C1
:101C900007B5042200210DEB0200FDF753FC0C4BAD
:101CA000019301A805F018FD18B10022114604F0B7
:101CB000E9FE00F079FA074B187000F075FA064B50
:101CC00000211870054800F009FB03B05DF804FB23
:101CD000E11C02008D5A00208C5A0020F4280020BC
:101CE00073B5054640482B880689B34206D144891E
:101CF0006B889C420CBF0446002400E000240B7853
:101D0000032B6ED8DFE803F0023644664A68D17BC5
:101D10008DF80110917B8DF80210FF218DF80310D2
:101D2000FE218DF80410517B8DF80510117B8DF884
:101D30000610D17A8DF80710137C927A8DF8003056
:101D400012B923F0020301E043F002038DF80030E2
:101D5000002E43D14389002B40D104222946234839
:101D600005F0E3FE082269461F4805F0DEFE324614
:101D70001F4B08E0002C34D00C2200212046FDF738
:101D8000E1FB1C4B00221978104600F07FFA28E096
:101D90003CB3194B1A6822BB4A689289B2F5A06F0E
:101DA0001FD8164E0120A6F8082518604B6806F1CA
:101DB0000800996805F0B9FE08222146304605F072
:101DC000B4FE06F20A512888FFF7D3FE0C4800F053
:101DD0009DFA06E00B4B00221A6002E0284605F04F
:101DE000D7FC002002B070BD98330020A033002043
:101DF0008D5A00208C5A0020A43300208E5A0020D7
:101E0000F4280020A833002010B5041F54F8040F54
:101E100018B1002100F062FAF8E710BDF8B50388A8
:101E2000064615462BB14A2B15D00023038003200C
:101E3000F8BD174800F0B9FB04462CB1A168201D7D
:101E400000F0F4F82468F8E7124B01221A704A23D4
:101E500033800120F8BD8829FBD10D4800F0A5FB97
:101E60000446002CF3D0231D9D420ED12146084884
:101E700000F0A5FB084B62691F681A60A2691D4645
:101E80000AB1E06990472F60E1E72468E9E700BF05
:101E9000AC330020B0330020C833002010B5064B0F
:101EA000064800241C7000F07DFB21460448BDE874
:101EB000104000F013BA00BFB0330020AC33002054
:101EC0000429002010B50023064C074807491A468C
:101ED00044F8232040F823205A5401330C2BF7D127
:101EE00010BD00BFDC5F00209C5F0020D05F0020A1
:101EF00010B50E4C236813B90D4A136010BDFFF7DF
:101F00004DFC216891E80C001A44131A8A6842B10A
:101F100092E812002144091A8B4228BF0B469268AE
:101F2000F5E71844024B186010BD00BFB433002021
:101F3000B8330020014800F0E9B900BF142900209F
:101F40002DE9F8430388054633B1592B0BD0002304
:101F500003800320BDE8F883234A136059232B80B4
:101F60000120BDE8F883872924D08229F6D11E4FAD
:101F70004FF00008B9463C680026002CEED0204601
:101F800000F0F8F998B122468821E06800F07EF967
:101F900058B9E060A3680EB1B36001E0C9F8003041
:101FA000C4F80880FFF7A4FFE5E7FFF7C3FF264664
:101FB000A468E2E70C490B6800201BB90028CDD0CB
:101FC0000B60CBE7DC68A24202D19B680120F4E7FA
:101FD00000B10B6099680029C0D0C868824206BF72
:101FE000896899600B46F5E7B433002010B50446C4
:101FF000FFF7A0FFE3680B4A4BB113683BB1A34264
:1020000003D1094A1268DA6007E09B68F6E7064BDD
:102010001B68E3601368A3601460BDE81040FFF71D
:1020200067BF00BFB4330020C833002010B504469A
:1020300000F08EF92046BDE81040FFF7D7BF10B57D
:10204000044600F08CF92046BDE81040FFF7CEBFF3
:1020500010B5044600F088F92046BDE81040FFF7AF
:10206000C5BFC068B0FA80F040097047024B1868DD
:10207000003018BF01207047B433002010B50B4A60
:1020800013688342044606D18368136008E09A68A7
:10209000944203D01346002BF9D103E0A2689A6062
:1020A000FFF726FF0023A360E36010BDB4330020D8
:1020B00038B5836804460D469BB10A480460022087
:1020C000A07304F10C0098470238012801D9832D30
:1020D00005D121462046BDE8384000F00BB8012369
:1020E000A37338BDC8330020837BDB0701D5FFF71E
:1020F000DFBF70472DE9F8431C4A1D4E156837684D
:10210000044689462B469046A34204D00BB11B6877
:10211000FAE7BDE8F88334B3A37BABB10023A37324
:1021200045B1A54204D0224687212846FFF7DCFFAF
:102130002D68F5E7A3683BB14C4505D034602A46CD
:10214000832104F10C009847D8F800309C4203D159
:102150002268064B05E0134623B11A689442FAD16F
:1021600022681A603760BDE8F88300BFD0330020D2
:10217000C833002070B50A4A00231370094A146856
:1021800001261D4654B1E37B33B1A673E5730022EB
:1021900082212046FFF78CFF2468F3E770BD00BF63
:1021A000C4330020D0330020024B1878421C1A7030
:1021B000704700BF58350020064B8A221A70064A25
:1021C00000231370054A1370054A1360054A136013
:1021D000704700BF58350020BC330020BD330020BD
:1021E000D0330020C83300202DE9F0411F4E337852
:1021F0000BB1FFF7BFFF1E4D2C78002C30D0DFF85D
:1022000084E01C499EF800301B4FDFF87C800C22D4
:102210005A4388180133895C42688068397003F03A
:102220001F03013CC8F800208EF800302C7088B9DC
:10223000124C134B1B68236023688BB133780BB1AE
:10224000FFF798FFD8F8002039782068FFF74CFF97
:102250002368EFE7812904BF01238373FFF744FF5D
:10226000337828781844BDE8F08100BFC4330020DB
:10227000BD330020D4330020CC330020C0330020F5
:10228000D0330020BC33002054350020F0B50B4E75
:102290003378202B0FD00A4C0A4F24781C440C258D
:1022A00004F01F046C433D1901333955A8606A607E
:1022B00033700020F0BD0120F0BD00BFBD33002011
:1022C000BC330020D433002038B5034C2568FFF719
:1022D0000BFF256038BD00BFC833002030B40A4C66
:1022E00025680A462B4683420CD00BB11B68FAE7DF
:1022F00040B101210560817320608381812130BC60
:10230000FFF7E2BF30BC7047D033002038B1837B89
:10231000013B012B9FBF024A0123C3731370704717
:10232000C4330020FFF762BA10B5084C206858B1DA
:1023300000232360816843689847236823B11868A5
:10234000BDE81040FFF766BA10BD00BF5C35002045
:1023500010B541600446FFF721FA206010BD90E8F7
:102360000C0013440360704710B50446FFF716FADB
:10237000206010BD10B50446FFF710FA2368C3F1C2
:10238000010303446068834294BF0020012010BD14
:10239000F8B52D4C267820704640F10716D510F080
:1023A00001052A4F06D0FFF73DFA294BD8600123DB
:1023B000FB700BE0FB784BB1FFF734FA254A244958
:1023C000D368C968FD705B1A1844D060B20719D58C
:1023D00023781E4D03F0020303F0FF0733B1FFF72C
:1023E00021FA1B4B186101232B710BE02B794BB1A8
:1023F000FFF718FA174A1649136909692F715B1A12
:1024000018441061730719D52378104D03F00403A5
:1024100003F0FF0633B1FFF705FA0D4B58610123B6
:102420006B710BE06B794BB1FFF7FCF9094A084976
:10243000536949696E715B1A184450612078BDE890
:10244000F84002F081BE00BF60350020D05F002060
:10245000DC5F00209C5F002008B502F057FE024BB5
:1024600000221A7008BD00BF60350020FFF790BF42
:10247000024B1B781843FFF78BBF00BF603500206D
:10248000024B1B7823EA0000FFF782BF6035002073
:10249000024B1B785840FFF77BBF00BF6035002020
:1024A00070B50588672D044609D0792D30D0002DF0
:1024B00034D1FFF779FE1C4B18701C4B1D601B4D6F
:1024C0002E461B4800F036F9431C01D167231DE05E
:1024D0000A28164A07D02B687E2BF2DC5A1C326081
:1024E000144AD054EDE71368591C1160114A0025B5
:1024F000D5540D4B28461978FFF7C8FE0E4B2A46D7
:1025000085211868FFF7C2FE20B97923238009E0EE
:10251000852907D1054B00221A60D0E700230380EC
:10252000032070BD012070BD0C60002070360020BB
:10253000E4350020ED350020C83300200D2810B50B
:10254000014615D00B4C23782BB90B4800F0DFF86F
:1025500048B9012306E00A2805D1074800F0D7F85A
:1025600008B1002323700548FFF7D0FE012010BDFD
:10257000002010BDEC350020E43500202429002087
:1025800008B505490548802200F0BAF80021044842
:10259000BDE80840FFF7A2BE61350020E435002009
:1025A00024290020002303607047006870470068FA
:1025B00000B9704703680BB11846FBE77047036822
:1025C00010B573B1002499421A6806D10CB90260A3
:1025D00000E0226000221A6010BD1C460AB11346BA
:1025E000F1E710BD38B50546FFF7E9FF00230B60A2
:1025F000FFF7DDFF08B9296038BD016038BD38B587
:102600000446FFF7DCFF03680B60216038BD0368F8
:10261000002013B101301B68FBE7704700B1006870
:10262000704710B50446428840680021FCF78AFFD5
:1026300023886288A0685A430021BDE81040FCF757
:1026400081BF10B5418800238B420CDA4268D41850
:10265000D25C32B9012222700288806803FB02003A
:1026600010BD0133F0E7002010BD30B5826844880A
:102670000023A3420DDA8A4207D14168CA5C0AB13D
:10268000013ACA544268D05C30BD058801332A44FF
:10269000EFE7FF2030BD82688A4208D8438800886F
:1026A00000FB032081422CBF002001207047002046
:1026B000704707B52A23ADF806300DF1050003F089
:1026C0004BFF9DF80530012BF7D902210DF10600D3
:1026D00003F044FF18B10022114604F0D3F9BDF80D
:1026E000060003B05DF804FB08B5002003F01EFFF0
:1026F00028B100221146BDE8084004F0C3B908BD66
:102700000023013A0160027143718371704710B573
:10271000427983790479D31A34EA030308D0036831
:10272000995443795A1C037913404371012010BD19
:10273000002010BD837942790179D21A0A421FBF65
:102740000268D25C01330B401ABF837110464FF010
:10275000FF3070474379827900799B1A184070479F
:102760002DE9F0410688772E054631D07E2E40D0E7
:10277000002E4ED1FFF718FD2A4C2B4B2B4FDFF8C4
:10278000B480266018702646236857F823204AB183
:10279000002108F8031080209368984733680133BC
:1027A0003360F1E7224A1370772320E0214AD256A2
:1027B000002A12DB1B4A136801331360194B1C4AB1
:1027C0001B6812789A42F1DC1B4B1B68002BEBD084
:1027D000194A00231360134AEFE7144A52F82320E2
:1027E000114B00201978FFF751FD30B97E232B8063
:1027F00014E00D4B1B788B4210D10A4B0D491A681F
:102800008B5C03F07F038B540B4A13680133136016
:10281000D0E7002303800320BDE8F0810120BDE85C
:10282000F08100BF783600200D600020E8290020EC
:1028300074360020FC6700207C36002010B40B4B5F
:102840000B491A780023934203DA51F82340A0423F
:1028500009D108490848CA5C62F07F02CA545DF891
:10286000044BFFF753BD0133EDE700BF7436002082
:10287000E8290020FC6700203429002010B5013A27
:102880000A4491420CD20C784B7803EB04239BB2A0
:10289000184480B2834284BF013080B20231F0E735
:1028A00007D10B781B02184480B2834284BF0130E9
:1028B00080B210BD37B5124B124D1C782B796A7956
:1028C000C4EB032313449BB2ADF80630BDF80630C9
:1028D00010FA83F0202205F1080180B2FFF7CEFF45
:1028E000BDF8062004F1280192B22944FFF7C6FF83
:1028F00010B140BA80B201E04FF6FF7003B030BDB6
:102900008036002020600020F8B5244924480E7845
:10291000244B06F12807391802224D781A70ED0071
:1029200007350024954232DBB91800EB010E415CFB
:10293000012925D006D3632906D19EF80110023162
:102940000A4425E001321FE001F0C001802904D0D3
:10295000C02908D0402913D102E04CB11A7007E019
:10296000CCB11A7017E004B11A70037EFF2B12D09D
:10297000324428320221042001F0A8F80220F8BDD8
:102980009EF8011002310A44D2B20124CAE704B110
:102990001A700020F8BD0120F8BD00BF803600206D
:1029A00020600020823600203A20FFF783BF1120EC
:1029B000FFF780BF08B500F0BBFC01F033F901F070
:1029C0000FFE084B08484FF480621A800023194616
:1029D00000EB43120133DBB20A2B1182F8D1034A18
:1029E000137008BD84360020406500208636002024
:1029F00070B5104D2978E1B10F4E328801F12703EF
:102A0000934202DB0023338012E00C4C283A521A26
:102A10002046214405F094F82A7833889B1A9BB20B
:102A20003380283B1A1204F8233C04F8242C00239A
:102A30002B7070BD803600201060002048600020A0
:102A40002DE9F0412B4A2C4E1388144601339BB2DA
:102A5000B3F5FA4F28BF4FF480531A0A42EA032213
:102A600092B200250A2D07D0013506EB451737F83D
:102A7000107C9742F6D1E9E72380204CDFF878C03C
:102A8000002323701F460A2B1BD05D010CEB0506AB
:102A900003F1010EB6F81080174E5FFA8EFEB8F102
:102AA000000F0BD107B1237074192282618268B9BB
:102AB000014610222046FCF745FD13E0734601272E
:102AC000E1E707B123700020BDE8F0810346274607
:102AD00000F1100E186859683A4603C2083373456E
:102AE0001746F7D1064B35441B792B752046BDE8B8
:102AF000F08100BF8436002040650020863600202B
:102B00008066002004282DE9F84F844E00F04A81A9
:102B10008349844A844C0C60052814600F4612D106
:102B2000824B1B681B8A002B00F07A810C3C1460DE
:102B30007F48804A0C6000231380036033807E4B03
:102B400008221A702CE114F83C3C03F0F003602BCF
:102B5000A4F13C0440F06481227963793188120247
:102B6000D018884200F35C81283313443380237AE1
:102B7000FF2B00F0558104F1180000F00BFA60B152
:102B80006E4A6F4B13606F4D6F4B002129701970A7
:102B900091469B4690469A4623E004F1180000F0C7
:102BA000A3FA0028ECD1237EFF2B40F03981E7E720
:102BB0001DD93B2B00F034813C2B1FD19BF80030FA
:102BC000990733D55A065DD443F040038AF80030A4
:102BD000FFF79AFE012800F023812AD3022800F093
:102BE0001A81D9F8000003782C2BE1D118E1112BC0
:102BF0006CD02B2B29D0002B44D102E03A2B41D1B1
:102C000046E09BF80030DA073CD443F001038AF831
:102C10000030FFF779FE012800F00281DED22B7828
:102C200003F128012144C8F8001008E043F0020332
:102C3000CCE72B7803F128012144C9F8001049782A
:102C4000083303EBC1032B70CBE79BF8003003F094
:102C5000040202F0FF01AAB943F004038AF800302D
:102C60002B7803F128002044C27812B103F12A0224
:102C70000AE04178334AC8F80000083303EBC10387
:102C80001370AEE7021B0121042000F01FFFC2E019
:102C9000FFF78AFE4FF6FF73984240F0C1802B7811
:102CA0002833E05C01F0C8FC2B782833E218E05CA4
:102CB000517800F0E9FE012801BF0023214A33804A
:102CC00013703388002B00F0AB80A4E0FFF790FE78
:102CD0003388E28D303B33801C4B3B6098465AB9B9
:102CE000638D002B00F09C80194B104DDFF864B011
:102CF0002B6003F5A07A0CE0FFF759FE4FF6FF7347
:102D0000984240F08D80EBE70B8A2BBB2B68203379
:102D10002B6029685145F7D382E000BF1060002086
:102D20002C650020146000205C60002028650020D5
:102D3000306500203C6500202065002024650020CF
:102D40002660002080360020813600205060002060
:102D50004065002020600020628D9A42D6D14B8AC7
:102D60001BB1BBF828209A42D0D10B682BB94B6815
:102D70001BB98B680BB9CB682BB110222D4804F01E
:102D8000C5FE0028C2D12C4AC7F80080002313607A
:102D90002A4A022111702A4AC2F80080294A138067
:102DA00001F06AFD274B1A88002A39D002F130035E
:102DB000254C9BB23380283B19126371234B217140
:102DC0001B68083252BA197DA2850022E2851A8A50
:102DD00022855A8AE17111216285A1710FCB04F11C
:102DE000180585E80F00294604F1080000F022FAD2
:102DF000174B04F13C021A60FFF7D9FDC04380B2C3
:102E000008B1E08502E04FF6FF73E385602323708D
:102E1000002363706380094B00221A70BDE8F88FAD
:102E20000C4A002313700C4A33801370034A13704A
:102E3000BDE8F88F28600020306500202065002064
:102E4000146000203C6500202060002028650020E0
:102E50002C650020803600208136002040BA80B2E8
:102E60007047020C131243EA02239BB240BA43EAB2
:102E7000004070472DE9F843099D9DF82060994670
:102E80000023044617462B6002FB0108F608444560
:102E90000DD2237843B132464946A01C04F036FED9
:102EA00018B92C60BDE8F8832C603C44EFE72B6830
:102EB000002B14BF01200220BDE8F883F7B5174CA2
:102EC0000091034605460F46164601942022032131
:102ED0001348FFF7CFFF01281CD12368187023681F
:102EE0002846023305F1100250F8041B43F8041B76
:102EF0009042F9D12068877446B13146143002F00F
:102F000053F9064B1B6800221A7701E0012303776F
:102F1000206800E0002003B0F0BD00BF8C36002028
:102F20004467002008B100230370704713B5074CB5
:102F300003468DE81200202203210548FFF79AFF7F
:102F400008B9206800E0002002B010BD8C360020D7
:102F50004467002070B50D4B0D4C0646236003F10D
:102F600060052068A8420FD203781BB9236820337C
:102F70002360F6E7827C3146D208023004F0C6FDB9
:102F80000028F3D1012070BD002070BD44670020EF
:102F90008C36002013B58023074C00930194034620
:102FA000202203210548FFF765FF08B9206800E0EB
:102FB000002002B010BD00BF9036002098660020AF
:102FC0000D4B0E4A30B503F16001136048F2FE0468
:102FD00013688B420CD21D783DB1451C02D09D7CFC
:102FE000854202D15D88A54203D020331360EFE70C
:102FF0000023184630BD00BF9866002090360020A0
:1030000037B580230F4D00930446034601951222E5
:1030100004210D48FFF72EFF01282B460ED12A6808
:1030200010702A682046023204F1100150F8044B57
:1030300042F8044B8842F9D1186800E0002003B040
:1030400030BD00BF88360020F8660020F7B5802329
:10305000204C0093054603460E4617460194202255
:1030600003211D48FFF706FF012830D1236818709F
:1030700023682A46023305F1100152F8040B43F885
:10308000040B8A42F9D12068C77416B9012303756D
:1030900005E0002303753146183002F085F82368F7
:1030A0000E480121997402234370FF22002302700D
:1030B00043808380C38003818372C17202736B7B00
:1030C0004373EB89C381FFF79BFF206800E000207A
:1030D00003B0F0BD903600209866002094360020A2
:1030E00008B100230370704713B58023074C009389
:1030F00001940346122204210548FFF7BBFE08B9DC
:10310000206800E0002002B010BD00BF883600201B
:10311000F866002038B50546C8B10D4802220024E3
:103120004270FF230122C27244808480C4800481E3
:10313000847203730370EB7B43732B8AC381FFF7A5
:10314000D3FF044A106008B1FFF7CAFF2C7038BDE6
:10315000943600208836002070B51C4B1C4C03F1BF
:103160006005236026462068A8420ED2037843B14A
:10317000037D33B9183002F01FF810B13068FFF743
:10318000C9FF236820332360EDE700F0AFFB114C4B
:10319000114B2360264603F160052068A8420ED239
:1031A000037843B1037F33B9143002F005F810B14E
:1031B0003068FFF7B7FE236820332360EDE700F0A7
:1031C00099F90648BDE87040FEF739BF98660020BF
:1031D000903600208C36002044670020A467002031
:1031E00010B508220446104404F09FFC237A83F0B3
:1031F0000203237210BD30B50139451E002315F8B6
:10320000014F11F8012F944203F1080005D1C0B21B
:10321000802801D00346F2E730BD6240C0B21106FB
:1032200006D40133DBB252009842D2B2F7D130BD9E
:10323000184630BD2DE9F84F0A8848F2FE039A423D
:1032400005460F4623D00A78FF2A20D01C491D4A84
:103250000A600024A046894602F1600A9B46D9F81C
:103260000060564517D233786BB1B37C012B0AD17D
:1032700073885B4507D0B11C3846FFF7BCFF80451B
:103280009CBF344680462036C9F80060E7E701203D
:10329000FFF796FE04464CB92C806C80AC80EC8025
:1032A0002C816C81AC81EC81BDE8F88FA31C1234B9
:1032B00053F8042B45F8042BA342F9D1BDE8F88F4D
:1032C000903600209866002010B500F0F7FA78B923
:1032D0000A4C2378022B0BD801F02CF923780848EC
:1032E000013323704FF40071BDE81040FEF79EBE1D
:1032F0000348BDE81040FEF7C1BE00BFA436002061
:10330000B467002070B5094EB0684508FFF7D1F9E1
:103310000446FFF7CEF92402B268A4B22044B0FB01
:10332000F2F302FB1300284470BD00BF806600204A
:1033300070B52A4C00F06EF800F080F96022002190
:103340002748FCF7FFF80021C0222046FCF7FAF8D6
:10335000244B20221A70244B18221A704FF4A063B9
:1033600023604026214B2671A360FFF7CBFF002589
:1033700042F21073E060236125751D4C48F2FE0394
:103380002A463146204623806580A580E580FFF7E8
:1033900095FD20461749FFF723FF294601222046C5
:1033A000FFF754FE40F2FF23238020464FF4807342
:1033B000E3816580A580E58025816581A581FFF792
:1033C0001FFEFFF776F900F07F010B48FEF72EFE97
:1033D0000C210A48BDE87040FEF728BE8066002038
:1033E000446700204167002040670020C027090093
:1033F0009436002018600020B4670020A4670020E5
:10340000014618B1024B186801F0B2BC704700BF0A
:1034100044290020024B0349186801F0B3BB00BFE8
:1034200044290020013402002DE9F8439846134B4B
:1034300005461868914601F0F9FB0446D8B10746E5
:1034400005F11003286869683E4603C608359D42A9
:103450003746F7D1002104F1100084F8219084F858
:10346000228001F0A1FE002104F1180001F09CFE71
:10347000002384F820302046BDE8F883442900204A
:10348000024B0146186801F089BC00BF44290020A6
:1034900070B50C4D0646286801F0ACFB044666B9D1
:1034A000002070BD10223146204604F02FFB38B1B9
:1034B0002146286801F07AFB0446002CF2D1EFE7A0
:1034C000204670BD44290020024B0146186801F0D7
:1034D0003BBC00BF44290020FFF7F6BF08B5102011
:1034E00001F062FD0249BDE8084001F0C4BA00BF26
:1034F000158202002DE9F843394D3A4E28683A4FBB
:1035000001F078FB4FF000080446002C65D094F8D9
:103510002230042B5BD8DFE803F00D035A2331007F
:1035200004F1100001F048FE002850D0022384F876
:1035300022304CE094F82030022B2BD804F11809EB
:10354000484601F039FE002841D0318800293ED19B
:1035500094F82030013384F82030224608462CE0CD
:1035600004F1100001F028FE88B3042384F822300F
:1035700084F82080002104F1180026E094F820301F
:10358000022B0BD9204600F051F918B1037F0BB97B
:1035900000F02AF92046FFF733FF18E004F118097C
:1035A000484601F009FE90B1308880B994F8203087
:1035B000013384F820302246214600F017FF4846A8
:1035C00039694FF47A73B1FBF3F101F0EDFD214657
:1035D000286801F0EBFA044697E7BDE8F88300BFDE
:1035E0004429002010600020806600202DE9F84367
:1035F00005460F48DFF840900F469046FEF7D5FF8E
:10360000044694B1012D04D80A48FFF700F8034698
:1036100001E0D9F800306668424639462846B0478E
:103620002046FEF7FBFF0446EBE7BDE8F88300BF4A
:10363000783E0020103A0020083A002008B50B48D8
:10364000FEF7EFFF0A48FEF7ADFF0A4B0A4918687C
:1036500001F098FA0948FEF7E4FF0948FEF7A2FFD7
:103660000848BDE80840FEF79DBF00BF782900204C
:10367000B43A002074290020E537020058290020C0
:10368000103A0020783E002008B540B1044B416854
:10369000186801F083FBBDE80840FFF71DBF08BDB7
:1036A000742900200148FEF780BF00BFB43A002013
:1036B00008B1FEF7B3BF7047F8B50746FFF7F2FF52
:1036C000002504462E46A4B194F8242095420BD838
:1036D000D20804F10801384604F018FA20B994F829
:1036E0002450802D07D026462046FFF7E1FF0446F0
:1036F000E9E76EB134460748FEF757FF844207D02A
:1037000021460448FEF75BFF21460248FEF777FF9B
:103710002046F8BDB43A002038B5044600283ED013
:103720004368002B3BD001461D48FEF748FF636805
:103730005868FEF73AFF054630B143689C4207D00F
:103740002846FEF76BFFF6E704F1080001F0AAF83F
:10375000636829465868FEF732FF63685868FEF7C9
:1037600024FF28B9636859680E4B186801F000FB04
:1037700021460D48FEF779FF29460C48FEF775FFF4
:103780000B4A13682046013B1360FFF77DFF04F1ED
:1037900008010246BDE838400320FFF727BF38BDC7
:1037A000B43A0020742900207829002084290020C0
:1037B000083A002010B5044680B1406870B1FEF7A9
:1037C000F4FE20B14068FFF7A7FF6068F7E7044BFD
:1037D00021461868BDE8104001F0CABA10BD00BF0C
:1037E00074290020FFF7E6BF38B505460D48FEF7FF
:1037F000DCFE0446A0B1AC420ED121460948FEF7DA
:10380000DEFE21460848FEF730FF221D114601204A
:10381000BDE83840FFF7EABE2046FEF7FFFEE8E7C6
:1038200038BD00BF103A00205829002038B50546A1
:103830000848FEF7BAFE044648B110222946201D6A
:1038400004F064F918B12046FEF7E8FEF3E72046DD
:1038500038BD00BF103A0020F8B505460F46FFF707
:10386000E5FF044640B91348FEF7EBFE0446F0B10D
:1038700001461148FEF7C3FE2B46261D05F1100E2A
:1038800018685968324603C2083373451646F7D1A3
:1038900037B1394604F1140001F086FC002300E042
:1038A000012323772A4629460020FFF79FFE204662
:1038B000F8BD00BF58290020103A002038B50A484A
:1038C000FEF773FE0025044664B1251D2846FFF768
:1038D000DFFD10B190F8223023B92046FEF79EFE9E
:1038E0000446F1E7284638BD103A002010B50A48D2
:1038F000FEF75BFE044670B1237F43B904F1140068
:1039000001F05AFC18B12046FFF76EFFEFE72046A2
:10391000FEF784FEEEE710BD103A00202DE9FF47C8
:10392000224C234D94F8078004F108030FCB8DE857
:103930000F002B786F46BBB11E493A22A2710A884C
:10394000D21A92B20A80A2F128010812207103F162
:1039500028002044C3F1040361712C3A011D18446E
:1039600004F0EEF800232B701348DFF848A0FEF7B0
:103970001CFE06469EB1D6F80490B9F1000F09D09E
:10398000BAF800302A782C3B22449BB238324146A8
:103990003846C8473046FEF741FE0646EAE7054B83
:1039A0002E701E8004B0BDE8F08700BF20600020AC
:1039B0008036002010600020B43E0020F8B52C4B6B
:1039C0002C4C1B79E371237EFF2B04F1180604F1C4
:1039D000080508D195E80F0086E80F003146284613
:1039E000FFF728FC1BE0244A2F46B6463B4603CB94
:1039F0007345106051601F4602F10802F6D196E847
:103A00000F0085E80F001C4B1C4D03F110061868D1
:103A100059682A4603C20833B3421546F7D1184DF8
:103A20002B78BBB117493A22A2710A88D21A92B2F6
:103A30000A80A2F128010812207103F12800204415
:103A4000C3F1040361712C3A011D184404F078F8A5
:103A500000232B702B782833E5188122E2540023B1
:103A60006B706B80FEF7A0FFC0436880F8BD00BF9D
:103A70008066002020600020A43E002038600020E6
:103A8000803600201060002038B504460B480D46F3
:103A9000FEF78BFD50B10379A34204D143799D42D7
:103AA00006D0FF2B04D0FEF7B9FDF3E7012038BDA7
:103AB0008368002BFAD09847002038BDB83E00201C
:103AC00001460148FEF78EBDB83E00202DE9F74FB4
:103AD0004D4D4E4C2B7881468846924643B1283353
:103AE000E35C3A2B0BD14A4A002313802B7087E00A
:103AF000A3793A2B03D194F92830002BF3DA454E01
:103B0000454A00232B7006F1100E37469346334684
:103B100003CB7345106051601E4602F10802F6D1D6
:103B20003B4E338830339BB2B3F5A06F88BF4FF460
:103B3000A06333803288354B01931946303A03F144
:103B4000300003F0FDFF60222978227000226270AD
:103B50006280019B3A2211B183F8282000E09A711B
:103B60002E4A2A4B1279E271228972B95A8962B9B6
:103B70009A8952B9DA8942B91A8A32B95A8A22B96B
:103B80009A8A12B9DB8A002BADD0DFF894E09EE868
:103B90000F0087E80F009BF80030FF2B0AD1B9F126
:103BA000040FA0D1B8F1020F9DD11B497046FFF759
:103BB00041FB0AE0184B03F1100718685968724678
:103BC00003C20833BB429646F7D12F7807F128038A
:103BD000E21804F80390504682F80180FFF741F99B
:103BE00033882C37283BE0511A1263712B782271ED
:103BF00028331C4400236380FEF7D6FEC043608058
:103C000003B0BDE8F08F00BF8036002020600020A8
:103C10001060002038600020A43E00208066002054
:103C20002860002008B50448FFF74AFF0348BDE8B4
:103C30000840FFF745BF00BF902900209C290020C5
:103C400010B5022304460170437008220549184448
:103C500003F06BFF04F10A0006220021BDE81040CA
:103C6000FBF770BC186000202DE9F04FAE4CAF4E52
:103C7000E379DFF8DC92FF2B85B040F09381228955
:103C800048F2FE039A4240F08D813378E21892F8B0
:103C90002920002A40F086812C331A191B5D0BB1B4
:103CA000A3490B71506870B1A14DAF68FFF7D9F807
:103CB000874208D033782344186BFFF7D2F8A86006
:103CC000FFF720FBE86033782344586B18B1FFF707
:103CD000C8F8974B1861974F974D0C233B70A84637
:103CE000337803F12C023B781344B9F80020934257
:103CF00080F23481E2185178002900F05381E35CAE
:103D0000032B4FD0052B47D0012B40F00381DFF868
:103D100030B28A48CBF80020FFF7BAFBDFF82CA2BC
:103D2000CAF8000088B9DBF8001029B10822023176
:103D30000DEB020003F0F9FE0223012202A97F48E5
:103D4000FFF772FBCAF80000E4E0FFF799FBDAF82E
:103D5000002092F82210034611B9022182F82210A5
:103D6000DBF80000019319460822023003F0CEFE72
:103D7000019B58B1724A116818460822023103F0BB
:103D8000D4FEDAF80030022283F82220DAF800307C
:103D9000012283F82120BDE05068FFF762F8644BF0
:103DA0001860B7E050682A60FFF75BF82B6882461E
:103DB0009868FFF756F88245C0F0AC802868028A00
:103DC00048F2FE039A4200F0A58090F90330002BE0
:103DD00034DA8178DFF87CB11030FFF7A7F82B6870
:103DE000CBF80000024688B9586838B3411C03F18B
:103DF000100A997804D00191FFF733F8019902462F
:103E00005046FFF75BF8CBF8000017E05B6823B182
:103E1000591C05D10123037710E0FFF783F80DE06B
:103E200001901846FFF71DF8019A014602F11400AF
:103E300001F0BAF9DBF8003000221A77D8F8003028
:103E4000DA78500666D55A68002A63D09A78402AF4
:103E500060D1DFF8F4E003F1200C10331A4603CAF6
:103E60006245CEF80000CEF8041013460EF1080E9D
:103E7000F4D134493448DFF8E0A0FFF7B1F9324813
:103E8000FFF788F80346CAF8000080B3C27C012A15
:103E90002DD1D8F800104868411C26D0FEF7E1FF6C
:103EA000B0F5E15F0BD9DAF80000D8F8003000F186
:103EB000180B5868FEF7D5FF0146584610E02B68EE
:103EC0005868FEF7CEFF8346DAF80000183001F09C
:103ED00083F98345E7D8DAF800004FF4E151183050
:103EE00001F062F9DAF8003000221A7512E0D8F811
:103EF00000305868FEF7B5FF013002D101220021E1
:103F000005E02B685868FEF7ACFF012201460E4819
:103F1000FFF79CF833783A782C33134423445B78CA
:103F200002EBC3023A70DBE62060002080360020FE
:103F300080660020CC3E0020BC3E0020286000208F
:103F4000C83E002018600020D43E0020C43E00205F
:103F500010600020C03E0020D03E00201548FFF732
:103F600065FC154B1B782C331C4405466388B3B1A4
:103F7000124B1B6813B1012283F82120608835B9E8
:103F8000FEF76CFF01460B48FFF766FC0AE0FEF700
:103F900065FF014605F1140001F006F902E008B1E1
:103FA000FFF722FC0023A9F80030337005B0BDE80C
:103FB000F08F00BF2860002080360020C43E002023
:103FC0002DE9F74F704CDFF8E081E379FF2B40F0EB
:103FD000CF8098F80010631893F82930002B40F038
:103FE000C7802C3101EB040C9CF80430FF2B00F04F
:103FF000BF8011F804B00BF0400303F0FF02009201
:104000001BB1237EFF2B00F0B380604D6048614EF2
:104010002D8801950022142303703260174615463F
:104020008246019803EB010E864518DA04EB0E096F
:1040300099F8010040B90FB156490D60002A00F00F
:1040400097808AF8003093E014F80E2003EBC00349
:10405000022A04BF4D460127DBB20122E1E70FB17E
:104060004C490D600AB18AF800300CF10400FEF7EB
:1040700091FF494B186000287AD198F8000020443D
:104080003030FFF705FA454C2060FFF7F9F9236857
:104090008146002B6CD0306830B10822494602308E
:1040A00003F034FDC5B200E0054622683B4B92F8B0
:1040B00022A001932BF07F07FFB2BAF1000F1FD1AE
:1040C0003168002954D008220231484603F02DFD02
:1040D0009DE80C007AB11868012380F82230304B3B
:1040E00080F820A0D96810304FF47A73B1FBF3F157
:1040F00001F05AF839E01B68022283F8222034E0EC
:104100001BF0200F07D135B1BAF1010F30D10223D6
:1041100082F822302CE0316891B3082202314846FF
:1041200003F003FD009B6BB12068012380F822306F
:104130001B4B1030D9684FF47A73B1FBF3F101F0E7
:1041400033F807E0134B1B6823B11DB1236802222B
:1041500083F82220236893F8213033B12FB9114816
:10416000FFF764FB08B1FFF73FFB236883F821707A
:10417000064A0023138088F8003003B0BDE8F08FB2
:10418000009B002BD0D1E5E72060002010600020CC
:10419000CC3E0020C83E0020D03E0020C43E00207F
:1041A0008066002028600020803600202DE9F74F2F
:1041B000844C854EE379DFF82C92FF2B40F0FA8097
:1041C0003378E21892F83020FF2A00F0F38023447D
:1041D00093F82920002A40F0ED807C4B7C4F1A6038
:1041E000DFF804A214223A709846254630783B78CE
:1041F000B9F800202C300344934257DAE218517882
:10420000002900F0D780E35C012B45D12B89C8F849
:1042100000207BB96B896BB9AB895BB9EB894BB972
:104220002B8A3BB96B8A2BB9AB8A1BB9E38A002B6B
:1042300000F0C0806748FFF72BF9CAF8000070B99A
:10424000D8F8001021B108220231684603F06DFC55
:104250000223002269465F48FFF7E6F81CE0FFF7FB
:104260000FF98346D8F8000008225946023003F0BF
:104270004DFC48B1554B196808220231584603F0ED
:1042800054FCDAF8003004E0DAF8003093F8222029
:1042900012B9022283F8222033783A782C3313445F
:1042A00023445B7802EBC3023A709FE7204404305A
:1042B000FEF770FE484B434D18609846002879D0B1
:1042C0002B8973B96B8963B9AB8953B9EB8943B94E
:1042D0002B8A33B96B8A23B9AB8A13B9EB8A002BCB
:1042E00068D03C4D2846FEF755FE2F46002861D188
:1042F000228B40F2FF239A42A5F1080E05F1100C23
:1043000019D16B8ABBB9AB8AABB9EB8A9BB92B8B42
:104310008BB96B8BB3F5807F0DD12B7FFF2B0AD12F
:1043200095E80F008CE80F003378734430330FCBDF
:1043300085E80F0011E0294D2846FEF72BFED8F83E
:104340000030834236D197E80F0085E80F003378BC
:10435000234430330FCB87E80F00282262713A22C2
:10436000A271D8F800101E48FF2200256023E271D8
:104370008822237084F82C3084F82820657010225D
:104380006580257184F829500231357003F0CDFB2A
:104390003078403020440221FFF752FC3378283334
:1043A0001C446580FEF700FB5023C0436080A9F8E1
:1043B000003003E00023A9F80030337003B0BDE8FB
:1043C000F08F00BF2060002080360020C83E002013
:1043D000CC3E002028600020D03E00203860002025
:1043E0005060002010600020C43E00202DE9F04104
:1043F0004C4C4D4F00233B70637063803A238046E2
:10440000A3716020FF232070E37199B96183A183B8
:10441000E183218484F82210022001212376607632
:1044200084F8231084F82430537B84F82530D38912
:10443000E3840CE00B4604F1180601F1100E186835
:104440005968354603C5083373452E46F7D187238F
:1044500084F82830354E002384F82930E36202F1D5
:10446000100E134618685968354603C5083373455E
:104470002E46F7D10026267110462A4DFEF78AFDFA
:10448000002836D1B8F1000F0CD04346083508F1AA
:104490001006186859682A4603C20833B342154605
:1044A000F7D105E005F1180105F10800FEF7C2FE9D
:1044B00022891C4B1E4D8AB95A897AB99A896AB9E0
:1044C000DA895AB91A8A4AB95A8A3AB99A8A2AB9F1
:1044D000DB8A1BB92B803B70BDE8F081387828233C
:1044E0004030637101212044FFF7AAFB50232B8049
:1044F0000CE018236B710E4B2E8140226E81AE8131
:10450000EE812E826E82AE82EE821A803B78283354
:104510001C4400236380FEF747FAC0436080BDE877
:10452000F08100BF20600020803600205060002015
:104530001060002070B5274C602323703A23A371CC
:10454000FF23E37140F2FF23002523834FF4007320
:10455000657065806583A583E58325846584A5846E
:10456000E38404F1180104F10800FEF763FE1A4A1F
:10457000137803F12801081985260E554570218905
:10458000257103F130001546144A89B9618979B95A
:10459000A18969B9E18959B9218A49B9618A39B9C9
:1045A000A18A29B9E18A19B908236371108007E04B
:1045B000403313801823637101212044FFF740FB2F
:1045C0002B7828331C4400236380FEF7EDF9C043A9
:1045D000608070BD206000208036002010600020C8
:1045E00008B50548FFF76CFA0448FFF769FA044874
:1045F000BDE80840FFF764BAB4290020C0290020B4
:10460000A8290020024B1B6803B1184718467047C1
:10461000F43E0020014B1860704700BFF43E0020BC
:1046200010B51446FEF70CFA18B1024BC4611B68B2
:10463000836110BDC833002007B5074B8DF8070014
:10464000186828B1054B0DF107021978FDF73CFEFB
:1046500003B05DF804FB00BF34650020C56700208F
:1046600008B5002202210448FDF72EFE034A00236C
:104670001380034A137008BDCC290020106000206D
:104680008036002070B53A4D2B88002B6ED0B3F5E4
:10469000A06F67D8374B1A8B72B95A8B62B99A8B55
:1046A00052B9DA8B42B91A8C32B95A8C22B99A8C27
:1046B00012B9DA8C002A55D01B7EFF2B4FD02E4822
:1046C000FEF748FC90B92C48FEF7F6FF044620B9E7
:1046D000FFF7F4F8064650B944E0FEF7D5FF06466A
:1046E00028B92046BDE87040FFF716B8224E304684
:1046F000FEF7CEFE0446F8B90346024601463046B0
:10470000FEF792FE064668B31C48FEF743FC3246AD
:10471000014608B119482146FFF768FE184B06F11B
:10472000180019694FF47A73B1FBF3F100F03CFD06
:10473000012386F8203012E090F8223093B1022B4A
:1047400009D1032380F822300521103000F02CFD20
:10475000002384F820302046FEF792FE00E000207F
:10476000FFF750FF074A00232B80137070BD00BF76
:1047700010600020206000203860002028600020A9
:10478000806600208036002038B503880546144630
:104790003BB140F23632934216D00023038003200F
:1047A00038BDFDF701FD2C4B1870FDF7FDFC2B4BC0
:1047B000402118702A48FDF739FCFEF7FBF840F25B
:1047C00036332B80012038BD02290CD1254C23889B
:1047D000002BF4D00120FEF795F92388002BEED0B2
:1047E000FFF750FFEBE709D80129E8D1002CE6D00C
:1047F0001D4B05201C60FEF785F9F1E787290BD1D9
:104800001A4B002103F5A0729869844208BF1982EF
:1048100020339342F8D3D2E78829D0D1104B9C4261
:1048200003D12046FDF71DFCC9E7114B9C4207D17F
:104830002046FDF716FC18B1FEF746FDFFF722FFF4
:104840000C4B9C42BBD12046FDF70BFC0028B6D098
:10485000FEF782FCC4E700BFC4670020C5670020E4
:10486000E43E002010600020286500204065002004
:10487000B4670020A4670020074B1B680BB12833E6
:1048800002E0064B1B681833186820B15A68044BC5
:104890001978FDF719BD70473065002028650020A4
:1048A000C4670020F7B5054628B9224803B0BDE823
:1048B000F040FCF791BB0388ABB94488ACB983885E
:1048C000A3B9C4888CB9038983B941894FF6FF72B3
:1048D00091420AD1837B427B017BC07B00901648CA
:1048E000FCF77AFB24E0002400E01C462646AB19C6
:1048F000AF5D5B7803EB0727BFB24FB9002C09DB34
:1049000001D0013411E00D48FCF766FB01240CE0F6
:10491000002C04DC2EB10A48FCF75EFB01E04FF0EE
:10492000FF3439460748FCF757FB0236102EDED11C
:1049300003B0F0BDD9810200E8810200FB810200D2
:10494000FC810200FE81020038B5054608B1002452
:1049500004E00848BDE83840FCF73EBB295D064846
:104960000134FCF739FB082C03D00448FCF734FB76
:10497000F4E738BD0182020010820200FC810200CF
:10498000F8B5037800245B2B0E4608BF01304FF0CA
:10499000FF32214603783A2B04D01BB15D2B01D0A6
:1049A0002F2B12D10D0A355535190234697073B3A6
:1049B0005D2B2CD02F2B2AD041783A291DD1B2F172
:1049C000FF3F08BF2246013017E0A3F13005EFB2E8
:1049D000092F0ED9A3F16105052D02D8A3F15705C2
:1049E00007E0A3F14105052D01D90020F8BDA3F191
:1049F000370505EB011189B200E000210E2C00F112
:104A00000100C7D91BB15D2B01D02F2BEDD10F2C8D
:104A10000FD8531CE9D0101BB5181030A21A294624
:104A2000304403F08DF8C4F1100200212846FAF753
:104A300089FD0120F8BD000010B50A4C79B10A4B80
:104A40002280B2F59A6F1860A8BF4FF49A620748A7
:104A500003F076F80420FEF755F8FFF713FE002365
:104A6000238010BD3C650020286500205060002098
:104A7000082203F05AB808B5082203F047F8B0FA44
:104A800080F0400908BD000001460148FFF7F0BF73
:104A9000C667002038B14B1C04D04268C36802FBD3
:104AA000013070470020704730B1054B9B68C01A39
:104AB000044B8010584370474FF0FF30704700BFE1
:104AC000DC290020ABAAAAAA30B129B1C36840688A
:104AD000C91A91FBF0F070474FF0FF30704770B586
:104AE0000C460546114620461E46FFF7EDFF0146DF
:104AF0006CB1431C0DD022686B5C012000FA02F2FD
:104B00000EB11A4301E023EA02026A5470BD204646
:104B100070BD002070BD000038B50D4D002818BFD5
:104B200005460C48FDF741FD044668B1211D2846A5
:104B3000FFF7A1FF20B12046BDE83840FFF7B4BF22
:104B40002046FDF76BFDEFE74FF0FF3038BD00BFAB
:104B500015820200203F002008B50246FFF7B4FF8F
:104B60004AB1431C09D0064B1B5C106843FA00F0A5
:104B700000F0010008BD104608BD002008BD00BFC0
:104B80001440002010B5074A1368072B9FBF5C1C18
:104B90001460054A03609DBF42F823008160012034
:104BA000002010BD4840002028400020F8B5104EDD
:104BB00005460C460C2721462846FFF785FF431C77
:104BC00016BFB368002007FB0030FDF727FDFFF795
:104BD0006BFF01462846FFF75DFF044628B10146FA
:104BE0002846FFF7B9FF0028E5D02046F8BD00BFF2
:104BF000DC29002038B505460B48FDF7D6FCFFF749
:104C000053FF01462846FFF745FF04460146284664
:104C1000FFF7A2FF28B921462846BDE83840FFF734
:104C2000C5BF204638BD00BF203F00202DE9F84F0A
:104C30003F4E002918BF0E4607463046FFF76CFF6F
:104C40000546013062D13B48FDF7FBFC04460028D5
:104C500050D13948DFF8E890DFF8E0A0FDF7A5FC77
:104C6000A0460546C5B12846FFF71EFF19F80030DB
:104C70006BB91AF8002022B1D10748BF0133521096
:104C8000F9E70CB1434502DA4BB12C469846284669
:104C9000FDF7C4FC0546E5E7002C46D02546DFF8C5
:104CA000A4B000245BF82480B8F1000F14D0D8F829
:104CB0000890B9F1000F0FD02846FFF7F5FE014626
:104CC0004046FFF7E7FE014682464046FFF744FFB5
:104CD000012801D15046C8470134082CE2D12846AA
:104CE000FFF7E2FE154B00221A5429461248FDF741
:104CF00066FC2C4621461048FDF774FC2046FFF761
:104D0000D3FE31460546201DFFF7B2FE2946384640
:104D1000FFF7C0FE7A6804460021FAF713FC01236E
:104D2000224639460548FFF7DAFE2046BDE8F88FEF
:104D300015820200DC290020203F002014400020C2
:104D40000C3F00202840002038B505460846FFF7F4
:104D5000E3FE01462846FFF79DFE0446014628462D
:104D6000FFF7FAFE002814BF2046002038BD0000DF
:104D700070B50A4604460D46002301460548FFF774
:104D8000AEFE002306462A4621460348FFF7A7FE4B
:104D9000304670BD144000200C3F002008B5FFF7DE
:104DA00093FE431C07D0054B9B680C2202FB00308E
