:020000021000EC
:10F0000000000120F9730200297402002B74020031
:10F010002D7402002F740200317402000000000001
:10F020000000000000000000000000003374020037
:10F030000000000000000000357402003774020078
:10F040003974020039740200456B02003974020001
:10F050003974020039740200396202003974020006
:10F0600039740200B165020039740200397402007B
:10F0700039740200397402003974020039740200D4
:10F080000D66020015640200397402003974020032
:10F090003974020039740200356E020039740200BE
:10F0A00039740200397402003974020039740200A4
:10F0B00039740200397402000000000000000000F2
:10F0C0003974020039740200397402003974020084
:10F0D00039740200397402000000000000000000D2
:10F0E0000000000000000000000000000000000020
:10F0F0000000000000000000000000000000000010
:10F1000000000000000000000000000000000000FF
:10F1100000000000000000000000000000000000EF
:10F4000010B5054C237833B9044B13B10448AFF35E
:10F4100000800123237010BD3C2A00200000000062
:10F42000FC860200084B10B51BB108490848AFF331
:10F4300000800848036803B910BD074B002BFBD0C0
:10F44000BDE81040184700BF00000000402A00201F
:10F45000FC8602003C2A002000000000154B002B17
:10F4600008BF134B9D46A3F5803A00218B460F46FB
:10F470001348144A121A00F065F80F4B002B00D005
:10F4800098470E4B002B00D0984700200021040025
:10F490000D000D48002802D00C48AFF3008000F0AA
:10F4A0002BF82000290000F0F3FF00F011F800BF56
:10F4B0000000080000000120000000000000000023
:10F4C0003C2A0020C0650020000000000000000071
:10F4D00008B5074B044613B10021AFF30080054B7C
:10F4E0001868836A03B19847204600F033F800BFDC
:10F4F00000000000047F020070B50E4B0E4CE41AB1
:10F50000A41000251E46A54204D056F82530984781
:10F510000135F8E708F0E8FC084C094BE41AA410A0
:10F5200000251E46A54204D056F8253098470135DF
:10F53000F8E770BD342A0020342A0020382A002041
:10F54000342A002002440346934202D003F8011BF0
:10F55000FAE77047FEE700BF10B50388044613B111
:10F56000272B06D009E000F013FF0649064800F0FB
:10F570002FFF27232380012010BD002303800320B9
:10F5800010BD00BF107F020070280020014B024810
:10F59000DB6D1847947F020070280020F8B50F4CEF
:10F5A0000D461F46D4F8B410E3692846164698471E
:10F5B000E46C02F05FFA39460346094A304601F02E
:10F5C00025F8314602462846A04702F053FABDE826
:10F5D000F8400146034800F0E1BF00BF947F0200FD
:10F5E000437F02002D7F020038B50C46054614F813
:10F5F000012915F801190A4800F0D0FF15F8013F5C
:10F6000014F8010F834203D1002BF7D1012038BD3C
:10F610001BB9B0FA80F0400938BD002038BD00BFEA
:10F620003F7F02002DE9F7431B4CDFF88890A36C65
:10F630001A4E8846694698470025D9F800309D4201
:10F6400020DA56F825200099154800F0A7FF56F853
:10F650002520144901A800F0F1FF009901A8FFF747
:10F66000C3FF074630B1104800F098FF012002F0B8
:10F6700003FA07E00D4800F091FF384602F0FCF96C
:10F680000135DAE7E36D0A4898476369E16E404661
:10F69000984703B0BDE8F083947F020098280020CB
:10F6A000467F0200437F02004E7F0200687F020017
:10F6B0007028002094280020014B1860704700BF7C
:10F6C000002B002080790123013803FA00F0C0B23A
:10F6D000704700002DE9F04F038887B081463BB1A9
:10F6E00040F27912934213D0002303800320A8E153
:10F6F000A548A64900F06CFE00F0B6F943F21630BA
:10F7000005F0A6F840F27913A9F80030012098E13D
:10F710009F4B1B788B4240F08E819E4D00232B70B7
:10F720009D4B1B789807EDD59C4E9D4B9D4C3168A9
:10F730001A88204605F04EFAB046074628709A4EC1
:10F74000002840F01A81A379013B032B00F2D880F6
:10F75000964B97491B7820892833CA5A083100F004
:10F760008DF93060002800F0C5802023ADF80A3004
:10F7700063790397049705971BB9238945220221D2
:10F7800004E005F079F8452203460121894805F097
:10F790007BF8A27A1AB18849864805F0C2FB04AB0F
:10F7A000009300220DF10A0303A97E4805F08FFCA7
:10F7B00040B1BDF80A30202B28BF2023ADF80A3015
:10F7C000049B05937D4BD3F800A0BAF1000F00F025
:10F7D0008D803268774FDFF8CCB1BDF80A3005A9CB
:10F7E0000091743239465846D047BA4600286DD049
:10F7F0002B78002B40F0B8809BF8163019070DD5F8
:10F8000097F90630002B09DBBB7D1A0706D4614B44
:10F81000A1221A706A4B6B4A1A6057E094F91530AE
:10F82000059A002B3FDA049B9A4221D1BAF89E1028
:10F83000604F8A4204D38223BB710F22624930E0B9
:10F84000BDF80A308A1A9A4294BF00220122039915
:10F85000384605F055FC0499B7F89E30BDF80A20EB
:10F86000D7F8A0005B1A9A4228BF1A46014418E054
:10F8700001320399BDF80A3006D1BAF89E209A42A7
:10F8800094BF0022012200E001224A4F384605F0D1
:10F8900037FCBDF80A20BAF89E30934216D9D7F843
:10F8A000A010384610E0A2B1013218BF0122002199
:10F8B0002023404805F024FCBAF89E20DAF8A01076
:10F8C0003C481F2A88BF202205F051FC2B78002BD2
:10F8D0004AD13768374807F1360104F0E3FF80B2B8
:10F8E000B886002840D1C1232B703DE0A1232B70A6
:10F8F000364A02E0A323364A2B70314B1A6033E0BC
:10F90000636823F07F4323F0FF0313B9C3232B70F5
:10F910000BE06379032B08D1244B25481B782289FF
:10F920002833C15A083000F0DBF9208900F02AF9A9
:10F93000306040B1C76AD0F830A000F0C1F817B10C
:10F9400018495046B847002333606379154A012BA4
:10F950000AD8D37C5B0607D5144B15481B7828338F
:10F96000C15A083000F006FC2B783BB930680028FB
:10F970003FF4C8AE00F0BAF8C4E62B783068C22B6A
:10F9800028D100F09DF8BDE6C8280020A080020024
:10F9900080650020FC420020DC620020E86200203C
:10F9A000CC5D0020042B0020582A0020F0330020DA
:10F9B000DC5D00205C2A00200F2B0020002B0020A3
:10F9C000082A0020B1800200C1800200D18002001C
:10F9D000E280020000F074F82A781B4BC32A03D19E
:10F9E00000221A70032104E0BF2A84BFA0221A70EB
:10F9F00002212A782389154804F046FF144B1C681D
:10FA0000204608F040FA214602461048114C05F005
:10FA1000AEFB114BD8F800501B780C482833294610
:10FA20001E5B04F03FFF2A4683B2314604F1080012
:10FA300005F0AAF866E688297FF464AE00F0B0F815
:10FA400060E607B0BDE8F08FFC420020042B0020E8
:10FA5000082A0020DC5D0020F0330020002101484E
:10FA600001F040BFA0280020024B1A68024B1A6028
:10FA7000704700BF38310020AC2B0020F8B5074696
:10FA80000D480D46164602F0E2F8044690B10023F8
:10FA900003768780294600F11A0305F1100251F818
:10FAA000040B43F8040B9142F9D1668521460348C3
:10FAB00002F09EF82046F8BDB0280020A82B0020B8
:10FAC00010B5044660B1083001F0DCFD2146054860
:10FAD00002F07BF821460448BDE8104002F0CBB8A4
:10FAE00010BD00BFA82B0020B02800202DE9F04158
:10FAF000044600F11A07838E418D00F13602384624
:10FB000005F042F894F83650C5F3011575BB237E15
:10FB1000032B1AD853B902F0D2F8C023B0FBF3F28A
:10FB200002FB130000F28110E06002E0E3685B007A
:10FB3000E360124D124B2E681B682B6004F1080025
:10FB400001F08AFD2E60BDE8F081E66A618DD4F88F
:10FB50003080384600F04AF82046FFF7B1FF56B132
:10FB6000294640463346BDE8F04118472046BDE8E7
:10FB7000F041FFF7A5BFBDE8F08100BF383100209C
:10FB8000AC2B002010B50446044802F014F820B154
:10FB90008388A34201D00068F9E710BDA82B00209C
:10FBA00010B5094802F007F8044664B104F10800F2
:10FBB00001F05BFD28B1237E013323762046FFF759
:10FBC00095FF2468F1E710BDA82B002010B5014671
:10FBD0000446044802F04FF821460348BDE81040AF
:10FBE00001F0F3BFBC280020482F0020F8B50646DE
:10FBF0000C480F4601F0DFFF002504467CB11022BF
:10FC0000314604F1180008F0FBF830B9238DBB42EF
:10FC100003D12046FFF7DAFF01352468EEE72846D6
:10FC2000F8BD00BF482F00202DE9F84307461348D0
:10FC3000884691461E4601F0BEFF00250446D4B119
:10FC40001022394604F1180008F0DAF888B9238D3B
:10FC500043450ED194F82A30B3420AD13246494680
:10FC600004F12B0008F0CCF818B92046FFF7AEFFDE
:10FC700001352468E3E72846BDE8F883482F0020D3
:10FC80002DE9F843074615488946904601F093FF51
:10FC900000250446F4B11FB9261D46450BD113E0DB
:10FCA0001022394604F1180008F0AAF880B9238D13
:10FCB0004B450DD1F0E7304608F0E5F841460246E5
:10FCC000304608F09DF818B92046FFF77FFF013550
:10FCD0002468DFE72846BDE8F88300BF482F0020EE
:10FCE0002DE9F04106460F480F46904601F063FFAC
:10FCF0000025044694B11022314604F1180008F0A2
:10FD00007FF848B9238DBB4206D1A38E434503D16A
:10FD10002046FFF75BFF01352468EBE72846BDE886
:10FD2000F08100BF482F00202DE9F0478046DAB06F
:10FD300040680D4608F0A7F813220446D8F80410CE
:10FD400003A808F0BDF8122C07DC35B103ABC4F1F1
:10FD500013022946181908F0B3F800252B4645224E
:10FD6000012108A88DF81F5004F08EFD2B460122BA
:10FD7000294631A804F088FD03A931A805F046F909
:10FD800003A808F080F881462E4801F014FF4FF0D8
:10FD9000140A0446002C51D0261D304608F073F892
:10FDA000814509D048DA98F80830DB0644D504EBE1
:10FDB00009031B792F2B3FD14A46314603A808F08F
:10FDC0006AF8002838D104F057FD228D04F118019B
:10FDD000FFF754FE064678B3A26B92FBFAF30AFBD8
:10FDE00013230BB98DF82530B388A386B388ADF8FB
:10FDF000283000953023D8F8107006F1740208A955
:10FE000031A8B8479DF92630002B05DBA16B4B1CB0
:10FE1000A36308A805F054F994F82A2004F12B01F3
:10FE200008A805F07EF806F1360108A804F03AFDAE
:10FE3000B0863046FFF75AFE2468ABE75AB0BDE8FB
:10FE4000F08700BF482F00200021FFF76DBF0000A2
:10FE50002DE9F74F8B79012B15466AD192F90630BF
:10FE6000002B66DBCB7C5B0663D54E6E002E46D145
:10FE7000314BDFF8D0A01B78D1F860B08F7AD1F881
:10FE80005C9028335A4633F80A800AF1080001F1E1
:10FE90000B0341460193FFF7F3FE284801F0D7FE1C
:10FEA000044600283BD0B9F1130FA8BF4FF0130947
:10FEB0004A465946043007F0B2FF04EB090304F147
:10FEC000180E1E710AF108030FCB8EE80F003A4698
:10FED0000199A4F8288084F82A7004F12B0007F017
:10FEE0009EFF2146A686164801F082FEA16B284699
:10FEF0004B1CA36303B0BDE8F04F05F0E1B8012E41
:10FF000017D10D4B0F481C788B7A283401F10B0266
:10FF1000015B083003B0BDE8F04FFFF785BE0A492A
:10FF2000A32310222846AB7103B0BDE8F04F05F0C3
:10FF30001EB903B0BDE8F08FF0330020BC280020CC
:10FF4000482F0020DC5D0020068102002DE9F84FDB
:10FF50000A9F8B4691461E4600F054FA01F02BFE94
:10FF6000002480462546B8F1000F77D04DB13B689C
:10FF70009D4205D3B4423EBF2C2309F8043001341E
:10FF800001353B689D4205D3B4423EBF3C2309F88E
:10FF9000043001343A686B1C934205D3B4423EBF2F
:10FFA0002F2309F804300134D8F8040007F06BFF60
:10FFB00002353B6805EB000A9A4510D9D8F80420B1
:10FFC0005B1B711C002BACBFD318131C091B09EB66
:10FFD0000400334A00F01AFB0444A6423ED93B68B1
:10FFE0009A4505D3B4423EBF3E2309F8043001349C
:10FFF000D8F80C300AF101053BB31B782BB33B68F2
:020000022000DC
:100000009D4205D3B4423EBF3B2309F8043001347E
:10001000D8F80C0007F037FF0AF1020A3B680AEB38
:1000200000059D4211D9CAEB030AD8F80C301C4ACE
:10003000711CBAF1000FA8BF5344091B09EB04005F
:1000400000F0E4FA0444A64209D3B44203D93A6862
:100050002B1B934203D8D8F8008084E74CB1494663
:100060002246584605F083F82821584604F070FFD0
:1000700009E045B18221584604F04DFF0F2209499D
:10008000584605F074F8B8F1000F04D14FF0FF3373
:100090003B60BDE8F88F3B681E443E60BDE8F88FCA
:1000A00017810200C180020038B50C46054620B910
:1000B0000E4800F073FA042038BD0D4800F06EFAC7
:1000C000AB79413B3E2B04D90A4800F067FA032084
:1000D00038BDEB7C5B0604D4074800F05FFA0220D1
:1000E00038BDB4FA84F0400938BD00BF2081020059
:1000F0002D8102003D810200528102002DE9F04174
:100100000A4D0B4C0E46174601460022284604F0C5
:10011000BBFB2168284604F0C5FB226883B2394640
:100120003046BDE8F04104F02FBD00BF502F002045
:10013000E862002070B505460C480E4601F03BFD14
:1001400004468CB16A782978094800F027FA237FA1
:10015000B34201D02468F4E73246294604F11D0079
:1001600007F04EFE0028F5D1204670BD4C2F002030
:10017000C3810200F7B51446064622480F4600F038
:100180000DFAA57A204800F009FA0DB91F482DE0B4
:100190001F4800F003FA294604F10B00FFF7CAFFDD
:1001A000054648B91B4800F0F9F923893A4631461B
:1001B0000320FFF7A3FF22E063792BB923893A4696
:1001C00031460220FFF79AFFEB6AC3B100212046B7
:1001D000FFF76AFF012806460CD101A9204604F06A
:1001E00063FF019B2A6B9A4203D10B4800F0D6F9BA
:1001F00005E02B63EB6A324621462846984703B058
:10020000F0BD00BF3E8202005A82020069820200F5
:10021000AE820200C58202000E83020070B5028821
:10022000C02A054609D0D02A21D082B91B4B85218E
:10023000186801F02FFBC02307E085290BD118486F
:1002400001F0B9FC044644B9D0232B8003E000231D
:100250000380032070BD012070BDE3692BB1A1684C
:1002600019B104F10C0001F0E5F92468EBE78829E5
:10027000EAD10B4801F09FFC0446002CE4D0A368AF
:1002800053B104F10C06304601F0EFF920B1E369F7
:100290009847304601F0D7F92468EEE7383100205E
:1002A000F42F00202DE9F04F85B00D46364FDDF8D4
:1002B00038A004A99946002341F8043DFB68904604
:1002C000064698478346314801F075FC0446002CE9
:1002D0004ED0606807F0D7FD8345024607D045DD64
:1002E000237AD90642D5039B1B5C2F2B3ED1606835
:1002F000039907F0D0FD002838D13B693046984774
:10030000C20704D5D4F810C0BCF1000F14D1830784
:1003100004D5D4F814C0BCF1000F0DD1410704D5A9
:10032000D4F818C0BCF1000F06D1020716D5D4F8D6
:100330001CC0BCF1000F11D04B46CDF800A03046D8
:1003400029464246E047237A5B061BD520463B6E92
:1003500031462A469847012004460FE07B69D7F8CA
:100360008C10284698470020012407E02468AEE757
:100370007B69D7F88810284698470120204005B0AF
:10038000BDE8F08F0120EFE7947F0200F82F0020F6
:1003900038B50A4B1C7884B9094D0A4801221A70F5
:1003A00001F006FCAB68084898476B6898472146FF
:1003B0000648BDE8384001F095BA38BDFC2F002052
:1003C000947F0200F82F0020A5020200EC280020F4
:1003D00010B5044641600948214601F009FC94F932
:1003E0000830002B09DA216ACB6933B18B6823B15D
:1003F0000348BDE8104001F0FBBB10BDF82F002002
:10040000F42F002000487047F82F002048DF704785
:1004100010B5038804462BB1572B0BD00023038063
:10042000032010BD1748402101F004F95723238011
:10043000012010BD144B1B788B4209D1114801F0EB
:1004400021F9012001F022FB022001F017FBEDE76A
:100450000E4B1B788B4207D10A48402101F0EAF885
:10046000022001F013FBE1E78829DFD1054801F004
:10047000FCF80028DAD0034801F0E5F8012001F08B
:100480000DFBD3E748300020495800204858002091
:1004900013B5482208203249002306F08BFC18B11E
:1004A00000210A4606F012FC05F0DCFD08B905F053
:1004B000AFFD01F0D5FA00F057FC01F037FA00F07B
:1004C0004FFD01F07DF9002001F014FC00F014FD57
:1004D000244800F0F3FC01F059FB0021224801F010
:1004E00001FA00F0DFFF00F0F1FF00F09FFC1F4B6E
:1004F00018601F4B01221A7000F06EFD1D4800F0BD
:10050000CFFD03F0EBFE684600F09EFD684603F069
:1005100049FD08226946184807F081FC164803F097
:1005200019FD1648002101F0DDF91548002101F000
:10053000D9F90021134801F0D5F9134800F068FFFC
:1005400000F02AFD00F0F6FD01F052F9044600F03B
:100550002BFD14F0FF0FF7D1FFF758FFF4E700BFB2
:1005600000300020491B020034290020985D002043
:100570008C5D002085830200D45D0020FC280020D3
:10058000EC29002054290020087F020008B5084605
:1005900012B1114604F001FF002008BD0FB407B5E9
:1005A00004AA054852F8041B019200F079F803B040
:1005B0005DF804EB04B070470C29002038B543689F
:1005C00093420446154698BF03F1FF352A4600685A
:1005D00007F025FC23682B44236063685D1B65607E
:1005E000002038BD1FB51446074A02928DE803006B
:1005F0001A46214602A8CDF80CD000F051F8009B15
:1006000000221A7004B010BDBD0502000CB407B57D
:1006100004AB53F8042B0193FFF7E4FF03B05DF83C
:1006200004EB02B0704738B504460068154607F081
:10063000F6FB23681D442560002038BD0EB43FB58D
:1006400007AA094B52F8041B0190049304A801ABBC
:100650000392059300F024F8019B00221A7006B063
:100660005DF804EB03B070472706020070B505463D
:100670000C46102C07D92B68084968681022984747
:1006800050B9103CF5E734B12B686868034922463D
:10069000BDE870401847204670BD00BFF1830200DE
:1006A0002DE9F04F8FB00646154606914FF0000B2E
:1006B000069B1B78CBB1069C274617F8013B1BB164
:1006C000252B14D03C46F7E7069BA3420DD0069B92
:1006D00006997068C3EB04084246336898470028BF
:1006E00040F01F832378C34423B9584634E3069B64
:1006F000A342ECD16378002BF7D03946002408469A
:100700000A4610F8013B2B2B11D006D8202B11D014
:10071000232B12D144F0080416E02D2B04D0302BEB
:100720000BD144F010040FE044F001040CE044F05D
:10073000060409E044F0020406E0A3F13107082FA3
:1007400011D84FF0000801E00146D8E70A4611F839
:10075000013BA3F13000092813D80A2202FB083814
:10076000A8F13008F2E72A2B09D12B68002B05F1FC
:100770000405B8BF44F001049846024601E04FF07A
:10078000000813782E2B1BD15178A1F130000928D5
:1007900002F101030ED8194600270A78A2F13000B1
:1007A00009280B4601F101010DD80A2303FB072795
:1007B000303FF2E72A2904D12F68931C043502E068
:1007C00013464FF0FF371A786C2A09D15A786C2AF1
:1007D00002D144F080040AE0013344F060040BE0ED
:1007E000682A09D15A78682A03D144F020040233D8
:1007F00002E0013344F040041A78642A3CD01FD848
:10080000462A48D00DD8252A5AD003D8002A3FF4CA
:100810006CAF57E0412A4AD0452A53D144F44244B0
:1008200050E0582A31D004D8472A4BD144F4A1349F
:1008300048E0612A38D0632A44D144F4A06441E0FE
:100840006E2A3AD007D8662A22D027D3672A28D022
:10085000692A11D036E0732A2CD006D86F2A11D01D
:10086000702A2FD144F440742CE0752A07D0782ADE
:1008700028D144F4C85425E044F4245422E044F43C
:1008800010641FE044F488541CE044F4B24419E0BE
:1008900044F4007416E044F4844413E044F4024445
:1008A00010E044F481340DE044F4C1340AE044F42F
:1008B000E13407E044F4806404E044F4E06401E0DF
:1008C00044F4C0640133069304F4E063B3F5806F2D
:1008D00000F0908113D8B3F5807F27D0B3F5407F27
:1008E0007FF4E6AEAE4BAF4A286814F4804F18BFD1
:1008F0001A460DF13303043500211F46B6E1B3F566
:10090000C06F08D0B3F5E06F00F02182B3F5A06F9F
:100910007FF4CEAEF1E13368A349706801229847B5
:10092000002840F0FE810BF1010BC1E6002FACBFA7
:1009300024F01004012714F40053079304F0E0039B
:100940002ED0402B12D005D8ABB1202B21D195F958
:1009500000200DE0602B0ED0802B1AD1073525F03A
:10096000070303F10805D3E9002307E0B5F90020E8
:10097000D317043502E02A680435D317002A73F12F
:10098000000108DA524263EB4303CDE9002301235F
:1009900004E000220023CDE900230023059329E091
:1009A000402B13D004D8BBB1202B1DD12A780EE0E8
:1009B000602B11D0802B17D1073525F0070303F1E9
:1009C0000805D3E90023CDE900230BE02A880023A2
:1009D000CDE90023043505E02B6800221946CDE956
:1009E00000120435079BD9E700230593002200235A
:1009F000CDE9002304F4C053B3F5805F0CD0B3F508
:100A0000C05F33D0B3F5006F4FD1DDE900230DF1A6
:100A10003609CDE9022304E0DDE900230DF13609B2
:100A200015E0DDE9022313433AD0DDE902010A2291
:100A3000002307F003F8303209F8012DDDE9020147
:100A40000A22002306F0FAFFCDE90201E9E752EAA3
:100A5000030125D002F00701303109F8011DD1084A
:100A600041EA4371D8080A460346F0E74C4B4D492A
:100A700014F4804F18BF1946DDE900230DF1360943
:100A800052EA03000CD002F00F004FEA131E085C7C
:100A900009F8010D100940EA037002467346EFE7BA
:100AA0000DF13603C9EB030302E00DF13609002313
:100AB0000293029B41F60802BB4238BFFF1A02EACA
:100AC000040241F2080328BF00279A4202D1002FF6
:100AD00008BF0127029B41F608018A4203EB070089
:100AE0000DD1DDE90023134309D0304A304914F415
:100AF000804F4FF0020A0CBF0B46134602E04FF046
:100B0000000A5346079A9AB1059A52B904F00602B0
:100B1000022A0AD0062A274A04BF4FF0010A1346C8
:100B200006E04FF0010A244B02E0244B4FF0010A8B
:100B30000AEB000290458CBFC2EB08084FF000089A
:100B400014F0010200920DD1E10602D5474490460F
:100B500008E0414630460593FFF788FD059B0028D5
:100B600040F0DF80BAF1000F07D034687068524659
:100B70001946A047002840F0D480029B03EB0B04E9
:100B8000BB46BBF1100F33681CD910220C497068AA
:100B90009847002840F0C580ABF1100BF1E700BF8B
:100BA000BC830200CD830200EF830200E1830200D8
:100BB000DE830200E6830200E4830200C1810200BA
:100BC000AC830200BBF1000F06D05A46644970683E
:100BD0009847002840F0A5803368029A706849461B
:100BE00054449847002840F09C80009B3C44002BD4
:100BF00039D032E0D5F800900435B9F1000F0AD0B1
:100C0000CA469AF800300AF101020BB19246F8E7A1
:100C1000C9EB0A0A03E0DFF84C914FF0060A002FF7
:100C200002DBBA4528BFBA46D0458CBFCAEB0808DC
:100C30004FF0000814F0010705D141463046FFF798
:100C400015FD00286DD133687068524649469847B3
:100C5000002866D10AEB0B042FB141463046FFF75E
:100C600005FD00285DD108EB040B21E550EA010EDB
:100C70000ED000F00F0E4FEA111C12F80EE003F830
:100C800001ED4FEA101E4EEA017E70466146EDE727
:100C9000FF1A01BF302203F8012C012703F1FF33B3
:100CA00078220337B84503F8012C4FF0300203F8DF
:100CB000022C88BFC7EB08084FF0230298BF4FF003
:100CC000000814F00104A3F1030903F8032C04D174
:100CD00041463046FFF7CAFC18BB336870683A4695
:100CE00049469847E8B95F4424B141463046FFF78A
:100CF000BDFCB0B908EB070BDAE4B8F1010F2B68C3
:100D00008DF820308CBF08F1FF384FF0000814F048
:100D1000010405F1040508D141463046FFF7A6FC61
:100D200010B14FF0FF3017E0C34433687068012200
:100D300008A998470028F4D108F101072CB14146D1
:100D40003046FFF793FC0028EBD1BB44B0E42B689E
:100D50000435C3F800B0ABE40FB0BDE8F08F00BFBE
:100D6000AC830200E883020010B50B4B0B4A0C4821
:100D7000002421461C6005F0FDFA18B122462146E8
:100D800005F0A4FF0648012105F032FB0448BDE848
:100D9000104005F021BB00BF58300020D10D0200EB
:100DA00004840200014B1868704700BF58300020CF
:100DB00008B5064A13680133136000F05BFC18B1F4
:100DC000BDE8084000F0BABB08BD00BF58300020A5
:100DD000042801D1FFF7ECBF70470000014B1868F1
:100DE000C009704758300020B0F5A27F01D100F053
:100DF0009FBD704708B5074A0748002105F05AFB18
:100E000018B10022114605F061FF0348BDE8084013
:100E100005F0A4BBE90D02000C8402000123024688
:100E20001946014805F0B2BB0C84020000210148BC
:100E300005F09EBB0C840200F7B50746FFF7F6FFEE
:100E4000184D194CA8600126A6703B78B3420AD110
:100E5000164B1B6813B17A68107898470121144823
:100E600005F0E0FD0FE083B9124800F079FF00289B
:100E700009DD104800F064FF02AB314603F8010DB4
:100E8000184605F05FFDA3784BB1FFF7CFFF0A4A84
:100E9000A96893685B1A184400239060A37003B09C
:100EA000F0BD00BF985D00208C5D00205C3000200C
:100EB00060300020E4300020585D0020014B1860B5
:100EC000704700BF5C30002007B502AB012103F87A
:100ED000010D184605F036FD112807D19DF80710C1
:100EE000044800F01AFF08B920BFF7E703B05DF827
:100EF00004FB00BFE430002030B50F4D0FCD89B0AA
:100F00006C460FC495E80F0084E80F000B49684653
:100F100005F09EFC18B10022114605F0D7FE802294
:100F20000749084800F0F2FE05F0FAFD01210648E5
:100F300005F078FD09B030BD14840200390E0200BE
:100F400061300020E4300020603000204FF0A043EA
:100F50004FF4F012C3F808250022C3F80C2570479F
:100F600008B50A49002005F063FB18B100221146BC
:100F700005F0ACFE064805F091FB18B100221146C1
:100F800005F0A4FE034B01221A7008BD4D0F0200AC
:100F9000ED300020EC300020024B1B780BB105F047
:100FA0006FBB7047EC300020034B1B781BB1034B29
:100FB000187805F0CDBB7047EC300020ED300020F4
:100FC00070DF704771DF704773DF70477CDF7047F9
:100FD00084DF704760DF70471FB5002102A8082238
:100FE000FEF7B0FA9DF80830002443F0010302A890
:100FF00003948DF80830FFF7EDFF18B12146224623
:1010000005F064FE0F4805F00BFF18B100210A46F9
:1010100005F05CFE6846FFF7D5FF18B100210A46CF
:1010200005F054FE0024204669468DF806408DF8F0
:101030000040FFF7C5FF18B12146224605F046FEE5
:1010400004B010BD5111020013B504466846FFF705
:10105000B9FF18B100210A4605F038FE9DF80520B9
:101060009DF8063062709DF804202370A270FF2264
:10107000E270FE2222719DF8032062719DF8022029
:10108000A2719DF80120E2719DF8002012B923F0B1
:10109000020301E043F00203237002B010BD000020
:1010A00030B591B001229DF8003010AC62F303031B
:1010B00062F30713054604F8403D06F0E4FE2946B6
:1010C00082B26846FFF782FF18B100210A4605F098
:1010D000FDFD164B186800210190382202A8FEF78A
:1010E00031FA02238DF8083004238DF80B300123E8
:1010F000ADF8183002A801AB0021079306F048F9BB
:1011000018B100210A4605F0E1FD094C00212046F6
:101110001822FEF717FA00234FF40572237063605C
:1011200023722282638211B030BD00BF348402007A
:10113000F030002008B50548FFF746FF28B1002130
:101140000A46BDE8084005F0C1BD08BDF0300020EA
:1011500010B5044606F034FA2388102B02D0112B68
:1011600007D010BDA088FF210022BDE81040FFF786
:101170002FBFBDE81040FFF7DDBF8ADF704748DFB3
:101180007047012070470120704700207047000021
:1011900038B50388054613B3FD2B03D00023038025
:1011A000032038BD82291AD10F4CB4F8081504F178
:1011B000080003F043F994F90A15042089B203F0FA
:1011C00067F921460F2003F071F90849102003F058
:1011D0006DF9074B00221A60064BDB689847FD2328
:1011E0002B80012038BD00BF4A58002082650020B6
:1011F000143100202C85020038B5044603F0A4F811
:10120000054603F0B5F829460246204606F0B4FB31
:10121000B0FA80F0400938BD2DE9F04105461020B4
:101220000E4603F04FF91949194C074602F0B1FE7A
:1012300028B93946204602F0ACFEC8B120E06389E7
:10124000B3B12389A3B104F10800FFF7D5FF044629
:10125000FFF7AAFE64B10F4B01221A601C462268F8
:1012600022B1FFF7A1FEFFF78AFFF8E7012301E0B3
:101270000123042231462846BDE8F04103F032B98B
:1012800004F10800FFF7B8FF0446E3E7F184020029
:10129000083100201831002007B5042200210DEB91
:1012A0000200FEF74FF90C4B019301A806F038FB42
:1012B00018B10022114605F009FD00F079FA074B3C
:1012C000187000F075FA064B00211870054800F000
:1012D00009FB03B05DF804FBE91202004958002045
:1012E000485800201429002073B5054640482B8833
:1012F0000689B34206D144896B889C420CBF0446E0
:10130000002400E000240B78032B6ED8DFE803F004
:10131000023644664A68D17B8DF80110917B8DF8C6
:101320000210FF218DF80310FE218DF80410517B6F
:101330008DF80510117B8DF80610D17A8DF8071005
:10134000137C927A8DF8003012B923F0020301E089
:1013500043F002038DF80030002E43D14389002B67
:1013600040D104222946234806F059FD0822694647
:101370001F4806F054FD32461F4B08E0002C34D0C5
:101380000C2200212046FEF7DDF81C4B00221978C4
:10139000104600F07FFA28E03CB3194B1A6822BBD4
:1013A0004A689289B2F5A06F1FD8164E0120A6F8A0
:1013B000082518604B6806F10800996806F02FFDB3
:1013C00008222146304606F02AFD06F20A512888F6
:1013D000FFF7D3FE0C4800F09DFA06E00B4B00220D
:1013E0001A6002E0284606F0F7FA002002B070BD4D
:1013F00008310020103100204958002048580020B2
:10140000143100204A5800201429002018310020EF
:1014100010B5041F54F8040F18B1002100F062FA4F
:10142000F8E710BDF8B50388064615462BB14A2BE0
:1014300015D0002303800320F8BD174800F0BBFB44
:1014400004462CB1A168201D00F0F4F82468F8E7E8
:10145000124B01221A704A2333800120F8BD8829DB
:10146000FBD10D4800F0A7FB0446002CF3D0231D50
:101470009D420ED12146084800F0A7FB084B626947
:101480001F681A60A2691D460AB1E06990472F6083
:10149000E1E72468E9E700BF1C310020203100208B
:1014A0003831002010B5064B064800241C7000F0AF
:1014B0007FFB21460448BDE8104000F013BA00BF8E
:1014C000203100201C3100202429002010B50023E9
:1014D000064C074807491A4644F8232040F82320C1
:1014E0005A5401330C2BF7D110BD00BF985D00207A
:1014F000585D00208C5D002010B50E4C236813B998
:101500000D4A136010BDFFF74DFC216891E80C00F7
:101510001A44131A8A6842B192E812002144091A47
:101520008B4228BF0B469268F5E71844024B1860BF
:1015300010BD00BF2431002028310020014800F0F8
:10154000E9B900BF342900202DE9F8430388054696
:1015500033B1592B0BD0002303800320BDE8F8835F
:10156000234A136059232B800120BDE8F883872983
:1015700024D08229F6D11E4F4FF00008B9463C68AE
:101580000026002CEED0204600F0F8F998B1224653
:101590008821E06800F07EF958B9E060A3680EB1D8
:1015A000B36001E0C9F80030C4F80880FFF7A4FF79
:1015B000E5E7FFF7C3FF2646A468E2E70C490B689E
:1015C00000201BB90028CDD00B60CBE7DC68A2421D
:1015D00002D19B680120F4E700B10B6099680029F3
:1015E000C0D0C868824206BF896899600B46F5E79B
:1015F0002431002010B50446FFF7A0FFE3680B4A32
:101600004BB113683BB1A34203D1094A1268DA60B7
:1016100007E09B68F6E7064B1B68E3601368A3606E
:101620001460BDE81040FFF767BF00BF2431002001
:101630003831002010B5044600F08EF92046BDE890
:101640001040FFF7D7BF10B5044600F08CF92046D4
:10165000BDE81040FFF7CEBF10B5044600F088F992
:101660002046BDE81040FFF7C5BFC068B0FA80F063
:1016700040097047024B1868003018BF01207047BE
:101680002431002010B50B4A13688342044606D16A
:101690008368136008E09A68944203D01346002BD5
:1016A000F9D103E0A2689A60FFF726FF0023A36048
:1016B000E36010BD2431002038B5836804460D4630
:1016C0009BB10A4804600220A07304F10C00984703
:1016D0000238012801D9832D05D121462046BDE8D5
:1016E000384000F00BB80123A37338BD3831002017
:1016F000837BDB0701D5FFF7DFBF70472DE9F84398
:101700001C4A1D4E15683768044689462B4690468C
:10171000A34204D00BB11B68FAE7BDE8F88334B3E9
:10172000A37BABB10023A37345B1A54204D02246ED
:1017300087212846FFF7DCFF2D68F5E7A3683BB15A
:101740004C4505D034602A46832104F10C009847AB
:10175000D8F800309C4203D12268064B05E01346BE
:1017600023B11A689442FAD122681A603760BDE842
:10177000F88300BF403100203831002070B50A4A9C
:1017800000231370094A146801261D4654B1E37BF7
:1017900033B1A673E573002282212046FFF78CFF48
:1017A0002468F3E770BD00BF3431002040310020D1
:1017B000024B1878421C1A70704700BFC8320020D4
:1017C000064B8A221A70064A00231370054A1370CA
:1017D000054A1360054A1360704700BFC8320020F5
:1017E0002C3100202D3100204031002038310020E4
:1017F0002DE9F0411F4E33780BB1FFF7BFFF1E4DAF
:101800002C78002C30D0DFF884E01C499EF80030A2
:101810001B4FDFF87C800C225A4388180133895C07
:1018200042688068397003F01F03013CC8F800204B
:101830008EF800302C7088B9124C134B1B68236053
:1018400023688BB133780BB1FFF798FFD8F80020ED
:1018500039782068FFF74CFF2368EFE7812904BF40
:1018600001238373FFF744FF337828781844BDE8D9
:10187000F08100BF343100202D31002044310020A0
:101880003C31002030310020403100202C3100203C
:10189000C4320020F0B50B4E3378202B0FD00A4C09
:1018A0000A4F24781C440C2504F01F046C433D1996
:1018B00001333955A8606A6033700020F0BD012003
:1018C000F0BD00BF2D3100202C310020443100201C
:1018D00038B5034C2568FFF70BFF256038BD00BF06
:1018E0003831002030B40A4C25680A462B46834222
:1018F0000CD00BB11B68FAE740B101210560817380
:1019000020608381812130BCFFF7E2BF30BC70478B
:101910004031002038B1837B013B012B9FBF024A3D
:101920000123C3731370704734310020FFF762BA8C
:1019300010B5084C206858B10023236081684368C3
:101940009847236823B11868BDE81040FFF766BACE
:1019500010BD00BFCC32002010B541600446FFF737
:1019600021FA206010BD90E80C001344036070471A
:1019700010B50446FFF716FA206010BD10B50446F6
:10198000FFF710FA2368C3F1010303446068834240
:1019900094BF0020012010BDF8B52D4C2678207092
:1019A0004640F10716D510F001052A4F06D0FFF783
:1019B0003DFA294BD8600123FB700BE0FB784BB15B
:1019C000FFF734FA254A2449D368C968FD705B1AC9
:1019D0001844D060B20719D523781E4D03F00203D6
:1019E00003F0FF0733B1FFF721FA1B4B1861012306
:1019F0002B710BE02B794BB1FFF718FA174A1649F8
:101A0000136909692F715B1A18441061730719D59E
:101A10002378104D03F0040303F0FF0633B1FFF702
:101A200005FA0D4B586101236B710BE06B794BB1DB
:101A3000FFF7FCF9094A0849536949696E715B1A55
:101A4000184450612078BDE8F84003F0BFBB00BFE8
:101A5000D03200208C5D0020985D0020585D002071
:101A600008B503F08DFB024B00221A7008BD00BFC1
:101A7000D032002003F0A2BBFFF78EBF024B1B78D1
:101A80001843FFF789BF00BFD0320020024B1B78FC
:101A900023EA0000FFF780BFD0320020024B1B7802
:101AA0005840FFF779BF00BFD032002070B50588DD
:101AB000672D044609D0792D30D0002D34D1FFF7A1
:101AC00077FE1C4B18701C4B1D601B4D2E461B488F
:101AD00000F036F9431C01D167231DE00A28164A9D
:101AE00007D02B687E2BF2DC5A1C3260144AD0548B
:101AF000EDE71368591C1160114A0025D5540D4BB0
:101B000028461978FFF7C6FE0E4B2A46852118682D
:101B1000FFF7C0FE20B97923238009E0852907D18A
:101B2000054B00221A60D0E700230380032070BD1C
:101B3000012070BDC85D0020E03300205433002038
:101B40005D330020383100200D2810B5014615D036
:101B50000B4C23782BB90B4800F0DFF848B9012370
:101B600006E00A2805D1074800F0D7F808B100239D
:101B700023700548FFF7CEFE012010BD002010BDE8
:101B80005C330020543300204429002008B5054967
:101B90000548802200F0BAF800210448BDE808405A
:101BA000FFF7A0BED132002054330020442900208A
:101BB00000230360704700687047006800B97047F1
:101BC00003680BB11846FBE77047036810B573B1A3
:101BD000002499421A6806D10CB9026000E0226024
:101BE00000221A6010BD1C460AB11346F1E710BD71
:101BF00038B50546FFF7E9FF00230B60FFF7DDFF6F
:101C000008B9296038BD016038BD38B50446FFF712
:101C1000DCFF03680B60216038BD0368002013B14E
:101C200001301B68FBE7704700B10068704710B5D2
:101C30000446428840680021FDF784FC23886288BE
:101C4000A0685A430021BDE81040FDF77BBC10B5E9
:101C5000418800238B420CDA4268D418D25C32B936
:101C6000012222700288806803FB020010BD01334C
:101C7000F0E7002010BD30B5826844880023A342FD
:101C80000DDA8A4207D14168CA5C0AB1013ACA54E6
:101C90004268D05C30BD058801332A44EFE7FF205D
:101CA00030BD82688A4208D84388008800FB032040
:101CB00081422CBF0020012070470020704707B5EB
:101CC0002A23ADF806300DF1050004F069FD9DF8FA
:101CD0000530012BF7D902210DF1060004F062FD59
:101CE00018B10022114604F0F1FFBDF8060003B060
:101CF0005DF804FB08B5002004F03CFD28B100228B
:101D00001146BDE8084004F0E1BF08BD0023013AD8
:101D10000160027143718371704710B54279837914
:101D20000479D31A34EA030308D003689954437939
:101D30005A1C037913404371012010BD002010BDCF
:101D4000837942790179D21A0A421FBF0268D25CB4
:101D500001330B401ABF837110464FF0FF307047BC
:101D60004379827900799B1A184070472DE9F04138
:101D70000688772E054631D07E2E40D0002E4ED1DB
:101D8000FFF716FD2A4C2B4B2B4FDFF8B480266053
:101D900018702646236857F823204AB1002108F816
:101DA0000310802093689847336801333360F1E76C
:101DB000224A1370772320E0214AD256002A12DBF0
:101DC0001B4A136801331360194B1C4A1B681278B5
:101DD0009A42F1DC1B4B1B68002BEBD0194A002305
:101DE0001360134AEFE7144A52F82320114B0020E6
:101DF0001978FFF74FFD30B97E232B8014E00D4B8F
:101E00001B788B4210D10A4B0D491A688B5C03F08A
:101E10007F038B540B4A136801331360D0E7002310
:101E200003800320BDE8F0810120BDE8F08100BF00
:101E3000E8330020C95D00200C2A0020E433002094
:101E4000B8650020EC33002010B40B4B0B491A7816
:101E50000023934203DA51F82340A04209D10849F4
:101E60000848CA5C62F07F02CA545DF8044BFFF771
:101E700051BD0133EDE700BFE43300200C2A002000
:101E8000B86500205429002010B5013A0A44914257
:101E90000CD20C784B7803EB04239BB2184480B22D
:101EA000834284BF013080B20231F0E707D10B7862
:101EB0001B02184480B2834284BF013080B210BD3F
:101EC00037B5124B124D1C782B796A79C4EB03237A
:101ED00013449BB2ADF80630BDF8063010FA83F01B
:101EE000202205F1080180B2FFF7CEFFBDF80620E1
:101EF00004F1280192B22944FFF7C6FF10B140BA9D
:101F000080B201E04FF6FF7003B030BDF033002027
:101F1000DC5D0020F8B5244924480E78244B06F1F6
:101F20002807391802224D781A70ED000735002471
:101F3000954232DBB91800EB010E415C012925D036
:101F400006D3632906D19EF8011002310A4425E028
:101F500001321FE001F0C001802904D0C02908D05F
:101F6000402913D102E04CB11A7007E0CCB11A70CD
:101F700017E004B11A70037EFF2B12D032442832CE
:101F80000221042001F0A8F80220F8BD9EF80110FB
:101F900002310A44D2B20124CAE704B11A70002007
:101FA000F8BD0120F8BD00BFF0330020DC5D00204B
:101FB000F23300203A20FFF783BF1120FFF780BFE4
:101FC00008B500F0BBFC01F033F901F00FFE084B3F
:101FD00008484FF480621A800023194600EB431230
:101FE0000133DBB20A2B1182F8D1034A137008BD0A
:101FF000F4330020FC620020F633002070B5104D51
:102000002978E1B10F4E328801F12703934202DBB8
:102010000023338012E00C4C283A521A2046214407
:1020200005F008FF2A7833889B1A9BB23380283B3F
:102030001A1204F8233C04F8242C00232B7070BDE2
:10204000F0330020CC5D0020045E00202DE9F0413B
:102050002B4A2C4E1388144601339BB2B3F5FA4F2A
:1020600028BF4FF480531A0A42EA032292B2002595
:102070000A2D07D0013506EB451737F8107C97423B
:10208000F6D1E9E72380204CDFF878C000232370E5
:102090001F460A2B1BD05D010CEB050603F1010E58
:1020A000B6F81080174E5FFA8EFEB8F1000F0BD114
:1020B00007B1237074192282618268B90146102227
:1020C0002046FDF73FFA13E073460127E1E707B129
:1020D00023700020BDE8F0810346274600F1100E72
:1020E000186859683A4603C2083373451746F7D152
:1020F000064B35441B792B752046BDE8F08100BFA7
:10210000F4330020FC620020F63300203C64002001
:1021100004282DE9F84F844E00F04A818349844A0F
:10212000844C0C60052814600F4612D1824B1B684A
:102130001B8A002B00F07A810C3C14607F48804A97
:102140000C6000231380036033807E4B08221A70DA
:102150002CE114F83C3C03F0F003602BA4F13C04A8
:1021600040F064812279637931881202D018884264
:1021700000F35C81283313443380237AFF2B00F073
:10218000558104F1180000F00BFA60B16E4A6F4BF4
:1021900013606F4D6F4B00212970197091469B465B
:1021A00090469A4623E004F1180000F0A3FA0028B4
:1021B000ECD1237EFF2B40F03981E7E71DD93B2B83
:1021C00000F034813C2B1FD19BF80030990733D5A8
:1021D0005A065DD443F040038AF80030FFF79AFEB8
:1021E000012800F023812AD3022800F01A81D9F8AF
:1021F000000003782C2BE1D118E1112B6CD02B2B94
:1022000029D0002B44D102E03A2B41D146E09BF883
:102210000030DA073CD443F001038AF80030FFF7BE
:1022200079FE012800F00281DED22B7803F128012B
:102230002144C8F8001008E043F00203CCE72B78F3
:1022400003F128012144C9F800104978083303EB51
:10225000C1032B70CBE79BF8003003F0040202F0BF
:10226000FF01AAB943F004038AF800302B7803F188
:1022700028002044C27812B103F12A020AE0417812
:10228000334AC8F80000083303EBC1031370AEE70C
:10229000021B0121042000F01FFFC2E0FFF78AFEAD
:1022A0004FF6FF73984240F0C1802B782833E05CF2
:1022B00001F0C8FC2B782833E218E05C517800F07C
:1022C000E9FE012801BF0023214A338013703388BF
:1022D000002B00F0AB80A4E0FFF790FE3388E28D86
:1022E000303B33801C4B3B6098465AB9638D002BC2
:1022F00000F09C80194B104DDFF864B02B6003F5A3
:10230000A07A0CE0FFF759FE4FF6FF73984240F0B9
:102310008D80EBE70B8A2BBB2B6820332B60296861
:102320005145F7D382E000BFCC5D0020E862002079
:10233000D05D0020185E0020E4620020EC620020E6
:10234000F8620020DC620020E0620020E25D0020F4
:10235000F0330020F13300200C5E0020FC620020EE
:10236000DC5D0020628D9A42D6D14B8A1BB1BBF84E
:1023700028209A42D0D10B682BB94B681BB98B68C7
:102380000BB9CB682BB110222D4805F039FD002880
:10239000C2D12C4AC7F80080002313602A4A0221C8
:1023A00011702A4AC2F80080294A138001F06AFDA0
:1023B000274B1A88002A39D002F13003254C9BB2F2
:1023C0003380283B19126371234B21711B6808323B
:1023D00052BA197DA2850022E2851A8A22855A8A7C
:1023E000E17111216285A1710FCB04F1180585E817
:1023F0000F00294604F1080000F022FA174B04F1FF
:102400003C021A60FFF7D9FDC04380B208B1E085F5
:1024100002E04FF6FF73E3856023237000236370AF
:102420006380094B00221A70BDE8F88F0C4A002324
:1024300013700C4A33801370034A1370BDE8F88F91
:10244000E45D0020EC620020DC620020D05D002012
:10245000F8620020DC5D0020E4620020E8620020D9
:10246000F0330020F133002040BA80B27047020CF4
:10247000131243EA02239BB240BA43EA004070477A
:102480002DE9F843099D9DF82060994600230446F4
:1024900017462B6002FB0108F60844450DD223784D
:1024A00043B132464946A01C05F0AAFC18B92C607D
:1024B000BDE8F8832C603C44EFE72B68002B14BF89
:1024C00001200220BDE8F883F7B5174C00910346C0
:1024D00005460F4616460194202203211348FFF7B4
:1024E000CFFF01281CD123681870236828460233C7
:1024F00005F1100250F8041B43F8041B9042F9D177
:102500002068877446B13146143002F056FF064BFE
:102510001B6800221A7701E001230377206800E09E
:10252000002003B0F0BD00BFFC3300200065002098
:1025300008B100230370704713B5074C03468DE8BC
:102540001200202203210548FFF79AFF08B92068EE
:1025500000E0002002B010BDFC3300200065002028
:1025600070B50D4B0D4C0646236003F160052068E5
:10257000A8420FD203781BB9236820332360F6E703
:10258000827C3146D208023005F03AFC0028F3D1B3
:10259000012070BD002070BD00650020FC330020CC
:1025A00013B58023074C0093019403462022032196
:1025B0000548FFF765FF08B9206800E0002002B079
:1025C00010BD00BF00340020546400200D4B0E4AA3
:1025D00030B503F16001136048F2FE0413688B42CA
:1025E0000CD21D783DB1451C02D09D7C854202D1A4
:1025F0005D88A54203D020331360EFE7002318461F
:1026000030BD00BF546400200034002037B5802363
:102610000F4D0093044603460195122204210D48F4
:10262000FFF72EFF01282B460ED12A6810702A686A
:102630002046023204F1100150F8044B42F8044BDA
:102640008842F9D1186800E0002003B030BD00BF17
:10265000F8330020B4640020F7B58023204C0093A9
:10266000054603460E4617460194202203211D48C5
:10267000FFF706FF012830D12368187023682A4627
:10268000023305F1100152F8040B43F8040B8A429F
:10269000F9D12068C77416B90123037505E000233A
:1026A00003753146183002F088FE23680E48012178
:1026B000997402234370FF220023027043808380B9
:1026C000C38003818372C17202736B7B4373EB8996
:1026D000C381FFF79BFF206800E0002003B0F0BD3E
:1026E00000340020546400200434002008B100238A
:1026F0000370704713B58023074C00930194034681
:10270000122204210548FFF7BBFE08B9206800E04B
:10271000002002B010BD00BFF8330020B4640020D8
:1027200038B50546C8B10D48022200244270FF2387
:102730000122C27244808480C48004818472037345
:102740000370EB7B43732B8AC381FFF7D3FF044AEB
:10275000106008B1FFF7CAFF2C7038BD04340020A8
:10276000F833002070B51C4B1C4C03F1600523604E
:1027700026462068A8420ED2037843B1037D33B9C0
:10278000183002F021FE10B13068FFF7C9FF23684E
:1027900020332360EDE700F0AFFB114C114B2360B9
:1027A000264603F160052068A8420ED2037843B1A3
:1027B000037F33B9143002F007FE10B13068FFF721
:1027C000B7FE236820332360EDE700F099F906484F
:1027D000BDE87040FEF737BF54640020003400208D
:1027E000FC330020006500206065002010B5082241
:1027F0000446104405F013FB237A83F0020323728E
:1028000010BD30B50139451E002315F8014F11F8F0
:10281000012F944203F1080005D1C0B2802801D0F5
:102820000346F2E730BD6240C0B2110606D4013360
:10283000DBB252009842D2B2F7D130BD184630BD5B
:102840002DE9F84F0A8848F2FE039A4205460F46E2
:1028500023D00A78FF2A20D01C491D4A0A60002490
:10286000A046894602F1600A9B46D9F800605645A9
:1028700017D233786BB1B37C012B0AD173885B45D7
:1028800007D0B11C3846FFF7BCFF80459CBF3446DB
:1028900080462036C9F80060E7E70120FFF796FE82
:1028A00004464CB92C806C80AC80EC802C816C810F
:1028B000AC81EC81BDE8F88FA31C123453F8042BD3
:1028C00045F8042BA342F9D1BDE8F88F003400206D
:1028D0005464002010B500F0F7FA78B90A4C237858
:1028E000022B0BD801F02CF9237808480133237010
:1028F0004FF40071BDE81040FEF79CBE0348BDE8F0
:102900001040FEF7BFBE00BF1434002070650020E9
:1029100070B5094EB0684508FFF7D1F90446FFF7D6
:10292000CEF92402B268A4B22044B0FBF2F302FB59
:102930001300284470BD00BF3C64002070B52A4CD1
:1029400000F06EF800F080F9602200212748FCF7C3
:10295000F9FD0021C0222046FCF7F4FD244B202283
:102960001A70244B18221A704FF4A063236040267B
:10297000214B2671A360FFF7CBFF002542F21073B5
:10298000E060236125751D4C48F2FE032A4631465E
:10299000204623806580A580E580FFF795FD2046D1
:1029A0001749FFF723FF294601222046FFF754FE6F
:1029B00040F2FF23238020464FF48073E38165803B
:1029C000A580E58025816581A581FFF71FFEFFF7C2
:1029D00076F900F07F010B48FEF72CFE0C210A4827
:1029E000BDE87040FEF726BE3C6400200065002074
:1029F000FD640020FC640020C0270900043400208E
:102A0000D45D00207065002060650020014618B18B
:102A1000024B186801F03ABC704700BF64290020DF
:102A2000024B0349186801F03BBB00BF642900203A
:102A30000D2A02002DE9F8439846134B0546186805
:102A4000914601F081FB0446D8B1074605F1100319
:102A5000286869683E4603C608359D423746F7D167
:102A6000002104F1100084F8219084F8228002F003
:102A7000A4FC002104F1180002F09FFC002384F85C
:102A800020302046BDE8F88364290020024B01462F
:102A9000186801F011BC00BF6429002070B50C4D0E
:102AA0000646286801F034FB044666B9002070BD74
:102AB00010223146204605F0A3F938B12146286896
:102AC00001F002FB0446002CF2D1EFE7204670BD76
:102AD00064290020024B0146186801F0C3BB00BF07
:102AE00064290020FFF7F6BF08B5102001F0EAFCCA
:102AF0000249BDE8084001F04CBA00BFF184020071
:102B00002DE9F843394D3A4E28683A4F01F000FB61
:102B10004FF000080446002C65D094F82230042BB6
:102B20005BD8DFE803F00D035A23310004F11000F5
:102B300002F04AFC002850D0022384F822304CE0F6
:102B400094F82030022B2BD804F11809484602F0E3
:102B50003BFC002841D0318800293ED194F8203038
:102B6000013384F82030224608462CE004F110009E
:102B700002F02AFC88B3042384F8223084F82080F1
:102B8000002104F1180026E094F82030022B0BD924
:102B9000204600F051F918B1037F0BB900F02AF973
:102BA0002046FFF733FF18E004F11809484602F009
:102BB0000BFC90B1308880B994F82030013384F850
:102BC00020302246214600F017FF484639694FF46D
:102BD0007A73B1FBF3F102F0F0FB2146286801F0B3
:102BE00073FA044697E7BDE8F88300BF6429002024
:102BF000CC5D00203C6400202DE9F84305460F48D9
:102C0000DFF840900F469046FEF7D5FF044694B19A
:102C1000012D04D80A48FFF700F8034601E0D9F86F
:102C200000306668424639462846B0472046FEF7DF
:102C3000FBFF0446EBE7BDE8F88300BFE83B00205C
:102C4000803700207837002008B50B48FEF7EFFFEB
:102C50000A48FEF7ADFF0A4B0A49186801F020FA4E
:102C60000948FEF7E4FF0948FEF7A2FF0848BDE85F
:102C70000840FEF79DBF00BF98290020243800209F
:102C800094290020F12D02007829002080370020AF
:102C9000E83B002008B540B1044B4168186801F0DA
:102CA0000BFBBDE80840FFF71DBF08BD94290020BD
:102CB0000148FEF780BF00BF2438002008B1FEF7AE
:102CC000B3BF7047F8B50746FFF7F2FF002504468B
:102CD0002E46A4B194F8242095420BD8D20804F1D2
:102CE0000801384605F08CF820B994F82450802D5E
:102CF00007D026462046FFF7E1FF0446E9E76EB11C
:102D000034460748FEF757FF844207D0214604485F
:102D1000FEF75BFF21460248FEF777FF2046F8BD2D
:102D20002438002038B5044600283ED04368002BE4
:102D30003BD001461D48FEF748FF63685868FEF720
:102D40003AFF054630B143689C4207D02846FEF75B
:102D50006BFFF6E704F1080001F0AAF86368294662
:102D60005868FEF732FF63685868FEF724FF28B9F9
:102D7000636859680E4B186801F088FA21460D48BF
:102D8000FEF779FF29460C48FEF775FF0B4A1368DA
:102D90002046013B1360FFF77DFF04F10801024666
:102DA000BDE838400320FFF727BF38BD2438002096
:102DB0009429002098290020A42900207837002099
:102DC00010B5044680B1406870B1FEF7F4FE20B142
:102DD0004068FFF7A7FF6068F7E7044B21461868D3
:102DE000BDE8104001F052BA10BD00BF9429002088
:102DF000FFF7E6BF38B505460D48FEF7DCFE044692
:102E0000A0B1AC420ED121460948FEF7DEFE2146B4
:102E10000848FEF730FF221D11460120BDE838406A
:102E2000FFF7EABE2046FEF7FFFEE8E738BD00BF29
:102E3000803700207829002038B505460848FEF77D
:102E4000BAFE044648B110222946201D04F0D8FFDE
:102E500018B12046FEF7E8FEF3E7204638BD00BF74
:102E600080370020F8B505460F46FFF7E5FF04461A
:102E700040B91348FEF7EBFE0446F0B10146114895
:102E8000FEF7C3FE2B46261D05F1100E1868596883
:102E9000324603C2083373451646F7D137B1394677
:102EA00004F1140002F089FA002300E001232377E3
:102EB0002A4629460020FFF79FFE2046F8BD00BFA6
:102EC000782900208037002038B50A48FEF773FEC5
:102ED0000025044664B1251D2846FFF7DFFD10B12B
:102EE00090F8223023B92046FEF79EFE0446F1E713
:102EF000284638BD8037002010B50A48FEF75BFE33
:102F0000044670B1237F43B904F1140002F05CFA67
:102F100018B12046FFF76EFFEFE72046FEF784FE6C
:102F2000EEE710BD803700202DE9FF47224C234DEE
:102F300094F8078004F108030FCB8DE80F002B787D
:102F40006F46BBB11E493A22A2710A88D21A92B2C8
:102F50000A80A2F128010812207103F12800204400
:102F6000C3F1040361712C3A011D184404F062FF9F
:102F700000232B701348DFF848A0FEF71CFE06461E
:102F80009EB1D6F80490B9F1000F09D0BAF800301C
:102F90002A782C3B22449BB2383241463846C847F7
:102FA0003046FEF741FE0646EAE7054B2E701E80CE
:102FB00004B0BDE8F08700BFDC5D0020F0330020E6
:102FC000CC5D0020243C0020F8B52C4B2C4C1B7908
:102FD000E371237EFF2B04F1180604F1080508D1E4
:102FE00095E80F0086E80F0031462846FFF728FCD9
:102FF0001BE0244A2F46B6463B4603CB7345106080
:1030000051601F4602F10802F6D196E80F0085E8EC
:103010000F001C4B1C4D03F11006186859682A4616
:1030200003C20833B3421546F7D1184D2B78BBB114
:1030300017493A22A2710A88D21A92B20A80A2F1E2
:1030400028010812207103F128002044C3F1040371
:1030500061712C3A011D184404F0ECFE00232B7022
:103060002B782833E5188122E25400236B706B80A3
:10307000FEF7A0FFC0436880F8BD00BF3C6400209D
:10308000DC5D0020143C0020F45D0020F0330020C3
:10309000CC5D002038B504460B480D46FEF78BFD8D
:1030A00050B10379A34204D143799D4206D0FF2B4E
:1030B00004D0FEF7B9FDF3E7012038BD8368002B8B
:1030C000FAD09847002038BD283C0020014601482E
:1030D000FEF78EBD283C00202DE9F74F4D4D4E4C9C
:1030E0002B7881468846924643B12833E35C3A2BDD
:1030F0000BD14A4A002313802B7087E0A3793A2B27
:1031000003D194F92830002BF3DA454E454A0023C9
:103110002B7006F1100E37469346334603CB7345AA
:10312000106051601E4602F10802F6D13B4E338812
:1031300030339BB2B3F5A06F88BF4FF4A0633380E8
:103140003288354B01931946303A03F1300004F0D0
:1031500071FE602229782270002262706280019BD9
:103160003A2211B183F8282000E09A712E4A2A4BA6
:103170001279E271228972B95A8962B99A8952B96F
:10318000DA8942B91A8A32B95A8A22B99A8A12B9A4
:10319000DB8A002BADD0DFF894E09EE80F0087E8D3
:1031A0000F009BF80030FF2B0AD1B9F1040FA0D11A
:1031B000B8F1020F9DD11B497046FFF741FB0AE0B1
:1031C000184B03F1100718685968724603C2083398
:1031D000BB429646F7D12F7807F12803E21804F88E
:1031E0000390504682F80180FFF741F933882C376D
:1031F000283BE0511A1263712B78227128331C444A
:1032000000236380FEF7D6FEC043608003B0BDE8B4
:10321000F08F00BFF0330020DC5D0020CC5D00208B
:10322000F45D0020143C00203C640020E45D00209C
:1032300008B50448FFF74AFF0348BDE80840FFF718
:1032400045BF00BFB0290020BC29002010B50223D3
:1032500004460170437008220549184404F0DFFD5C
:1032600004F10A0006220021BDE81040FCF76AB90B
:10327000D45D00202DE9F04FAE4CAF4EE379DFF87E
:10328000DC92FF2B85B040F09381228948F2FE0347
:103290009A4240F08D813378E21892F82920002A72
:1032A00040F086812C331A191B5D0BB1A3490B71B9
:1032B000506870B1A14DAF68FFF7D9F8874208D0C8
:1032C00033782344186BFFF7D2F8A860FFF720FB90
:1032D000E86033782344586B18B1FFF7C8F8974B70
:1032E0001861974F974D0C233B70A846337803F134
:1032F0002C023B781344B9F80020934280F23481C9
:10330000E2185178002900F05381E35C032B4FD081
:10331000052B47D0012B40F00381DFF830B28A48FB
:10332000CBF80020FFF7BAFBDFF82CA2CAF80000A8
:1033300088B9DBF8001029B1082202310DEB020038
:1033400004F06DFD0223012202A97F48FFF772FB02
:10335000CAF80000E4E0FFF799FBDAF8002092F8E1
:103360002210034611B9022182F82210DBF8000076
:10337000019319460822023004F042FD019B58B126
:10338000724A116818460822023104F048FDDAF842
:103390000030022283F82220DAF80030012283F87C
:1033A0002120BDE05068FFF762F8644B1860B7E079
:1033B00050682A60FFF75BF82B6882469868FFF731
:1033C00056F88245C0F0AC802868028A48F2FE03B5
:1033D0009A4200F0A58090F90330002B34DA81780E
:1033E000DFF87CB11030FFF7A7F82B68CBF80000AE
:1033F000024688B9586838B3411C03F1100A99781D
:1034000004D00191FFF733F8019902465046FFF7C7
:103410005BF8CBF8000017E05B6823B1591C05D1BD
:103420000123037710E0FFF783F80DE001901846C1
:10343000FFF71DF8019A014602F1140001F0BDFFEB
:10344000DBF8003000221A77D8F80030DA7850061E
:1034500066D55A68002A63D09A78402A60D1DFF88E
:10346000F4E003F1200C10331A4603CA6245CEF88B
:103470000000CEF8041013460EF1080EF4D13449C2
:103480003448DFF8E0A0FFF7B1F93248FFF788F8D9
:103490000346CAF8000080B3C27C012A2DD1D8F8B7
:1034A00000104868411C26D0FEF7E1FFB0F5E15F4F
:1034B0000BD9DAF80000D8F8003000F1180B586882
:1034C000FEF7D5FF0146584610E02B685868FEF716
:1034D000CEFF8346DAF80000183001F085FF8345FF
:1034E000E7D8DAF800004FF4E151183001F065FF39
:1034F000DAF8003000221A7512E0D8F80030586867
:10350000FEF7B5FF013002D10122002105E02B6852
:103510005868FEF7ACFF012201460E48FFF79CF801
:1035200033783A782C33134423445B7802EBC3029C
:103530003A70DBE6DC5D0020F03300203C640020C4
:103540003C3C00202C3C0020E45D0020383C002066
:10355000D45D0020443C0020343C0020CC5D0020A1
:10356000303C0020403C00201548FFF765FC154B1F
:103570001B782C331C4405466388B3B1124B1B687F
:1035800013B1012283F82120608835B9FEF76CFF62
:1035900001460B48FFF766FC0AE0FEF765FF0146AF
:1035A00005F1140001F009FF02E008B1FFF722FC69
:1035B0000023A9F80030337005B0BDE8F08F00BFDC
:1035C000E45D0020F0330020343C00202DE9F74F6B
:1035D000704CDFF8E081E379FF2B40F0CF8098F862
:1035E0000010631893F82930002B40F0C7802C316D
:1035F00001EB040C9CF80430FF2B00F0BF8011F8A5
:1036000004B00BF0400303F0FF0200921BB1237ED5
:10361000FF2B00F0B380604D6048614E2D8801950E
:103620000022142303703260174615468246019823
:1036300003EB010E864518DA04EB0E0999F8010038
:1036400040B90FB156490D60002A00F097808AF802
:10365000003093E014F80E2003EBC003022A04BFED
:103660004D460127DBB20122E1E70FB14C490D6065
:103670000AB18AF800300CF10400FEF791FF494BC3
:10368000186000287AD198F8000020443030FFF705
:1036900005FA454C2060FFF7F9F923688146002BB5
:1036A0006CD0306830B108224946023004F0A8FBE3
:1036B000C5B200E0054622683B4B92F822A0019378
:1036C0002BF07F07FFB2BAF1000F1FD1316800293C
:1036D00054D008220231484604F0A1FB9DE80C00BA
:1036E0007AB11868012380F82230304B80F820A08E
:1036F000D96810304FF47A73B1FBF3F101F05DFE3D
:1037000039E01B68022283F8222034E01BF0200FEE
:1037100007D135B1BAF1010F30D1022382F822303E
:103720002CE0316891B308220231484604F077FB5F
:10373000009B6BB12068012380F822301B4B1030B6
:10374000D9684FF47A73B1FBF3F101F036FE07E06C
:10375000134B1B6823B11DB12368022283F822207A
:10376000236893F8213033B12FB91148FFF764FB78
:1037700008B1FFF73FFB236883F82170064A002356
:10378000138088F8003003B0BDE8F08F009B002B59
:10379000D0D1E5E7DC5D0020CC5D00203C3C002082
:1037A000383C0020403C0020343C00203C64002099
:1037B000E45D0020F03300202DE9F74F844C854E66
:1037C000E379DFF82C92FF2B40F0FA803378E2188F
:1037D00092F83020FF2A00F0F380234493F8292048
:1037E000002A40F0ED807C4B7C4F1A60DFF804A289
:1037F00014223A709846254630783B78B9F8002074
:103800002C300344934257DAE2185178002900F033
:10381000D780E35C012B45D12B89C8F800207BB908
:103820006B896BB9AB895BB9EB894BB92B8A3BB917
:103830006B8A2BB9AB8A1BB9E38A002B00F0C080DE
:103840006748FFF72BF9CAF8000070B9D8F80010E4
:1038500021B108220231684604F0E1FA0223002275
:1038600069465F48FFF7E6F81CE0FFF70FF983466B
:10387000D8F8000008225946023004F0C1FA48B1D5
:10388000554B196808220231584604F0C8FADAF894
:10389000003004E0DAF8003093F8222012B9022256
:1038A00083F8222033783A782C33134423445B780E
:1038B00002EBC3023A709FE720440430FEF770FE2B
:1038C000484B434D18609846002879D02B8973B92E
:1038D0006B8963B9AB8953B9EB8943B92B8A33B987
:1038E0006B8A23B9AB8A13B9EB8A002B68D03C4DA5
:1038F0002846FEF755FE2F46002861D1228B40F264
:10390000FF239A42A5F1080E05F1100C19D16B8A1C
:10391000BBB9AB8AABB9EB8A9BB92B8B8BB96B8BE1
:10392000B3F5807F0DD12B7FFF2B0AD195E80F00D7
:103930008CE80F003378734430330FCB85E80F00E9
:1039400011E0294D2846FEF72BFED8F800308342BF
:1039500036D197E80F0085E80F00337823443033E1
:103960000FCB87E80F00282262713A22A271D8F8A3
:1039700000101E48FF2200256023E2718822237078
:1039800084F82C3084F82820657010226580257119
:1039900084F829500231357004F041FA3078403013
:1039A00020440221FFF752FC337828331C44658001
:1039B000FEF700FB5023C0436080A9F8003003E00D
:1039C0000023A9F80030337003B0BDE8F08F00BFCA
:1039D000DC5D0020F0330020383C00203C3C00201F
:1039E000E45D0020403C0020F45D00200C5E0020DF
:1039F000CC5D0020343C00202DE9F0414C4C4D4F73
:103A000000233B70637063803A238046A37160207B
:103A1000FF232070E37199B96183A183E18321843D
:103A200084F82210022001212376607684F8231086
:103A300084F82430537B84F82530D389E3840CE068
:103A40000B4604F1180601F1100E18685968354646
:103A500003C5083373452E46F7D1872384F82830F1
:103A6000354E002384F82930E36202F1100E13462C
:103A700018685968354603C5083373452E46F7D193
:103A80000026267110462A4DFEF78AFD002836D101
:103A9000B8F1000F0CD04346083508F1100618683D
:103AA00059682A4603C20833B3421546F7D105E0E8
:103AB00005F1180105F10800FEF7C2FE22891C4B32
:103AC0001E4D8AB95A897AB99A896AB9DA895AB976
:103AD0001A8A4AB95A8A3AB99A8A2AB9DB8A1BB928
:103AE0002B803B70BDE8F08138782823403063712B
:103AF00001212044FFF7AAFB50232B800CE0182360
:103B00006B710E4B2E8140226E81AE81EE812E8232
:103B10006E82AE82EE821A803B7828331C440023EA
:103B20006380FEF747FAC0436080BDE8F08100BFC4
:103B3000DC5D0020F03300200C5E0020CC5D002016
:103B400070B5274C602323703A23A371FF23E371E0
:103B500040F2FF23002523834FF4007365706580D6
:103B60006583A583E58325846584A584E38404F1C6
:103B7000180104F10800FEF763FE1A4A137803F1F6
:103B80002801081985260E5545702189257103F1F4
:103B900030001546144A89B9618979B9A18969B992
:103BA000E18959B9218A49B9618A39B9A18A29B902
:103BB000E18A19B908236371108007E0403313804C
:103BC0001823637101212044FFF740FB2B78283331
:103BD0001C4400236380FEF7EDF9C043608070BD94
:103BE000DC5D0020F0330020CC5D002008B50548E6
:103BF000FFF76CFA0448FFF769FA0448BDE808408B
:103C0000FFF764BAD4290020E0290020C829002049
:103C1000024B1B6803B1184718467047643C0020EC
:103C2000014B1860704700BF643C002010B514467B
:103C3000FEF70CFA18B1024BC4611B68836110BD1A
:103C40003831002007B5074B8DF80700186828B1F8
:103C5000054B0DF107021978FDF73AFE03B05DF848
:103C600004FB00BFF06200208165002008B500223F
:103C700002210448FDF72CFE034A00231380034A67
:103C8000137008BDEC290020CC5D0020F03300202B
:103C900070B53A4D2B88002B6ED0B3F5A06F67D866
:103CA000374B1A8B72B95A8B62B99A8B52B9DA8B2D
:103CB00042B91A8C32B95A8C22B99A8C12B9DA8C60
:103CC000002A55D01B7EFF2B4FD02E48FEF748FC14
:103CD00090B92C48FEF7F6FF044620B9FFF7F4F838
:103CE000064650B944E0FEF7D5FF064628B92046FF
:103CF000BDE87040FFF716B8224E3046FEF7CEFE04
:103D00000446F8B90346024601463046FEF792FEE5
:103D1000064668B31C48FEF743FC3246014608B12C
:103D200019482146FFF768FE184B06F1180019697B
:103D30004FF47A73B1FBF3F101F03FFB012386F8F6
:103D4000203012E090F8223093B1022B09D10323E6
:103D500080F822300521103001F02FFB002384F879
:103D600020302046FEF792FE00E00020FFF750FFD3
:103D7000074A00232B80137070BD00BFCC5D00206C
:103D8000DC5D0020F45D0020E45D00203C64002048
:103D9000F033002038B50388054614463BB140F2A5
:103DA0003632934216D000230380032038BDFDF73E
:103DB000FFFC2C4B1870FDF7FBFC2B4B40211870BF
:103DC0002A48FDF737FCFEF7FBF840F236332B802C
:103DD000012038BD02290CD1254C2388002BF4D0BA
:103DE0000120FEF795F92388002BEED0FFF750FF56
:103DF000EBE709D80129E8D1002CE6D01D4B0520BE
:103E00001C60FEF785F9F1E787290BD11A4B0021D9
:103E100003F5A0729869844208BF19822033934247
:103E2000F8D3D2E78829D0D1104B9C4203D1204649
:103E3000FDF71BFCC9E7114B9C4207D12046FDF75B
:103E400014FC18B1FEF746FDFFF722FF0C4B9C4215
:103E5000BBD12046FDF709FC0028B6D0FEF782FC56
:103E6000C4E700BF8065002081650020543C00202D
:103E7000CC5D0020E4620020FC6200207065002020
:103E800060650020074B1B680BB1283302E0064B2E
:103E90001B681833186820B15A68044B1978FDF76D
:103EA00017BD7047EC620020E462002080650020AE
:103EB000F7B5054628B9224803B0BDE8F040FCF745
:103EC0006DBB0388ABB94488ACB98388A3B9C488F7
:103ED0008CB9038983B941894FF6FF7291420AD1A7
:103EE000837B427B017BC07B00901648FCF756FB2E
:103EF00024E0002400E01C462646AB19AF5D5B7849
:103F000003EB0727BFB24FB9002C09DB01D0013406
:103F100011E00D48FCF742FB01240CE0002C04DC0E
:103F20002EB10A48FCF73AFB01E04FF0FF34394666
:103F30000748FCF733FB0236102EDED103B0F0BD8C
:103F4000B5840200C4840200D7840200D884020031
:103F5000DA84020038B5054608B1002404E00848B8
:103F6000BDE83840FCF71ABB295D06480134FCF770
:103F700015FB082C03D00448FCF710FBF4E738BD10
:103F8000DD840200EC840200D8840200082203F0E1
:103F900046BF08B5082203F033FFB0FA80F04009AD
:103FA00008BD000001460148FFF7F0BF8265002010
:103FB00038B14B1C04D04268C36802FB0130704723
:103FC0000020704730B1054B9B68C01A044B80102D
:103FD000584370474FF0FF30704700BFFC29002066
:103FE000ABAAAAAA30B129B1C3684068C91A91FB2B
:103FF000F0F070474FF0FF30704770B50C46054643
:10400000114620461E46FFF7EDFF01466CB1431CEA
:104010000DD022686B5C012000FA02F20EB11A4347
:1040200001E023EA02026A5470BD204670BD002000
:1040300070BD000038B50D4D002818BF05460C486E
:10404000FDF7B9FD044668B1211D2846FFF7A1FF21
:1040500020B12046BDE83840FFF7B4BF2046FDF749
:10406000E3FDEFE74FF0FF3038BD00BFF184020001
:10407000903C002008B50246FFF7B4FF4AB1431C4C
:1040800009D0064B1B5C106843FA00F000F00100F9
:1040900008BD104608BD002008BD00BF843D0020BB
:1040A00010B5074A1368072B9FBF5C1C1460054AB4
:1040B00003609DBF42F8230081600120002010BDF5
:1040C000B83D0020983D0020F8B5104E05460C463E
:1040D0000C2721462846FFF785FF431C16BFB3680F
:1040E000002007FB0030FDF79FFDFFF76BFF014647
:1040F0002846FFF75DFF044628B101462846FFF732
:10410000B9FF0028E5D02046F8BD00BFFC290020FB
:1041100038B505460B48FDF74EFDFFF753FF014646
:104120002846FFF745FF044601462846FFF7A2FF51
:1041300028B921462846BDE83840FFF7C5BF2046CC
:1041400038BD00BF903C00202DE9F84F3F4E0029BC
:1041500018BF0E4607463046FFF76CFF0546013094
:1041600062D13B48FDF773FD0446002850D1394821
:10417000DFF8E890DFF8E0A0FDF71DFDA04605465A
:10418000C5B12846FFF71EFF19F800306BB91AF8C1
:10419000002022B1D10748BF01335210F9E70CB11A
:1041A000434502DA4BB12C4698462846FDF73CFDC4
:1041B0000546E5E7002C46D02546DFF8A4B00024EC
:1041C0005BF82480B8F1000F14D0D8F80890B9F14A
:1041D000000F0FD02846FFF7F5FE01464046FFF7D7
:1041E000E7FE014682464046FFF744FF012801D121
:1041F0005046C8470134082CE2D12846FFF7E2FEBA
:10420000154B00221A5429461248FDF7DEFC2C46B5
:1042100021461048FDF7ECFC2046FFF7D3FE31465F
:104220000546201DFFF7B2FE29463846FFF7C0FEBF
:104230007A6804460021FBF785F9012322463946B6
:104240000548FFF7DAFE2046BDE8F88FF18402004A
:10425000FC290020903C0020843D00207C3C002074
:10426000983D002038B505460846FFF7E3FE0146B5
:104270002846FFF79DFE044601462846FFF7FAFE52
:10428000002814BF2046002038BD000070B50A4643
:1042900004460D46002301460548FFF7AEFE002305
:1042A00006462A4621460348FFF7A7FE304670BD62
:1042B000843D00207C3C002008B5FFF793FE431CA2
:1042C00007D0054B9B680C2202FB003010B1043074
:1042D00008BD002008BD00BFFC290020084B10B518
:1042E0001B689847074B5B689847074B5B68984784
:1042F000064B5B689847064BBDE810405B68184763
:1043000050860200048502002C85020038840200D9
:104310009086020010B507490B88834208DB064CE3
:10432000228880B20244181A08802280012010BD21
:10433000002010BDC23D0020F4420020014B188037
:10434000704700BFC23D0020024B1888024B184442
:10435000704700BFF4420020F43D0020024B0348A8
:104360001B781844704700BFC03D0020C43D0020AA
:10437000014B1888704700BFC23D0020044B1878DD
:10438000C0F1300010F0FF0004BF024B18787047F6
:10439000C03D0020F442002008B5FFF7EFFF024BBC
:1043A0001B88184480B208BDC23D002010B5084CDF
:1043B00022788242014609DBFFF7EEFF0844B0F5A0
:1043C000A06F03DC521A2270012010BD002010BD26
:1043D000C03D002008B5094A0023194622F81310F1
:1043E00001330F2BFAD106490648FFF7CFFD0449E8
:1043F0000548BDE80840FFF7C9BD00BF9A65002029
:10440000F18402008A65002092650020064A00239C
:104410001380064A1380064B30221A70054B064A59
:104420001A60FFF7D7BF00BFF4420020C23D002052
:10443000C03D0020BC3D0020F43D002038B50C46B6
:104440000546FFF7E3FFB4F5A06F064B28BF4FF416
:10445000A06422462946186803F0E1FC024B1C8048
:10446000204638BDBC3D0020C23D002010B51E22B4
:104470000C460146044803F0D2FC214610220348B2
:10448000BDE8104003F0CBBC9A6500208A6500208F
:10449000024B23F810100120704700BF9A650020DE
:1044A000014B33F8100070479A65002008B5044BA3
:1044B0000F3803EBC000FFF769FD012008BD00BF06
:1044C0008A650020024B0F3803EBC000704700BF25
:1044D0008A65002001490248FFF75BBDF1840200B4
:1044E0009265002030B40D460446114620B11A46AC
:1044F0002846234630BC184730BC7047014B1B6A26
:10450000184700BF5086020000207047FFF7F6BF33
:1045100070B505460E460F201449FFF7C7FF144B30
:104520005B689847002815DBFFF718FF0446FFF784
:1045300033FF104B0146DB682046984702280BD01A
:10454000032802D018B1042207E0022205E0024647
:10455000012403E0052200E0012200242846012373
:104560003146FFF7BFFF204670BD00BF82650020C7
:10457000B48602005086020070B504460D4652B162
:104580005068166801F0DCFC29462046FFF7C0FFA2
:1045900008B13246F3E770BDFFF7BABF82B0044BF3
:1045A00008B11B6A00E05B6A019302B0184700BFC4
:1045B000508602000D4B07B59B689847002811DB19
:1045C0001020FFF77FFF0A49FFF7E3FC30B1094BEA
:1045D000DB68019303B05DF804EB1847FFF77AFF3F
:1045E0000028F4D103B05DF804FB00BFB4860200DC
:1045F000826500203884020070470000014B9B68F0
:10460000184700BF9086020070B504460D460E2084
:104610000121FFF73DFF034B294620469B68BDE87B
:1046200070401847388402000346014400208B4242
:1046300004D013F8012B42EA0020F8E7704770B568
:104640000C461E46236811467BB102689DF8105047
:10465000D55425680135256000683246284403F0AA
:10466000E9FB23683344236070BD0260266070BD9F
:104670002DE9F843984600230746C8F80030104655
:104680000D46914603F0FFFB3D4404463E46331978
:104690009D421FD9BE4203D016F8013C262B17D1EC
:1046A000335D3D2B14D122463146484603F0F3FBDF
:1046B00070B9013434442A1B2621204603F050FBF4
:1046C000C8F80040002808BF2846001BBDE8F88352
:1046D0000136DCE70020BDE8F8830C2810B501D8CE
:1046E000C3B204E0B0F5867F94BF0D230E231B01F7
:1046F0000C295BB201D8CCB204E0B1F5867F94BF3F
:104700000D240E242343B0F5867F137008D96FF46F
:10471000867403191B0A0D3890705370022005E04F
:104720000C2885BF0D38507000200120B1F5867F20
:1047300007D96FF486731418CB181B0A6370023004
:1047400002E00C2902D901300D391154013010BD9D
:104750002DE9F84313F07F494FEA13468E4615467C
:104760001C4614BF012100214FEA064806B1013161
:1047700034F0FF0701D0013100E004B101312A46D5
:10478000CEEB0000FFF7A9FFB9F1000F02D0230E16
:104790002B540130B8F1000F01D02E5401301FB15D
:1047A000230A2B54013000E00CB12C540130BDE839
:1047B000F883F8B5069C401A214616461F46FFF7B7
:1047C0008CFF224605463946301803F028FB601955
:1047D000F8BD2DE9F74F9DF834B0DDF83080814603
:1047E0008E4692461F46BBF1000F25D0002408F1EB
:1047F000010225460092009AA24224D33A5D5A450E
:1048000007EB040601D0A04514D1F61A0AEB050205
:10481000CEEB090031460193FFF75FFF019B054492
:1048200019460AEB05003246013403F0F8FA354424
:104830003B19CE460134DEE7CDF8308003B0BDE849
:10484000F04FFFF7B6BF284603B0BDE8F08F000079
:10485000002210B5114604461046FFF7E7F9044B55
:1048600004821860FDF72BFA024B188010BD00BFC0
:10487000F8420020FE420020024B1888013080B22E
:1048800018807047FE420020F8B504460F461646D1
:104890001D46A4220021FAF755FE6771A6712581F5
:1048A000F8BD0000F7B50446012321600371002321
:1048B0000B700E46016800790A7842EA80120A708D
:1048C000206862790178120102F030020A43027016
:1048D000A27A206802F00F0102780A43027022686F
:1048E000A179517022892168120A8A70226821896F
:1048F000D170A279002A00F04081224652F80A5B6A
:104900000435A17A8B4205D212F8011F05F8011B6C
:104910000133F6E7E37C03F0020303F0FF015BB130
:1049200094F86A3000932A46002104F16B030120B9
:10493000FFF73FFF01210544E37C1A0708D5236CEC
:1049400000932A46636C0320FFF733FF03210544DD
:10495000E37CDB060AD594F8243000932A4604F160
:1049600025030420FFF725FF04210544E37C9F066F
:1049700006D52A4600230520FFF7EAFE0521054457
:10498000E37C580606D52A46636E0620FFF7E0FE54
:104990000621054494F91330002B07DA2A46B4F8AF
:1049A00050300720FFF7D4FE07210544237DDA07A6
:1049B0000AD52F230193A36C00932A46E36C0820A9
:1049C000FFF707FF08210544237D1B070AD52F2386
:1049D0000193E36D00932A46236E0B20FFF7F9FE47
:1049E0000B210544237DDF0606D52A46A38B0C2028
:1049F000FFF7AEFE0C210544237D580606D52A4656
:104A0000236A0E20FFF7A4FE0E21054494F914300A
:104A1000002B0CDA26230193D4F8943000932A4615
:104A2000D4F898300F20FFF7D4FE0F210544637DA2
:104A30009A0707D52A46B4F868301120FFF788FE98
:104A400011210544637DDB060AD526230193636D9E
:104A500000932A46A36D1420FFF7BBFE14210544E2
:104A600094F91530002B1CDA636F94F878201B0141
:104A70000AB143F00803B4F87A00002700097A1C51
:104A8000400892B201D01746F9E7002A18BF3A460B
:104A900002F00F02134317202A46FFF759FE172191
:104AA0000544A37D1F071DD5D4F8803094F88420D9
:104AB0001B010AB143F00803B4F88600002700097F
:104AC0007A1C400892B201D01746F9E7002A18BFB5
:104AD0003A4602F00F0213431B202A46FFF738FE26
:104AE0001B210544A37DD80607D52A46D4F88C306F
:104AF0001C20FFF72DFE1C210544E37D1A0708D575
:104B0000236B00932A46636B2320FFF752FE232179
:104B1000054494F91730002B08DAA36B00932A465A
:104B2000E36B2720FFF745FE27210544A37EDB0624
:104B300006D52A46D4F890303C20FFF709FE0544FC
:104B40002368EB1A3E2B11DCB4F89E3013B1FF231F
:104B500005F8013B2846B4F89E20D4F8A01003F0D5
:104B600069F9B4F89E00AD1B284407E0044B054AE0
:104B70000025256028461A6000E0042003B0F0BD3F
:104B8000082A00203C8502002DE9F041104D2F68D5
:104B9000944688460446BE4600F1100220686168CB
:104BA000764603C608349442B646F7D11A466146A3
:104BB0003846A7F8128001F0A7F9102200212868D2
:104BC000FAF7C0FC2B6800225A82BDE8F08100BFD2
:104BD000F84200202DE9F04F0446884685B00021B8
:104BE0009246A422FAF7AEFCC4F8008098F8009030
:104BF0004FEA991984F8049098F80030C3F3011330
:104C0000637198F8002002F00F02A27298F8013048
:104C1000A37198F8021098F80330B9F1010F43EA34
:104C20000123238101D0A74A02E0082A04D9A64A19
:104C3000A64B80201A6041E108F10405294604F1E1
:104C40000B0003F0ECF80822002104F11300FAF73E
:104C500079FCA67A08EB0A033544002703934FF04A
:104C6000100B039B9D4280F028812E7806F0F00304
:104C7000F02B15D10135C8EB0508C8EB0A0A1FFA5D
:104C80008AFABAF1300F8ABF3023A4F89EA0A4F8A4
:104C90009E30B4F89E30C4F8A0500020E8540DE1D6
:104CA00033090D2B06F00F0603D16B7802350D3357
:104CB0000AE00E2B03BFAB786A7803F20D130135BF
:104CC00004BF03EB022303350D2E03D115F8016B4E
:104CD0000D3608E00E2E06D16A782E7802F20D12FB
:104CE00002EB062602351F4404EBD70107F0070349
:104CF00009FA03F2CB7C0E2F43EA0203CB7470D087
:104D00002BD8062F00F0B38018D8032F00F088802E
:104D10000CD8012F40F0C880082E324628BF082248
:104D200084F86A20294604F16B0071E0042F5ED0FC
:104D3000052F40F0B98084F89C90BCE0082F00F06B
:104D4000828070D30B2F75D00C2F40F0AD80314690
:104D50002846FFF769FCA083ADE01B2F00F08D8093
:104D600028D8112F4DD00BD80F2F40F09D8026232F
:104D700000932A46334604F1940104F198006AE056
:104D8000142F6BD0172F40F08F8031462846FFF745
:104D90004BFCC0F3C00300F0070284F878300BFA34
:104DA00002F3A4F87A3020F00F0393400009E36780
